{
  "address": "0x7397aA427b0214744e16c3014392b2054e7b5cBB",
  "abi": [
    {
      "inputs": [
        {
          "internalType": "address",
          "name": "_endpoint",
          "type": "address"
        }
      ],
      "stateMutability": "nonpayable",
      "type": "constructor"
    },
    {
      "inputs": [],
      "name": "EnforcedPause",
      "type": "error"
    },
    {
      "inputs": [],
      "name": "ExpectedPause",
      "type": "error"
    },
    {
      "inputs": [],
      "name": "InvalidDelegate",
      "type": "error"
    },
    {
      "inputs": [],
      "name": "InvalidEndpointCall",
      "type": "error"
    },
    {
      "inputs": [],
      "name": "InvalidInitialization",
      "type": "error"
    },
    {
      "inputs": [
        {
          "internalType": "bytes",
          "name": "options",
          "type": "bytes"
        }
      ],
      "name": "InvalidOptions",
      "type": "error"
    },
    {
      "inputs": [],
      "name": "LzTokenUnavailable",
      "type": "error"
    },
    {
      "inputs": [
        {
          "internalType": "uint32",
          "name": "eid",
          "type": "uint32"
        }
      ],
      "name": "NoPeer",
      "type": "error"
    },
    {
      "inputs": [
        {
          "internalType": "uint256",
          "name": "msgValue",
          "type": "uint256"
        }
      ],
      "name": "NotEnoughNative",
      "type": "error"
    },
    {
      "inputs": [],
      "name": "NotInitializing",
      "type": "error"
    },
    {
      "inputs": [
        {
          "internalType": "address",
          "name": "addr",
          "type": "address"
        }
      ],
      "name": "OnlyEndpoint",
      "type": "error"
    },
    {
      "inputs": [
        {
          "internalType": "uint32",
          "name": "eid",
          "type": "uint32"
        },
        {
          "internalType": "bytes32",
          "name": "sender",
          "type": "bytes32"
        }
      ],
      "name": "OnlyPeer",
      "type": "error"
    },
    {
      "inputs": [
        {
          "internalType": "address",
          "name": "owner",
          "type": "address"
        }
      ],
      "name": "OwnableInvalidOwner",
      "type": "error"
    },
    {
      "inputs": [
        {
          "internalType": "address",
          "name": "account",
          "type": "address"
        }
      ],
      "name": "OwnableUnauthorizedAccount",
      "type": "error"
    },
    {
      "inputs": [],
      "name": "ReentrancyGuardReentrantCall",
      "type": "error"
    },
    {
      "inputs": [
        {
          "internalType": "address",
          "name": "token",
          "type": "address"
        }
      ],
      "name": "SafeERC20FailedOperation",
      "type": "error"
    },
    {
      "anonymous": false,
      "inputs": [
        {
          "indexed": false,
          "internalType": "bytes",
          "name": "payload",
          "type": "bytes"
        }
      ],
      "name": "BridgeInitiated",
      "type": "event"
    },
    {
      "anonymous": false,
      "inputs": [
        {
          "indexed": true,
          "internalType": "address",
          "name": "token",
          "type": "address"
        },
        {
          "indexed": true,
          "internalType": "address",
          "name": "to",
          "type": "address"
        },
        {
          "indexed": false,
          "internalType": "uint256",
          "name": "amount",
          "type": "uint256"
        }
      ],
      "name": "BridgeSuccessful",
      "type": "event"
    },
    {
      "anonymous": false,
      "inputs": [
        {
          "components": [
            {
              "internalType": "uint32",
              "name": "eid",
              "type": "uint32"
            },
            {
              "internalType": "uint16",
              "name": "msgType",
              "type": "uint16"
            },
            {
              "internalType": "bytes",
              "name": "options",
              "type": "bytes"
            }
          ],
          "indexed": false,
          "internalType": "struct EnforcedOptionParam[]",
          "name": "_enforcedOptions",
          "type": "tuple[]"
        }
      ],
      "name": "EnforcedOptionSet",
      "type": "event"
    },
    {
      "anonymous": false,
      "inputs": [
        {
          "indexed": false,
          "internalType": "uint64",
          "name": "version",
          "type": "uint64"
        }
      ],
      "name": "Initialized",
      "type": "event"
    },
    {
      "anonymous": false,
      "inputs": [
        {
          "indexed": true,
          "internalType": "address",
          "name": "previousOwner",
          "type": "address"
        },
        {
          "indexed": true,
          "internalType": "address",
          "name": "newOwner",
          "type": "address"
        }
      ],
      "name": "OwnershipTransferred",
      "type": "event"
    },
    {
      "anonymous": false,
      "inputs": [
        {
          "indexed": false,
          "internalType": "address",
          "name": "account",
          "type": "address"
        }
      ],
      "name": "Paused",
      "type": "event"
    },
    {
      "anonymous": false,
      "inputs": [
        {
          "indexed": false,
          "internalType": "uint32",
          "name": "eid",
          "type": "uint32"
        },
        {
          "indexed": false,
          "internalType": "bytes32",
          "name": "peer",
          "type": "bytes32"
        }
      ],
      "name": "PeerSet",
      "type": "event"
    },
    {
      "anonymous": false,
      "inputs": [
        {
          "indexed": false,
          "internalType": "address",
          "name": "account",
          "type": "address"
        }
      ],
      "name": "Unpaused",
      "type": "event"
    },
    {
      "inputs": [],
      "name": "Initialize",
      "outputs": [],
      "stateMutability": "nonpayable",
      "type": "function"
    },
    {
      "inputs": [
        {
          "components": [
            {
              "internalType": "uint32",
              "name": "srcEid",
              "type": "uint32"
            },
            {
              "internalType": "bytes32",
              "name": "sender",
              "type": "bytes32"
            },
            {
              "internalType": "uint64",
              "name": "nonce",
              "type": "uint64"
            }
          ],
          "internalType": "struct Origin",
          "name": "origin",
          "type": "tuple"
        }
      ],
      "name": "allowInitializePath",
      "outputs": [
        {
          "internalType": "bool",
          "name": "",
          "type": "bool"
        }
      ],
      "stateMutability": "view",
      "type": "function"
    },
    {
      "inputs": [
        {
          "internalType": "address",
          "name": "",
          "type": "address"
        }
      ],
      "name": "approvedToken",
      "outputs": [
        {
          "internalType": "bool",
          "name": "",
          "type": "bool"
        }
      ],
      "stateMutability": "view",
      "type": "function"
    },
    {
      "inputs": [
        {
          "internalType": "uint32",
          "name": "_eid",
          "type": "uint32"
        },
        {
          "internalType": "uint16",
          "name": "_msgType",
          "type": "uint16"
        },
        {
          "internalType": "bytes",
          "name": "_extraOptions",
          "type": "bytes"
        }
      ],
      "name": "combineOptions",
      "outputs": [
        {
          "internalType": "bytes",
          "name": "",
          "type": "bytes"
        }
      ],
      "stateMutability": "view",
      "type": "function"
    },
    {
      "inputs": [],
      "name": "endpoint",
      "outputs": [
        {
          "internalType": "contract ILayerZeroEndpointV2",
          "name": "",
          "type": "address"
        }
      ],
      "stateMutability": "view",
      "type": "function"
    },
    {
      "inputs": [
        {
          "internalType": "uint32",
          "name": "_eid",
          "type": "uint32"
        },
        {
          "internalType": "uint16",
          "name": "_msgType",
          "type": "uint16"
        }
      ],
      "name": "enforcedOptions",
      "outputs": [
        {
          "internalType": "bytes",
          "name": "",
          "type": "bytes"
        }
      ],
      "stateMutability": "view",
      "type": "function"
    },
    {
      "inputs": [
        {
          "components": [
            {
              "internalType": "uint32",
              "name": "srcEid",
              "type": "uint32"
            },
            {
              "internalType": "bytes32",
              "name": "sender",
              "type": "bytes32"
            },
            {
              "internalType": "uint64",
              "name": "nonce",
              "type": "uint64"
            }
          ],
          "internalType": "struct Origin",
          "name": "",
          "type": "tuple"
        },
        {
          "internalType": "bytes",
          "name": "",
          "type": "bytes"
        },
        {
          "internalType": "address",
          "name": "_sender",
          "type": "address"
        }
      ],
      "name": "isComposeMsgSender",
      "outputs": [
        {
          "internalType": "bool",
          "name": "",
          "type": "bool"
        }
      ],
      "stateMutability": "view",
      "type": "function"
    },
    {
      "inputs": [
        {
          "components": [
            {
              "internalType": "uint32",
              "name": "srcEid",
              "type": "uint32"
            },
            {
              "internalType": "bytes32",
              "name": "sender",
              "type": "bytes32"
            },
            {
              "internalType": "uint64",
              "name": "nonce",
              "type": "uint64"
            }
          ],
          "internalType": "struct Origin",
          "name": "_origin",
          "type": "tuple"
        },
        {
          "internalType": "bytes32",
          "name": "_guid",
          "type": "bytes32"
        },
        {
          "internalType": "bytes",
          "name": "_message",
          "type": "bytes"
        },
        {
          "internalType": "address",
          "name": "_executor",
          "type": "address"
        },
        {
          "internalType": "bytes",
          "name": "_extraData",
          "type": "bytes"
        }
      ],
      "name": "lzReceive",
      "outputs": [],
      "stateMutability": "payable",
      "type": "function"
    },
    {
      "inputs": [
        {
          "internalType": "uint32",
          "name": "",
          "type": "uint32"
        },
        {
          "internalType": "bytes32",
          "name": "",
          "type": "bytes32"
        }
      ],
      "name": "nextNonce",
      "outputs": [
        {
          "internalType": "uint64",
          "name": "nonce",
          "type": "uint64"
        }
      ],
      "stateMutability": "view",
      "type": "function"
    },
    {
      "inputs": [],
      "name": "oAppVersion",
      "outputs": [
        {
          "internalType": "uint64",
          "name": "senderVersion",
          "type": "uint64"
        },
        {
          "internalType": "uint64",
          "name": "receiverVersion",
          "type": "uint64"
        }
      ],
      "stateMutability": "pure",
      "type": "function"
    },
    {
      "inputs": [],
      "name": "owner",
      "outputs": [
        {
          "internalType": "address",
          "name": "",
          "type": "address"
        }
      ],
      "stateMutability": "view",
      "type": "function"
    },
    {
      "inputs": [],
      "name": "pause",
      "outputs": [],
      "stateMutability": "nonpayable",
      "type": "function"
    },
    {
      "inputs": [],
      "name": "paused",
      "outputs": [
        {
          "internalType": "bool",
          "name": "",
          "type": "bool"
        }
      ],
      "stateMutability": "view",
      "type": "function"
    },
    {
      "inputs": [
        {
          "internalType": "uint32",
          "name": "_eid",
          "type": "uint32"
        }
      ],
      "name": "peers",
      "outputs": [
        {
          "internalType": "bytes32",
          "name": "",
          "type": "bytes32"
        }
      ],
      "stateMutability": "view",
      "type": "function"
    },
    {
      "inputs": [
        {
          "internalType": "bytes32",
          "name": "",
          "type": "bytes32"
        }
      ],
      "name": "processed",
      "outputs": [
        {
          "internalType": "bool",
          "name": "",
          "type": "bool"
        }
      ],
      "stateMutability": "view",
      "type": "function"
    },
    {
      "inputs": [
        {
          "internalType": "uint32",
          "name": "_dstEid",
          "type": "uint32"
        },
        {
          "internalType": "string",
          "name": "_message",
          "type": "string"
        },
        {
          "internalType": "bytes",
          "name": "_options",
          "type": "bytes"
        },
        {
          "internalType": "bool",
          "name": "_payInLzToken",
          "type": "bool"
        }
      ],
      "name": "quote",
      "outputs": [
        {
          "components": [
            {
              "internalType": "uint256",
              "name": "nativeFee",
              "type": "uint256"
            },
            {
              "internalType": "uint256",
              "name": "lzTokenFee",
              "type": "uint256"
            }
          ],
          "internalType": "struct MessagingFee",
          "name": "fee",
          "type": "tuple"
        }
      ],
      "stateMutability": "view",
      "type": "function"
    },
    {
      "inputs": [],
      "name": "renounceOwnership",
      "outputs": [],
      "stateMutability": "nonpayable",
      "type": "function"
    },
    {
      "inputs": [
        {
          "internalType": "uint32",
          "name": "_dstEid",
          "type": "uint32"
        },
        {
          "internalType": "string",
          "name": "_message",
          "type": "string"
        },
        {
          "internalType": "bytes",
          "name": "_options",
          "type": "bytes"
        },
        {
          "internalType": "address",
          "name": "token",
          "type": "address"
        }
      ],
      "name": "send",
      "outputs": [
        {
          "components": [
            {
              "internalType": "bytes32",
              "name": "guid",
              "type": "bytes32"
            },
            {
              "internalType": "uint64",
              "name": "nonce",
              "type": "uint64"
            },
            {
              "components": [
                {
                  "internalType": "uint256",
                  "name": "nativeFee",
                  "type": "uint256"
                },
                {
                  "internalType": "uint256",
                  "name": "lzTokenFee",
                  "type": "uint256"
                }
              ],
              "internalType": "struct MessagingFee",
              "name": "fee",
              "type": "tuple"
            }
          ],
          "internalType": "struct MessagingReceipt",
          "name": "receipt",
          "type": "tuple"
        }
      ],
      "stateMutability": "payable",
      "type": "function"
    },
    {
      "inputs": [
        {
          "internalType": "address",
          "name": "_token",
          "type": "address"
        },
        {
          "internalType": "bool",
          "name": "_status",
          "type": "bool"
        }
      ],
      "name": "setApprovedToken",
      "outputs": [],
      "stateMutability": "nonpayable",
      "type": "function"
    },
    {
      "inputs": [
        {
          "internalType": "address",
          "name": "_delegate",
          "type": "address"
        }
      ],
      "name": "setDelegate",
      "outputs": [],
      "stateMutability": "nonpayable",
      "type": "function"
    },
    {
      "inputs": [
        {
          "components": [
            {
              "internalType": "uint32",
              "name": "eid",
              "type": "uint32"
            },
            {
              "internalType": "uint16",
              "name": "msgType",
              "type": "uint16"
            },
            {
              "internalType": "bytes",
              "name": "options",
              "type": "bytes"
            }
          ],
          "internalType": "struct EnforcedOptionParam[]",
          "name": "_enforcedOptions",
          "type": "tuple[]"
        }
      ],
      "name": "setEnforcedOptions",
      "outputs": [],
      "stateMutability": "nonpayable",
      "type": "function"
    },
    {
      "inputs": [
        {
          "internalType": "uint32",
          "name": "_eid",
          "type": "uint32"
        },
        {
          "internalType": "bytes32",
          "name": "_peer",
          "type": "bytes32"
        }
      ],
      "name": "setPeer",
      "outputs": [],
      "stateMutability": "nonpayable",
      "type": "function"
    },
    {
      "inputs": [
        {
          "internalType": "address",
          "name": "newOwner",
          "type": "address"
        }
      ],
      "name": "transferOwnership",
      "outputs": [],
      "stateMutability": "nonpayable",
      "type": "function"
    },
    {
      "inputs": [],
      "name": "unpause",
      "outputs": [],
      "stateMutability": "nonpayable",
      "type": "function"
    },
    {
      "inputs": [
        {
          "internalType": "address",
          "name": "token",
          "type": "address"
        },
        {
          "internalType": "address",
          "name": "receiver",
          "type": "address"
        },
        {
          "internalType": "uint256",
          "name": "amount",
          "type": "uint256"
        }
      ],
      "name": "withdrawErc20",
      "outputs": [],
      "stateMutability": "nonpayable",
      "type": "function"
    }
  ],
  "transactionHash": "0x27106aa25aeb4a5a873edd7fc1d5c2b5ac21d15d0755a62f6429db722338f4c3",
  "args": [
    "0x6EDCE65403992e310A62460808c4b910D972f10f"
  ],
  "numDeployments": 1,
  "solcInputHash": "26ea17997ef8683e63d7855431deeeb4",
  "bytecode": "0x60a06040523480156200001157600080fd5b5060405162002a4338038062002a43833981016040819052620000349162000046565b6001600160a01b031660805262000078565b6000602082840312156200005957600080fd5b81516001600160a01b03811681146200007157600080fd5b9392505050565b608051612985620000be600039600081816102a00152818161055001528181610c56015281816115e2015281816116e401528181611b030152611bbc01526129856000f3fe6080604052600436106101665760003560e01c806380f86009116100d1578063bc70b3541161008a578063d2b1628d11610064578063d2b1628d146104c1578063f2fde38b146104e1578063f77e5dd314610501578063ff7bd03d1461052e57600080fd5b8063bc70b35414610451578063c1f0808a14610471578063ca5eb5e1146104a157600080fd5b806380f860091461034a57806382413eac1461035f5780638456cb591461037f5780638da5cb5b14610394578063b98bd070146103d1578063bb0b6a53146103f157600080fd5b80635535d461116101235780635535d4611461023c5780635c975abb146102695780635e280f111461028e578063715018a6146102da5780637d25a05e146102ef5780637e6a34001461032a57600080fd5b806313137d651461016b5780631593dee11461018057806317442b70146101a05780633400288b146101c75780633f4ba83a146101e75780634df87c09146101fc575b600080fd5b61017e610179366004611d9f565b61054e565b005b34801561018c57600080fd5b5061017e61019b366004611e3e565b61060e565b3480156101ac57600080fd5b50604080516001815260026020820152015b60405180910390f35b3480156101d357600080fd5b5061017e6101e2366004611e98565b61062f565b3480156101f357600080fd5b5061017e6106ae565b34801561020857600080fd5b5061022c610217366004611ec2565b60006020819052908152604090205460ff1681565b60405190151581526020016101be565b34801561024857600080fd5b5061025c610257366004611ef1565b6106c0565b6040516101be9190611f74565b34801561027557600080fd5b506000805160206129108339815191525460ff1661022c565b34801561029a57600080fd5b506102c27f000000000000000000000000000000000000000000000000000000000000000081565b6040516001600160a01b0390911681526020016101be565b3480156102e657600080fd5b5061017e61079c565b3480156102fb57600080fd5b5061031261030a366004611e98565b600092915050565b6040516001600160401b0390911681526020016101be565b34801561033657600080fd5b5061017e610345366004611f97565b6107ae565b34801561035657600080fd5b5061017e6107e1565b34801561036b57600080fd5b5061022c61037a366004611fc3565b6108f3565b34801561038b57600080fd5b5061017e610908565b3480156103a057600080fd5b507f9016d09d72d40fdae2fd8ceac6b6234c7706214fd39c1cd1e609a0528c199300546001600160a01b03166102c2565b3480156103dd57600080fd5b5061017e6103ec366004612029565b610918565b3480156103fd57600080fd5b5061044361040c36600461209d565b63ffffffff1660009081527f72ab1bc1039b79dc4724ffca13de82c96834302d3c7e0d4252232d4b2dd8f900602052604090205490565b6040519081526020016101be565b34801561045d57600080fd5b5061025c61046c3660046120b8565b610a99565b34801561047d57600080fd5b5061022c61048c366004612118565b60016020526000908152604090205460ff1681565b3480156104ad57600080fd5b5061017e6104bc366004611ec2565b610c2f565b6104d46104cf3660046121dc565b610cae565b6040516101be919061226a565b3480156104ed57600080fd5b5061017e6104fc366004611ec2565b610ed4565b34801561050d57600080fd5b5061052161051c3660046122ac565b610f12565b6040516101be9190612344565b34801561053a57600080fd5b5061022c61054936600461235b565b610f60565b7f00000000000000000000000000000000000000000000000000000000000000006001600160a01b0316331461059e576040516391ac5e4f60e01b81523360048201526024015b60405180910390fd5b602087018035906105b8906105b3908a61209d565b610f7e565b146105f6576105ca602088018861209d565b60405163309afaf360e21b815263ffffffff909116600482015260208801356024820152604401610595565b61060587878787878787610fe2565b50505050505050565b610616611200565b61062a6001600160a01b038416838361125b565b505050565b610637611200565b63ffffffff821660008181527f72ab1bc1039b79dc4724ffca13de82c96834302d3c7e0d4252232d4b2dd8f900602081815260409283902085905582519384528301849052917f238399d427b947898edb290f5ff0f9109849b1c3ba196a42e35f00c50a54b98b91015b60405180910390a1505050565b6106b6611200565b6106be6112ba565b565b63ffffffff821660009081527f8d2bda5d9f6ffb5796910376005392955773acee5548d0fcdb10e7c264ea00006020818152604080842061ffff861685529091529091208054606092919061071490612377565b80601f016020809104026020016040519081016040528092919081815260200182805461074090612377565b801561078d5780601f106107625761010080835404028352916020019161078d565b820191906000526020600020905b81548152906001019060200180831161077057829003601f168201915b50505050509150505b92915050565b6107a4611200565b6106be600061131a565b6107b6611200565b6001600160a01b03919091166000908152602081905260409020805460ff1916911515919091179055565b60006107eb61138b565b805490915060ff600160401b82041615906001600160401b03166000811580156108125750825b90506000826001600160401b0316600114801561082e5750303b155b90508115801561083c575080155b1561085a5760405163f92ee8a960e01b815260040160405180910390fd5b845467ffffffffffffffff19166001178555831561088457845460ff60401b1916600160401b1785555b61088d336113b4565b610896336113d5565b61089e6113e6565b6108a66113ee565b83156108ec57845460ff60401b19168555604051600181527fc7f505b2f371ae2175ee4913f4499e1f2633a7b5936321eed1cdaeb6115181d29060200160405180910390a15b5050505050565b6001600160a01b03811630145b949350505050565b610910611200565b6106be6113fe565b610920611200565b7f8d2bda5d9f6ffb5796910376005392955773acee5548d0fcdb10e7c264ea000060005b82811015610a6757610986848483818110610961576109616123ab565b905060200281019061097391906123c1565b6109819060408101906123e1565b611447565b838382818110610998576109986123ab565b90506020028101906109aa91906123c1565b6109b89060408101906123e1565b8360008787868181106109cd576109cd6123ab565b90506020028101906109df91906123c1565b6109ed90602081019061209d565b63ffffffff1663ffffffff1681526020019081526020016000206000878786818110610a1b57610a1b6123ab565b9050602002810190610a2d91906123c1565b610a3e906040810190602001612427565b61ffff168152602081019190915260400160002091610a5e919083612492565b50600101610944565b507fbe4864a8e820971c0247f5992e2da559595f7bf076a21cb5928d443d2a13b67483836040516106a192919061257a565b63ffffffff841660009081527f8d2bda5d9f6ffb5796910376005392955773acee5548d0fcdb10e7c264ea00006020818152604080842061ffff88168552909152822080546060939190610aec90612377565b80601f0160208091040260200160405190810160405280929190818152602001828054610b1890612377565b8015610b655780601f10610b3a57610100808354040283529160200191610b65565b820191906000526020600020905b815481529060010190602001808311610b4857829003601f168201915b505050505090508051600003610bb65784848080601f016020809104026020016040519081016040528093929190818152602001838380828437600092019190915250929550610900945050505050565b6000849003610bc85791506109009050565b60028410610c1257610bda8585611447565b80610be8856002818961265e565b604051602001610bfa93929190612688565b60405160208183030381529060405292505050610900565b8484604051639a6d49cd60e01b81526004016105959291906126b0565b610c37611200565b60405163ca5eb5e160e01b81526001600160a01b0382811660048301527f0000000000000000000000000000000000000000000000000000000000000000169063ca5eb5e190602401600060405180830381600087803b158015610c9a57600080fd5b505af11580156108ec573d6000803e3d6000fd5b610cb6611ce3565b610cbe611200565b610cc6611489565b610cce6114ba565b6001600160a01b038216610d245760405162461bcd60e51b815260206004820152601a60248201527f4252494447453a205a45524f5f544f4b454e5f414444524553530000000000006044820152606401610595565b6001600160a01b03821660009081526020819052604090205460ff16610d885760405162461bcd60e51b81526020600482015260196024820152781094925111d14e881513d2d15397d393d517d0531313d5d151603a1b6044820152606401610595565b600085604051602001610d9b9190611f74565b60405160208183030381529060405290506000806000610dba896114f2565b91945092509050610dd66001600160a01b038716333084611570565b60008111610e1f5760405162461bcd60e51b81526020600482015260166024820152751094925111d14e881253959053125117d05353d5539560521b6044820152606401610595565b610e778a858a8a8080601f016020809104026020016040519081016040528093929190818152602001838380828437600092018290525060408051808201909152348152602081019190915292503391506115af9050565b94507f24b4ba7a64b8d36c46ac27e3968f1a15819cccab0bcd3538a6c6f3b213fb09ef84604051610ea89190611f74565b60405180910390a150505050610ecb600160008051602061293083398151915255565b95945050505050565b610edc611200565b6001600160a01b038116610f0657604051631e4fbdf760e01b815260006004820152602401610595565b610f0f8161131a565b50565b6040805180820190915260008082526020820152600084604051602001610f399190611f74565b6040516020818303038152906040529050610f56868286866116ce565b9695505050505050565b600060208201803590610f779061040c908561209d565b1492915050565b63ffffffff811660009081527f72ab1bc1039b79dc4724ffca13de82c96834302d3c7e0d4252232d4b2dd8f9006020819052604082205480610fdb5760405163f6ff4fb760e01b815263ffffffff85166004820152602401610595565b9392505050565b610fea611489565b610ff26114ba565b60008681526001602052604090205460ff16156110515760405162461bcd60e51b815260206004820152601860248201527f4252494447453a204455504c49434154455f5041434b455400000000000000006044820152606401610595565b60008681526001602081905260408220805460ff19169091179055808061107a87890189611e3e565b6001600160a01b038316600090815260208190526040902054929550909350915060ff166110e65760405162461bcd60e51b81526020600482015260196024820152781094925111d14e881513d2d15397d393d517d0531313d5d151603a1b6044820152606401610595565b6001600160a01b03821661113c5760405162461bcd60e51b815260206004820152601960248201527f4252494447453a20494e56414c49445f524543495049454e54000000000000006044820152606401610595565b600081116111855760405162461bcd60e51b81526020600482015260166024820152751094925111d14e881253959053125117d05353d5539560521b6044820152606401610595565b6111996001600160a01b038416838361125b565b816001600160a01b0316836001600160a01b03167fbe1b1b6b6c5085aa2f343eaf445f7800ca31b1495a40993677c07aba6a737ad3836040516111de91815260200190565b60405180910390a3505050610605600160008051602061293083398151915255565b336112327f9016d09d72d40fdae2fd8ceac6b6234c7706214fd39c1cd1e609a0528c199300546001600160a01b031690565b6001600160a01b0316146106be5760405163118cdaa760e01b8152336004820152602401610595565b6040516001600160a01b0383811660248301526044820183905261062a91859182169063a9059cbb906064015b604051602081830303815290604052915060e01b6020820180516001600160e01b0383818316178352505050506117a6565b6112c2611817565b600080516020612910833981519152805460ff191681557f5db9ee0a495bf2e6ff9c91a7834c1ba4fdd244a5e8aa4e537bd38aeae4b073aa335b6040516001600160a01b03909116815260200160405180910390a150565b7f9016d09d72d40fdae2fd8ceac6b6234c7706214fd39c1cd1e609a0528c19930080546001600160a01b031981166001600160a01b03848116918217845560405192169182907f8be0079c531659141344cd1fd0a4f28419497f9722a3daafe3b4186f6b6457e090600090a3505050565b6000807ff0c57e16840df040f15088dc2f81fe391c3923bec73e23a9662efc9c229c6a00610796565b6113bc611847565b6113c58161186c565b6113cd6113e6565b610f0f6113e6565b6113dd611847565b610f0f8161187d565b6106be611847565b6113f6611847565b6106be611885565b611406611489565b600080516020612910833981519152805460ff191660011781557f62e78cea01bee320cd4e420270b5ea74000d11b0c9f74754ebdbfc544b05a258336112fc565b6000611456600282848661265e565b61145f916126c4565b60f01c90506003811461062a578282604051639a6d49cd60e01b81526004016105959291906126b0565b6000805160206129108339815191525460ff16156106be5760405163d93c066560e01b815260040160405180910390fd5b6000805160206129308339815191528054600119016114ec57604051633ee5aeb560e01b815260040160405180910390fd5b60029055565b6000806000806115018561188d565b905080516060146115545760405162461bcd60e51b815260206004820152601d60248201527f496e76616c6964207061636b6564207061796c6f6164206c656e6774680000006044820152606401610595565b6020810151604082015160609092015190969195509350915050565b6040516001600160a01b0384811660248301528381166044830152606482018390526115a99186918216906323b872dd90608401611288565b50505050565b6115b7611ce3565b60006115c68460000151611ad7565b6020850151909150156115e0576115e08460200151611aff565b7f00000000000000000000000000000000000000000000000000000000000000006001600160a01b0316632637a450826040518060a001604052808b63ffffffff1681526020016116308c610f7e565b81526020018a815260200189815260200160008960200151111515815250866040518463ffffffff1660e01b815260040161166c9291906126f4565b60806040518083038185885af115801561168a573d6000803e3d6000fd5b50505050506040513d601f19601f820116820180604052508101906116af91906127bb565b979650505050505050565b600160008051602061293083398151915255565b60408051808201909152600080825260208201527f00000000000000000000000000000000000000000000000000000000000000006001600160a01b031663ddc28c586040518060a001604052808863ffffffff16815260200161173189610f7e565b8152602001878152602001868152602001851515815250306040518363ffffffff1660e01b81526004016117669291906126f4565b6040805180830381865afa158015611782573d6000803e3d6000fd5b505050506040513d601f19601f82011682018060405250810190610ecb919061282c565b600080602060008451602086016000885af1806117c9576040513d6000823e3d81fd5b50506000513d915081156117e15780600114156117ee565b6001600160a01b0384163b155b156115a957604051635274afe760e01b81526001600160a01b0385166004820152602401610595565b6000805160206129108339815191525460ff166106be57604051638dfc202b60e01b815260040160405180910390fd5b61184f611be5565b6106be57604051631afcd79f60e31b815260040160405180910390fd5b611874611847565b610f0f81611bff565b610edc611847565b6116ba611847565b6060600082905060028151101580156118cb5750806000815181106118b4576118b46123ab565b6020910101516001600160f81b031916600360fc1b145b801561192b5750806001815181106118e5576118e56123ab565b6020910101516001600160f81b031916600f60fb1b148061192b575080600181518110611914576119146123ab565b6020910101516001600160f81b031916600b60fb1b145b61196c5760405162461bcd60e51b815260206004820152601260248201527109aeae6e840e6e8c2e4e840eed2e8d04060f60731b6044820152606401610595565b600280825161197b919061285e565b6119859190612887565b156119d25760405162461bcd60e51b815260206004820152601e60248201527f48657820737472696e67206c656e677468206d757374206265206576656e00006044820152606401610595565b600060028083516119e3919061285e565b6119ed919061289b565b90506000816001600160401b03811115611a0957611a09612131565b6040519080825280601f01601f191660200182016040528015611a33576020820181803683370190505b50905060005b82811015611ace57611a7884611a508360026128af565b611a5b9060036128c6565b81518110611a6b57611a6b6123ab565b016020015160f81c611c2e565b6004611a9486611a898560026128af565b611a5b9060026128c6565b60ff16901b1760f81b828281518110611aaf57611aaf6123ab565b60200101906001600160f81b031916908160001a905350600101611a39565b50949350505050565b6000813414611afb576040516304fb820960e51b8152346004820152602401610595565b5090565b60007f00000000000000000000000000000000000000000000000000000000000000006001600160a01b031663e4fe1d946040518163ffffffff1660e01b8152600401602060405180830381865afa158015611b5f573d6000803e3d6000fd5b505050506040513d601f19601f82011682018060405250810190611b8391906128d9565b90506001600160a01b038116611bac576040516329b99a9560e11b815260040160405180910390fd5b611be16001600160a01b038216337f000000000000000000000000000000000000000000000000000000000000000085611570565b5050565b6000611bef61138b565b54600160401b900460ff16919050565b611c07611847565b6001600160a01b038116610c3757604051632d618d8160e21b815260040160405180910390fd5b600060308260ff1610158015611c48575060398260ff1611155b15611c58576107966030836128f6565b60618260ff1610158015611c70575060668260ff1611155b15611c80576107966057836128f6565b60418260ff1610158015611c98575060468260ff1611155b15611ca8576107966037836128f6565b60405162461bcd60e51b815260206004820152601060248201526f24b73b30b634b2103432bc1031b430b960811b6044820152606401610595565b60405180606001604052806000801916815260200160006001600160401b03168152602001611d25604051806040016040528060008152602001600081525090565b905290565b600060608284031215611d3c57600080fd5b50919050565b60008083601f840112611d5457600080fd5b5081356001600160401b03811115611d6b57600080fd5b602083019150836020828501011115611d8357600080fd5b9250929050565b6001600160a01b0381168114610f0f57600080fd5b600080600080600080600060e0888a031215611dba57600080fd5b611dc48989611d2a565b96506060880135955060808801356001600160401b0380821115611de757600080fd5b611df38b838c01611d42565b909750955060a08a01359150611e0882611d8a565b90935060c08901359080821115611e1e57600080fd5b50611e2b8a828b01611d42565b989b979a50959850939692959293505050565b600080600060608486031215611e5357600080fd5b8335611e5e81611d8a565b92506020840135611e6e81611d8a565b929592945050506040919091013590565b803563ffffffff81168114611e9357600080fd5b919050565b60008060408385031215611eab57600080fd5b611eb483611e7f565b946020939093013593505050565b600060208284031215611ed457600080fd5b8135610fdb81611d8a565b803561ffff81168114611e9357600080fd5b60008060408385031215611f0457600080fd5b611f0d83611e7f565b9150611f1b60208401611edf565b90509250929050565b60005b83811015611f3f578181015183820152602001611f27565b50506000910152565b60008151808452611f60816020860160208601611f24565b601f01601f19169290920160200192915050565b602081526000610fdb6020830184611f48565b80358015158114611e9357600080fd5b60008060408385031215611faa57600080fd5b8235611fb581611d8a565b9150611f1b60208401611f87565b60008060008060a08587031215611fd957600080fd5b611fe38686611d2a565b935060608501356001600160401b03811115611ffe57600080fd5b61200a87828801611d42565b909450925050608085013561201e81611d8a565b939692955090935050565b6000806020838503121561203c57600080fd5b82356001600160401b038082111561205357600080fd5b818501915085601f83011261206757600080fd5b81358181111561207657600080fd5b8660208260051b850101111561208b57600080fd5b60209290920196919550909350505050565b6000602082840312156120af57600080fd5b610fdb82611e7f565b600080600080606085870312156120ce57600080fd5b6120d785611e7f565b93506120e560208601611edf565b925060408501356001600160401b0381111561210057600080fd5b61210c87828801611d42565b95989497509550505050565b60006020828403121561212a57600080fd5b5035919050565b634e487b7160e01b600052604160045260246000fd5b60006001600160401b038084111561216157612161612131565b604051601f8501601f19908116603f0116810190828211818310171561218957612189612131565b816040528093508581528686860111156121a257600080fd5b858560208301376000602087830101525050509392505050565b600082601f8301126121cd57600080fd5b610fdb83833560208501612147565b6000806000806000608086880312156121f457600080fd5b6121fd86611e7f565b945060208601356001600160401b038082111561221957600080fd5b61222589838a016121bc565b9550604088013591508082111561223b57600080fd5b5061224888828901611d42565b909450925050606086013561225c81611d8a565b809150509295509295909350565b6000608082019050825182526001600160401b03602084015116602083015260408301516122a5604084018280518252602090810151910152565b5092915050565b600080600080608085870312156122c257600080fd5b6122cb85611e7f565b935060208501356001600160401b03808211156122e757600080fd5b6122f3888389016121bc565b9450604087013591508082111561230957600080fd5b508501601f8101871361231b57600080fd5b61232a87823560208401612147565b92505061233960608601611f87565b905092959194509250565b815181526020808301519082015260408101610796565b60006060828403121561236d57600080fd5b610fdb8383611d2a565b600181811c9082168061238b57607f821691505b602082108103611d3c57634e487b7160e01b600052602260045260246000fd5b634e487b7160e01b600052603260045260246000fd5b60008235605e198336030181126123d757600080fd5b9190910192915050565b6000808335601e198436030181126123f857600080fd5b8301803591506001600160401b0382111561241257600080fd5b602001915036819003821315611d8357600080fd5b60006020828403121561243957600080fd5b610fdb82611edf565b601f82111561062a576000816000526020600020601f850160051c8101602086101561246b5750805b601f850160051c820191505b8181101561248a57828155600101612477565b505050505050565b6001600160401b038311156124a9576124a9612131565b6124bd836124b78354612377565b83612442565b6000601f8411600181146124f157600085156124d95750838201355b600019600387901b1c1916600186901b1783556108ec565b600083815260209020601f19861690835b828110156125225786850135825560209485019460019092019101612502565b508682101561253f5760001960f88860031b161c19848701351681555b505060018560011b0183555050505050565b81835281816020850137506000828201602090810191909152601f909101601f19169091010190565b60208082528181018390526000906040808401600586901b8501820187855b8881101561265057878303603f190184528135368b9003605e190181126125bf57600080fd5b8a01606063ffffffff6125d183611e7f565b16855261ffff6125e2898401611edf565b168886015286820135601e198336030181126125fd57600080fd5b9091018781019190356001600160401b0381111561261a57600080fd5b80360383131561262957600080fd5b818887015261263b8287018285612551565b96890196955050509186019150600101612599565b509098975050505050505050565b6000808585111561266e57600080fd5b8386111561267b57600080fd5b5050820193919092039150565b6000845161269a818460208901611f24565b8201838582376000930192835250909392505050565b602081526000610900602083018486612551565b6001600160f01b031981358181169160028510156126ec5780818660020360031b1b83161692505b505092915050565b6040815263ffffffff8351166040820152602083015160608201526000604084015160a0608084015261272a60e0840182611f48565b90506060850151603f198483030160a08501526127478282611f48565b60809690960151151560c08501525050506001600160a01b039190911660209091015290565b60006040828403121561277f57600080fd5b604051604081018181106001600160401b03821117156127a1576127a1612131565b604052825181526020928301519281019290925250919050565b6000608082840312156127cd57600080fd5b604051606081016001600160401b0382821081831117156127f0576127f0612131565b816040528451835260208501519150808216821461280d57600080fd5b506020820152612820846040850161276d565b60408201529392505050565b60006040828403121561283e57600080fd5b610fdb838361276d565b634e487b7160e01b600052601160045260246000fd5b8181038181111561079657610796612848565b634e487b7160e01b600052601260045260246000fd5b60008261289657612896612871565b500690565b6000826128aa576128aa612871565b500490565b808202811582820484141761079657610796612848565b8082018082111561079657610796612848565b6000602082840312156128eb57600080fd5b8151610fdb81611d8a565b60ff82811682821603908111156107965761079661284856fecd5ed15c6e187e77e9aee88184c21f4f2182ab5827cb3b7e07fbedcd63f033009b779b17422d0df92223018b32b4d1fa46e071723d6817e2486d003becc55f00a26469706673582212202a39cde11239fd3bad2a780090164d6ae087c7fed4551118604d29e39937f64864736f6c63430008160033",
  "devdoc": {
    "errors": {
      "EnforcedPause()": [
        {
          "details": "The operation failed because the contract is paused."
        }
      ],
      "ExpectedPause()": [
        {
          "details": "The operation failed because the contract is not paused."
        }
      ],
      "InvalidInitialization()": [
        {
          "details": "The contract is already initialized."
        }
      ],
      "NotInitializing()": [
        {
          "details": "The contract is not initializing."
        }
      ],
      "OwnableInvalidOwner(address)": [
        {
          "details": "The owner is not a valid owner account. (eg. `address(0)`)"
        }
      ],
      "OwnableUnauthorizedAccount(address)": [
        {
          "details": "The caller account is not authorized to perform an operation."
        }
      ],
      "ReentrancyGuardReentrantCall()": [
        {
          "details": "Unauthorized reentrant call."
        }
      ],
      "SafeERC20FailedOperation(address)": [
        {
          "details": "An operation with an ERC-20 token failed."
        }
      ]
    },
    "events": {
      "Initialized(uint64)": {
        "details": "Triggered when the contract has been initialized or reinitialized."
      },
      "Paused(address)": {
        "details": "Emitted when the pause is triggered by `account`."
      },
      "Unpaused(address)": {
        "details": "Emitted when the pause is lifted by `account`."
      }
    },
    "kind": "dev",
    "methods": {
      "allowInitializePath((uint32,bytes32,uint64))": {
        "details": "This indicates to the endpoint that the OApp has enabled msgs for this particular path to be received.This defaults to assuming if a peer has been set, its initialized. Can be overridden by the OApp if there is other logic to determine this.",
        "params": {
          "origin": "The origin information containing the source endpoint and sender address."
        },
        "returns": {
          "_0": "Whether the path has been initialized."
        }
      },
      "combineOptions(uint32,uint16,bytes)": {
        "details": "If there is an enforced lzReceive option: - {gasLimit: 200k, msg.value: 1 ether} AND a caller supplies a lzReceive option: {gasLimit: 100k, msg.value: 0.5 ether} - The resulting options will be {gasLimit: 300k, msg.value: 1.5 ether} when the message is executed on the remote lzReceive() function.This presence of duplicated options is handled off-chain in the verifier/executor.",
        "params": {
          "_eid": "The endpoint ID.",
          "_extraOptions": "Additional options passed by the caller.",
          "_msgType": "The OAPP message type."
        },
        "returns": {
          "_0": "options The combination of caller specified options AND enforced options."
        }
      },
      "isComposeMsgSender((uint32,bytes32,uint64),bytes,address)": {
        "details": "_origin The origin information containing the source endpoint and sender address.  - srcEid: The source chain endpoint ID.  - sender: The sender address on the src chain.  - nonce: The nonce of the message._message The lzReceive payload.Applications can optionally choose to implement separate composeMsg senders that are NOT the bridging layer.The default sender IS the OAppReceiver implementer.",
        "params": {
          "_sender": "The sender address."
        },
        "returns": {
          "_0": "isSender Is a valid sender."
        }
      },
      "lzReceive((uint32,bytes32,uint64),bytes32,bytes,address,bytes)": {
        "details": "Entry point for receiving messages or packets from the endpoint.Entry point for receiving msg/packet from the LayerZero endpoint.",
        "params": {
          "_executor": "The address of the executor for the received message.",
          "_extraData": "Additional arbitrary data provided by the corresponding executor.",
          "_guid": "The unique identifier for the received LayerZero message.",
          "_message": "The payload of the received message.",
          "_origin": "The origin information containing the source endpoint and sender address.  - srcEid: The source chain endpoint ID.  - sender: The sender address on the src chain.  - nonce: The nonce of the message."
        }
      },
      "nextNonce(uint32,bytes32)": {
        "details": "_srcEid The source endpoint ID._sender The sender address.The path nonce starts from 1. If 0 is returned it means that there is NO nonce ordered enforcement.Is required by the off-chain executor to determine the OApp expects msg execution is ordered.This is also enforced by the OApp.By default this is NOT enabled. ie. nextNonce is hardcoded to return 0.",
        "returns": {
          "nonce": "The next nonce."
        }
      },
      "oAppVersion()": {
        "returns": {
          "receiverVersion": "The version of the OAppReceiver.sol implementation.",
          "senderVersion": "The version of the OAppSender.sol implementation."
        }
      },
      "owner()": {
        "details": "Returns the address of the current owner."
      },
      "paused()": {
        "details": "Returns true if the contract is paused, and false otherwise."
      },
      "peers(uint32)": {
        "params": {
          "_eid": "The endpoint ID."
        },
        "returns": {
          "_0": "peer The address of the peer associated with the specified endpoint."
        }
      },
      "renounceOwnership()": {
        "details": "Leaves the contract without owner. It will not be possible to call `onlyOwner` functions. Can only be called by the current owner. NOTE: Renouncing ownership will leave the contract without an owner, thereby disabling any functionality that is only available to the owner."
      },
      "setDelegate(address)": {
        "details": "Only the owner/admin of the OApp can call this function.Provides the ability for a delegate to set configs, on behalf of the OApp, directly on the Endpoint contract.",
        "params": {
          "_delegate": "The address of the delegate to be set."
        }
      },
      "setEnforcedOptions((uint32,uint16,bytes)[])": {
        "details": "Sets the enforced options for specific endpoint and message type combinations.Only the owner/admin of the OApp can call this function.Provides a way for the OApp to enforce things like paying for PreCrime, AND/OR minimum dst lzReceive gas amounts etc.These enforced options can vary as the potential options/execution on the remote may differ as per the msgType. eg. Amount of lzReceive() gas necessary to deliver a lzCompose() message adds overhead you dont want to pay if you are only making a standard LayerZero message ie. lzReceive() WITHOUT sendCompose().",
        "params": {
          "_enforcedOptions": "An array of EnforcedOptionParam structures specifying enforced options."
        }
      },
      "setPeer(uint32,bytes32)": {
        "details": "Only the owner/admin of the OApp can call this function.Indicates that the peer is trusted to send LayerZero messages to this OApp.Set this to bytes32(0) to remove the peer address.Peer is a bytes32 to accommodate non-evm chains.",
        "params": {
          "_eid": "The endpoint ID.",
          "_peer": "The address of the peer to be associated with the corresponding endpoint."
        }
      },
      "transferOwnership(address)": {
        "details": "Transfers ownership of the contract to a new account (`newOwner`). Can only be called by the current owner."
      }
    },
    "version": 1
  },
  "userdoc": {
    "kind": "user",
    "methods": {
      "allowInitializePath((uint32,bytes32,uint64))": {
        "notice": "Checks if the path initialization is allowed based on the provided origin."
      },
      "combineOptions(uint32,uint16,bytes)": {
        "notice": "Combines options for a given endpoint and message type."
      },
      "endpoint()": {
        "notice": "Retrieves the LayerZero endpoint associated with the OApp."
      },
      "isComposeMsgSender((uint32,bytes32,uint64),bytes,address)": {
        "notice": "Indicates whether an address is an approved composeMsg sender to the Endpoint."
      },
      "nextNonce(uint32,bytes32)": {
        "notice": "Retrieves the next nonce for a given source endpoint and sender address."
      },
      "oAppVersion()": {
        "notice": "Retrieves the OApp version information."
      },
      "peers(uint32)": {
        "notice": "Returns the peer address (OApp instance) associated with a specific endpoint."
      },
      "setDelegate(address)": {
        "notice": "Sets the delegate address for the OApp."
      },
      "setPeer(uint32,bytes32)": {
        "notice": "Sets the peer address (OApp instance) for a corresponding endpoint."
      }
    },
    "version": 1
  },
  "storageLayout": {
    "storage": [
      {
        "astId": 4387,
        "contract": "contracts/KgenOapp.sol:KgenOApp",
        "label": "approvedToken",
        "offset": 0,
        "slot": "0",
        "type": "t_mapping(t_address,t_bool)"
      },
      {
        "astId": 4391,
        "contract": "contracts/KgenOapp.sol:KgenOApp",
        "label": "processed",
        "offset": 0,
        "slot": "1",
        "type": "t_mapping(t_bytes32,t_bool)"
      },
      {
        "astId": 4396,
        "contract": "contracts/KgenOapp.sol:KgenOApp",
        "label": "__kgen_gap",
        "offset": 0,
        "slot": "2",
        "type": "t_array(t_uint256)50_storage"
      }
    ],
    "types": {
      "t_address": {
        "encoding": "inplace",
        "label": "address",
        "numberOfBytes": "20"
      },
      "t_array(t_uint256)50_storage": {
        "base": "t_uint256",
        "encoding": "inplace",
        "label": "uint256[50]",
        "numberOfBytes": "1600"
      },
      "t_bool": {
        "encoding": "inplace",
        "label": "bool",
        "numberOfBytes": "1"
      },
      "t_bytes32": {
        "encoding": "inplace",
        "label": "bytes32",
        "numberOfBytes": "32"
      },
      "t_mapping(t_address,t_bool)": {
        "encoding": "mapping",
        "key": "t_address",
        "label": "mapping(address => bool)",
        "numberOfBytes": "32",
        "value": "t_bool"
      },
      "t_mapping(t_bytes32,t_bool)": {
        "encoding": "mapping",
        "key": "t_bytes32",
        "label": "mapping(bytes32 => bool)",
        "numberOfBytes": "32",
        "value": "t_bool"
      },
      "t_uint256": {
        "encoding": "inplace",
        "label": "uint256",
        "numberOfBytes": "32"
      }
    }
  }
}