{"contracts/rKGEN.sol":{"rKGEN":{"abi":[{"inputs":[],"stateMutability":"nonpayable","type":"constructor"},{"inputs":[],"name":"AccessControlBadConfirmation","type":"error"},{"inputs":[{"internalType":"address","name":"account","type":"address"},{"internalType":"bytes32","name":"neededRole","type":"bytes32"}],"name":"AccessControlUnauthorizedAccount","type":"error"},{"inputs":[],"name":"AlreadyExists","type":"error"},{"inputs":[],"name":"CannotDeleteTreasuryAddress","type":"error"},{"inputs":[{"internalType":"address","name":"spender","type":"address"},{"internalType":"uint256","name":"allowance","type":"uint256"},{"internalType":"uint256","name":"needed","type":"uint256"}],"name":"ERC20InsufficientAllowance","type":"error"},{"inputs":[{"internalType":"address","name":"sender","type":"address"},{"internalType":"uint256","name":"balance","type":"uint256"},{"internalType":"uint256","name":"needed","type":"uint256"}],"name":"ERC20InsufficientBalance","type":"error"},{"inputs":[{"internalType":"address","name":"approver","type":"address"}],"name":"ERC20InvalidApprover","type":"error"},{"inputs":[{"internalType":"address","name":"receiver","type":"address"}],"name":"ERC20InvalidReceiver","type":"error"},{"inputs":[{"internalType":"address","name":"sender","type":"address"}],"name":"ERC20InvalidSender","type":"error"},{"inputs":[{"internalType":"address","name":"spender","type":"address"}],"name":"ERC20InvalidSpender","type":"error"},{"inputs":[],"name":"InvalidAmount","type":"error"},{"inputs":[],"name":"InvalidInitialization","type":"error"},{"inputs":[],"name":"InvalidReceiverOrSender","type":"error"},{"inputs":[],"name":"NoPending","type":"error"},{"inputs":[],"name":"NotAdmin","type":"error"},{"inputs":[],"name":"NotBurnVault","type":"error"},{"inputs":[],"name":"NotInitializing","type":"error"},{"inputs":[],"name":"NotOwner","type":"error"},{"inputs":[],"name":"NotTreasuryAddress","type":"error"},{"inputs":[],"name":"NotValidAddress","type":"error"},{"inputs":[],"name":"NotWhitelistReceiver","type":"error"},{"inputs":[],"name":"NotWhitelistSender","type":"error"},{"inputs":[],"name":"OnlyAdmin","type":"error"},{"inputs":[],"name":"ReentrancyGuardReentrantCall","type":"error"},{"anonymous":false,"inputs":[{"indexed":true,"internalType":"address","name":"account","type":"address"}],"name":"AccountFrozen","type":"event"},{"anonymous":false,"inputs":[{"indexed":true,"internalType":"address","name":"account","type":"address"}],"name":"AccountUnfrozen","type":"event"},{"anonymous":false,"inputs":[{"indexed":false,"internalType":"string","name":"msg","type":"string"},{"indexed":true,"internalType":"address","name":"addedAddress","type":"address"}],"name":"AddedReceiverAddress","type":"event"},{"anonymous":false,"inputs":[{"indexed":false,"internalType":"string","name":"msg","type":"string"},{"indexed":true,"internalType":"address","name":"addedAddress","type":"address"}],"name":"AddedSenderAddress","type":"event"},{"anonymous":false,"inputs":[{"indexed":false,"internalType":"string","name":"msg","type":"string"},{"indexed":true,"internalType":"address","name":"addedAddress","type":"address"}],"name":"AddedTreasuryAddress","type":"event"},{"anonymous":false,"inputs":[{"indexed":true,"internalType":"address","name":"owner","type":"address"},{"indexed":true,"internalType":"address","name":"spender","type":"address"},{"indexed":false,"internalType":"uint256","name":"value","type":"uint256"}],"name":"Approval","type":"event"},{"anonymous":false,"inputs":[{"indexed":false,"internalType":"uint64","name":"version","type":"uint64"}],"name":"Initialized","type":"event"},{"anonymous":false,"inputs":[{"indexed":true,"internalType":"address","name":"treasury","type":"address"},{"indexed":false,"internalType":"uint256","name":"amount","type":"uint256"}],"name":"MintedToTreasury","type":"event"},{"anonymous":false,"inputs":[{"indexed":false,"internalType":"string","name":"role","type":"string"},{"indexed":true,"internalType":"address","name":"nominatedAdmin","type":"address"}],"name":"NominatedAdminEvent","type":"event"},{"anonymous":false,"inputs":[{"indexed":false,"internalType":"string","name":"msg","type":"string"},{"indexed":true,"internalType":"address","name":"removedAddress","type":"address"}],"name":"RemovedReceiverAddress","type":"event"},{"anonymous":false,"inputs":[{"indexed":false,"internalType":"string","name":"msg","type":"string"},{"indexed":true,"internalType":"address","name":"removedAddress","type":"address"}],"name":"RemovedSenderAddress","type":"event"},{"anonymous":false,"inputs":[{"indexed":false,"internalType":"string","name":"msg","type":"string"},{"indexed":true,"internalType":"address","name":"removedAddress","type":"address"}],"name":"RemovedTreasuryAddress","type":"event"},{"anonymous":false,"inputs":[{"indexed":true,"internalType":"bytes32","name":"role","type":"bytes32"},{"indexed":true,"internalType":"bytes32","name":"previousAdminRole","type":"bytes32"},{"indexed":true,"internalType":"bytes32","name":"newAdminRole","type":"bytes32"}],"name":"RoleAdminChanged","type":"event"},{"anonymous":false,"inputs":[{"indexed":true,"internalType":"bytes32","name":"role","type":"bytes32"},{"indexed":true,"internalType":"address","name":"account","type":"address"},{"indexed":true,"internalType":"address","name":"sender","type":"address"}],"name":"RoleGranted","type":"event"},{"anonymous":false,"inputs":[{"indexed":true,"internalType":"bytes32","name":"role","type":"bytes32"},{"indexed":true,"internalType":"address","name":"account","type":"address"},{"indexed":true,"internalType":"address","name":"sender","type":"address"}],"name":"RoleRevoked","type":"event"},{"anonymous":false,"inputs":[{"indexed":true,"internalType":"address","name":"from","type":"address"},{"indexed":true,"internalType":"address","name":"to","type":"address"},{"indexed":false,"internalType":"uint256","name":"value","type":"uint256"}],"name":"Transfer","type":"event"},{"anonymous":false,"inputs":[{"indexed":false,"internalType":"string","name":"role","type":"string"},{"indexed":true,"internalType":"address","name":"addedAdmin","type":"address"}],"name":"UpdatedAdmin","type":"event"},{"anonymous":false,"inputs":[{"indexed":false,"internalType":"string","name":"role","type":"string"},{"indexed":true,"internalType":"address","name":"updatedAddress","type":"address"}],"name":"UpdatedBurnVault","type":"event"},{"anonymous":false,"inputs":[{"indexed":false,"internalType":"string","name":"role","type":"string"},{"indexed":true,"internalType":"address","name":"addedUser","type":"address"}],"name":"UpdatedMinter","type":"event"},{"inputs":[],"name":"BURN_VAULT_ROLE","outputs":[{"internalType":"bytes32","name":"","type":"bytes32"}],"stateMutability":"view","type":"function"},{"inputs":[],"name":"DEFAULT_ADMIN_ROLE","outputs":[{"internalType":"bytes32","name":"","type":"bytes32"}],"stateMutability":"view","type":"function"},{"inputs":[],"name":"MINTER_ROLE","outputs":[{"internalType":"bytes32","name":"","type":"bytes32"}],"stateMutability":"view","type":"function"},{"inputs":[],"name":"TREASURY_ROLE","outputs":[{"internalType":"bytes32","name":"","type":"bytes32"}],"stateMutability":"view","type":"function"},{"inputs":[],"name":"UPGRADER_ROLE","outputs":[{"internalType":"bytes32","name":"","type":"bytes32"}],"stateMutability":"view","type":"function"},{"inputs":[],"name":"WHITELIST_RECEIVER_ROLE","outputs":[{"internalType":"bytes32","name":"","type":"bytes32"}],"stateMutability":"view","type":"function"},{"inputs":[],"name":"WHITELIST_SENDER_ROLE","outputs":[{"internalType":"bytes32","name":"","type":"bytes32"}],"stateMutability":"view","type":"function"},{"inputs":[],"name":"acceptAdminRole","outputs":[],"stateMutability":"nonpayable","type":"function"},{"inputs":[{"internalType":"address","name":"newAddress","type":"address"}],"name":"addTreasuryAddress","outputs":[],"stateMutability":"nonpayable","type":"function"},{"inputs":[{"internalType":"address","name":"newAddress","type":"address"}],"name":"addWhitelistReceiver","outputs":[],"stateMutability":"nonpayable","type":"function"},{"inputs":[{"internalType":"address","name":"newAddress","type":"address"}],"name":"addWhitelistSender","outputs":[],"stateMutability":"nonpayable","type":"function"},{"inputs":[{"internalType":"address","name":"owner","type":"address"},{"internalType":"address","name":"spender","type":"address"}],"name":"allowance","outputs":[{"internalType":"uint256","name":"","type":"uint256"}],"stateMutability":"view","type":"function"},{"inputs":[{"internalType":"address","name":"spender","type":"address"},{"internalType":"uint256","name":"value","type":"uint256"}],"name":"approve","outputs":[{"internalType":"bool","name":"","type":"bool"}],"stateMutability":"nonpayable","type":"function"},{"inputs":[{"internalType":"address","name":"account","type":"address"}],"name":"balanceOf","outputs":[{"internalType":"uint256","name":"","type":"uint256"}],"stateMutability":"view","type":"function"},{"inputs":[{"internalType":"address","name":"from","type":"address"},{"internalType":"uint256","name":"amount","type":"uint256"}],"name":"burn","outputs":[],"stateMutability":"nonpayable","type":"function"},{"inputs":[],"name":"decimals","outputs":[{"internalType":"uint8","name":"","type":"uint8"}],"stateMutability":"pure","type":"function"},{"inputs":[{"internalType":"address","name":"account","type":"address"}],"name":"freezeAccount","outputs":[],"stateMutability":"nonpayable","type":"function"},{"inputs":[{"internalType":"address","name":"","type":"address"}],"name":"frozenAccounts","outputs":[{"internalType":"bool","name":"","type":"bool"}],"stateMutability":"view","type":"function"},{"inputs":[{"internalType":"bytes32","name":"role","type":"bytes32"}],"name":"getRoleAdmin","outputs":[{"internalType":"bytes32","name":"","type":"bytes32"}],"stateMutability":"view","type":"function"},{"inputs":[{"internalType":"bytes32","name":"role","type":"bytes32"},{"internalType":"uint256","name":"index","type":"uint256"}],"name":"getRoleMember","outputs":[{"internalType":"address","name":"","type":"address"}],"stateMutability":"view","type":"function"},{"inputs":[{"internalType":"bytes32","name":"role","type":"bytes32"}],"name":"getRoleMemberCount","outputs":[{"internalType":"uint256","name":"","type":"uint256"}],"stateMutability":"view","type":"function"},{"inputs":[{"internalType":"bytes32","name":"role","type":"bytes32"}],"name":"getRoleMembers","outputs":[{"internalType":"address[]","name":"","type":"address[]"}],"stateMutability":"view","type":"function"},{"inputs":[{"internalType":"bytes32","name":"role","type":"bytes32"},{"internalType":"address","name":"account","type":"address"}],"name":"grantRole","outputs":[],"stateMutability":"nonpayable","type":"function"},{"inputs":[{"internalType":"bytes32","name":"role","type":"bytes32"},{"internalType":"address","name":"account","type":"address"}],"name":"hasRole","outputs":[{"internalType":"bool","name":"","type":"bool"}],"stateMutability":"view","type":"function"},{"inputs":[{"internalType":"address","name":"initialAdmin","type":"address"}],"name":"initialize","outputs":[],"stateMutability":"nonpayable","type":"function"},{"inputs":[{"internalType":"address","name":"forwarder","type":"address"}],"name":"isTrustedForwarder","outputs":[{"internalType":"bool","name":"","type":"bool"}],"stateMutability":"view","type":"function"},{"inputs":[{"internalType":"address","name":"to","type":"address"},{"internalType":"uint256","name":"amount","type":"uint256"}],"name":"mint","outputs":[],"stateMutability":"nonpayable","type":"function"},{"inputs":[],"name":"name","outputs":[{"internalType":"string","name":"","type":"string"}],"stateMutability":"view","type":"function"},{"inputs":[{"internalType":"address","name":"newAdmin","type":"address"}],"name":"nominateAdmin","outputs":[],"stateMutability":"nonpayable","type":"function"},{"inputs":[],"name":"nominatedAdmin","outputs":[{"internalType":"address","name":"","type":"address"}],"stateMutability":"view","type":"function"},{"inputs":[{"internalType":"address","name":"treasuryAddress","type":"address"}],"name":"removeTreasuryAddress","outputs":[],"stateMutability":"nonpayable","type":"function"},{"inputs":[{"internalType":"address","name":"receiverAddress","type":"address"}],"name":"removeWhitelistReceiver","outputs":[],"stateMutability":"nonpayable","type":"function"},{"inputs":[{"internalType":"address","name":"senderAddress","type":"address"}],"name":"removeWhitelistSender","outputs":[],"stateMutability":"nonpayable","type":"function"},{"inputs":[{"internalType":"bytes32","name":"role","type":"bytes32"},{"internalType":"address","name":"callerConfirmation","type":"address"}],"name":"renounceRole","outputs":[],"stateMutability":"nonpayable","type":"function"},{"inputs":[{"internalType":"bytes32","name":"role","type":"bytes32"},{"internalType":"address","name":"account","type":"address"}],"name":"revokeRole","outputs":[],"stateMutability":"nonpayable","type":"function"},{"inputs":[{"internalType":"address","name":"_trustedForwarder","type":"address"},{"internalType":"bool","name":"_isTrusted","type":"bool"}],"name":"setTrustedForwarder","outputs":[],"stateMutability":"nonpayable","type":"function"},{"inputs":[{"internalType":"bytes4","name":"interfaceId","type":"bytes4"}],"name":"supportsInterface","outputs":[{"internalType":"bool","name":"","type":"bool"}],"stateMutability":"view","type":"function"},{"inputs":[],"name":"symbol","outputs":[{"internalType":"string","name":"","type":"string"}],"stateMutability":"view","type":"function"},{"inputs":[],"name":"totalSupply","outputs":[{"internalType":"uint256","name":"","type":"uint256"}],"stateMutability":"view","type":"function"},{"inputs":[{"internalType":"address","name":"to","type":"address"},{"internalType":"uint256","name":"amount","type":"uint256"}],"name":"transfer","outputs":[{"internalType":"bool","name":"","type":"bool"}],"stateMutability":"nonpayable","type":"function"},{"inputs":[{"internalType":"address","name":"from","type":"address"},{"internalType":"address","name":"to","type":"address"},{"internalType":"uint256","name":"amount","type":"uint256"}],"name":"transferFrom","outputs":[{"internalType":"bool","name":"","type":"bool"}],"stateMutability":"nonpayable","type":"function"},{"inputs":[{"internalType":"address","name":"","type":"address"}],"name":"trustedForwarder","outputs":[{"internalType":"bool","name":"","type":"bool"}],"stateMutability":"view","type":"function"},{"inputs":[{"internalType":"address","name":"account","type":"address"}],"name":"unfreezeAccount","outputs":[],"stateMutability":"nonpayable","type":"function"},{"inputs":[{"internalType":"address","name":"newBurnVault","type":"address"}],"name":"updateBurnVault","outputs":[],"stateMutability":"nonpayable","type":"function"},{"inputs":[{"internalType":"address","name":"newMinter","type":"address"}],"name":"updateMinter","outputs":[],"stateMutability":"nonpayable","type":"function"}],"evm":{"bytecode":{"linkReferences":{},"object":"60806040523480156200001157600080fd5b506200001c62000022565b620000d6565b7ff0c57e16840df040f15088dc2f81fe391c3923bec73e23a9662efc9c229c6a00805468010000000000000000900460ff1615620000735760405163f92ee8a960e01b815260040160405180910390fd5b80546001600160401b0390811614620000d35780546001600160401b0319166001600160401b0390811782556040519081527fc7f505b2f371ae2175ee4913f4499e1f2633a7b5936321eed1cdaeb6115181d29060200160405180910390a15b50565b612ec680620000e66000396000f3fe608060405234801561001057600080fd5b506004361061027f5760003560e01c80639010d07c1161015c578063ca15c873116100ce578063d547741f11610087578063d547741f1461060a578063dd62ed3e1461061d578063e691d03b14610630578063e8ac653314610643578063f26c159f14610656578063f72c0d8b1461066957600080fd5b8063ca15c87314610594578063cd5ad4c5146105a7578063d11a57ec146105ba578063d403c878146105cf578063d4179e8d146105e2578063d5391393146105f557600080fd5b8063a3246ad311610120578063a3246ad314610513578063a8422c2f14610533578063a9059cbb14610548578063bae5ec041461055b578063c4d66de81461056e578063c80eeec21461058157600080fd5b80639010d07c146104b257806391d14854146104dd57806395d89b41146104f05780639dc29fac146104f8578063a217fddf1461050b57600080fd5b806335f14f14116101f5578063572b6c05116101b9578063572b6c05146103ef57806370a082311461041b57806376b8802414610451578063788649ea14610474578063860838a5146104875780638c3d7301146104aa57600080fd5b806335f14f141461038e57806336568abe146103a15780633a594a1d146103b457806340c10f19146103c95780634eb03f6e146103dc57600080fd5b8063175badcb11610247578063175badcb1461030c57806318160ddd1461031f57806323b872dd14610346578063248a9ca3146103595780632f2ff15d1461036c578063313ce5671461037f57600080fd5b806301ffc9a71461028457806306fdde03146102ac578063095ea7b3146102c15780630ee3153f146102d457806314eeb828146102e9575b600080fd5b61029761029236600461280c565b610690565b60405190151581526020015b60405180910390f35b6102b46106bb565b6040516102a39190612836565b6102976102cf3660046128a1565b61077e565b6102e76102e23660046128cb565b6107a0565b005b6102fe600080516020612db183398151915281565b6040519081526020016102a3565b6102e761031a3660046128cb565b610930565b7f52c63247e1f47db19d5ce0460030c497f067ca4cebf71ba98eeadabe20bace02546102fe565b6102976103543660046128e6565b610a59565b6102fe610367366004612922565b610c13565b6102e761037a36600461293b565b610c35565b604051600881526020016102a3565b6102e761039c3660046128cb565b610c57565b6102e76103af36600461293b565b610dba565b6102fe600080516020612e7183398151915281565b6102e76103d73660046128a1565b610e02565b6102e76103ea3660046128cb565b610f15565b6102976103fd3660046128cb565b6001600160a01b031660009081526002602052604090205460ff1690565b6102fe6104293660046128cb565b6001600160a01b03166000908152600080516020612dd1833981519152602052604090205490565b61029761045f3660046128cb565b60026020526000908152604090205460ff1681565b6102e76104823660046128cb565b611053565b6102976104953660046128cb565b60016020526000908152604090205460ff1681565b6102e76110d1565b6104c56104c0366004612967565b611230565b6040516001600160a01b0390911681526020016102a3565b6102976104eb36600461293b565b61125f565b6102b4611297565b6102e76105063660046128a1565b6112d6565b6102fe600081565b610526610521366004612922565b611392565b6040516102a39190612989565b6102fe600080516020612df183398151915281565b6102976105563660046128a1565b6113c4565b6102e76105693660046128cb565b611569565b6102e761057c3660046128cb565b61171d565b6102e761058f3660046128cb565b6118f0565b6102fe6105a2366004612922565b611a08565b6102e76105b53660046128cb565b611a2e565b6102fe600080516020612e5183398151915281565b6102e76105dd3660046128cb565b611b55565b6102e76105f03660046128cb565b611c6f565b6102fe600080516020612e1183398151915281565b6102e761061836600461293b565b611d77565b6102fe61062b3660046129d6565b611d93565b6102e761063e366004612a00565b611ddd565b6000546104c5906001600160a01b031681565b6102e76106643660046128cb565b611e14565b6102fe7f189ab7a9244df0848122154315af71fe140f3db0fe014031783b0946b8c9d2e381565b60006001600160e01b03198216635a05180f60e01b14806106b557506106b582611e98565b92915050565b7f52c63247e1f47db19d5ce0460030c497f067ca4cebf71ba98eeadabe20bace038054606091600080516020612dd1833981519152916106fa90612a3c565b80601f016020809104026020016040519081016040528092919081815260200182805461072690612a3c565b80156107735780601f1061074857610100808354040283529160200191610773565b820191906000526020600020905b81548152906001019060200180831161075657829003601f168201915b505050505091505090565b600080610789611ecd565b9050610796818585611edc565b5060019392505050565b60006107ab81611ee9565b816001600160a01b0381166107d357604051636e5ec59f60e01b815260040160405180910390fd5b6107eb600080516020612db18339815191528461125f565b6108355760405162461bcd60e51b81526020600482015260166024820152752737ba103bb434ba32b634b9ba32b21039b2b73232b960511b60448201526064015b60405180910390fd5b61084d600080516020612e518339815191528461125f565b156108935760405162461bcd60e51b815260206004820152601660248201527543616e6e6f742072656d6f766520747265617375727960501b604482015260640161082c565b6108ab600080516020612db183398151915284611efd565b50826001600160a01b03167f0e178bf7cc940ed3c4d14c1206db670ab5b94749d88646dc197f874a32372ea56040516109239060208082526025908201527f53656e64657220416464726573732052656d6f7665642046726f6d2057686974604082015264195b1a5cdd60da1b606082015260800190565b60405180910390a2505050565b600061093b81611ee9565b816001600160a01b03811661096357604051636e5ec59f60e01b815260040160405180910390fd5b61097b600080516020612df18339815191528461125f565b6109c75760405162461bcd60e51b815260206004820152601860248201527f4e6f742077686974656c69737465642072656365697665720000000000000000604482015260640161082c565b6109df600080516020612df183398151915284611efd565b50826001600160a01b03167faaf02ba1bcb5b6c4b56e5b51c64ffb18bd8ed3760523f4d845a3c0cc0a8592446040516109239060208082526027908201527f526563656976657220416464726573732052656d6f7665642046726f6d2057686040820152661a5d195b1a5cdd60ca1b606082015260800190565b60008180600003610a7d5760405163162908e360e11b815260040160405180910390fd5b836001600160a01b038116610aa557604051636e5ec59f60e01b815260040160405180910390fd5b6001600160a01b038616600090815260016020526040902054869060ff1615610ae05760405162461bcd60e51b815260040161082c90612a76565b6001600160a01b038616600090815260016020526040902054869060ff1615610b1b5760405162461bcd60e51b815260040161082c90612a76565b8787816001600160a01b0316816001600160a01b031603610b785760405162461bcd60e51b815260206004820152601760248201527621b0b73737ba103a3930b739b332b9103a379039b2b63360491b604482015260640161082c565b610b90600080516020612db18339815191528361125f565b80610bae5750610bae600080516020612df18339815191528261125f565b610bfa5760405162461bcd60e51b815260206004820152601a60248201527f496e76616c69642073656e646572206f72207265636569766572000000000000604482015260640161082c565b610c058a8a8a611f42565b9a9950505050505050505050565b6000908152600080516020612e31833981519152602052604090206001015490565b610c3e82610c13565b610c4781611ee9565b610c518383611f70565b50505050565b6000610c6281611ee9565b816001600160a01b038116610c8a57604051636e5ec59f60e01b815260040160405180910390fd5b610ca2600080516020612e718339815191528461125f565b15610ce45760405162461bcd60e51b8152602060048201526012602482015271105b1c9958591e48189d5c9b881d985d5b1d60721b604482015260640161082c565b6000610cff600080516020612e718339815191526000611230565b90506001600160a01b03811615610d2a57610d28600080516020612e7183398151915282611efd565b505b610d42600080516020612e7183398151915285611f70565b50836001600160a01b03167f27cb0b1f15cf273268c02c4ac770f2121077509fd09f76000f26fef2107c8e39604051610dac9060208082526018908201527f4275726e61626c65204164647265737320557064617465640000000000000000604082015260600190565b60405180910390a250505050565b610dc2611ecd565b6001600160a01b0316816001600160a01b031614610df35760405163334bd91960e11b815260040160405180910390fd5b610dfd8282611efd565b505050565b600080516020612e11833981519152610e1a81611ee9565b8180600003610e3c5760405163162908e360e11b815260040160405180910390fd5b836001600160a01b038116610e6457604051636e5ec59f60e01b815260040160405180910390fd5b610e7c600080516020612e518339815191528661125f565b610ec15760405162461bcd60e51b81526020600482015260166024820152754e6f742061207472656173757279206164647265737360501b604482015260640161082c565b610ecb8585611fac565b846001600160a01b03167fbfa21aa5d5f9a1f0120a95e7c0749f389863cbdbfff531aa7339077a5bc919de85604051610f0691815260200190565b60405180910390a25050505050565b6000610f2081611ee9565b816001600160a01b038116610f4857604051636e5ec59f60e01b815260040160405180910390fd5b610f60600080516020612e118339815191528461125f565b15610f9e5760405162461bcd60e51b815260206004820152600e60248201526d20b63932b0b23c9036b4b73a32b960911b604482015260640161082c565b6000610fb9600080516020612e118339815191526000611230565b90506001600160a01b03811615610fe457610fe2600080516020612e1183398151915282611efd565b505b610ffc600080516020612e1183398151915285611f70565b50836001600160a01b03167f6de4157337b92becadb23ac8c53bdcaba13d56eaa4e2350eff3e65c4d1d84c7c604051610dac906020808252600a90820152692732bb9026b4b73a32b960b11b604082015260600190565b600061105e81611ee9565b816001600160a01b03811661108657604051636e5ec59f60e01b815260040160405180910390fd5b6001600160a01b038316600081815260016020526040808220805460ff19169055517ff915cd9fe234de6e8d3afe7bf2388d35b2b6d48e8c629a24602019bde79c213a9190a2505050565b33806110f057604051636e5ec59f60e01b815260040160405180910390fd5b6000546001600160a01b0316331461113a5760405162461bcd60e51b815260206004820152600d60248201526c139bdd081b9bdb5a5b985d1959609a1b604482015260640161082c565b6000546001600160a01b031661118a5760405162461bcd60e51b81526020600482015260156024820152742737903832b73234b733903737b6b4b730ba34b7b760591b604482015260640161082c565b60006111968180611230565b90506001600160a01b038116156111b4576111b2600082611efd565b505b6111bf600033611f70565b50600080546001600160a01b031916905560405133907f33357bb61b6ce4d9e2a54fd3d9ec5807e7df4bbd6ba3fa1b0860c0a1a39e700a90611224906020808252600f908201526e13995dc810591b5a5b881059191959608a1b604082015260600190565b60405180910390a25050565b6000828152600080516020612d918339815191526020819052604082206112579084611fe6565b949350505050565b6000918252600080516020612e31833981519152602090815260408084206001600160a01b0393909316845291905290205460ff1690565b7f52c63247e1f47db19d5ce0460030c497f067ca4cebf71ba98eeadabe20bace048054606091600080516020612dd1833981519152916106fa90612a3c565b600080516020612e718339815191526112ee81611ee9565b81806000036113105760405163162908e360e11b815260040160405180910390fd5b836001600160a01b03811661133857604051636e5ec59f60e01b815260040160405180910390fd5b6001600160a01b03851633146113815760405162461bcd60e51b815260206004820152600e60248201526d139bdd08189d5c9b881d985d5b1d60921b604482015260640161082c565b61138b8585611ff2565b5050505050565b6000818152600080516020612d9183398151915260208190526040909120606091906113bd90612028565b9392505050565b600081806000036113e85760405163162908e360e11b815260040160405180910390fd5b836001600160a01b03811661141057604051636e5ec59f60e01b815260040160405180910390fd5b3360008181526001602052604090205460ff16156114405760405162461bcd60e51b815260040161082c90612a76565b6001600160a01b038616600090815260016020526040902054869060ff161561147b5760405162461bcd60e51b815260040161082c90612a76565b33876001600160a01b0381168290036114d05760405162461bcd60e51b815260206004820152601760248201527621b0b73737ba103a3930b739b332b9103a379039b2b63360491b604482015260640161082c565b6114e8600080516020612db18339815191528361125f565b806115065750611506600080516020612df18339815191528261125f565b6115525760405162461bcd60e51b815260206004820152601a60248201527f496e76616c69642073656e646572206f72207265636569766572000000000000604482015260640161082c565b61155c8989612035565b9998505050505050505050565b600061157481611ee9565b816001600160a01b03811661159c57604051636e5ec59f60e01b815260040160405180910390fd5b6115b4600080516020612e518339815191528461125f565b156115f45760405162461bcd60e51b815260206004820152601060248201526f416c726561647920747265617375727960801b604482015260640161082c565b61160c600080516020612e5183398151915284611f70565b50611625600080516020612db18339815191528461125f565b6116b457611641600080516020612db183398151915284611f70565b50826001600160a01b03167fa148f9af0f634918fbaf23b2be442ee99c628242fb2805bf87c08e4be7a1afac6040516116ab906020808252601e908201527f4e65772053656e64657220416464726573732057686974656c69737465640000604082015260600190565b60405180910390a25b826001600160a01b03167fd93a23cfa249287d5dd4d056066c79b1a45bc8608890ea92b4dafa6e874b3fd0604051610923906020808252601a908201527f4e65772054726561737572792041646472657373204164646564000000000000604082015260600190565b600061172761204d565b805490915060ff600160401b820416159067ffffffffffffffff1660008115801561174f5750825b905060008267ffffffffffffffff16600114801561176c5750303b155b90508115801561177a575080155b156117985760405163f92ee8a960e01b815260040160405180910390fd5b845467ffffffffffffffff1916600117855583156117c257845460ff60401b1916600160401b1785555b611806604051806040016040528060058152602001643925a3a2a760d91b815250604051806040016040528060058152602001643925a3a2a760d91b815250612076565b61180e612088565b611816612092565b611821600087611f70565b5061183a600080516020612e1183398151915287611f70565b50611853600080516020612e7183398151915287611f70565b5061187e7f189ab7a9244df0848122154315af71fe140f3db0fe014031783b0946b8c9d2e387611f70565b506118a28661188f6008600a612b9b565b61189d906317d78400612baa565b611fac565b83156118e857845460ff60401b19168555604051600181527fc7f505b2f371ae2175ee4913f4499e1f2633a7b5936321eed1cdaeb6115181d29060200160405180910390a15b505050505050565b60006118fb81611ee9565b816001600160a01b03811661192357604051636e5ec59f60e01b815260040160405180910390fd5b61193b600080516020612df18339815191528461125f565b156119885760405162461bcd60e51b815260206004820152601c60248201527f416c72656164792077686974656c697374656420726563656976657200000000604482015260640161082c565b6119a0600080516020612df183398151915284611f70565b50826001600160a01b03167ffe6d2d6f86f1b4f5f6d5833a27d9eb52bba0f8aad51eb089023c6a4dcfd21a8f604051610923906020808252818101527f4e657720526563656976657220416464726573732057686974656c6973746564604082015260600190565b6000818152600080516020612d918339815191526020819052604082206113bd906120a2565b6000611a3981611ee9565b816001600160a01b038116611a6157604051636e5ec59f60e01b815260040160405180910390fd5b336001600160a01b03841603611ab05760405162461bcd60e51b815260206004820152601460248201527321b0b73737ba103737b6b4b730ba329039b2b63360611b604482015260640161082c565b600080546001600160a01b0385166001600160a01b031990911681179091556040517fa9c1d417fdb88c493dbab369bd79c043aa4c6c9522a681d9334ba091ede58cd990610923906020808252603a908201527f4e65772041646d696e204e6f6d696e617465642c204e6f77206e65772061646d60408201527f696e206e65656420746f206163636570742074686520726f6c65000000000000606082015260800190565b6000611b6081611ee9565b816001600160a01b038116611b8857604051636e5ec59f60e01b815260040160405180910390fd5b611ba0600080516020612db18339815191528461125f565b15611bed5760405162461bcd60e51b815260206004820152601a60248201527f416c72656164792077686974656c69737465642073656e646572000000000000604482015260640161082c565b611c05600080516020612db183398151915284611f70565b50826001600160a01b03167fa148f9af0f634918fbaf23b2be442ee99c628242fb2805bf87c08e4be7a1afac604051610923906020808252601e908201527f4e65772053656e64657220416464726573732057686974656c69737465640000604082015260600190565b6000611c7a81611ee9565b816001600160a01b038116611ca257604051636e5ec59f60e01b815260040160405180910390fd5b611cba600080516020612e518339815191528461125f565b611cf55760405162461bcd60e51b815260206004820152600c60248201526b4e6f7420747265617375727960a01b604482015260640161082c565b611d0d600080516020612e5183398151915284611efd565b50826001600160a01b03167f238be719becf7de7673229da18d51189916a74316ccd29739e8bf3fa30288d876040516109239060208082526018908201527f547265617375727920416464726573732052656d6f7665640000000000000000604082015260600190565b611d8082610c13565b611d8981611ee9565b610c518383611efd565b6001600160a01b0391821660009081527f52c63247e1f47db19d5ce0460030c497f067ca4cebf71ba98eeadabe20bace016020908152604080832093909416825291909152205490565b6000611de881611ee9565b506001600160a01b03919091166000908152600260205260409020805460ff1916911515919091179055565b6000611e1f81611ee9565b816001600160a01b038116611e4757604051636e5ec59f60e01b815260040160405180910390fd5b6001600160a01b0383166000818152600160208190526040808320805460ff1916909217909155517f4f2a367e694e71282f29ab5eaa04c4c0be45ac5bf2ca74fb67068b98bdc2887d9190a2505050565b60006001600160e01b03198216637965db0b60e01b14806106b557506301ffc9a760e01b6001600160e01b03198316146106b5565b6000611ed76120ac565b905090565b610dfd8383836001612108565b611efa81611ef5611ecd565b6121ef565b50565b6000600080516020612d9183398151915281611f198585612228565b90508015611257576000858152602083905260409020611f3990856122cc565b50949350505050565b600080611f4d611ecd565b9050611f5a8582856122e1565b611f65858585612342565b506001949350505050565b6000600080516020612d9183398151915281611f8c85856123a1565b90508015611257576000858152602083905260409020611f39908561243d565b6001600160a01b038216611fd65760405163ec442f0560e01b81526000600482015260240161082c565b611fe260008383612452565b5050565b60006113bd8383612590565b6001600160a01b03821661201c57604051634b637e8f60e11b81526000600482015260240161082c565b611fe282600083612452565b606060006113bd836125ba565b600080612040611ecd565b9050610796818585612342565b6000807ff0c57e16840df040f15088dc2f81fe391c3923bec73e23a9662efc9c229c6a006106b5565b61207e612616565b611fe2828261263b565b612090612616565b565b61209a612616565b61209061268c565b60006106b5825490565b33600090815260026020526040812054369060149060ff1680156120d05750808210155b15612100576000366120e28385612bc1565b6120ed928290612bd4565b6120f691612bfe565b60601c9250505090565b339250505090565b600080516020612dd18339815191526001600160a01b0385166121415760405163e602df0560e01b81526000600482015260240161082c565b6001600160a01b03841661216b57604051634a1406b160e11b81526000600482015260240161082c565b6001600160a01b0380861660009081526001830160209081526040808320938816835292905220839055811561138b57836001600160a01b0316856001600160a01b03167f8c5be1e5ebec7d5bd14f71427d1e84f3dd0314c0f7b2291e5b200ac8c7c3b925856040516121e091815260200190565b60405180910390a35050505050565b6121f9828261125f565b611fe25760405163e2517d3f60e01b81526001600160a01b03821660048201526024810183905260440161082c565b6000600080516020612e31833981519152612243848461125f565b156122c2576000848152602082815260408083206001600160a01b03871684529091529020805460ff19169055612278611ecd565b6001600160a01b0316836001600160a01b0316857ff6391f5c32d9c69d2a47ea670b442974b53935d1edc7fd64eb21e047a839171b60405160405180910390a460019150506106b5565b60009150506106b5565b60006113bd836001600160a01b0384166126ba565b60006122ed8484611d93565b9050600019811015610c51578181101561233357604051637dc7a0d960e11b81526001600160a01b0384166004820152602481018290526044810183905260640161082c565b610c5184848484036000612108565b6001600160a01b03831661236c57604051634b637e8f60e11b81526000600482015260240161082c565b6001600160a01b0382166123965760405163ec442f0560e01b81526000600482015260240161082c565b610dfd838383612452565b6000600080516020612e318339815191526123bc848461125f565b6122c2576000848152602082815260408083206001600160a01b03871684529091529020805460ff191660011790556123f3611ecd565b6001600160a01b0316836001600160a01b0316857f2f8788117e7eff1d82e926ec794901d17c78024a50270940304540a733656f0d60405160405180910390a460019150506106b5565b60006113bd836001600160a01b0384166127a3565b600080516020612dd18339815191526001600160a01b03841661248e57818160020160008282546124839190612c33565b909155506125009050565b6001600160a01b038416600090815260208290526040902054828110156124e15760405163391434e360e21b81526001600160a01b0386166004820152602481018290526044810184905260640161082c565b6001600160a01b03851660009081526020839052604090209083900390555b6001600160a01b03831661251e57600281018054839003905561253d565b6001600160a01b03831660009081526020829052604090208054830190555b826001600160a01b0316846001600160a01b03167fddf252ad1be2c89b69c2b068fc378daa952ba7f163c4a11628f55a4df523b3ef8460405161258291815260200190565b60405180910390a350505050565b60008260000182815481106125a7576125a7612c46565b9060005260206000200154905092915050565b60608160000180548060200260200160405190810160405280929190818152602001828054801561260a57602002820191906000526020600020905b8154815260200190600101908083116125f6575b50505050509050919050565b61261e6127f2565b61209057604051631afcd79f60e31b815260040160405180910390fd5b612643612616565b600080516020612dd18339815191527f52c63247e1f47db19d5ce0460030c497f067ca4cebf71ba98eeadabe20bace0361267d8482612cba565b5060048101610c518382612cba565b612694612616565b60017f9b779b17422d0df92223018b32b4d1fa46e071723d6817e2486d003becc55f0055565b600081815260018301602052604081205480156122c25760006126de600183612bc1565b85549091506000906126f290600190612bc1565b905080821461275757600086600001828154811061271257612712612c46565b906000526020600020015490508087600001848154811061273557612735612c46565b6000918252602080832090910192909255918252600188019052604090208390555b855486908061276857612768612d7a565b6001900381819060005260206000200160009055905585600101600086815260200190815260200160002060009055600193505050506106b5565b60008181526001830160205260408120546127ea575081546001818101845560008481526020808220909301849055845484825282860190935260409020919091556106b5565b5060006106b5565b60006127fc61204d565b54600160401b900460ff16919050565b60006020828403121561281e57600080fd5b81356001600160e01b0319811681146113bd57600080fd5b60006020808352835180602085015260005b8181101561286457858101830151858201604001528201612848565b506000604082860101526040601f19601f8301168501019250505092915050565b80356001600160a01b038116811461289c57600080fd5b919050565b600080604083850312156128b457600080fd5b6128bd83612885565b946020939093013593505050565b6000602082840312156128dd57600080fd5b6113bd82612885565b6000806000606084860312156128fb57600080fd5b61290484612885565b925061291260208501612885565b9150604084013590509250925092565b60006020828403121561293457600080fd5b5035919050565b6000806040838503121561294e57600080fd5b8235915061295e60208401612885565b90509250929050565b6000806040838503121561297a57600080fd5b50508035926020909101359150565b6020808252825182820181905260009190848201906040850190845b818110156129ca5783516001600160a01b0316835292840192918401916001016129a5565b50909695505050505050565b600080604083850312156129e957600080fd5b6129f283612885565b915061295e60208401612885565b60008060408385031215612a1357600080fd5b612a1c83612885565b915060208301358015158114612a3157600080fd5b809150509250929050565b600181811c90821680612a5057607f821691505b602082108103612a7057634e487b7160e01b600052602260045260246000fd5b50919050565b60208082526011908201527020b1b1b7bab73a1034b990333937bd32b760791b604082015260600190565b634e487b7160e01b600052601160045260246000fd5b600181815b80851115612af2578160001904821115612ad857612ad8612aa1565b80851615612ae557918102915b93841c9390800290612abc565b509250929050565b600082612b09575060016106b5565b81612b16575060006106b5565b8160018114612b2c5760028114612b3657612b52565b60019150506106b5565b60ff841115612b4757612b47612aa1565b50506001821b6106b5565b5060208310610133831016604e8410600b8410161715612b75575081810a6106b5565b612b7f8383612ab7565b8060001904821115612b9357612b93612aa1565b029392505050565b60006113bd60ff841683612afa565b80820281158282048414176106b5576106b5612aa1565b818103818111156106b5576106b5612aa1565b60008085851115612be457600080fd5b83861115612bf157600080fd5b5050820193919092039150565b6bffffffffffffffffffffffff198135818116916014851015612c2b5780818660140360031b1b83161692505b505092915050565b808201808211156106b5576106b5612aa1565b634e487b7160e01b600052603260045260246000fd5b634e487b7160e01b600052604160045260246000fd5b601f821115610dfd576000816000526020600020601f850160051c81016020861015612c9b5750805b601f850160051c820191505b818110156118e857828155600101612ca7565b815167ffffffffffffffff811115612cd457612cd4612c5c565b612ce881612ce28454612a3c565b84612c72565b602080601f831160018114612d1d5760008415612d055750858301515b600019600386901b1c1916600185901b1785556118e8565b600085815260208120601f198616915b82811015612d4c57888601518255948401946001909101908401612d2d565b5085821015612d6a5787850151600019600388901b60f8161c191681555b5050505050600190811b01905550565b634e487b7160e01b600052603160045260246000fdfec1f6fe24621ce81ec5827caf0253cadb74709b061630e6b55e82371705932000d22ed3a112884bd9fd6003b71d02c2a671cf1ddcc8740e9a0a8e3ab3973e344f52c63247e1f47db19d5ce0460030c497f067ca4cebf71ba98eeadabe20bace00da4d20b686f7404041d4a40bc922508734f59795e8a7394e246602eb8ec5b77b9f2df0fed2c77648de5860a4cc508cd0818c85b8b8a1ab4ceeef8d981c8956a602dd7bc7dec4dceedda775e58dd541e08a116c6c53815c0bd028192f7b626800e1dcbdb91df27212a29bc27177c840cf2f819ecf2187432e1fac86c2dd5dfca9cb4c1560f0ac783af04187bda6c71d491dee6a63e28b3ad8457b60790f38eebaa2646970667358221220c4186fd7514e434fe9340633343da7e42e742d56884b18c6586f09cf178e118c64736f6c63430008160033","opcodes":"PUSH1 0x80 PUSH1 0x40 MSTORE CALLVALUE DUP1 ISZERO PUSH3 0x11 JUMPI PUSH1 0x0 DUP1 REVERT JUMPDEST POP PUSH3 0x1C PUSH3 0x22 JUMP JUMPDEST PUSH3 0xD6 JUMP JUMPDEST PUSH32 0xF0C57E16840DF040F15088DC2F81FE391C3923BEC73E23A9662EFC9C229C6A00 DUP1 SLOAD PUSH9 0x10000000000000000 SWAP1 DIV PUSH1 0xFF AND ISZERO PUSH3 0x73 JUMPI PUSH1 0x40 MLOAD PUSH4 0xF92EE8A9 PUSH1 0xE0 SHL DUP2 MSTORE PUSH1 0x4 ADD PUSH1 0x40 MLOAD DUP1 SWAP2 SUB SWAP1 REVERT JUMPDEST DUP1 SLOAD PUSH1 0x1 PUSH1 0x1 PUSH1 0x40 SHL SUB SWAP1 DUP2 AND EQ PUSH3 0xD3 JUMPI DUP1 SLOAD PUSH1 0x1 PUSH1 0x1 PUSH1 0x40 SHL SUB NOT AND PUSH1 0x1 PUSH1 0x1 PUSH1 0x40 SHL SUB SWAP1 DUP2 OR DUP3 SSTORE PUSH1 0x40 MLOAD SWAP1 DUP2 MSTORE PUSH32 0xC7F505B2F371AE2175EE4913F4499E1F2633A7B5936321EED1CDAEB6115181D2 SWAP1 PUSH1 0x20 ADD PUSH1 0x40 MLOAD DUP1 SWAP2 SUB SWAP1 LOG1 JUMPDEST POP JUMP JUMPDEST PUSH2 0x2EC6 DUP1 PUSH3 0xE6 PUSH1 0x0 CODECOPY PUSH1 0x0 RETURN INVALID PUSH1 0x80 PUSH1 0x40 MSTORE CALLVALUE DUP1 ISZERO PUSH2 0x10 JUMPI PUSH1 0x0 DUP1 REVERT JUMPDEST POP PUSH1 0x4 CALLDATASIZE LT PUSH2 0x27F JUMPI PUSH1 0x0 CALLDATALOAD PUSH1 0xE0 SHR DUP1 PUSH4 0x9010D07C GT PUSH2 0x15C JUMPI DUP1 PUSH4 0xCA15C873 GT PUSH2 0xCE JUMPI DUP1 PUSH4 0xD547741F GT PUSH2 0x87 JUMPI DUP1 PUSH4 0xD547741F EQ PUSH2 0x60A JUMPI DUP1 PUSH4 0xDD62ED3E EQ PUSH2 0x61D JUMPI DUP1 PUSH4 0xE691D03B EQ PUSH2 0x630 JUMPI DUP1 PUSH4 0xE8AC6533 EQ PUSH2 0x643 JUMPI DUP1 PUSH4 0xF26C159F EQ PUSH2 0x656 JUMPI DUP1 PUSH4 0xF72C0D8B EQ PUSH2 0x669 JUMPI PUSH1 0x0 DUP1 REVERT JUMPDEST DUP1 PUSH4 0xCA15C873 EQ PUSH2 0x594 JUMPI DUP1 PUSH4 0xCD5AD4C5 EQ PUSH2 0x5A7 JUMPI DUP1 PUSH4 0xD11A57EC EQ PUSH2 0x5BA JUMPI DUP1 PUSH4 0xD403C878 EQ PUSH2 0x5CF JUMPI DUP1 PUSH4 0xD4179E8D EQ PUSH2 0x5E2 JUMPI DUP1 PUSH4 0xD5391393 EQ PUSH2 0x5F5 JUMPI PUSH1 0x0 DUP1 REVERT JUMPDEST DUP1 PUSH4 0xA3246AD3 GT PUSH2 0x120 JUMPI DUP1 PUSH4 0xA3246AD3 EQ PUSH2 0x513 JUMPI DUP1 PUSH4 0xA8422C2F EQ PUSH2 0x533 JUMPI DUP1 PUSH4 0xA9059CBB EQ PUSH2 0x548 JUMPI DUP1 PUSH4 0xBAE5EC04 EQ PUSH2 0x55B JUMPI DUP1 PUSH4 0xC4D66DE8 EQ PUSH2 0x56E JUMPI DUP1 PUSH4 0xC80EEEC2 EQ PUSH2 0x581 JUMPI PUSH1 0x0 DUP1 REVERT JUMPDEST DUP1 PUSH4 0x9010D07C EQ PUSH2 0x4B2 JUMPI DUP1 PUSH4 0x91D14854 EQ PUSH2 0x4DD JUMPI DUP1 PUSH4 0x95D89B41 EQ PUSH2 0x4F0 JUMPI DUP1 PUSH4 0x9DC29FAC EQ PUSH2 0x4F8 JUMPI DUP1 PUSH4 0xA217FDDF EQ PUSH2 0x50B JUMPI PUSH1 0x0 DUP1 REVERT JUMPDEST DUP1 PUSH4 0x35F14F14 GT PUSH2 0x1F5 JUMPI DUP1 PUSH4 0x572B6C05 GT PUSH2 0x1B9 JUMPI DUP1 PUSH4 0x572B6C05 EQ PUSH2 0x3EF JUMPI DUP1 PUSH4 0x70A08231 EQ PUSH2 0x41B JUMPI DUP1 PUSH4 0x76B88024 EQ PUSH2 0x451 JUMPI DUP1 PUSH4 0x788649EA EQ PUSH2 0x474 JUMPI DUP1 PUSH4 0x860838A5 EQ PUSH2 0x487 JUMPI DUP1 PUSH4 0x8C3D7301 EQ PUSH2 0x4AA JUMPI PUSH1 0x0 DUP1 REVERT JUMPDEST DUP1 PUSH4 0x35F14F14 EQ PUSH2 0x38E JUMPI DUP1 PUSH4 0x36568ABE EQ PUSH2 0x3A1 JUMPI DUP1 PUSH4 0x3A594A1D EQ PUSH2 0x3B4 JUMPI DUP1 PUSH4 0x40C10F19 EQ PUSH2 0x3C9 JUMPI DUP1 PUSH4 0x4EB03F6E EQ PUSH2 0x3DC JUMPI PUSH1 0x0 DUP1 REVERT JUMPDEST DUP1 PUSH4 0x175BADCB GT PUSH2 0x247 JUMPI DUP1 PUSH4 0x175BADCB EQ PUSH2 0x30C JUMPI DUP1 PUSH4 0x18160DDD EQ PUSH2 0x31F JUMPI DUP1 PUSH4 0x23B872DD EQ PUSH2 0x346 JUMPI DUP1 PUSH4 0x248A9CA3 EQ PUSH2 0x359 JUMPI DUP1 PUSH4 0x2F2FF15D EQ PUSH2 0x36C JUMPI DUP1 PUSH4 0x313CE567 EQ PUSH2 0x37F JUMPI PUSH1 0x0 DUP1 REVERT JUMPDEST DUP1 PUSH4 0x1FFC9A7 EQ PUSH2 0x284 JUMPI DUP1 PUSH4 0x6FDDE03 EQ PUSH2 0x2AC JUMPI DUP1 PUSH4 0x95EA7B3 EQ PUSH2 0x2C1 JUMPI DUP1 PUSH4 0xEE3153F EQ PUSH2 0x2D4 JUMPI DUP1 PUSH4 0x14EEB828 EQ PUSH2 0x2E9 JUMPI JUMPDEST PUSH1 0x0 DUP1 REVERT JUMPDEST PUSH2 0x297 PUSH2 0x292 CALLDATASIZE PUSH1 0x4 PUSH2 0x280C JUMP JUMPDEST PUSH2 0x690 JUMP JUMPDEST PUSH1 0x40 MLOAD SWAP1 ISZERO ISZERO DUP2 MSTORE PUSH1 0x20 ADD JUMPDEST PUSH1 0x40 MLOAD DUP1 SWAP2 SUB SWAP1 RETURN JUMPDEST PUSH2 0x2B4 PUSH2 0x6BB JUMP JUMPDEST PUSH1 0x40 MLOAD PUSH2 0x2A3 SWAP2 SWAP1 PUSH2 0x2836 JUMP JUMPDEST PUSH2 0x297 PUSH2 0x2CF CALLDATASIZE PUSH1 0x4 PUSH2 0x28A1 JUMP JUMPDEST PUSH2 0x77E JUMP JUMPDEST PUSH2 0x2E7 PUSH2 0x2E2 CALLDATASIZE PUSH1 0x4 PUSH2 0x28CB JUMP JUMPDEST PUSH2 0x7A0 JUMP JUMPDEST STOP JUMPDEST PUSH2 0x2FE PUSH1 0x0 DUP1 MLOAD PUSH1 0x20 PUSH2 0x2DB1 DUP4 CODECOPY DUP2 MLOAD SWAP2 MSTORE DUP2 JUMP JUMPDEST PUSH1 0x40 MLOAD SWAP1 DUP2 MSTORE PUSH1 0x20 ADD PUSH2 0x2A3 JUMP JUMPDEST PUSH2 0x2E7 PUSH2 0x31A CALLDATASIZE PUSH1 0x4 PUSH2 0x28CB JUMP JUMPDEST PUSH2 0x930 JUMP JUMPDEST PUSH32 0x52C63247E1F47DB19D5CE0460030C497F067CA4CEBF71BA98EEADABE20BACE02 SLOAD PUSH2 0x2FE JUMP JUMPDEST PUSH2 0x297 PUSH2 0x354 CALLDATASIZE PUSH1 0x4 PUSH2 0x28E6 JUMP JUMPDEST PUSH2 0xA59 JUMP JUMPDEST PUSH2 0x2FE PUSH2 0x367 CALLDATASIZE PUSH1 0x4 PUSH2 0x2922 JUMP JUMPDEST PUSH2 0xC13 JUMP JUMPDEST PUSH2 0x2E7 PUSH2 0x37A CALLDATASIZE PUSH1 0x4 PUSH2 0x293B JUMP JUMPDEST PUSH2 0xC35 JUMP JUMPDEST PUSH1 0x40 MLOAD PUSH1 0x8 DUP2 MSTORE PUSH1 0x20 ADD PUSH2 0x2A3 JUMP JUMPDEST PUSH2 0x2E7 PUSH2 0x39C CALLDATASIZE PUSH1 0x4 PUSH2 0x28CB JUMP JUMPDEST PUSH2 0xC57 JUMP JUMPDEST PUSH2 0x2E7 PUSH2 0x3AF CALLDATASIZE PUSH1 0x4 PUSH2 0x293B JUMP JUMPDEST PUSH2 0xDBA JUMP JUMPDEST PUSH2 0x2FE PUSH1 0x0 DUP1 MLOAD PUSH1 0x20 PUSH2 0x2E71 DUP4 CODECOPY DUP2 MLOAD SWAP2 MSTORE DUP2 JUMP JUMPDEST PUSH2 0x2E7 PUSH2 0x3D7 CALLDATASIZE PUSH1 0x4 PUSH2 0x28A1 JUMP JUMPDEST PUSH2 0xE02 JUMP JUMPDEST PUSH2 0x2E7 PUSH2 0x3EA CALLDATASIZE PUSH1 0x4 PUSH2 0x28CB JUMP JUMPDEST PUSH2 0xF15 JUMP JUMPDEST PUSH2 0x297 PUSH2 0x3FD CALLDATASIZE PUSH1 0x4 PUSH2 0x28CB JUMP JUMPDEST PUSH1 0x1 PUSH1 0x1 PUSH1 0xA0 SHL SUB AND PUSH1 0x0 SWAP1 DUP2 MSTORE PUSH1 0x2 PUSH1 0x20 MSTORE PUSH1 0x40 SWAP1 KECCAK256 SLOAD PUSH1 0xFF AND SWAP1 JUMP JUMPDEST PUSH2 0x2FE PUSH2 0x429 CALLDATASIZE PUSH1 0x4 PUSH2 0x28CB JUMP JUMPDEST PUSH1 0x1 PUSH1 0x1 PUSH1 0xA0 SHL SUB AND PUSH1 0x0 SWAP1 DUP2 MSTORE PUSH1 0x0 DUP1 MLOAD PUSH1 0x20 PUSH2 0x2DD1 DUP4 CODECOPY DUP2 MLOAD SWAP2 MSTORE PUSH1 0x20 MSTORE PUSH1 0x40 SWAP1 KECCAK256 SLOAD SWAP1 JUMP JUMPDEST PUSH2 0x297 PUSH2 0x45F CALLDATASIZE PUSH1 0x4 PUSH2 0x28CB JUMP JUMPDEST PUSH1 0x2 PUSH1 0x20 MSTORE PUSH1 0x0 SWAP1 DUP2 MSTORE PUSH1 0x40 SWAP1 KECCAK256 SLOAD PUSH1 0xFF AND DUP2 JUMP JUMPDEST PUSH2 0x2E7 PUSH2 0x482 CALLDATASIZE PUSH1 0x4 PUSH2 0x28CB JUMP JUMPDEST PUSH2 0x1053 JUMP JUMPDEST PUSH2 0x297 PUSH2 0x495 CALLDATASIZE PUSH1 0x4 PUSH2 0x28CB JUMP JUMPDEST PUSH1 0x1 PUSH1 0x20 MSTORE PUSH1 0x0 SWAP1 DUP2 MSTORE PUSH1 0x40 SWAP1 KECCAK256 SLOAD PUSH1 0xFF AND DUP2 JUMP JUMPDEST PUSH2 0x2E7 PUSH2 0x10D1 JUMP JUMPDEST PUSH2 0x4C5 PUSH2 0x4C0 CALLDATASIZE PUSH1 0x4 PUSH2 0x2967 JUMP JUMPDEST PUSH2 0x1230 JUMP JUMPDEST PUSH1 0x40 MLOAD PUSH1 0x1 PUSH1 0x1 PUSH1 0xA0 SHL SUB SWAP1 SWAP2 AND DUP2 MSTORE PUSH1 0x20 ADD PUSH2 0x2A3 JUMP JUMPDEST PUSH2 0x297 PUSH2 0x4EB CALLDATASIZE PUSH1 0x4 PUSH2 0x293B JUMP JUMPDEST PUSH2 0x125F JUMP JUMPDEST PUSH2 0x2B4 PUSH2 0x1297 JUMP JUMPDEST PUSH2 0x2E7 PUSH2 0x506 CALLDATASIZE PUSH1 0x4 PUSH2 0x28A1 JUMP JUMPDEST PUSH2 0x12D6 JUMP JUMPDEST PUSH2 0x2FE PUSH1 0x0 DUP2 JUMP JUMPDEST PUSH2 0x526 PUSH2 0x521 CALLDATASIZE PUSH1 0x4 PUSH2 0x2922 JUMP JUMPDEST PUSH2 0x1392 JUMP JUMPDEST PUSH1 0x40 MLOAD PUSH2 0x2A3 SWAP2 SWAP1 PUSH2 0x2989 JUMP JUMPDEST PUSH2 0x2FE PUSH1 0x0 DUP1 MLOAD PUSH1 0x20 PUSH2 0x2DF1 DUP4 CODECOPY DUP2 MLOAD SWAP2 MSTORE DUP2 JUMP JUMPDEST PUSH2 0x297 PUSH2 0x556 CALLDATASIZE PUSH1 0x4 PUSH2 0x28A1 JUMP JUMPDEST PUSH2 0x13C4 JUMP JUMPDEST PUSH2 0x2E7 PUSH2 0x569 CALLDATASIZE PUSH1 0x4 PUSH2 0x28CB JUMP JUMPDEST PUSH2 0x1569 JUMP JUMPDEST PUSH2 0x2E7 PUSH2 0x57C CALLDATASIZE PUSH1 0x4 PUSH2 0x28CB JUMP JUMPDEST PUSH2 0x171D JUMP JUMPDEST PUSH2 0x2E7 PUSH2 0x58F CALLDATASIZE PUSH1 0x4 PUSH2 0x28CB JUMP JUMPDEST PUSH2 0x18F0 JUMP JUMPDEST PUSH2 0x2FE PUSH2 0x5A2 CALLDATASIZE PUSH1 0x4 PUSH2 0x2922 JUMP JUMPDEST PUSH2 0x1A08 JUMP JUMPDEST PUSH2 0x2E7 PUSH2 0x5B5 CALLDATASIZE PUSH1 0x4 PUSH2 0x28CB JUMP JUMPDEST PUSH2 0x1A2E JUMP JUMPDEST PUSH2 0x2FE PUSH1 0x0 DUP1 MLOAD PUSH1 0x20 PUSH2 0x2E51 DUP4 CODECOPY DUP2 MLOAD SWAP2 MSTORE DUP2 JUMP JUMPDEST PUSH2 0x2E7 PUSH2 0x5DD CALLDATASIZE PUSH1 0x4 PUSH2 0x28CB JUMP JUMPDEST PUSH2 0x1B55 JUMP JUMPDEST PUSH2 0x2E7 PUSH2 0x5F0 CALLDATASIZE PUSH1 0x4 PUSH2 0x28CB JUMP JUMPDEST PUSH2 0x1C6F JUMP JUMPDEST PUSH2 0x2FE PUSH1 0x0 DUP1 MLOAD PUSH1 0x20 PUSH2 0x2E11 DUP4 CODECOPY DUP2 MLOAD SWAP2 MSTORE DUP2 JUMP JUMPDEST PUSH2 0x2E7 PUSH2 0x618 CALLDATASIZE PUSH1 0x4 PUSH2 0x293B JUMP JUMPDEST PUSH2 0x1D77 JUMP JUMPDEST PUSH2 0x2FE PUSH2 0x62B CALLDATASIZE PUSH1 0x4 PUSH2 0x29D6 JUMP JUMPDEST PUSH2 0x1D93 JUMP JUMPDEST PUSH2 0x2E7 PUSH2 0x63E CALLDATASIZE PUSH1 0x4 PUSH2 0x2A00 JUMP JUMPDEST PUSH2 0x1DDD JUMP JUMPDEST PUSH1 0x0 SLOAD PUSH2 0x4C5 SWAP1 PUSH1 0x1 PUSH1 0x1 PUSH1 0xA0 SHL SUB AND DUP2 JUMP JUMPDEST PUSH2 0x2E7 PUSH2 0x664 CALLDATASIZE PUSH1 0x4 PUSH2 0x28CB JUMP JUMPDEST PUSH2 0x1E14 JUMP JUMPDEST PUSH2 0x2FE PUSH32 0x189AB7A9244DF0848122154315AF71FE140F3DB0FE014031783B0946B8C9D2E3 DUP2 JUMP JUMPDEST PUSH1 0x0 PUSH1 0x1 PUSH1 0x1 PUSH1 0xE0 SHL SUB NOT DUP3 AND PUSH4 0x5A05180F PUSH1 0xE0 SHL EQ DUP1 PUSH2 0x6B5 JUMPI POP PUSH2 0x6B5 DUP3 PUSH2 0x1E98 JUMP JUMPDEST SWAP3 SWAP2 POP POP JUMP JUMPDEST PUSH32 0x52C63247E1F47DB19D5CE0460030C497F067CA4CEBF71BA98EEADABE20BACE03 DUP1 SLOAD PUSH1 0x60 SWAP2 PUSH1 0x0 DUP1 MLOAD PUSH1 0x20 PUSH2 0x2DD1 DUP4 CODECOPY DUP2 MLOAD SWAP2 MSTORE SWAP2 PUSH2 0x6FA SWAP1 PUSH2 0x2A3C JUMP JUMPDEST DUP1 PUSH1 0x1F ADD PUSH1 0x20 DUP1 SWAP2 DIV MUL PUSH1 0x20 ADD PUSH1 0x40 MLOAD SWAP1 DUP2 ADD PUSH1 0x40 MSTORE DUP1 SWAP3 SWAP2 SWAP1 DUP2 DUP2 MSTORE PUSH1 0x20 ADD DUP3 DUP1 SLOAD PUSH2 0x726 SWAP1 PUSH2 0x2A3C JUMP JUMPDEST DUP1 ISZERO PUSH2 0x773 JUMPI DUP1 PUSH1 0x1F LT PUSH2 0x748 JUMPI PUSH2 0x100 DUP1 DUP4 SLOAD DIV MUL DUP4 MSTORE SWAP2 PUSH1 0x20 ADD SWAP2 PUSH2 0x773 JUMP JUMPDEST DUP3 ADD SWAP2 SWAP1 PUSH1 0x0 MSTORE PUSH1 0x20 PUSH1 0x0 KECCAK256 SWAP1 JUMPDEST DUP2 SLOAD DUP2 MSTORE SWAP1 PUSH1 0x1 ADD SWAP1 PUSH1 0x20 ADD DUP1 DUP4 GT PUSH2 0x756 JUMPI DUP3 SWAP1 SUB PUSH1 0x1F AND DUP3 ADD SWAP2 JUMPDEST POP POP POP POP POP SWAP2 POP POP SWAP1 JUMP JUMPDEST PUSH1 0x0 DUP1 PUSH2 0x789 PUSH2 0x1ECD JUMP JUMPDEST SWAP1 POP PUSH2 0x796 DUP2 DUP6 DUP6 PUSH2 0x1EDC JUMP JUMPDEST POP PUSH1 0x1 SWAP4 SWAP3 POP POP POP JUMP JUMPDEST PUSH1 0x0 PUSH2 0x7AB DUP2 PUSH2 0x1EE9 JUMP JUMPDEST DUP2 PUSH1 0x1 PUSH1 0x1 PUSH1 0xA0 SHL SUB DUP2 AND PUSH2 0x7D3 JUMPI PUSH1 0x40 MLOAD PUSH4 0x6E5EC59F PUSH1 0xE0 SHL DUP2 MSTORE PUSH1 0x4 ADD PUSH1 0x40 MLOAD DUP1 SWAP2 SUB SWAP1 REVERT JUMPDEST PUSH2 0x7EB PUSH1 0x0 DUP1 MLOAD PUSH1 0x20 PUSH2 0x2DB1 DUP4 CODECOPY DUP2 MLOAD SWAP2 MSTORE DUP5 PUSH2 0x125F JUMP JUMPDEST PUSH2 0x835 JUMPI PUSH1 0x40 MLOAD PUSH3 0x461BCD PUSH1 0xE5 SHL DUP2 MSTORE PUSH1 0x20 PUSH1 0x4 DUP3 ADD MSTORE PUSH1 0x16 PUSH1 0x24 DUP3 ADD MSTORE PUSH22 0x2737BA103BB434BA32B634B9BA32B21039B2B73232B9 PUSH1 0x51 SHL PUSH1 0x44 DUP3 ADD MSTORE PUSH1 0x64 ADD JUMPDEST PUSH1 0x40 MLOAD DUP1 SWAP2 SUB SWAP1 REVERT JUMPDEST PUSH2 0x84D PUSH1 0x0 DUP1 MLOAD PUSH1 0x20 PUSH2 0x2E51 DUP4 CODECOPY DUP2 MLOAD SWAP2 MSTORE DUP5 PUSH2 0x125F JUMP JUMPDEST ISZERO PUSH2 0x893 JUMPI PUSH1 0x40 MLOAD PUSH3 0x461BCD PUSH1 0xE5 SHL DUP2 MSTORE PUSH1 0x20 PUSH1 0x4 DUP3 ADD MSTORE PUSH1 0x16 PUSH1 0x24 DUP3 ADD MSTORE PUSH22 0x43616E6E6F742072656D6F7665207472656173757279 PUSH1 0x50 SHL PUSH1 0x44 DUP3 ADD MSTORE PUSH1 0x64 ADD PUSH2 0x82C JUMP JUMPDEST PUSH2 0x8AB PUSH1 0x0 DUP1 MLOAD PUSH1 0x20 PUSH2 0x2DB1 DUP4 CODECOPY DUP2 MLOAD SWAP2 MSTORE DUP5 PUSH2 0x1EFD JUMP JUMPDEST POP DUP3 PUSH1 0x1 PUSH1 0x1 PUSH1 0xA0 SHL SUB AND PUSH32 0xE178BF7CC940ED3C4D14C1206DB670AB5B94749D88646DC197F874A32372EA5 PUSH1 0x40 MLOAD PUSH2 0x923 SWAP1 PUSH1 0x20 DUP1 DUP3 MSTORE PUSH1 0x25 SWAP1 DUP3 ADD MSTORE PUSH32 0x53656E64657220416464726573732052656D6F7665642046726F6D2057686974 PUSH1 0x40 DUP3 ADD MSTORE PUSH5 0x195B1A5CDD PUSH1 0xDA SHL PUSH1 0x60 DUP3 ADD MSTORE PUSH1 0x80 ADD SWAP1 JUMP JUMPDEST PUSH1 0x40 MLOAD DUP1 SWAP2 SUB SWAP1 LOG2 POP POP POP JUMP JUMPDEST PUSH1 0x0 PUSH2 0x93B DUP2 PUSH2 0x1EE9 JUMP JUMPDEST DUP2 PUSH1 0x1 PUSH1 0x1 PUSH1 0xA0 SHL SUB DUP2 AND PUSH2 0x963 JUMPI PUSH1 0x40 MLOAD PUSH4 0x6E5EC59F PUSH1 0xE0 SHL DUP2 MSTORE PUSH1 0x4 ADD PUSH1 0x40 MLOAD DUP1 SWAP2 SUB SWAP1 REVERT JUMPDEST PUSH2 0x97B PUSH1 0x0 DUP1 MLOAD PUSH1 0x20 PUSH2 0x2DF1 DUP4 CODECOPY DUP2 MLOAD SWAP2 MSTORE DUP5 PUSH2 0x125F JUMP JUMPDEST PUSH2 0x9C7 JUMPI PUSH1 0x40 MLOAD PUSH3 0x461BCD PUSH1 0xE5 SHL DUP2 MSTORE PUSH1 0x20 PUSH1 0x4 DUP3 ADD MSTORE PUSH1 0x18 PUSH1 0x24 DUP3 ADD MSTORE PUSH32 0x4E6F742077686974656C69737465642072656365697665720000000000000000 PUSH1 0x44 DUP3 ADD MSTORE PUSH1 0x64 ADD PUSH2 0x82C JUMP JUMPDEST PUSH2 0x9DF PUSH1 0x0 DUP1 MLOAD PUSH1 0x20 PUSH2 0x2DF1 DUP4 CODECOPY DUP2 MLOAD SWAP2 MSTORE DUP5 PUSH2 0x1EFD JUMP JUMPDEST POP DUP3 PUSH1 0x1 PUSH1 0x1 PUSH1 0xA0 SHL SUB AND PUSH32 0xAAF02BA1BCB5B6C4B56E5B51C64FFB18BD8ED3760523F4D845A3C0CC0A859244 PUSH1 0x40 MLOAD PUSH2 0x923 SWAP1 PUSH1 0x20 DUP1 DUP3 MSTORE PUSH1 0x27 SWAP1 DUP3 ADD MSTORE PUSH32 0x526563656976657220416464726573732052656D6F7665642046726F6D205768 PUSH1 0x40 DUP3 ADD MSTORE PUSH7 0x1A5D195B1A5CDD PUSH1 0xCA SHL PUSH1 0x60 DUP3 ADD MSTORE PUSH1 0x80 ADD SWAP1 JUMP JUMPDEST PUSH1 0x0 DUP2 DUP1 PUSH1 0x0 SUB PUSH2 0xA7D JUMPI PUSH1 0x40 MLOAD PUSH4 0x162908E3 PUSH1 0xE1 SHL DUP2 MSTORE PUSH1 0x4 ADD PUSH1 0x40 MLOAD DUP1 SWAP2 SUB SWAP1 REVERT JUMPDEST DUP4 PUSH1 0x1 PUSH1 0x1 PUSH1 0xA0 SHL SUB DUP2 AND PUSH2 0xAA5 JUMPI PUSH1 0x40 MLOAD PUSH4 0x6E5EC59F PUSH1 0xE0 SHL DUP2 MSTORE PUSH1 0x4 ADD PUSH1 0x40 MLOAD DUP1 SWAP2 SUB SWAP1 REVERT JUMPDEST PUSH1 0x1 PUSH1 0x1 PUSH1 0xA0 SHL SUB DUP7 AND PUSH1 0x0 SWAP1 DUP2 MSTORE PUSH1 0x1 PUSH1 0x20 MSTORE PUSH1 0x40 SWAP1 KECCAK256 SLOAD DUP7 SWAP1 PUSH1 0xFF AND ISZERO PUSH2 0xAE0 JUMPI PUSH1 0x40 MLOAD PUSH3 0x461BCD PUSH1 0xE5 SHL DUP2 MSTORE PUSH1 0x4 ADD PUSH2 0x82C SWAP1 PUSH2 0x2A76 JUMP JUMPDEST PUSH1 0x1 PUSH1 0x1 PUSH1 0xA0 SHL SUB DUP7 AND PUSH1 0x0 SWAP1 DUP2 MSTORE PUSH1 0x1 PUSH1 0x20 MSTORE PUSH1 0x40 SWAP1 KECCAK256 SLOAD DUP7 SWAP1 PUSH1 0xFF AND ISZERO PUSH2 0xB1B JUMPI PUSH1 0x40 MLOAD PUSH3 0x461BCD PUSH1 0xE5 SHL DUP2 MSTORE PUSH1 0x4 ADD PUSH2 0x82C SWAP1 PUSH2 0x2A76 JUMP JUMPDEST DUP8 DUP8 DUP2 PUSH1 0x1 PUSH1 0x1 PUSH1 0xA0 SHL SUB AND DUP2 PUSH1 0x1 PUSH1 0x1 PUSH1 0xA0 SHL SUB AND SUB PUSH2 0xB78 JUMPI PUSH1 0x40 MLOAD PUSH3 0x461BCD PUSH1 0xE5 SHL DUP2 MSTORE PUSH1 0x20 PUSH1 0x4 DUP3 ADD MSTORE PUSH1 0x17 PUSH1 0x24 DUP3 ADD MSTORE PUSH23 0x21B0B73737BA103A3930B739B332B9103A379039B2B633 PUSH1 0x49 SHL PUSH1 0x44 DUP3 ADD MSTORE PUSH1 0x64 ADD PUSH2 0x82C JUMP JUMPDEST PUSH2 0xB90 PUSH1 0x0 DUP1 MLOAD PUSH1 0x20 PUSH2 0x2DB1 DUP4 CODECOPY DUP2 MLOAD SWAP2 MSTORE DUP4 PUSH2 0x125F JUMP JUMPDEST DUP1 PUSH2 0xBAE JUMPI POP PUSH2 0xBAE PUSH1 0x0 DUP1 MLOAD PUSH1 0x20 PUSH2 0x2DF1 DUP4 CODECOPY DUP2 MLOAD SWAP2 MSTORE DUP3 PUSH2 0x125F JUMP JUMPDEST PUSH2 0xBFA JUMPI PUSH1 0x40 MLOAD PUSH3 0x461BCD PUSH1 0xE5 SHL DUP2 MSTORE PUSH1 0x20 PUSH1 0x4 DUP3 ADD MSTORE PUSH1 0x1A PUSH1 0x24 DUP3 ADD MSTORE PUSH32 0x496E76616C69642073656E646572206F72207265636569766572000000000000 PUSH1 0x44 DUP3 ADD MSTORE PUSH1 0x64 ADD PUSH2 0x82C JUMP JUMPDEST PUSH2 0xC05 DUP11 DUP11 DUP11 PUSH2 0x1F42 JUMP JUMPDEST SWAP11 SWAP10 POP POP POP POP POP POP POP POP POP POP JUMP JUMPDEST PUSH1 0x0 SWAP1 DUP2 MSTORE PUSH1 0x0 DUP1 MLOAD PUSH1 0x20 PUSH2 0x2E31 DUP4 CODECOPY DUP2 MLOAD SWAP2 MSTORE PUSH1 0x20 MSTORE PUSH1 0x40 SWAP1 KECCAK256 PUSH1 0x1 ADD SLOAD SWAP1 JUMP JUMPDEST PUSH2 0xC3E DUP3 PUSH2 0xC13 JUMP JUMPDEST PUSH2 0xC47 DUP2 PUSH2 0x1EE9 JUMP JUMPDEST PUSH2 0xC51 DUP4 DUP4 PUSH2 0x1F70 JUMP JUMPDEST POP POP POP POP JUMP JUMPDEST PUSH1 0x0 PUSH2 0xC62 DUP2 PUSH2 0x1EE9 JUMP JUMPDEST DUP2 PUSH1 0x1 PUSH1 0x1 PUSH1 0xA0 SHL SUB DUP2 AND PUSH2 0xC8A JUMPI PUSH1 0x40 MLOAD PUSH4 0x6E5EC59F PUSH1 0xE0 SHL DUP2 MSTORE PUSH1 0x4 ADD PUSH1 0x40 MLOAD DUP1 SWAP2 SUB SWAP1 REVERT JUMPDEST PUSH2 0xCA2 PUSH1 0x0 DUP1 MLOAD PUSH1 0x20 PUSH2 0x2E71 DUP4 CODECOPY DUP2 MLOAD SWAP2 MSTORE DUP5 PUSH2 0x125F JUMP JUMPDEST ISZERO PUSH2 0xCE4 JUMPI PUSH1 0x40 MLOAD PUSH3 0x461BCD PUSH1 0xE5 SHL DUP2 MSTORE PUSH1 0x20 PUSH1 0x4 DUP3 ADD MSTORE PUSH1 0x12 PUSH1 0x24 DUP3 ADD MSTORE PUSH18 0x105B1C9958591E48189D5C9B881D985D5B1D PUSH1 0x72 SHL PUSH1 0x44 DUP3 ADD MSTORE PUSH1 0x64 ADD PUSH2 0x82C JUMP JUMPDEST PUSH1 0x0 PUSH2 0xCFF PUSH1 0x0 DUP1 MLOAD PUSH1 0x20 PUSH2 0x2E71 DUP4 CODECOPY DUP2 MLOAD SWAP2 MSTORE PUSH1 0x0 PUSH2 0x1230 JUMP JUMPDEST SWAP1 POP PUSH1 0x1 PUSH1 0x1 PUSH1 0xA0 SHL SUB DUP2 AND ISZERO PUSH2 0xD2A JUMPI PUSH2 0xD28 PUSH1 0x0 DUP1 MLOAD PUSH1 0x20 PUSH2 0x2E71 DUP4 CODECOPY DUP2 MLOAD SWAP2 MSTORE DUP3 PUSH2 0x1EFD JUMP JUMPDEST POP JUMPDEST PUSH2 0xD42 PUSH1 0x0 DUP1 MLOAD PUSH1 0x20 PUSH2 0x2E71 DUP4 CODECOPY DUP2 MLOAD SWAP2 MSTORE DUP6 PUSH2 0x1F70 JUMP JUMPDEST POP DUP4 PUSH1 0x1 PUSH1 0x1 PUSH1 0xA0 SHL SUB AND PUSH32 0x27CB0B1F15CF273268C02C4AC770F2121077509FD09F76000F26FEF2107C8E39 PUSH1 0x40 MLOAD PUSH2 0xDAC SWAP1 PUSH1 0x20 DUP1 DUP3 MSTORE PUSH1 0x18 SWAP1 DUP3 ADD MSTORE PUSH32 0x4275726E61626C65204164647265737320557064617465640000000000000000 PUSH1 0x40 DUP3 ADD MSTORE PUSH1 0x60 ADD SWAP1 JUMP JUMPDEST PUSH1 0x40 MLOAD DUP1 SWAP2 SUB SWAP1 LOG2 POP POP POP POP JUMP JUMPDEST PUSH2 0xDC2 PUSH2 0x1ECD JUMP JUMPDEST PUSH1 0x1 PUSH1 0x1 PUSH1 0xA0 SHL SUB AND DUP2 PUSH1 0x1 PUSH1 0x1 PUSH1 0xA0 SHL SUB AND EQ PUSH2 0xDF3 JUMPI PUSH1 0x40 MLOAD PUSH4 0x334BD919 PUSH1 0xE1 SHL DUP2 MSTORE PUSH1 0x4 ADD PUSH1 0x40 MLOAD DUP1 SWAP2 SUB SWAP1 REVERT JUMPDEST PUSH2 0xDFD DUP3 DUP3 PUSH2 0x1EFD JUMP JUMPDEST POP POP POP JUMP JUMPDEST PUSH1 0x0 DUP1 MLOAD PUSH1 0x20 PUSH2 0x2E11 DUP4 CODECOPY DUP2 MLOAD SWAP2 MSTORE PUSH2 0xE1A DUP2 PUSH2 0x1EE9 JUMP JUMPDEST DUP2 DUP1 PUSH1 0x0 SUB PUSH2 0xE3C JUMPI PUSH1 0x40 MLOAD PUSH4 0x162908E3 PUSH1 0xE1 SHL DUP2 MSTORE PUSH1 0x4 ADD PUSH1 0x40 MLOAD DUP1 SWAP2 SUB SWAP1 REVERT JUMPDEST DUP4 PUSH1 0x1 PUSH1 0x1 PUSH1 0xA0 SHL SUB DUP2 AND PUSH2 0xE64 JUMPI PUSH1 0x40 MLOAD PUSH4 0x6E5EC59F PUSH1 0xE0 SHL DUP2 MSTORE PUSH1 0x4 ADD PUSH1 0x40 MLOAD DUP1 SWAP2 SUB SWAP1 REVERT JUMPDEST PUSH2 0xE7C PUSH1 0x0 DUP1 MLOAD PUSH1 0x20 PUSH2 0x2E51 DUP4 CODECOPY DUP2 MLOAD SWAP2 MSTORE DUP7 PUSH2 0x125F JUMP JUMPDEST PUSH2 0xEC1 JUMPI PUSH1 0x40 MLOAD PUSH3 0x461BCD PUSH1 0xE5 SHL DUP2 MSTORE PUSH1 0x20 PUSH1 0x4 DUP3 ADD MSTORE PUSH1 0x16 PUSH1 0x24 DUP3 ADD MSTORE PUSH22 0x4E6F7420612074726561737572792061646472657373 PUSH1 0x50 SHL PUSH1 0x44 DUP3 ADD MSTORE PUSH1 0x64 ADD PUSH2 0x82C JUMP JUMPDEST PUSH2 0xECB DUP6 DUP6 PUSH2 0x1FAC JUMP JUMPDEST DUP5 PUSH1 0x1 PUSH1 0x1 PUSH1 0xA0 SHL SUB AND PUSH32 0xBFA21AA5D5F9A1F0120A95E7C0749F389863CBDBFFF531AA7339077A5BC919DE DUP6 PUSH1 0x40 MLOAD PUSH2 0xF06 SWAP2 DUP2 MSTORE PUSH1 0x20 ADD SWAP1 JUMP JUMPDEST PUSH1 0x40 MLOAD DUP1 SWAP2 SUB SWAP1 LOG2 POP POP POP POP POP JUMP JUMPDEST PUSH1 0x0 PUSH2 0xF20 DUP2 PUSH2 0x1EE9 JUMP JUMPDEST DUP2 PUSH1 0x1 PUSH1 0x1 PUSH1 0xA0 SHL SUB DUP2 AND PUSH2 0xF48 JUMPI PUSH1 0x40 MLOAD PUSH4 0x6E5EC59F PUSH1 0xE0 SHL DUP2 MSTORE PUSH1 0x4 ADD PUSH1 0x40 MLOAD DUP1 SWAP2 SUB SWAP1 REVERT JUMPDEST PUSH2 0xF60 PUSH1 0x0 DUP1 MLOAD PUSH1 0x20 PUSH2 0x2E11 DUP4 CODECOPY DUP2 MLOAD SWAP2 MSTORE DUP5 PUSH2 0x125F JUMP JUMPDEST ISZERO PUSH2 0xF9E JUMPI PUSH1 0x40 MLOAD PUSH3 0x461BCD PUSH1 0xE5 SHL DUP2 MSTORE PUSH1 0x20 PUSH1 0x4 DUP3 ADD MSTORE PUSH1 0xE PUSH1 0x24 DUP3 ADD MSTORE PUSH14 0x20B63932B0B23C9036B4B73A32B9 PUSH1 0x91 SHL PUSH1 0x44 DUP3 ADD MSTORE PUSH1 0x64 ADD PUSH2 0x82C JUMP JUMPDEST PUSH1 0x0 PUSH2 0xFB9 PUSH1 0x0 DUP1 MLOAD PUSH1 0x20 PUSH2 0x2E11 DUP4 CODECOPY DUP2 MLOAD SWAP2 MSTORE PUSH1 0x0 PUSH2 0x1230 JUMP JUMPDEST SWAP1 POP PUSH1 0x1 PUSH1 0x1 PUSH1 0xA0 SHL SUB DUP2 AND ISZERO PUSH2 0xFE4 JUMPI PUSH2 0xFE2 PUSH1 0x0 DUP1 MLOAD PUSH1 0x20 PUSH2 0x2E11 DUP4 CODECOPY DUP2 MLOAD SWAP2 MSTORE DUP3 PUSH2 0x1EFD JUMP JUMPDEST POP JUMPDEST PUSH2 0xFFC PUSH1 0x0 DUP1 MLOAD PUSH1 0x20 PUSH2 0x2E11 DUP4 CODECOPY DUP2 MLOAD SWAP2 MSTORE DUP6 PUSH2 0x1F70 JUMP JUMPDEST POP DUP4 PUSH1 0x1 PUSH1 0x1 PUSH1 0xA0 SHL SUB AND PUSH32 0x6DE4157337B92BECADB23AC8C53BDCABA13D56EAA4E2350EFF3E65C4D1D84C7C PUSH1 0x40 MLOAD PUSH2 0xDAC SWAP1 PUSH1 0x20 DUP1 DUP3 MSTORE PUSH1 0xA SWAP1 DUP3 ADD MSTORE PUSH10 0x2732BB9026B4B73A32B9 PUSH1 0xB1 SHL PUSH1 0x40 DUP3 ADD MSTORE PUSH1 0x60 ADD SWAP1 JUMP JUMPDEST PUSH1 0x0 PUSH2 0x105E DUP2 PUSH2 0x1EE9 JUMP JUMPDEST DUP2 PUSH1 0x1 PUSH1 0x1 PUSH1 0xA0 SHL SUB DUP2 AND PUSH2 0x1086 JUMPI PUSH1 0x40 MLOAD PUSH4 0x6E5EC59F PUSH1 0xE0 SHL DUP2 MSTORE PUSH1 0x4 ADD PUSH1 0x40 MLOAD DUP1 SWAP2 SUB SWAP1 REVERT JUMPDEST PUSH1 0x1 PUSH1 0x1 PUSH1 0xA0 SHL SUB DUP4 AND PUSH1 0x0 DUP2 DUP2 MSTORE PUSH1 0x1 PUSH1 0x20 MSTORE PUSH1 0x40 DUP1 DUP3 KECCAK256 DUP1 SLOAD PUSH1 0xFF NOT AND SWAP1 SSTORE MLOAD PUSH32 0xF915CD9FE234DE6E8D3AFE7BF2388D35B2B6D48E8C629A24602019BDE79C213A SWAP2 SWAP1 LOG2 POP POP POP JUMP JUMPDEST CALLER DUP1 PUSH2 0x10F0 JUMPI PUSH1 0x40 MLOAD PUSH4 0x6E5EC59F PUSH1 0xE0 SHL DUP2 MSTORE PUSH1 0x4 ADD PUSH1 0x40 MLOAD DUP1 SWAP2 SUB SWAP1 REVERT JUMPDEST PUSH1 0x0 SLOAD PUSH1 0x1 PUSH1 0x1 PUSH1 0xA0 SHL SUB AND CALLER EQ PUSH2 0x113A JUMPI PUSH1 0x40 MLOAD PUSH3 0x461BCD PUSH1 0xE5 SHL DUP2 MSTORE PUSH1 0x20 PUSH1 0x4 DUP3 ADD MSTORE PUSH1 0xD PUSH1 0x24 DUP3 ADD MSTORE PUSH13 0x139BDD081B9BDB5A5B985D1959 PUSH1 0x9A SHL PUSH1 0x44 DUP3 ADD MSTORE PUSH1 0x64 ADD PUSH2 0x82C JUMP JUMPDEST PUSH1 0x0 SLOAD PUSH1 0x1 PUSH1 0x1 PUSH1 0xA0 SHL SUB AND PUSH2 0x118A JUMPI PUSH1 0x40 MLOAD PUSH3 0x461BCD PUSH1 0xE5 SHL DUP2 MSTORE PUSH1 0x20 PUSH1 0x4 DUP3 ADD MSTORE PUSH1 0x15 PUSH1 0x24 DUP3 ADD MSTORE PUSH21 0x2737903832B73234B733903737B6B4B730BA34B7B7 PUSH1 0x59 SHL PUSH1 0x44 DUP3 ADD MSTORE PUSH1 0x64 ADD PUSH2 0x82C JUMP JUMPDEST PUSH1 0x0 PUSH2 0x1196 DUP2 DUP1 PUSH2 0x1230 JUMP JUMPDEST SWAP1 POP PUSH1 0x1 PUSH1 0x1 PUSH1 0xA0 SHL SUB DUP2 AND ISZERO PUSH2 0x11B4 JUMPI PUSH2 0x11B2 PUSH1 0x0 DUP3 PUSH2 0x1EFD JUMP JUMPDEST POP JUMPDEST PUSH2 0x11BF PUSH1 0x0 CALLER PUSH2 0x1F70 JUMP JUMPDEST POP PUSH1 0x0 DUP1 SLOAD PUSH1 0x1 PUSH1 0x1 PUSH1 0xA0 SHL SUB NOT AND SWAP1 SSTORE PUSH1 0x40 MLOAD CALLER SWAP1 PUSH32 0x33357BB61B6CE4D9E2A54FD3D9EC5807E7DF4BBD6BA3FA1B0860C0A1A39E700A SWAP1 PUSH2 0x1224 SWAP1 PUSH1 0x20 DUP1 DUP3 MSTORE PUSH1 0xF SWAP1 DUP3 ADD MSTORE PUSH15 0x13995DC810591B5A5B881059191959 PUSH1 0x8A SHL PUSH1 0x40 DUP3 ADD MSTORE PUSH1 0x60 ADD SWAP1 JUMP JUMPDEST PUSH1 0x40 MLOAD DUP1 SWAP2 SUB SWAP1 LOG2 POP POP JUMP JUMPDEST PUSH1 0x0 DUP3 DUP2 MSTORE PUSH1 0x0 DUP1 MLOAD PUSH1 0x20 PUSH2 0x2D91 DUP4 CODECOPY DUP2 MLOAD SWAP2 MSTORE PUSH1 0x20 DUP2 SWAP1 MSTORE PUSH1 0x40 DUP3 KECCAK256 PUSH2 0x1257 SWAP1 DUP5 PUSH2 0x1FE6 JUMP JUMPDEST SWAP5 SWAP4 POP POP POP POP JUMP JUMPDEST PUSH1 0x0 SWAP2 DUP3 MSTORE PUSH1 0x0 DUP1 MLOAD PUSH1 0x20 PUSH2 0x2E31 DUP4 CODECOPY DUP2 MLOAD SWAP2 MSTORE PUSH1 0x20 SWAP1 DUP2 MSTORE PUSH1 0x40 DUP1 DUP5 KECCAK256 PUSH1 0x1 PUSH1 0x1 PUSH1 0xA0 SHL SUB SWAP4 SWAP1 SWAP4 AND DUP5 MSTORE SWAP2 SWAP1 MSTORE SWAP1 KECCAK256 SLOAD PUSH1 0xFF AND SWAP1 JUMP JUMPDEST PUSH32 0x52C63247E1F47DB19D5CE0460030C497F067CA4CEBF71BA98EEADABE20BACE04 DUP1 SLOAD PUSH1 0x60 SWAP2 PUSH1 0x0 DUP1 MLOAD PUSH1 0x20 PUSH2 0x2DD1 DUP4 CODECOPY DUP2 MLOAD SWAP2 MSTORE SWAP2 PUSH2 0x6FA SWAP1 PUSH2 0x2A3C JUMP JUMPDEST PUSH1 0x0 DUP1 MLOAD PUSH1 0x20 PUSH2 0x2E71 DUP4 CODECOPY DUP2 MLOAD SWAP2 MSTORE PUSH2 0x12EE DUP2 PUSH2 0x1EE9 JUMP JUMPDEST DUP2 DUP1 PUSH1 0x0 SUB PUSH2 0x1310 JUMPI PUSH1 0x40 MLOAD PUSH4 0x162908E3 PUSH1 0xE1 SHL DUP2 MSTORE PUSH1 0x4 ADD PUSH1 0x40 MLOAD DUP1 SWAP2 SUB SWAP1 REVERT JUMPDEST DUP4 PUSH1 0x1 PUSH1 0x1 PUSH1 0xA0 SHL SUB DUP2 AND PUSH2 0x1338 JUMPI PUSH1 0x40 MLOAD PUSH4 0x6E5EC59F PUSH1 0xE0 SHL DUP2 MSTORE PUSH1 0x4 ADD PUSH1 0x40 MLOAD DUP1 SWAP2 SUB SWAP1 REVERT JUMPDEST PUSH1 0x1 PUSH1 0x1 PUSH1 0xA0 SHL SUB DUP6 AND CALLER EQ PUSH2 0x1381 JUMPI PUSH1 0x40 MLOAD PUSH3 0x461BCD PUSH1 0xE5 SHL DUP2 MSTORE PUSH1 0x20 PUSH1 0x4 DUP3 ADD MSTORE PUSH1 0xE PUSH1 0x24 DUP3 ADD MSTORE PUSH14 0x139BDD08189D5C9B881D985D5B1D PUSH1 0x92 SHL PUSH1 0x44 DUP3 ADD MSTORE PUSH1 0x64 ADD PUSH2 0x82C JUMP JUMPDEST PUSH2 0x138B DUP6 DUP6 PUSH2 0x1FF2 JUMP JUMPDEST POP POP POP POP POP JUMP JUMPDEST PUSH1 0x0 DUP2 DUP2 MSTORE PUSH1 0x0 DUP1 MLOAD PUSH1 0x20 PUSH2 0x2D91 DUP4 CODECOPY DUP2 MLOAD SWAP2 MSTORE PUSH1 0x20 DUP2 SWAP1 MSTORE PUSH1 0x40 SWAP1 SWAP2 KECCAK256 PUSH1 0x60 SWAP2 SWAP1 PUSH2 0x13BD SWAP1 PUSH2 0x2028 JUMP JUMPDEST SWAP4 SWAP3 POP POP POP JUMP JUMPDEST PUSH1 0x0 DUP2 DUP1 PUSH1 0x0 SUB PUSH2 0x13E8 JUMPI PUSH1 0x40 MLOAD PUSH4 0x162908E3 PUSH1 0xE1 SHL DUP2 MSTORE PUSH1 0x4 ADD PUSH1 0x40 MLOAD DUP1 SWAP2 SUB SWAP1 REVERT JUMPDEST DUP4 PUSH1 0x1 PUSH1 0x1 PUSH1 0xA0 SHL SUB DUP2 AND PUSH2 0x1410 JUMPI PUSH1 0x40 MLOAD PUSH4 0x6E5EC59F PUSH1 0xE0 SHL DUP2 MSTORE PUSH1 0x4 ADD PUSH1 0x40 MLOAD DUP1 SWAP2 SUB SWAP1 REVERT JUMPDEST CALLER PUSH1 0x0 DUP2 DUP2 MSTORE PUSH1 0x1 PUSH1 0x20 MSTORE PUSH1 0x40 SWAP1 KECCAK256 SLOAD PUSH1 0xFF AND ISZERO PUSH2 0x1440 JUMPI PUSH1 0x40 MLOAD PUSH3 0x461BCD PUSH1 0xE5 SHL DUP2 MSTORE PUSH1 0x4 ADD PUSH2 0x82C SWAP1 PUSH2 0x2A76 JUMP JUMPDEST PUSH1 0x1 PUSH1 0x1 PUSH1 0xA0 SHL SUB DUP7 AND PUSH1 0x0 SWAP1 DUP2 MSTORE PUSH1 0x1 PUSH1 0x20 MSTORE PUSH1 0x40 SWAP1 KECCAK256 SLOAD DUP7 SWAP1 PUSH1 0xFF AND ISZERO PUSH2 0x147B JUMPI PUSH1 0x40 MLOAD PUSH3 0x461BCD PUSH1 0xE5 SHL DUP2 MSTORE PUSH1 0x4 ADD PUSH2 0x82C SWAP1 PUSH2 0x2A76 JUMP JUMPDEST CALLER DUP8 PUSH1 0x1 PUSH1 0x1 PUSH1 0xA0 SHL SUB DUP2 AND DUP3 SWAP1 SUB PUSH2 0x14D0 JUMPI PUSH1 0x40 MLOAD PUSH3 0x461BCD PUSH1 0xE5 SHL DUP2 MSTORE PUSH1 0x20 PUSH1 0x4 DUP3 ADD MSTORE PUSH1 0x17 PUSH1 0x24 DUP3 ADD MSTORE PUSH23 0x21B0B73737BA103A3930B739B332B9103A379039B2B633 PUSH1 0x49 SHL PUSH1 0x44 DUP3 ADD MSTORE PUSH1 0x64 ADD PUSH2 0x82C JUMP JUMPDEST PUSH2 0x14E8 PUSH1 0x0 DUP1 MLOAD PUSH1 0x20 PUSH2 0x2DB1 DUP4 CODECOPY DUP2 MLOAD SWAP2 MSTORE DUP4 PUSH2 0x125F JUMP JUMPDEST DUP1 PUSH2 0x1506 JUMPI POP PUSH2 0x1506 PUSH1 0x0 DUP1 MLOAD PUSH1 0x20 PUSH2 0x2DF1 DUP4 CODECOPY DUP2 MLOAD SWAP2 MSTORE DUP3 PUSH2 0x125F JUMP JUMPDEST PUSH2 0x1552 JUMPI PUSH1 0x40 MLOAD PUSH3 0x461BCD PUSH1 0xE5 SHL DUP2 MSTORE PUSH1 0x20 PUSH1 0x4 DUP3 ADD MSTORE PUSH1 0x1A PUSH1 0x24 DUP3 ADD MSTORE PUSH32 0x496E76616C69642073656E646572206F72207265636569766572000000000000 PUSH1 0x44 DUP3 ADD MSTORE PUSH1 0x64 ADD PUSH2 0x82C JUMP JUMPDEST PUSH2 0x155C DUP10 DUP10 PUSH2 0x2035 JUMP JUMPDEST SWAP10 SWAP9 POP POP POP POP POP POP POP POP POP JUMP JUMPDEST PUSH1 0x0 PUSH2 0x1574 DUP2 PUSH2 0x1EE9 JUMP JUMPDEST DUP2 PUSH1 0x1 PUSH1 0x1 PUSH1 0xA0 SHL SUB DUP2 AND PUSH2 0x159C JUMPI PUSH1 0x40 MLOAD PUSH4 0x6E5EC59F PUSH1 0xE0 SHL DUP2 MSTORE PUSH1 0x4 ADD PUSH1 0x40 MLOAD DUP1 SWAP2 SUB SWAP1 REVERT JUMPDEST PUSH2 0x15B4 PUSH1 0x0 DUP1 MLOAD PUSH1 0x20 PUSH2 0x2E51 DUP4 CODECOPY DUP2 MLOAD SWAP2 MSTORE DUP5 PUSH2 0x125F JUMP JUMPDEST ISZERO PUSH2 0x15F4 JUMPI PUSH1 0x40 MLOAD PUSH3 0x461BCD PUSH1 0xE5 SHL DUP2 MSTORE PUSH1 0x20 PUSH1 0x4 DUP3 ADD MSTORE PUSH1 0x10 PUSH1 0x24 DUP3 ADD MSTORE PUSH16 0x416C7265616479207472656173757279 PUSH1 0x80 SHL PUSH1 0x44 DUP3 ADD MSTORE PUSH1 0x64 ADD PUSH2 0x82C JUMP JUMPDEST PUSH2 0x160C PUSH1 0x0 DUP1 MLOAD PUSH1 0x20 PUSH2 0x2E51 DUP4 CODECOPY DUP2 MLOAD SWAP2 MSTORE DUP5 PUSH2 0x1F70 JUMP JUMPDEST POP PUSH2 0x1625 PUSH1 0x0 DUP1 MLOAD PUSH1 0x20 PUSH2 0x2DB1 DUP4 CODECOPY DUP2 MLOAD SWAP2 MSTORE DUP5 PUSH2 0x125F JUMP JUMPDEST PUSH2 0x16B4 JUMPI PUSH2 0x1641 PUSH1 0x0 DUP1 MLOAD PUSH1 0x20 PUSH2 0x2DB1 DUP4 CODECOPY DUP2 MLOAD SWAP2 MSTORE DUP5 PUSH2 0x1F70 JUMP JUMPDEST POP DUP3 PUSH1 0x1 PUSH1 0x1 PUSH1 0xA0 SHL SUB AND PUSH32 0xA148F9AF0F634918FBAF23B2BE442EE99C628242FB2805BF87C08E4BE7A1AFAC PUSH1 0x40 MLOAD PUSH2 0x16AB SWAP1 PUSH1 0x20 DUP1 DUP3 MSTORE PUSH1 0x1E SWAP1 DUP3 ADD MSTORE PUSH32 0x4E65772053656E64657220416464726573732057686974656C69737465640000 PUSH1 0x40 DUP3 ADD MSTORE PUSH1 0x60 ADD SWAP1 JUMP JUMPDEST PUSH1 0x40 MLOAD DUP1 SWAP2 SUB SWAP1 LOG2 JUMPDEST DUP3 PUSH1 0x1 PUSH1 0x1 PUSH1 0xA0 SHL SUB AND PUSH32 0xD93A23CFA249287D5DD4D056066C79B1A45BC8608890EA92B4DAFA6E874B3FD0 PUSH1 0x40 MLOAD PUSH2 0x923 SWAP1 PUSH1 0x20 DUP1 DUP3 MSTORE PUSH1 0x1A SWAP1 DUP3 ADD MSTORE PUSH32 0x4E65772054726561737572792041646472657373204164646564000000000000 PUSH1 0x40 DUP3 ADD MSTORE PUSH1 0x60 ADD SWAP1 JUMP JUMPDEST PUSH1 0x0 PUSH2 0x1727 PUSH2 0x204D JUMP JUMPDEST DUP1 SLOAD SWAP1 SWAP2 POP PUSH1 0xFF PUSH1 0x1 PUSH1 0x40 SHL DUP3 DIV AND ISZERO SWAP1 PUSH8 0xFFFFFFFFFFFFFFFF AND PUSH1 0x0 DUP2 ISZERO DUP1 ISZERO PUSH2 0x174F JUMPI POP DUP3 JUMPDEST SWAP1 POP PUSH1 0x0 DUP3 PUSH8 0xFFFFFFFFFFFFFFFF AND PUSH1 0x1 EQ DUP1 ISZERO PUSH2 0x176C JUMPI POP ADDRESS EXTCODESIZE ISZERO JUMPDEST SWAP1 POP DUP2 ISZERO DUP1 ISZERO PUSH2 0x177A JUMPI POP DUP1 ISZERO JUMPDEST ISZERO PUSH2 0x1798 JUMPI PUSH1 0x40 MLOAD PUSH4 0xF92EE8A9 PUSH1 0xE0 SHL DUP2 MSTORE PUSH1 0x4 ADD PUSH1 0x40 MLOAD DUP1 SWAP2 SUB SWAP1 REVERT JUMPDEST DUP5 SLOAD PUSH8 0xFFFFFFFFFFFFFFFF NOT AND PUSH1 0x1 OR DUP6 SSTORE DUP4 ISZERO PUSH2 0x17C2 JUMPI DUP5 SLOAD PUSH1 0xFF PUSH1 0x40 SHL NOT AND PUSH1 0x1 PUSH1 0x40 SHL OR DUP6 SSTORE JUMPDEST PUSH2 0x1806 PUSH1 0x40 MLOAD DUP1 PUSH1 0x40 ADD PUSH1 0x40 MSTORE DUP1 PUSH1 0x5 DUP2 MSTORE PUSH1 0x20 ADD PUSH5 0x3925A3A2A7 PUSH1 0xD9 SHL DUP2 MSTORE POP PUSH1 0x40 MLOAD DUP1 PUSH1 0x40 ADD PUSH1 0x40 MSTORE DUP1 PUSH1 0x5 DUP2 MSTORE PUSH1 0x20 ADD PUSH5 0x3925A3A2A7 PUSH1 0xD9 SHL DUP2 MSTORE POP PUSH2 0x2076 JUMP JUMPDEST PUSH2 0x180E PUSH2 0x2088 JUMP JUMPDEST PUSH2 0x1816 PUSH2 0x2092 JUMP JUMPDEST PUSH2 0x1821 PUSH1 0x0 DUP8 PUSH2 0x1F70 JUMP JUMPDEST POP PUSH2 0x183A PUSH1 0x0 DUP1 MLOAD PUSH1 0x20 PUSH2 0x2E11 DUP4 CODECOPY DUP2 MLOAD SWAP2 MSTORE DUP8 PUSH2 0x1F70 JUMP JUMPDEST POP PUSH2 0x1853 PUSH1 0x0 DUP1 MLOAD PUSH1 0x20 PUSH2 0x2E71 DUP4 CODECOPY DUP2 MLOAD SWAP2 MSTORE DUP8 PUSH2 0x1F70 JUMP JUMPDEST POP PUSH2 0x187E PUSH32 0x189AB7A9244DF0848122154315AF71FE140F3DB0FE014031783B0946B8C9D2E3 DUP8 PUSH2 0x1F70 JUMP JUMPDEST POP PUSH2 0x18A2 DUP7 PUSH2 0x188F PUSH1 0x8 PUSH1 0xA PUSH2 0x2B9B JUMP JUMPDEST PUSH2 0x189D SWAP1 PUSH4 0x17D78400 PUSH2 0x2BAA JUMP JUMPDEST PUSH2 0x1FAC JUMP JUMPDEST DUP4 ISZERO PUSH2 0x18E8 JUMPI DUP5 SLOAD PUSH1 0xFF PUSH1 0x40 SHL NOT AND DUP6 SSTORE PUSH1 0x40 MLOAD PUSH1 0x1 DUP2 MSTORE PUSH32 0xC7F505B2F371AE2175EE4913F4499E1F2633A7B5936321EED1CDAEB6115181D2 SWAP1 PUSH1 0x20 ADD PUSH1 0x40 MLOAD DUP1 SWAP2 SUB SWAP1 LOG1 JUMPDEST POP POP POP POP POP POP JUMP JUMPDEST PUSH1 0x0 PUSH2 0x18FB DUP2 PUSH2 0x1EE9 JUMP JUMPDEST DUP2 PUSH1 0x1 PUSH1 0x1 PUSH1 0xA0 SHL SUB DUP2 AND PUSH2 0x1923 JUMPI PUSH1 0x40 MLOAD PUSH4 0x6E5EC59F PUSH1 0xE0 SHL DUP2 MSTORE PUSH1 0x4 ADD PUSH1 0x40 MLOAD DUP1 SWAP2 SUB SWAP1 REVERT JUMPDEST PUSH2 0x193B PUSH1 0x0 DUP1 MLOAD PUSH1 0x20 PUSH2 0x2DF1 DUP4 CODECOPY DUP2 MLOAD SWAP2 MSTORE DUP5 PUSH2 0x125F JUMP JUMPDEST ISZERO PUSH2 0x1988 JUMPI PUSH1 0x40 MLOAD PUSH3 0x461BCD PUSH1 0xE5 SHL DUP2 MSTORE PUSH1 0x20 PUSH1 0x4 DUP3 ADD MSTORE PUSH1 0x1C PUSH1 0x24 DUP3 ADD MSTORE PUSH32 0x416C72656164792077686974656C697374656420726563656976657200000000 PUSH1 0x44 DUP3 ADD MSTORE PUSH1 0x64 ADD PUSH2 0x82C JUMP JUMPDEST PUSH2 0x19A0 PUSH1 0x0 DUP1 MLOAD PUSH1 0x20 PUSH2 0x2DF1 DUP4 CODECOPY DUP2 MLOAD SWAP2 MSTORE DUP5 PUSH2 0x1F70 JUMP JUMPDEST POP DUP3 PUSH1 0x1 PUSH1 0x1 PUSH1 0xA0 SHL SUB AND PUSH32 0xFE6D2D6F86F1B4F5F6D5833A27D9EB52BBA0F8AAD51EB089023C6A4DCFD21A8F PUSH1 0x40 MLOAD PUSH2 0x923 SWAP1 PUSH1 0x20 DUP1 DUP3 MSTORE DUP2 DUP2 ADD MSTORE PUSH32 0x4E657720526563656976657220416464726573732057686974656C6973746564 PUSH1 0x40 DUP3 ADD MSTORE PUSH1 0x60 ADD SWAP1 JUMP JUMPDEST PUSH1 0x0 DUP2 DUP2 MSTORE PUSH1 0x0 DUP1 MLOAD PUSH1 0x20 PUSH2 0x2D91 DUP4 CODECOPY DUP2 MLOAD SWAP2 MSTORE PUSH1 0x20 DUP2 SWAP1 MSTORE PUSH1 0x40 DUP3 KECCAK256 PUSH2 0x13BD SWAP1 PUSH2 0x20A2 JUMP JUMPDEST PUSH1 0x0 PUSH2 0x1A39 DUP2 PUSH2 0x1EE9 JUMP JUMPDEST DUP2 PUSH1 0x1 PUSH1 0x1 PUSH1 0xA0 SHL SUB DUP2 AND PUSH2 0x1A61 JUMPI PUSH1 0x40 MLOAD PUSH4 0x6E5EC59F PUSH1 0xE0 SHL DUP2 MSTORE PUSH1 0x4 ADD PUSH1 0x40 MLOAD DUP1 SWAP2 SUB SWAP1 REVERT JUMPDEST CALLER PUSH1 0x1 PUSH1 0x1 PUSH1 0xA0 SHL SUB DUP5 AND SUB PUSH2 0x1AB0 JUMPI PUSH1 0x40 MLOAD PUSH3 0x461BCD PUSH1 0xE5 SHL DUP2 MSTORE PUSH1 0x20 PUSH1 0x4 DUP3 ADD MSTORE PUSH1 0x14 PUSH1 0x24 DUP3 ADD MSTORE PUSH20 0x21B0B73737BA103737B6B4B730BA329039B2B633 PUSH1 0x61 SHL PUSH1 0x44 DUP3 ADD MSTORE PUSH1 0x64 ADD PUSH2 0x82C JUMP JUMPDEST PUSH1 0x0 DUP1 SLOAD PUSH1 0x1 PUSH1 0x1 PUSH1 0xA0 SHL SUB DUP6 AND PUSH1 0x1 PUSH1 0x1 PUSH1 0xA0 SHL SUB NOT SWAP1 SWAP2 AND DUP2 OR SWAP1 SWAP2 SSTORE PUSH1 0x40 MLOAD PUSH32 0xA9C1D417FDB88C493DBAB369BD79C043AA4C6C9522A681D9334BA091EDE58CD9 SWAP1 PUSH2 0x923 SWAP1 PUSH1 0x20 DUP1 DUP3 MSTORE PUSH1 0x3A SWAP1 DUP3 ADD MSTORE PUSH32 0x4E65772041646D696E204E6F6D696E617465642C204E6F77206E65772061646D PUSH1 0x40 DUP3 ADD MSTORE PUSH32 0x696E206E65656420746F206163636570742074686520726F6C65000000000000 PUSH1 0x60 DUP3 ADD MSTORE PUSH1 0x80 ADD SWAP1 JUMP JUMPDEST PUSH1 0x0 PUSH2 0x1B60 DUP2 PUSH2 0x1EE9 JUMP JUMPDEST DUP2 PUSH1 0x1 PUSH1 0x1 PUSH1 0xA0 SHL SUB DUP2 AND PUSH2 0x1B88 JUMPI PUSH1 0x40 MLOAD PUSH4 0x6E5EC59F PUSH1 0xE0 SHL DUP2 MSTORE PUSH1 0x4 ADD PUSH1 0x40 MLOAD DUP1 SWAP2 SUB SWAP1 REVERT JUMPDEST PUSH2 0x1BA0 PUSH1 0x0 DUP1 MLOAD PUSH1 0x20 PUSH2 0x2DB1 DUP4 CODECOPY DUP2 MLOAD SWAP2 MSTORE DUP5 PUSH2 0x125F JUMP JUMPDEST ISZERO PUSH2 0x1BED JUMPI PUSH1 0x40 MLOAD PUSH3 0x461BCD PUSH1 0xE5 SHL DUP2 MSTORE PUSH1 0x20 PUSH1 0x4 DUP3 ADD MSTORE PUSH1 0x1A PUSH1 0x24 DUP3 ADD MSTORE PUSH32 0x416C72656164792077686974656C69737465642073656E646572000000000000 PUSH1 0x44 DUP3 ADD MSTORE PUSH1 0x64 ADD PUSH2 0x82C JUMP JUMPDEST PUSH2 0x1C05 PUSH1 0x0 DUP1 MLOAD PUSH1 0x20 PUSH2 0x2DB1 DUP4 CODECOPY DUP2 MLOAD SWAP2 MSTORE DUP5 PUSH2 0x1F70 JUMP JUMPDEST POP DUP3 PUSH1 0x1 PUSH1 0x1 PUSH1 0xA0 SHL SUB AND PUSH32 0xA148F9AF0F634918FBAF23B2BE442EE99C628242FB2805BF87C08E4BE7A1AFAC PUSH1 0x40 MLOAD PUSH2 0x923 SWAP1 PUSH1 0x20 DUP1 DUP3 MSTORE PUSH1 0x1E SWAP1 DUP3 ADD MSTORE PUSH32 0x4E65772053656E64657220416464726573732057686974656C69737465640000 PUSH1 0x40 DUP3 ADD MSTORE PUSH1 0x60 ADD SWAP1 JUMP JUMPDEST PUSH1 0x0 PUSH2 0x1C7A DUP2 PUSH2 0x1EE9 JUMP JUMPDEST DUP2 PUSH1 0x1 PUSH1 0x1 PUSH1 0xA0 SHL SUB DUP2 AND PUSH2 0x1CA2 JUMPI PUSH1 0x40 MLOAD PUSH4 0x6E5EC59F PUSH1 0xE0 SHL DUP2 MSTORE PUSH1 0x4 ADD PUSH1 0x40 MLOAD DUP1 SWAP2 SUB SWAP1 REVERT JUMPDEST PUSH2 0x1CBA PUSH1 0x0 DUP1 MLOAD PUSH1 0x20 PUSH2 0x2E51 DUP4 CODECOPY DUP2 MLOAD SWAP2 MSTORE DUP5 PUSH2 0x125F JUMP JUMPDEST PUSH2 0x1CF5 JUMPI PUSH1 0x40 MLOAD PUSH3 0x461BCD PUSH1 0xE5 SHL DUP2 MSTORE PUSH1 0x20 PUSH1 0x4 DUP3 ADD MSTORE PUSH1 0xC PUSH1 0x24 DUP3 ADD MSTORE PUSH12 0x4E6F74207472656173757279 PUSH1 0xA0 SHL PUSH1 0x44 DUP3 ADD MSTORE PUSH1 0x64 ADD PUSH2 0x82C JUMP JUMPDEST PUSH2 0x1D0D PUSH1 0x0 DUP1 MLOAD PUSH1 0x20 PUSH2 0x2E51 DUP4 CODECOPY DUP2 MLOAD SWAP2 MSTORE DUP5 PUSH2 0x1EFD JUMP JUMPDEST POP DUP3 PUSH1 0x1 PUSH1 0x1 PUSH1 0xA0 SHL SUB AND PUSH32 0x238BE719BECF7DE7673229DA18D51189916A74316CCD29739E8BF3FA30288D87 PUSH1 0x40 MLOAD PUSH2 0x923 SWAP1 PUSH1 0x20 DUP1 DUP3 MSTORE PUSH1 0x18 SWAP1 DUP3 ADD MSTORE PUSH32 0x547265617375727920416464726573732052656D6F7665640000000000000000 PUSH1 0x40 DUP3 ADD MSTORE PUSH1 0x60 ADD SWAP1 JUMP JUMPDEST PUSH2 0x1D80 DUP3 PUSH2 0xC13 JUMP JUMPDEST PUSH2 0x1D89 DUP2 PUSH2 0x1EE9 JUMP JUMPDEST PUSH2 0xC51 DUP4 DUP4 PUSH2 0x1EFD JUMP JUMPDEST PUSH1 0x1 PUSH1 0x1 PUSH1 0xA0 SHL SUB SWAP2 DUP3 AND PUSH1 0x0 SWAP1 DUP2 MSTORE PUSH32 0x52C63247E1F47DB19D5CE0460030C497F067CA4CEBF71BA98EEADABE20BACE01 PUSH1 0x20 SWAP1 DUP2 MSTORE PUSH1 0x40 DUP1 DUP4 KECCAK256 SWAP4 SWAP1 SWAP5 AND DUP3 MSTORE SWAP2 SWAP1 SWAP2 MSTORE KECCAK256 SLOAD SWAP1 JUMP JUMPDEST PUSH1 0x0 PUSH2 0x1DE8 DUP2 PUSH2 0x1EE9 JUMP JUMPDEST POP PUSH1 0x1 PUSH1 0x1 PUSH1 0xA0 SHL SUB SWAP2 SWAP1 SWAP2 AND PUSH1 0x0 SWAP1 DUP2 MSTORE PUSH1 0x2 PUSH1 0x20 MSTORE PUSH1 0x40 SWAP1 KECCAK256 DUP1 SLOAD PUSH1 0xFF NOT AND SWAP2 ISZERO ISZERO SWAP2 SWAP1 SWAP2 OR SWAP1 SSTORE JUMP JUMPDEST PUSH1 0x0 PUSH2 0x1E1F DUP2 PUSH2 0x1EE9 JUMP JUMPDEST DUP2 PUSH1 0x1 PUSH1 0x1 PUSH1 0xA0 SHL SUB DUP2 AND PUSH2 0x1E47 JUMPI PUSH1 0x40 MLOAD PUSH4 0x6E5EC59F PUSH1 0xE0 SHL DUP2 MSTORE PUSH1 0x4 ADD PUSH1 0x40 MLOAD DUP1 SWAP2 SUB SWAP1 REVERT JUMPDEST PUSH1 0x1 PUSH1 0x1 PUSH1 0xA0 SHL SUB DUP4 AND PUSH1 0x0 DUP2 DUP2 MSTORE PUSH1 0x1 PUSH1 0x20 DUP2 SWAP1 MSTORE PUSH1 0x40 DUP1 DUP4 KECCAK256 DUP1 SLOAD PUSH1 0xFF NOT AND SWAP1 SWAP3 OR SWAP1 SWAP2 SSTORE MLOAD PUSH32 0x4F2A367E694E71282F29AB5EAA04C4C0BE45AC5BF2CA74FB67068B98BDC2887D SWAP2 SWAP1 LOG2 POP POP POP JUMP JUMPDEST PUSH1 0x0 PUSH1 0x1 PUSH1 0x1 PUSH1 0xE0 SHL SUB NOT DUP3 AND PUSH4 0x7965DB0B PUSH1 0xE0 SHL EQ DUP1 PUSH2 0x6B5 JUMPI POP PUSH4 0x1FFC9A7 PUSH1 0xE0 SHL PUSH1 0x1 PUSH1 0x1 PUSH1 0xE0 SHL SUB NOT DUP4 AND EQ PUSH2 0x6B5 JUMP JUMPDEST PUSH1 0x0 PUSH2 0x1ED7 PUSH2 0x20AC JUMP JUMPDEST SWAP1 POP SWAP1 JUMP JUMPDEST PUSH2 0xDFD DUP4 DUP4 DUP4 PUSH1 0x1 PUSH2 0x2108 JUMP JUMPDEST PUSH2 0x1EFA DUP2 PUSH2 0x1EF5 PUSH2 0x1ECD JUMP JUMPDEST PUSH2 0x21EF JUMP JUMPDEST POP JUMP JUMPDEST PUSH1 0x0 PUSH1 0x0 DUP1 MLOAD PUSH1 0x20 PUSH2 0x2D91 DUP4 CODECOPY DUP2 MLOAD SWAP2 MSTORE DUP2 PUSH2 0x1F19 DUP6 DUP6 PUSH2 0x2228 JUMP JUMPDEST SWAP1 POP DUP1 ISZERO PUSH2 0x1257 JUMPI PUSH1 0x0 DUP6 DUP2 MSTORE PUSH1 0x20 DUP4 SWAP1 MSTORE PUSH1 0x40 SWAP1 KECCAK256 PUSH2 0x1F39 SWAP1 DUP6 PUSH2 0x22CC JUMP JUMPDEST POP SWAP5 SWAP4 POP POP POP POP JUMP JUMPDEST PUSH1 0x0 DUP1 PUSH2 0x1F4D PUSH2 0x1ECD JUMP JUMPDEST SWAP1 POP PUSH2 0x1F5A DUP6 DUP3 DUP6 PUSH2 0x22E1 JUMP JUMPDEST PUSH2 0x1F65 DUP6 DUP6 DUP6 PUSH2 0x2342 JUMP JUMPDEST POP PUSH1 0x1 SWAP5 SWAP4 POP POP POP POP JUMP JUMPDEST PUSH1 0x0 PUSH1 0x0 DUP1 MLOAD PUSH1 0x20 PUSH2 0x2D91 DUP4 CODECOPY DUP2 MLOAD SWAP2 MSTORE DUP2 PUSH2 0x1F8C DUP6 DUP6 PUSH2 0x23A1 JUMP JUMPDEST SWAP1 POP DUP1 ISZERO PUSH2 0x1257 JUMPI PUSH1 0x0 DUP6 DUP2 MSTORE PUSH1 0x20 DUP4 SWAP1 MSTORE PUSH1 0x40 SWAP1 KECCAK256 PUSH2 0x1F39 SWAP1 DUP6 PUSH2 0x243D JUMP JUMPDEST PUSH1 0x1 PUSH1 0x1 PUSH1 0xA0 SHL SUB DUP3 AND PUSH2 0x1FD6 JUMPI PUSH1 0x40 MLOAD PUSH4 0xEC442F05 PUSH1 0xE0 SHL DUP2 MSTORE PUSH1 0x0 PUSH1 0x4 DUP3 ADD MSTORE PUSH1 0x24 ADD PUSH2 0x82C JUMP JUMPDEST PUSH2 0x1FE2 PUSH1 0x0 DUP4 DUP4 PUSH2 0x2452 JUMP JUMPDEST POP POP JUMP JUMPDEST PUSH1 0x0 PUSH2 0x13BD DUP4 DUP4 PUSH2 0x2590 JUMP JUMPDEST PUSH1 0x1 PUSH1 0x1 PUSH1 0xA0 SHL SUB DUP3 AND PUSH2 0x201C JUMPI PUSH1 0x40 MLOAD PUSH4 0x4B637E8F PUSH1 0xE1 SHL DUP2 MSTORE PUSH1 0x0 PUSH1 0x4 DUP3 ADD MSTORE PUSH1 0x24 ADD PUSH2 0x82C JUMP JUMPDEST PUSH2 0x1FE2 DUP3 PUSH1 0x0 DUP4 PUSH2 0x2452 JUMP JUMPDEST PUSH1 0x60 PUSH1 0x0 PUSH2 0x13BD DUP4 PUSH2 0x25BA JUMP JUMPDEST PUSH1 0x0 DUP1 PUSH2 0x2040 PUSH2 0x1ECD JUMP JUMPDEST SWAP1 POP PUSH2 0x796 DUP2 DUP6 DUP6 PUSH2 0x2342 JUMP JUMPDEST PUSH1 0x0 DUP1 PUSH32 0xF0C57E16840DF040F15088DC2F81FE391C3923BEC73E23A9662EFC9C229C6A00 PUSH2 0x6B5 JUMP JUMPDEST PUSH2 0x207E PUSH2 0x2616 JUMP JUMPDEST PUSH2 0x1FE2 DUP3 DUP3 PUSH2 0x263B JUMP JUMPDEST PUSH2 0x2090 PUSH2 0x2616 JUMP JUMPDEST JUMP JUMPDEST PUSH2 0x209A PUSH2 0x2616 JUMP JUMPDEST PUSH2 0x2090 PUSH2 0x268C JUMP JUMPDEST PUSH1 0x0 PUSH2 0x6B5 DUP3 SLOAD SWAP1 JUMP JUMPDEST CALLER PUSH1 0x0 SWAP1 DUP2 MSTORE PUSH1 0x2 PUSH1 0x20 MSTORE PUSH1 0x40 DUP2 KECCAK256 SLOAD CALLDATASIZE SWAP1 PUSH1 0x14 SWAP1 PUSH1 0xFF AND DUP1 ISZERO PUSH2 0x20D0 JUMPI POP DUP1 DUP3 LT ISZERO JUMPDEST ISZERO PUSH2 0x2100 JUMPI PUSH1 0x0 CALLDATASIZE PUSH2 0x20E2 DUP4 DUP6 PUSH2 0x2BC1 JUMP JUMPDEST PUSH2 0x20ED SWAP3 DUP3 SWAP1 PUSH2 0x2BD4 JUMP JUMPDEST PUSH2 0x20F6 SWAP2 PUSH2 0x2BFE JUMP JUMPDEST PUSH1 0x60 SHR SWAP3 POP POP POP SWAP1 JUMP JUMPDEST CALLER SWAP3 POP POP POP SWAP1 JUMP JUMPDEST PUSH1 0x0 DUP1 MLOAD PUSH1 0x20 PUSH2 0x2DD1 DUP4 CODECOPY DUP2 MLOAD SWAP2 MSTORE PUSH1 0x1 PUSH1 0x1 PUSH1 0xA0 SHL SUB DUP6 AND PUSH2 0x2141 JUMPI PUSH1 0x40 MLOAD PUSH4 0xE602DF05 PUSH1 0xE0 SHL DUP2 MSTORE PUSH1 0x0 PUSH1 0x4 DUP3 ADD MSTORE PUSH1 0x24 ADD PUSH2 0x82C JUMP JUMPDEST PUSH1 0x1 PUSH1 0x1 PUSH1 0xA0 SHL SUB DUP5 AND PUSH2 0x216B JUMPI PUSH1 0x40 MLOAD PUSH4 0x4A1406B1 PUSH1 0xE1 SHL DUP2 MSTORE PUSH1 0x0 PUSH1 0x4 DUP3 ADD MSTORE PUSH1 0x24 ADD PUSH2 0x82C JUMP JUMPDEST PUSH1 0x1 PUSH1 0x1 PUSH1 0xA0 SHL SUB DUP1 DUP7 AND PUSH1 0x0 SWAP1 DUP2 MSTORE PUSH1 0x1 DUP4 ADD PUSH1 0x20 SWAP1 DUP2 MSTORE PUSH1 0x40 DUP1 DUP4 KECCAK256 SWAP4 DUP9 AND DUP4 MSTORE SWAP3 SWAP1 MSTORE KECCAK256 DUP4 SWAP1 SSTORE DUP2 ISZERO PUSH2 0x138B JUMPI DUP4 PUSH1 0x1 PUSH1 0x1 PUSH1 0xA0 SHL SUB AND DUP6 PUSH1 0x1 PUSH1 0x1 PUSH1 0xA0 SHL SUB AND PUSH32 0x8C5BE1E5EBEC7D5BD14F71427D1E84F3DD0314C0F7B2291E5B200AC8C7C3B925 DUP6 PUSH1 0x40 MLOAD PUSH2 0x21E0 SWAP2 DUP2 MSTORE PUSH1 0x20 ADD SWAP1 JUMP JUMPDEST PUSH1 0x40 MLOAD DUP1 SWAP2 SUB SWAP1 LOG3 POP POP POP POP POP JUMP JUMPDEST PUSH2 0x21F9 DUP3 DUP3 PUSH2 0x125F JUMP JUMPDEST PUSH2 0x1FE2 JUMPI PUSH1 0x40 MLOAD PUSH4 0xE2517D3F PUSH1 0xE0 SHL DUP2 MSTORE PUSH1 0x1 PUSH1 0x1 PUSH1 0xA0 SHL SUB DUP3 AND PUSH1 0x4 DUP3 ADD MSTORE PUSH1 0x24 DUP2 ADD DUP4 SWAP1 MSTORE PUSH1 0x44 ADD PUSH2 0x82C JUMP JUMPDEST PUSH1 0x0 PUSH1 0x0 DUP1 MLOAD PUSH1 0x20 PUSH2 0x2E31 DUP4 CODECOPY DUP2 MLOAD SWAP2 MSTORE PUSH2 0x2243 DUP5 DUP5 PUSH2 0x125F JUMP JUMPDEST ISZERO PUSH2 0x22C2 JUMPI PUSH1 0x0 DUP5 DUP2 MSTORE PUSH1 0x20 DUP3 DUP2 MSTORE PUSH1 0x40 DUP1 DUP4 KECCAK256 PUSH1 0x1 PUSH1 0x1 PUSH1 0xA0 SHL SUB DUP8 AND DUP5 MSTORE SWAP1 SWAP2 MSTORE SWAP1 KECCAK256 DUP1 SLOAD PUSH1 0xFF NOT AND SWAP1 SSTORE PUSH2 0x2278 PUSH2 0x1ECD JUMP JUMPDEST PUSH1 0x1 PUSH1 0x1 PUSH1 0xA0 SHL SUB AND DUP4 PUSH1 0x1 PUSH1 0x1 PUSH1 0xA0 SHL SUB AND DUP6 PUSH32 0xF6391F5C32D9C69D2A47EA670B442974B53935D1EDC7FD64EB21E047A839171B PUSH1 0x40 MLOAD PUSH1 0x40 MLOAD DUP1 SWAP2 SUB SWAP1 LOG4 PUSH1 0x1 SWAP2 POP POP PUSH2 0x6B5 JUMP JUMPDEST PUSH1 0x0 SWAP2 POP POP PUSH2 0x6B5 JUMP JUMPDEST PUSH1 0x0 PUSH2 0x13BD DUP4 PUSH1 0x1 PUSH1 0x1 PUSH1 0xA0 SHL SUB DUP5 AND PUSH2 0x26BA JUMP JUMPDEST PUSH1 0x0 PUSH2 0x22ED DUP5 DUP5 PUSH2 0x1D93 JUMP JUMPDEST SWAP1 POP PUSH1 0x0 NOT DUP2 LT ISZERO PUSH2 0xC51 JUMPI DUP2 DUP2 LT ISZERO PUSH2 0x2333 JUMPI PUSH1 0x40 MLOAD PUSH4 0x7DC7A0D9 PUSH1 0xE1 SHL DUP2 MSTORE PUSH1 0x1 PUSH1 0x1 PUSH1 0xA0 SHL SUB DUP5 AND PUSH1 0x4 DUP3 ADD MSTORE PUSH1 0x24 DUP2 ADD DUP3 SWAP1 MSTORE PUSH1 0x44 DUP2 ADD DUP4 SWAP1 MSTORE PUSH1 0x64 ADD PUSH2 0x82C JUMP JUMPDEST PUSH2 0xC51 DUP5 DUP5 DUP5 DUP5 SUB PUSH1 0x0 PUSH2 0x2108 JUMP JUMPDEST PUSH1 0x1 PUSH1 0x1 PUSH1 0xA0 SHL SUB DUP4 AND PUSH2 0x236C JUMPI PUSH1 0x40 MLOAD PUSH4 0x4B637E8F PUSH1 0xE1 SHL DUP2 MSTORE PUSH1 0x0 PUSH1 0x4 DUP3 ADD MSTORE PUSH1 0x24 ADD PUSH2 0x82C JUMP JUMPDEST PUSH1 0x1 PUSH1 0x1 PUSH1 0xA0 SHL SUB DUP3 AND PUSH2 0x2396 JUMPI PUSH1 0x40 MLOAD PUSH4 0xEC442F05 PUSH1 0xE0 SHL DUP2 MSTORE PUSH1 0x0 PUSH1 0x4 DUP3 ADD MSTORE PUSH1 0x24 ADD PUSH2 0x82C JUMP JUMPDEST PUSH2 0xDFD DUP4 DUP4 DUP4 PUSH2 0x2452 JUMP JUMPDEST PUSH1 0x0 PUSH1 0x0 DUP1 MLOAD PUSH1 0x20 PUSH2 0x2E31 DUP4 CODECOPY DUP2 MLOAD SWAP2 MSTORE PUSH2 0x23BC DUP5 DUP5 PUSH2 0x125F JUMP JUMPDEST PUSH2 0x22C2 JUMPI PUSH1 0x0 DUP5 DUP2 MSTORE PUSH1 0x20 DUP3 DUP2 MSTORE PUSH1 0x40 DUP1 DUP4 KECCAK256 PUSH1 0x1 PUSH1 0x1 PUSH1 0xA0 SHL SUB DUP8 AND DUP5 MSTORE SWAP1 SWAP2 MSTORE SWAP1 KECCAK256 DUP1 SLOAD PUSH1 0xFF NOT AND PUSH1 0x1 OR SWAP1 SSTORE PUSH2 0x23F3 PUSH2 0x1ECD JUMP JUMPDEST PUSH1 0x1 PUSH1 0x1 PUSH1 0xA0 SHL SUB AND DUP4 PUSH1 0x1 PUSH1 0x1 PUSH1 0xA0 SHL SUB AND DUP6 PUSH32 0x2F8788117E7EFF1D82E926EC794901D17C78024A50270940304540A733656F0D PUSH1 0x40 MLOAD PUSH1 0x40 MLOAD DUP1 SWAP2 SUB SWAP1 LOG4 PUSH1 0x1 SWAP2 POP POP PUSH2 0x6B5 JUMP JUMPDEST PUSH1 0x0 PUSH2 0x13BD DUP4 PUSH1 0x1 PUSH1 0x1 PUSH1 0xA0 SHL SUB DUP5 AND PUSH2 0x27A3 JUMP JUMPDEST PUSH1 0x0 DUP1 MLOAD PUSH1 0x20 PUSH2 0x2DD1 DUP4 CODECOPY DUP2 MLOAD SWAP2 MSTORE PUSH1 0x1 PUSH1 0x1 PUSH1 0xA0 SHL SUB DUP5 AND PUSH2 0x248E JUMPI DUP2 DUP2 PUSH1 0x2 ADD PUSH1 0x0 DUP3 DUP3 SLOAD PUSH2 0x2483 SWAP2 SWAP1 PUSH2 0x2C33 JUMP JUMPDEST SWAP1 SWAP2 SSTORE POP PUSH2 0x2500 SWAP1 POP JUMP JUMPDEST PUSH1 0x1 PUSH1 0x1 PUSH1 0xA0 SHL SUB DUP5 AND PUSH1 0x0 SWAP1 DUP2 MSTORE PUSH1 0x20 DUP3 SWAP1 MSTORE PUSH1 0x40 SWAP1 KECCAK256 SLOAD DUP3 DUP2 LT ISZERO PUSH2 0x24E1 JUMPI PUSH1 0x40 MLOAD PUSH4 0x391434E3 PUSH1 0xE2 SHL DUP2 MSTORE PUSH1 0x1 PUSH1 0x1 PUSH1 0xA0 SHL SUB DUP7 AND PUSH1 0x4 DUP3 ADD MSTORE PUSH1 0x24 DUP2 ADD DUP3 SWAP1 MSTORE PUSH1 0x44 DUP2 ADD DUP5 SWAP1 MSTORE PUSH1 0x64 ADD PUSH2 0x82C JUMP JUMPDEST PUSH1 0x1 PUSH1 0x1 PUSH1 0xA0 SHL SUB DUP6 AND PUSH1 0x0 SWAP1 DUP2 MSTORE PUSH1 0x20 DUP4 SWAP1 MSTORE PUSH1 0x40 SWAP1 KECCAK256 SWAP1 DUP4 SWAP1 SUB SWAP1 SSTORE JUMPDEST PUSH1 0x1 PUSH1 0x1 PUSH1 0xA0 SHL SUB DUP4 AND PUSH2 0x251E JUMPI PUSH1 0x2 DUP2 ADD DUP1 SLOAD DUP4 SWAP1 SUB SWAP1 SSTORE PUSH2 0x253D JUMP JUMPDEST PUSH1 0x1 PUSH1 0x1 PUSH1 0xA0 SHL SUB DUP4 AND PUSH1 0x0 SWAP1 DUP2 MSTORE PUSH1 0x20 DUP3 SWAP1 MSTORE PUSH1 0x40 SWAP1 KECCAK256 DUP1 SLOAD DUP4 ADD SWAP1 SSTORE JUMPDEST DUP3 PUSH1 0x1 PUSH1 0x1 PUSH1 0xA0 SHL SUB AND DUP5 PUSH1 0x1 PUSH1 0x1 PUSH1 0xA0 SHL SUB AND PUSH32 0xDDF252AD1BE2C89B69C2B068FC378DAA952BA7F163C4A11628F55A4DF523B3EF DUP5 PUSH1 0x40 MLOAD PUSH2 0x2582 SWAP2 DUP2 MSTORE PUSH1 0x20 ADD SWAP1 JUMP JUMPDEST PUSH1 0x40 MLOAD DUP1 SWAP2 SUB SWAP1 LOG3 POP POP POP POP JUMP JUMPDEST PUSH1 0x0 DUP3 PUSH1 0x0 ADD DUP3 DUP2 SLOAD DUP2 LT PUSH2 0x25A7 JUMPI PUSH2 0x25A7 PUSH2 0x2C46 JUMP JUMPDEST SWAP1 PUSH1 0x0 MSTORE PUSH1 0x20 PUSH1 0x0 KECCAK256 ADD SLOAD SWAP1 POP SWAP3 SWAP2 POP POP JUMP JUMPDEST PUSH1 0x60 DUP2 PUSH1 0x0 ADD DUP1 SLOAD DUP1 PUSH1 0x20 MUL PUSH1 0x20 ADD PUSH1 0x40 MLOAD SWAP1 DUP2 ADD PUSH1 0x40 MSTORE DUP1 SWAP3 SWAP2 SWAP1 DUP2 DUP2 MSTORE PUSH1 0x20 ADD DUP3 DUP1 SLOAD DUP1 ISZERO PUSH2 0x260A JUMPI PUSH1 0x20 MUL DUP3 ADD SWAP2 SWAP1 PUSH1 0x0 MSTORE PUSH1 0x20 PUSH1 0x0 KECCAK256 SWAP1 JUMPDEST DUP2 SLOAD DUP2 MSTORE PUSH1 0x20 ADD SWAP1 PUSH1 0x1 ADD SWAP1 DUP1 DUP4 GT PUSH2 0x25F6 JUMPI JUMPDEST POP POP POP POP POP SWAP1 POP SWAP2 SWAP1 POP JUMP JUMPDEST PUSH2 0x261E PUSH2 0x27F2 JUMP JUMPDEST PUSH2 0x2090 JUMPI PUSH1 0x40 MLOAD PUSH4 0x1AFCD79F PUSH1 0xE3 SHL DUP2 MSTORE PUSH1 0x4 ADD PUSH1 0x40 MLOAD DUP1 SWAP2 SUB SWAP1 REVERT JUMPDEST PUSH2 0x2643 PUSH2 0x2616 JUMP JUMPDEST PUSH1 0x0 DUP1 MLOAD PUSH1 0x20 PUSH2 0x2DD1 DUP4 CODECOPY DUP2 MLOAD SWAP2 MSTORE PUSH32 0x52C63247E1F47DB19D5CE0460030C497F067CA4CEBF71BA98EEADABE20BACE03 PUSH2 0x267D DUP5 DUP3 PUSH2 0x2CBA JUMP JUMPDEST POP PUSH1 0x4 DUP2 ADD PUSH2 0xC51 DUP4 DUP3 PUSH2 0x2CBA JUMP JUMPDEST PUSH2 0x2694 PUSH2 0x2616 JUMP JUMPDEST PUSH1 0x1 PUSH32 0x9B779B17422D0DF92223018B32B4D1FA46E071723D6817E2486D003BECC55F00 SSTORE JUMP JUMPDEST PUSH1 0x0 DUP2 DUP2 MSTORE PUSH1 0x1 DUP4 ADD PUSH1 0x20 MSTORE PUSH1 0x40 DUP2 KECCAK256 SLOAD DUP1 ISZERO PUSH2 0x22C2 JUMPI PUSH1 0x0 PUSH2 0x26DE PUSH1 0x1 DUP4 PUSH2 0x2BC1 JUMP JUMPDEST DUP6 SLOAD SWAP1 SWAP2 POP PUSH1 0x0 SWAP1 PUSH2 0x26F2 SWAP1 PUSH1 0x1 SWAP1 PUSH2 0x2BC1 JUMP JUMPDEST SWAP1 POP DUP1 DUP3 EQ PUSH2 0x2757 JUMPI PUSH1 0x0 DUP7 PUSH1 0x0 ADD DUP3 DUP2 SLOAD DUP2 LT PUSH2 0x2712 JUMPI PUSH2 0x2712 PUSH2 0x2C46 JUMP JUMPDEST SWAP1 PUSH1 0x0 MSTORE PUSH1 0x20 PUSH1 0x0 KECCAK256 ADD SLOAD SWAP1 POP DUP1 DUP8 PUSH1 0x0 ADD DUP5 DUP2 SLOAD DUP2 LT PUSH2 0x2735 JUMPI PUSH2 0x2735 PUSH2 0x2C46 JUMP JUMPDEST PUSH1 0x0 SWAP2 DUP3 MSTORE PUSH1 0x20 DUP1 DUP4 KECCAK256 SWAP1 SWAP2 ADD SWAP3 SWAP1 SWAP3 SSTORE SWAP2 DUP3 MSTORE PUSH1 0x1 DUP9 ADD SWAP1 MSTORE PUSH1 0x40 SWAP1 KECCAK256 DUP4 SWAP1 SSTORE JUMPDEST DUP6 SLOAD DUP7 SWAP1 DUP1 PUSH2 0x2768 JUMPI PUSH2 0x2768 PUSH2 0x2D7A JUMP JUMPDEST PUSH1 0x1 SWAP1 SUB DUP2 DUP2 SWAP1 PUSH1 0x0 MSTORE PUSH1 0x20 PUSH1 0x0 KECCAK256 ADD PUSH1 0x0 SWAP1 SSTORE SWAP1 SSTORE DUP6 PUSH1 0x1 ADD PUSH1 0x0 DUP7 DUP2 MSTORE PUSH1 0x20 ADD SWAP1 DUP2 MSTORE PUSH1 0x20 ADD PUSH1 0x0 KECCAK256 PUSH1 0x0 SWAP1 SSTORE PUSH1 0x1 SWAP4 POP POP POP POP PUSH2 0x6B5 JUMP JUMPDEST PUSH1 0x0 DUP2 DUP2 MSTORE PUSH1 0x1 DUP4 ADD PUSH1 0x20 MSTORE PUSH1 0x40 DUP2 KECCAK256 SLOAD PUSH2 0x27EA JUMPI POP DUP2 SLOAD PUSH1 0x1 DUP2 DUP2 ADD DUP5 SSTORE PUSH1 0x0 DUP5 DUP2 MSTORE PUSH1 0x20 DUP1 DUP3 KECCAK256 SWAP1 SWAP4 ADD DUP5 SWAP1 SSTORE DUP5 SLOAD DUP5 DUP3 MSTORE DUP3 DUP7 ADD SWAP1 SWAP4 MSTORE PUSH1 0x40 SWAP1 KECCAK256 SWAP2 SWAP1 SWAP2 SSTORE PUSH2 0x6B5 JUMP JUMPDEST POP PUSH1 0x0 PUSH2 0x6B5 JUMP JUMPDEST PUSH1 0x0 PUSH2 0x27FC PUSH2 0x204D JUMP JUMPDEST SLOAD PUSH1 0x1 PUSH1 0x40 SHL SWAP1 DIV PUSH1 0xFF AND SWAP2 SWAP1 POP JUMP JUMPDEST PUSH1 0x0 PUSH1 0x20 DUP3 DUP5 SUB SLT ISZERO PUSH2 0x281E JUMPI PUSH1 0x0 DUP1 REVERT JUMPDEST DUP2 CALLDATALOAD PUSH1 0x1 PUSH1 0x1 PUSH1 0xE0 SHL SUB NOT DUP2 AND DUP2 EQ PUSH2 0x13BD JUMPI PUSH1 0x0 DUP1 REVERT JUMPDEST PUSH1 0x0 PUSH1 0x20 DUP1 DUP4 MSTORE DUP4 MLOAD DUP1 PUSH1 0x20 DUP6 ADD MSTORE PUSH1 0x0 JUMPDEST DUP2 DUP2 LT ISZERO PUSH2 0x2864 JUMPI DUP6 DUP2 ADD DUP4 ADD MLOAD DUP6 DUP3 ADD PUSH1 0x40 ADD MSTORE DUP3 ADD PUSH2 0x2848 JUMP JUMPDEST POP PUSH1 0x0 PUSH1 0x40 DUP3 DUP7 ADD ADD MSTORE PUSH1 0x40 PUSH1 0x1F NOT PUSH1 0x1F DUP4 ADD AND DUP6 ADD ADD SWAP3 POP POP POP SWAP3 SWAP2 POP POP JUMP JUMPDEST DUP1 CALLDATALOAD PUSH1 0x1 PUSH1 0x1 PUSH1 0xA0 SHL SUB DUP2 AND DUP2 EQ PUSH2 0x289C JUMPI PUSH1 0x0 DUP1 REVERT JUMPDEST SWAP2 SWAP1 POP JUMP JUMPDEST PUSH1 0x0 DUP1 PUSH1 0x40 DUP4 DUP6 SUB SLT ISZERO PUSH2 0x28B4 JUMPI PUSH1 0x0 DUP1 REVERT JUMPDEST PUSH2 0x28BD DUP4 PUSH2 0x2885 JUMP JUMPDEST SWAP5 PUSH1 0x20 SWAP4 SWAP1 SWAP4 ADD CALLDATALOAD SWAP4 POP POP POP JUMP JUMPDEST PUSH1 0x0 PUSH1 0x20 DUP3 DUP5 SUB SLT ISZERO PUSH2 0x28DD JUMPI PUSH1 0x0 DUP1 REVERT JUMPDEST PUSH2 0x13BD DUP3 PUSH2 0x2885 JUMP JUMPDEST PUSH1 0x0 DUP1 PUSH1 0x0 PUSH1 0x60 DUP5 DUP7 SUB SLT ISZERO PUSH2 0x28FB JUMPI PUSH1 0x0 DUP1 REVERT JUMPDEST PUSH2 0x2904 DUP5 PUSH2 0x2885 JUMP JUMPDEST SWAP3 POP PUSH2 0x2912 PUSH1 0x20 DUP6 ADD PUSH2 0x2885 JUMP JUMPDEST SWAP2 POP PUSH1 0x40 DUP5 ADD CALLDATALOAD SWAP1 POP SWAP3 POP SWAP3 POP SWAP3 JUMP JUMPDEST PUSH1 0x0 PUSH1 0x20 DUP3 DUP5 SUB SLT ISZERO PUSH2 0x2934 JUMPI PUSH1 0x0 DUP1 REVERT JUMPDEST POP CALLDATALOAD SWAP2 SWAP1 POP JUMP JUMPDEST PUSH1 0x0 DUP1 PUSH1 0x40 DUP4 DUP6 SUB SLT ISZERO PUSH2 0x294E JUMPI PUSH1 0x0 DUP1 REVERT JUMPDEST DUP3 CALLDATALOAD SWAP2 POP PUSH2 0x295E PUSH1 0x20 DUP5 ADD PUSH2 0x2885 JUMP JUMPDEST SWAP1 POP SWAP3 POP SWAP3 SWAP1 POP JUMP JUMPDEST PUSH1 0x0 DUP1 PUSH1 0x40 DUP4 DUP6 SUB SLT ISZERO PUSH2 0x297A JUMPI PUSH1 0x0 DUP1 REVERT JUMPDEST POP POP DUP1 CALLDATALOAD SWAP3 PUSH1 0x20 SWAP1 SWAP2 ADD CALLDATALOAD SWAP2 POP JUMP JUMPDEST PUSH1 0x20 DUP1 DUP3 MSTORE DUP3 MLOAD DUP3 DUP3 ADD DUP2 SWAP1 MSTORE PUSH1 0x0 SWAP2 SWAP1 DUP5 DUP3 ADD SWAP1 PUSH1 0x40 DUP6 ADD SWAP1 DUP5 JUMPDEST DUP2 DUP2 LT ISZERO PUSH2 0x29CA JUMPI DUP4 MLOAD PUSH1 0x1 PUSH1 0x1 PUSH1 0xA0 SHL SUB AND DUP4 MSTORE SWAP3 DUP5 ADD SWAP3 SWAP2 DUP5 ADD SWAP2 PUSH1 0x1 ADD PUSH2 0x29A5 JUMP JUMPDEST POP SWAP1 SWAP7 SWAP6 POP POP POP POP POP POP JUMP JUMPDEST PUSH1 0x0 DUP1 PUSH1 0x40 DUP4 DUP6 SUB SLT ISZERO PUSH2 0x29E9 JUMPI PUSH1 0x0 DUP1 REVERT JUMPDEST PUSH2 0x29F2 DUP4 PUSH2 0x2885 JUMP JUMPDEST SWAP2 POP PUSH2 0x295E PUSH1 0x20 DUP5 ADD PUSH2 0x2885 JUMP JUMPDEST PUSH1 0x0 DUP1 PUSH1 0x40 DUP4 DUP6 SUB SLT ISZERO PUSH2 0x2A13 JUMPI PUSH1 0x0 DUP1 REVERT JUMPDEST PUSH2 0x2A1C DUP4 PUSH2 0x2885 JUMP JUMPDEST SWAP2 POP PUSH1 0x20 DUP4 ADD CALLDATALOAD DUP1 ISZERO ISZERO DUP2 EQ PUSH2 0x2A31 JUMPI PUSH1 0x0 DUP1 REVERT JUMPDEST DUP1 SWAP2 POP POP SWAP3 POP SWAP3 SWAP1 POP JUMP JUMPDEST PUSH1 0x1 DUP2 DUP2 SHR SWAP1 DUP3 AND DUP1 PUSH2 0x2A50 JUMPI PUSH1 0x7F DUP3 AND SWAP2 POP JUMPDEST PUSH1 0x20 DUP3 LT DUP2 SUB PUSH2 0x2A70 JUMPI PUSH4 0x4E487B71 PUSH1 0xE0 SHL PUSH1 0x0 MSTORE PUSH1 0x22 PUSH1 0x4 MSTORE PUSH1 0x24 PUSH1 0x0 REVERT JUMPDEST POP SWAP2 SWAP1 POP JUMP JUMPDEST PUSH1 0x20 DUP1 DUP3 MSTORE PUSH1 0x11 SWAP1 DUP3 ADD MSTORE PUSH17 0x20B1B1B7BAB73A1034B990333937BD32B7 PUSH1 0x79 SHL PUSH1 0x40 DUP3 ADD MSTORE PUSH1 0x60 ADD SWAP1 JUMP JUMPDEST PUSH4 0x4E487B71 PUSH1 0xE0 SHL PUSH1 0x0 MSTORE PUSH1 0x11 PUSH1 0x4 MSTORE PUSH1 0x24 PUSH1 0x0 REVERT JUMPDEST PUSH1 0x1 DUP2 DUP2 JUMPDEST DUP1 DUP6 GT ISZERO PUSH2 0x2AF2 JUMPI DUP2 PUSH1 0x0 NOT DIV DUP3 GT ISZERO PUSH2 0x2AD8 JUMPI PUSH2 0x2AD8 PUSH2 0x2AA1 JUMP JUMPDEST DUP1 DUP6 AND ISZERO PUSH2 0x2AE5 JUMPI SWAP2 DUP2 MUL SWAP2 JUMPDEST SWAP4 DUP5 SHR SWAP4 SWAP1 DUP1 MUL SWAP1 PUSH2 0x2ABC JUMP JUMPDEST POP SWAP3 POP SWAP3 SWAP1 POP JUMP JUMPDEST PUSH1 0x0 DUP3 PUSH2 0x2B09 JUMPI POP PUSH1 0x1 PUSH2 0x6B5 JUMP JUMPDEST DUP2 PUSH2 0x2B16 JUMPI POP PUSH1 0x0 PUSH2 0x6B5 JUMP JUMPDEST DUP2 PUSH1 0x1 DUP2 EQ PUSH2 0x2B2C JUMPI PUSH1 0x2 DUP2 EQ PUSH2 0x2B36 JUMPI PUSH2 0x2B52 JUMP JUMPDEST PUSH1 0x1 SWAP2 POP POP PUSH2 0x6B5 JUMP JUMPDEST PUSH1 0xFF DUP5 GT ISZERO PUSH2 0x2B47 JUMPI PUSH2 0x2B47 PUSH2 0x2AA1 JUMP JUMPDEST POP POP PUSH1 0x1 DUP3 SHL PUSH2 0x6B5 JUMP JUMPDEST POP PUSH1 0x20 DUP4 LT PUSH2 0x133 DUP4 LT AND PUSH1 0x4E DUP5 LT PUSH1 0xB DUP5 LT AND OR ISZERO PUSH2 0x2B75 JUMPI POP DUP2 DUP2 EXP PUSH2 0x6B5 JUMP JUMPDEST PUSH2 0x2B7F DUP4 DUP4 PUSH2 0x2AB7 JUMP JUMPDEST DUP1 PUSH1 0x0 NOT DIV DUP3 GT ISZERO PUSH2 0x2B93 JUMPI PUSH2 0x2B93 PUSH2 0x2AA1 JUMP JUMPDEST MUL SWAP4 SWAP3 POP POP POP JUMP JUMPDEST PUSH1 0x0 PUSH2 0x13BD PUSH1 0xFF DUP5 AND DUP4 PUSH2 0x2AFA JUMP JUMPDEST DUP1 DUP3 MUL DUP2 ISZERO DUP3 DUP3 DIV DUP5 EQ OR PUSH2 0x6B5 JUMPI PUSH2 0x6B5 PUSH2 0x2AA1 JUMP JUMPDEST DUP2 DUP2 SUB DUP2 DUP2 GT ISZERO PUSH2 0x6B5 JUMPI PUSH2 0x6B5 PUSH2 0x2AA1 JUMP JUMPDEST PUSH1 0x0 DUP1 DUP6 DUP6 GT ISZERO PUSH2 0x2BE4 JUMPI PUSH1 0x0 DUP1 REVERT JUMPDEST DUP4 DUP7 GT ISZERO PUSH2 0x2BF1 JUMPI PUSH1 0x0 DUP1 REVERT JUMPDEST POP POP DUP3 ADD SWAP4 SWAP2 SWAP1 SWAP3 SUB SWAP2 POP JUMP JUMPDEST PUSH12 0xFFFFFFFFFFFFFFFFFFFFFFFF NOT DUP2 CALLDATALOAD DUP2 DUP2 AND SWAP2 PUSH1 0x14 DUP6 LT ISZERO PUSH2 0x2C2B JUMPI DUP1 DUP2 DUP7 PUSH1 0x14 SUB PUSH1 0x3 SHL SHL DUP4 AND AND SWAP3 POP JUMPDEST POP POP SWAP3 SWAP2 POP POP JUMP JUMPDEST DUP1 DUP3 ADD DUP1 DUP3 GT ISZERO PUSH2 0x6B5 JUMPI PUSH2 0x6B5 PUSH2 0x2AA1 JUMP JUMPDEST PUSH4 0x4E487B71 PUSH1 0xE0 SHL PUSH1 0x0 MSTORE PUSH1 0x32 PUSH1 0x4 MSTORE PUSH1 0x24 PUSH1 0x0 REVERT JUMPDEST PUSH4 0x4E487B71 PUSH1 0xE0 SHL PUSH1 0x0 MSTORE PUSH1 0x41 PUSH1 0x4 MSTORE PUSH1 0x24 PUSH1 0x0 REVERT JUMPDEST PUSH1 0x1F DUP3 GT ISZERO PUSH2 0xDFD JUMPI PUSH1 0x0 DUP2 PUSH1 0x0 MSTORE PUSH1 0x20 PUSH1 0x0 KECCAK256 PUSH1 0x1F DUP6 ADD PUSH1 0x5 SHR DUP2 ADD PUSH1 0x20 DUP7 LT ISZERO PUSH2 0x2C9B JUMPI POP DUP1 JUMPDEST PUSH1 0x1F DUP6 ADD PUSH1 0x5 SHR DUP3 ADD SWAP2 POP JUMPDEST DUP2 DUP2 LT ISZERO PUSH2 0x18E8 JUMPI DUP3 DUP2 SSTORE PUSH1 0x1 ADD PUSH2 0x2CA7 JUMP JUMPDEST DUP2 MLOAD PUSH8 0xFFFFFFFFFFFFFFFF DUP2 GT ISZERO PUSH2 0x2CD4 JUMPI PUSH2 0x2CD4 PUSH2 0x2C5C JUMP JUMPDEST PUSH2 0x2CE8 DUP2 PUSH2 0x2CE2 DUP5 SLOAD PUSH2 0x2A3C JUMP JUMPDEST DUP5 PUSH2 0x2C72 JUMP JUMPDEST PUSH1 0x20 DUP1 PUSH1 0x1F DUP4 GT PUSH1 0x1 DUP2 EQ PUSH2 0x2D1D JUMPI PUSH1 0x0 DUP5 ISZERO PUSH2 0x2D05 JUMPI POP DUP6 DUP4 ADD MLOAD JUMPDEST PUSH1 0x0 NOT PUSH1 0x3 DUP7 SWAP1 SHL SHR NOT AND PUSH1 0x1 DUP6 SWAP1 SHL OR DUP6 SSTORE PUSH2 0x18E8 JUMP JUMPDEST PUSH1 0x0 DUP6 DUP2 MSTORE PUSH1 0x20 DUP2 KECCAK256 PUSH1 0x1F NOT DUP7 AND SWAP2 JUMPDEST DUP3 DUP2 LT ISZERO PUSH2 0x2D4C JUMPI DUP9 DUP7 ADD MLOAD DUP3 SSTORE SWAP5 DUP5 ADD SWAP5 PUSH1 0x1 SWAP1 SWAP2 ADD SWAP1 DUP5 ADD PUSH2 0x2D2D JUMP JUMPDEST POP DUP6 DUP3 LT ISZERO PUSH2 0x2D6A JUMPI DUP8 DUP6 ADD MLOAD PUSH1 0x0 NOT PUSH1 0x3 DUP9 SWAP1 SHL PUSH1 0xF8 AND SHR NOT AND DUP2 SSTORE JUMPDEST POP POP POP POP POP PUSH1 0x1 SWAP1 DUP2 SHL ADD SWAP1 SSTORE POP JUMP JUMPDEST PUSH4 0x4E487B71 PUSH1 0xE0 SHL PUSH1 0x0 MSTORE PUSH1 0x31 PUSH1 0x4 MSTORE PUSH1 0x24 PUSH1 0x0 REVERT INVALID 0xC1 0xF6 INVALID 0x24 PUSH3 0x1CE81E 0xC5 DUP3 PUSH29 0xAF0253CADB74709B061630E6B55E82371705932000D22ED3A112884BD9 REVERT PUSH1 0x3 0xB7 SAR MUL 0xC2 0xA6 PUSH18 0xCF1DDCC8740E9A0A8E3AB3973E344F52C632 SELFBALANCE 0xE1 DELEGATECALL PUSH30 0xB19D5CE0460030C497F067CA4CEBF71BA98EEADABE20BACE00DA4D20B686 0xF7 BLOCKHASH BLOCKHASH COINBASE 0xD4 LOG4 SIGNEXTEND 0xC9 0x22 POP DUP8 CALLVALUE CREATE2 SWAP8 SWAP6 0xE8 0xA7 CODECOPY 0x4E 0x24 PUSH7 0x2EB8EC5B77B9F 0x2D CREATE INVALID 0xD2 0xC7 PUSH23 0x48DE5860A4CC508CD0818C85B8B8A1AB4CEEEF8D981C89 JUMP 0xA6 MUL 0xDD PUSH28 0xC7DEC4DCEEDDA775E58DD541E08A116C6C53815C0BD028192F7B6268 STOP 0xE1 0xDC 0xBD 0xB9 SAR CALLCODE PUSH19 0x12A29BC27177C840CF2F819ECF2187432E1FAC DUP7 0xC2 0xDD 0x5D 0xFC 0xA9 0xCB 0x4C ISZERO PUSH1 0xF0 0xAC PUSH25 0x3AF04187BDA6C71D491DEE6A63E28B3AD8457B60790F38EEBA LOG2 PUSH5 0x6970667358 0x22 SLT KECCAK256 0xC4 XOR PUSH16 0xD7514E434FE9340633343DA7E42E742D JUMP DUP9 0x4B XOR 0xC6 PC PUSH16 0x9CF178E118C64736F6C634300081600 CALLER "},"methodIdentifiers":{"BURN_VAULT_ROLE()":"3a594a1d","DEFAULT_ADMIN_ROLE()":"a217fddf","MINTER_ROLE()":"d5391393","TREASURY_ROLE()":"d11a57ec","UPGRADER_ROLE()":"f72c0d8b","WHITELIST_RECEIVER_ROLE()":"a8422c2f","WHITELIST_SENDER_ROLE()":"14eeb828","acceptAdminRole()":"8c3d7301","addTreasuryAddress(address)":"bae5ec04","addWhitelistReceiver(address)":"c80eeec2","addWhitelistSender(address)":"d403c878","allowance(address,address)":"dd62ed3e","approve(address,uint256)":"095ea7b3","balanceOf(address)":"70a08231","burn(address,uint256)":"9dc29fac","decimals()":"313ce567","freezeAccount(address)":"f26c159f","frozenAccounts(address)":"860838a5","getRoleAdmin(bytes32)":"248a9ca3","getRoleMember(bytes32,uint256)":"9010d07c","getRoleMemberCount(bytes32)":"ca15c873","getRoleMembers(bytes32)":"a3246ad3","grantRole(bytes32,address)":"2f2ff15d","hasRole(bytes32,address)":"91d14854","initialize(address)":"c4d66de8","isTrustedForwarder(address)":"572b6c05","mint(address,uint256)":"40c10f19","name()":"06fdde03","nominateAdmin(address)":"cd5ad4c5","nominatedAdmin()":"e8ac6533","removeTreasuryAddress(address)":"d4179e8d","removeWhitelistReceiver(address)":"175badcb","removeWhitelistSender(address)":"0ee3153f","renounceRole(bytes32,address)":"36568abe","revokeRole(bytes32,address)":"d547741f","setTrustedForwarder(address,bool)":"e691d03b","supportsInterface(bytes4)":"01ffc9a7","symbol()":"95d89b41","totalSupply()":"18160ddd","transfer(address,uint256)":"a9059cbb","transferFrom(address,address,uint256)":"23b872dd","trustedForwarder(address)":"76b88024","unfreezeAccount(address)":"788649ea","updateBurnVault(address)":"35f14f14","updateMinter(address)":"4eb03f6e"}},"storageLayout":{"storage":[{"astId":7859,"contract":"contracts/rKGEN.sol:rKGEN","label":"nominatedAdmin","offset":0,"slot":"0","type":"t_address"},{"astId":7863,"contract":"contracts/rKGEN.sol:rKGEN","label":"frozenAccounts","offset":0,"slot":"1","type":"t_mapping(t_address,t_bool)"},{"astId":7867,"contract":"contracts/rKGEN.sol:rKGEN","label":"trustedForwarder","offset":0,"slot":"2","type":"t_mapping(t_address,t_bool)"}],"types":{"t_address":{"encoding":"inplace","label":"address","numberOfBytes":"20"},"t_bool":{"encoding":"inplace","label":"bool","numberOfBytes":"1"},"t_mapping(t_address,t_bool)":{"encoding":"mapping","key":"t_address","label":"mapping(address => bool)","numberOfBytes":"32","value":"t_bool"}}}}}}