{
  "_format": "hh-sol-artifact-1",
  "contractName": "RKGENAirdrop",
  "sourceName": "contracts/rkgen_airdrop.sol",
  "abi": [
    {
      "inputs": [],
      "name": "AccessControlBadConfirmation",
      "type": "error"
    },
    {
      "inputs": [
        {
          "internalType": "address",
          "name": "account",
          "type": "address"
        },
        {
          "internalType": "bytes32",
          "name": "neededRole",
          "type": "bytes32"
        }
      ],
      "name": "AccessControlUnauthorizedAccount",
      "type": "error"
    },
    {
      "inputs": [],
      "name": "AlreadyExists",
      "type": "error"
    },
    {
      "inputs": [],
      "name": "ECDSAInvalidSignature",
      "type": "error"
    },
    {
      "inputs": [
        {
          "internalType": "uint256",
          "name": "length",
          "type": "uint256"
        }
      ],
      "name": "ECDSAInvalidSignatureLength",
      "type": "error"
    },
    {
      "inputs": [
        {
          "internalType": "bytes32",
          "name": "s",
          "type": "bytes32"
        }
      ],
      "name": "ECDSAInvalidSignatureS",
      "type": "error"
    },
    {
      "inputs": [],
      "name": "InvalidAdmin",
      "type": "error"
    },
    {
      "inputs": [],
      "name": "InvalidInitialization",
      "type": "error"
    },
    {
      "inputs": [],
      "name": "InvalidNonce",
      "type": "error"
    },
    {
      "inputs": [],
      "name": "InvalidSignature",
      "type": "error"
    },
    {
      "inputs": [],
      "name": "InvalidSigner",
      "type": "error"
    },
    {
      "inputs": [],
      "name": "NoNominatedAdmin",
      "type": "error"
    },
    {
      "inputs": [],
      "name": "NotAdmin",
      "type": "error"
    },
    {
      "inputs": [],
      "name": "NotInitializing",
      "type": "error"
    },
    {
      "inputs": [],
      "name": "ReentrancyGuardReentrantCall",
      "type": "error"
    },
    {
      "anonymous": false,
      "inputs": [
        {
          "indexed": true,
          "internalType": "address",
          "name": "nominatedAdmin",
          "type": "address"
        }
      ],
      "name": "AdminNominated",
      "type": "event"
    },
    {
      "anonymous": false,
      "inputs": [
        {
          "indexed": true,
          "internalType": "address",
          "name": "newAdmin",
          "type": "address"
        }
      ],
      "name": "AdminUpdated",
      "type": "event"
    },
    {
      "anonymous": false,
      "inputs": [
        {
          "indexed": true,
          "internalType": "address",
          "name": "user",
          "type": "address"
        },
        {
          "indexed": true,
          "internalType": "address",
          "name": "token",
          "type": "address"
        },
        {
          "indexed": false,
          "internalType": "uint256",
          "name": "amount",
          "type": "uint256"
        },
        {
          "indexed": false,
          "internalType": "uint256",
          "name": "nonce",
          "type": "uint256"
        }
      ],
      "name": "Claimed",
      "type": "event"
    },
    {
      "anonymous": false,
      "inputs": [
        {
          "indexed": false,
          "internalType": "uint64",
          "name": "version",
          "type": "uint64"
        }
      ],
      "name": "Initialized",
      "type": "event"
    },
    {
      "anonymous": false,
      "inputs": [
        {
          "indexed": true,
          "internalType": "bytes32",
          "name": "role",
          "type": "bytes32"
        },
        {
          "indexed": true,
          "internalType": "bytes32",
          "name": "previousAdminRole",
          "type": "bytes32"
        },
        {
          "indexed": true,
          "internalType": "bytes32",
          "name": "newAdminRole",
          "type": "bytes32"
        }
      ],
      "name": "RoleAdminChanged",
      "type": "event"
    },
    {
      "anonymous": false,
      "inputs": [
        {
          "indexed": true,
          "internalType": "bytes32",
          "name": "role",
          "type": "bytes32"
        },
        {
          "indexed": true,
          "internalType": "address",
          "name": "account",
          "type": "address"
        },
        {
          "indexed": true,
          "internalType": "address",
          "name": "sender",
          "type": "address"
        }
      ],
      "name": "RoleGranted",
      "type": "event"
    },
    {
      "anonymous": false,
      "inputs": [
        {
          "indexed": true,
          "internalType": "bytes32",
          "name": "role",
          "type": "bytes32"
        },
        {
          "indexed": true,
          "internalType": "address",
          "name": "account",
          "type": "address"
        },
        {
          "indexed": true,
          "internalType": "address",
          "name": "sender",
          "type": "address"
        }
      ],
      "name": "RoleRevoked",
      "type": "event"
    },
    {
      "anonymous": false,
      "inputs": [
        {
          "indexed": false,
          "internalType": "bytes",
          "name": "signature",
          "type": "bytes"
        },
        {
          "indexed": false,
          "internalType": "bool",
          "name": "result",
          "type": "bool"
        }
      ],
      "name": "SignatureVerified",
      "type": "event"
    },
    {
      "anonymous": false,
      "inputs": [
        {
          "indexed": true,
          "internalType": "address",
          "name": "newSigner",
          "type": "address"
        }
      ],
      "name": "SignerUpdated",
      "type": "event"
    },
    {
      "anonymous": false,
      "inputs": [
        {
          "indexed": true,
          "internalType": "address",
          "name": "admin",
          "type": "address"
        },
        {
          "indexed": true,
          "internalType": "address",
          "name": "token",
          "type": "address"
        },
        {
          "indexed": false,
          "internalType": "uint256",
          "name": "amount",
          "type": "uint256"
        }
      ],
      "name": "TokensWithdrawn",
      "type": "event"
    },
    {
      "inputs": [],
      "name": "ADMIN_ROLE",
      "outputs": [
        {
          "internalType": "bytes32",
          "name": "",
          "type": "bytes32"
        }
      ],
      "stateMutability": "view",
      "type": "function"
    },
    {
      "inputs": [],
      "name": "CLAIM_TYPEHASH",
      "outputs": [
        {
          "internalType": "bytes32",
          "name": "",
          "type": "bytes32"
        }
      ],
      "stateMutability": "view",
      "type": "function"
    },
    {
      "inputs": [],
      "name": "DEFAULT_ADMIN_ROLE",
      "outputs": [
        {
          "internalType": "bytes32",
          "name": "",
          "type": "bytes32"
        }
      ],
      "stateMutability": "view",
      "type": "function"
    },
    {
      "inputs": [],
      "name": "DOMAIN_SEPARATOR",
      "outputs": [
        {
          "internalType": "bytes32",
          "name": "",
          "type": "bytes32"
        }
      ],
      "stateMutability": "view",
      "type": "function"
    },
    {
      "inputs": [],
      "name": "acceptAdminRole",
      "outputs": [],
      "stateMutability": "nonpayable",
      "type": "function"
    },
    {
      "inputs": [],
      "name": "chainId",
      "outputs": [
        {
          "internalType": "uint256",
          "name": "",
          "type": "uint256"
        }
      ],
      "stateMutability": "view",
      "type": "function"
    },
    {
      "inputs": [
        {
          "internalType": "address",
          "name": "token",
          "type": "address"
        },
        {
          "internalType": "uint256",
          "name": "amount",
          "type": "uint256"
        },
        {
          "internalType": "uint256",
          "name": "nonce",
          "type": "uint256"
        },
        {
          "internalType": "bytes",
          "name": "signature",
          "type": "bytes"
        }
      ],
      "name": "claim",
      "outputs": [],
      "stateMutability": "nonpayable",
      "type": "function"
    },
    {
      "inputs": [],
      "name": "getDomainSeparator",
      "outputs": [
        {
          "internalType": "bytes32",
          "name": "",
          "type": "bytes32"
        }
      ],
      "stateMutability": "view",
      "type": "function"
    },
    {
      "inputs": [],
      "name": "getNominatedAdmin",
      "outputs": [
        {
          "internalType": "address",
          "name": "",
          "type": "address"
        }
      ],
      "stateMutability": "view",
      "type": "function"
    },
    {
      "inputs": [
        {
          "internalType": "address",
          "name": "user",
          "type": "address"
        },
        {
          "internalType": "address",
          "name": "token",
          "type": "address"
        }
      ],
      "name": "getNonce",
      "outputs": [
        {
          "internalType": "uint256",
          "name": "",
          "type": "uint256"
        }
      ],
      "stateMutability": "view",
      "type": "function"
    },
    {
      "inputs": [],
      "name": "getRewardSigner",
      "outputs": [
        {
          "internalType": "address",
          "name": "",
          "type": "address"
        }
      ],
      "stateMutability": "view",
      "type": "function"
    },
    {
      "inputs": [
        {
          "internalType": "bytes32",
          "name": "role",
          "type": "bytes32"
        }
      ],
      "name": "getRoleAdmin",
      "outputs": [
        {
          "internalType": "bytes32",
          "name": "",
          "type": "bytes32"
        }
      ],
      "stateMutability": "view",
      "type": "function"
    },
    {
      "inputs": [
        {
          "internalType": "bytes32",
          "name": "role",
          "type": "bytes32"
        },
        {
          "internalType": "address",
          "name": "account",
          "type": "address"
        }
      ],
      "name": "grantRole",
      "outputs": [],
      "stateMutability": "nonpayable",
      "type": "function"
    },
    {
      "inputs": [
        {
          "internalType": "bytes32",
          "name": "role",
          "type": "bytes32"
        },
        {
          "internalType": "address",
          "name": "account",
          "type": "address"
        }
      ],
      "name": "hasRole",
      "outputs": [
        {
          "internalType": "bool",
          "name": "",
          "type": "bool"
        }
      ],
      "stateMutability": "view",
      "type": "function"
    },
    {
      "inputs": [
        {
          "internalType": "address",
          "name": "admin",
          "type": "address"
        },
        {
          "internalType": "address",
          "name": "signer",
          "type": "address"
        },
        {
          "internalType": "uint256",
          "name": "_chainId",
          "type": "uint256"
        }
      ],
      "name": "initialize",
      "outputs": [],
      "stateMutability": "nonpayable",
      "type": "function"
    },
    {
      "inputs": [
        {
          "internalType": "address",
          "name": "forwarder",
          "type": "address"
        }
      ],
      "name": "isTrustedForwarder",
      "outputs": [
        {
          "internalType": "bool",
          "name": "",
          "type": "bool"
        }
      ],
      "stateMutability": "view",
      "type": "function"
    },
    {
      "inputs": [
        {
          "internalType": "address",
          "name": "newAdmin",
          "type": "address"
        }
      ],
      "name": "nominateAdmin",
      "outputs": [],
      "stateMutability": "nonpayable",
      "type": "function"
    },
    {
      "inputs": [],
      "name": "nominatedAdmin",
      "outputs": [
        {
          "internalType": "address",
          "name": "",
          "type": "address"
        }
      ],
      "stateMutability": "view",
      "type": "function"
    },
    {
      "inputs": [
        {
          "internalType": "address",
          "name": "",
          "type": "address"
        },
        {
          "internalType": "address",
          "name": "",
          "type": "address"
        }
      ],
      "name": "nonces",
      "outputs": [
        {
          "internalType": "uint256",
          "name": "",
          "type": "uint256"
        }
      ],
      "stateMutability": "view",
      "type": "function"
    },
    {
      "inputs": [
        {
          "internalType": "bytes32",
          "name": "role",
          "type": "bytes32"
        },
        {
          "internalType": "address",
          "name": "callerConfirmation",
          "type": "address"
        }
      ],
      "name": "renounceRole",
      "outputs": [],
      "stateMutability": "nonpayable",
      "type": "function"
    },
    {
      "inputs": [
        {
          "internalType": "bytes32",
          "name": "role",
          "type": "bytes32"
        },
        {
          "internalType": "address",
          "name": "account",
          "type": "address"
        }
      ],
      "name": "revokeRole",
      "outputs": [],
      "stateMutability": "nonpayable",
      "type": "function"
    },
    {
      "inputs": [],
      "name": "rewardSigner",
      "outputs": [
        {
          "internalType": "address",
          "name": "",
          "type": "address"
        }
      ],
      "stateMutability": "view",
      "type": "function"
    },
    {
      "inputs": [
        {
          "internalType": "address",
          "name": "_trustedForwarder",
          "type": "address"
        },
        {
          "internalType": "bool",
          "name": "_isTrusted",
          "type": "bool"
        }
      ],
      "name": "setTrustedForwarder",
      "outputs": [],
      "stateMutability": "nonpayable",
      "type": "function"
    },
    {
      "inputs": [
        {
          "internalType": "bytes4",
          "name": "interfaceId",
          "type": "bytes4"
        }
      ],
      "name": "supportsInterface",
      "outputs": [
        {
          "internalType": "bool",
          "name": "",
          "type": "bool"
        }
      ],
      "stateMutability": "view",
      "type": "function"
    },
    {
      "inputs": [
        {
          "internalType": "address",
          "name": "",
          "type": "address"
        }
      ],
      "name": "trustedForwarder",
      "outputs": [
        {
          "internalType": "bool",
          "name": "",
          "type": "bool"
        }
      ],
      "stateMutability": "view",
      "type": "function"
    },
    {
      "inputs": [
        {
          "internalType": "address",
          "name": "newSigner",
          "type": "address"
        }
      ],
      "name": "updateSigner",
      "outputs": [],
      "stateMutability": "nonpayable",
      "type": "function"
    },
    {
      "inputs": [
        {
          "internalType": "address",
          "name": "token",
          "type": "address"
        },
        {
          "internalType": "uint256",
          "name": "amount",
          "type": "uint256"
        }
      ],
      "name": "withdrawTokens",
      "outputs": [],
      "stateMutability": "nonpayable",
      "type": "function"
    }
  ],
  "bytecode": "0x608060405234801561001057600080fd5b5061169d806100206000396000f3fe608060405234801561001057600080fd5b50600436106101a95760003560e01c806376b88024116100f9578063b58ad07f11610097578063d828435d11610071578063d828435d146103c9578063e691d03b14610402578063e8ac653314610415578063ed24911d1461042857600080fd5b8063b58ad07f14610392578063cd5ad4c5146103a3578063d547741f146103b657600080fd5b80639333fbda116100d35780639333fbda146103435780639a8a05921461036e578063a217fddf14610377578063a7ecd37e1461037f57600080fd5b806376b88024146103055780638c3d73011461032857806391d148541461033057600080fd5b8063323f24ab116101665780634420589911610140578063442058991461028c578063572b6c051461029d5780636b0509b1146102c957806375b238fc146102f057600080fd5b8063323f24ab146102455780633644e5151461027057806336568abe1461027957600080fd5b806301ffc9a7146101ae57806306b091f9146101d65780631794bb3c146101eb578063248a9ca3146101fe5780632ada8a321461021f5780632f2ff15d14610232575b600080fd5b6101c16101bc36600461130b565b610430565b60405190151581526020015b60405180910390f35b6101e96101e4366004611358565b610467565b005b6101e96101f9366004611382565b610536565b61021161020c3660046113be565b610759565b6040519081526020016101cd565b6101e961022d3660046113d7565b61077b565b6101e961024036600461146b565b6109c9565b600054610258906001600160a01b031681565b6040516001600160a01b0390911681526020016101cd565b61021160055481565b6101e961028736600461146b565b6109eb565b6000546001600160a01b0316610258565b6101c16102ab366004611497565b6001600160a01b031660009081526004602052604090205460ff1690565b6102117f677102a0f8367f9e5ef52d68ff4941ef8fb7daa93e48f21aad714337fbb9c49981565b61021160008051602061164883398151915281565b6101c1610313366004611497565b60046020526000908152604090205460ff1681565b6101e9610a33565b6101c161033e36600461146b565b610ae9565b6102116103513660046114b2565b600360209081526000928352604080842090915290825290205481565b61021160015481565b610211600081565b6101e961038d366004611497565b610b21565b6002546001600160a01b0316610258565b6101e96103b1366004611497565b610bd7565b6101e96103c436600461146b565b610c8a565b6102116103d73660046114b2565b6001600160a01b03918216600090815260036020908152604080832093909416825291909152205490565b6101e96104103660046114ea565b610ca6565b600254610258906001600160a01b031681565b600554610211565b60006001600160e01b03198216637965db0b60e01b148061046157506301ffc9a760e01b6001600160e01b03198316145b92915050565b60008051602061164883398151915261047f81610cdd565b60405163a9059cbb60e01b8152336004820152602481018390526001600160a01b0384169063a9059cbb906044016020604051808303816000875af11580156104cc573d6000803e3d6000fd5b505050506040513d601f19601f820116820180604052508101906104f09190611521565b506040518281526001600160a01b0384169033907f6337ed398c0e8467698c581374fdce4db14922df487b5a39483079f5f59b60a49060200160405180910390a3505050565b6000610540610cf1565b805490915060ff600160401b820416159067ffffffffffffffff166000811580156105685750825b905060008267ffffffffffffffff1660011480156105855750303b155b905081158015610593575080155b156105b15760405163f92ee8a960e01b815260040160405180910390fd5b845467ffffffffffffffff1916600117855583156105db57845460ff60401b1916600160401b1785555b6105e3610d1a565b6105ee600089610d24565b5061060760008051602061164883398151915289610d24565b50610610610dca565b600080546001600160a01b0319166001600160a01b0389161790556001868155604080518082018252600c81526b0524b47454e41697264726f760a41b60209182015281518083018352928352603160f81b9281019290925280517f8b73c3c69bb8fe3d512ecc4cf759cc79239f7b179b0ffacaa9a75d522b39400f928101929092527f07f5594d6fe8a58f585a3b4be6b7e962b6c099a523da5f8f1c8aebb6ddfe9ed2908201527fc89efdaa54c0f20c7adf612882df0950f5a951637e0307cdcb4c672f298b8bc66060820152608081018790523060a082015260c00160408051601f198184030181529190528051602090910120600555831561074f57845460ff60401b19168555604051600181527fc7f505b2f371ae2175ee4913f4499e1f2633a7b5936321eed1cdaeb6115181d29060200160405180910390a15b5050505050505050565b6000908152600080516020611628833981519152602052604090206001015490565b610783610dda565b6003600061078f610e24565b6001600160a01b039081168252602080830193909352604091820160009081209189168152925290205483146107d857604051633ab3447f60e11b815260040160405180910390fd5b60006107f26107e5610e24565b8787876001548888610e33565b90507f913cfe5a6bb4486c7cca917d162d4d03f1b72efe6d62d10003d8dcebfe5db92c8383836040516108279392919061153e565b60405180910390a18061084d57604051638baa579f60e01b815260040160405180910390fd5b60016003600061085b610e24565b6001600160a01b03166001600160a01b031681526020019081526020016000206000886001600160a01b03166001600160a01b0316815260200190815260200160002060008282546108ad919061158c565b90915550506001600160a01b03861663a9059cbb6108c9610e24565b6040516001600160e01b031960e084901b1681526001600160a01b039091166004820152602481018890526044016020604051808303816000875af1158015610916573d6000803e3d6000fd5b505050506040513d601f19601f8201168201806040525081019061093a9190611521565b50856001600160a01b031661094d610e24565b6001600160a01b03167f2f6639d24651730c7bf57c95ddbf96d66d11477e4ec626876f92c22e5f365e688787604051610990929190918252602082015260400190565b60405180910390a3506109c260017f9b779b17422d0df92223018b32b4d1fa46e071723d6817e2486d003becc55f0055565b5050505050565b6109d282610759565b6109db81610cdd565b6109e58383610d24565b50505050565b6109f3610e24565b6001600160a01b0316816001600160a01b031614610a245760405163334bd91960e11b815260040160405180910390fd5b610a2e8282610ecc565b505050565b6002546001600160a01b0316610a5c57604051632091660760e21b815260040160405180910390fd5b6002546001600160a01b03163314610a8757604051630b5eba9f60e41b815260040160405180910390fd5b610a92600033610d24565b50610aab60008051602061164883398151915233610d24565b50600280546001600160a01b031916905560405133907f54e4612788f90384e6843298d7854436f3a585b2c3831ab66abf1de63bfa6c2d90600090a2565b6000918252600080516020611628833981519152602090815260408084206001600160a01b0393909316845291905290205460ff1690565b600080516020611648833981519152610b3981610cdd565b6001600160a01b038216610b6057604051632057875960e21b815260040160405180910390fd5b6000546001600160a01b03808416911603610b8e5760405163119b4fd360e11b815260040160405180910390fd5b600080546001600160a01b0319166001600160a01b038416908117825560405190917f5553331329228fbd4123164423717a4a7539f6dfa1c3279a923b98fd681a6c7391a25050565b600080516020611648833981519152610bef81610cdd565b6001600160a01b038216610c1657604051630b5eba9f60e41b815260040160405180910390fd5b336001600160a01b03831603610c3f5760405163119b4fd360e11b815260040160405180910390fd5b600280546001600160a01b0319166001600160a01b0384169081179091556040517f0cc480c920b59003be60d60bb7b685b220d313037231045fbea988d33938d86790600090a25050565b610c9382610759565b610c9c81610cdd565b6109e58383610ecc565b6000610cb181610cdd565b506001600160a01b03919091166000908152600460205260409020805460ff1916911515919091179055565b610cee81610ce9610e24565b610f66565b50565b6000807ff0c57e16840df040f15088dc2f81fe391c3923bec73e23a9662efc9c229c6a00610461565b610d22610fa8565b565b6000600080516020611628833981519152610d3f8484610ae9565b610dc0576000848152602082815260408083206001600160a01b03871684529091529020805460ff19166001179055610d76610e24565b6001600160a01b0316836001600160a01b0316857f2f8788117e7eff1d82e926ec794901d17c78024a50270940304540a733656f0d60405160405180910390a46001915050610461565b6000915050610461565b610dd2610fa8565b610d22610fcd565b7f9b779b17422d0df92223018b32b4d1fa46e071723d6817e2486d003becc55f00805460011901610e1e57604051633ee5aeb560e01b815260040160405180910390fd5b60029055565b6000610e2e610fd5565b905090565b600080610e438989898989611031565b90506000610e878286868080601f0160208091040260200160405190810160405280939291908181526020018383808284376000920191909152506110f292505050565b6000546001600160a01b039081169116149a9950505050505050505050565b60017f9b779b17422d0df92223018b32b4d1fa46e071723d6817e2486d003becc55f0055565b6000600080516020611628833981519152610ee78484610ae9565b15610dc0576000848152602082815260408083206001600160a01b03871684529091529020805460ff19169055610f1c610e24565b6001600160a01b0316836001600160a01b0316857ff6391f5c32d9c69d2a47ea670b442974b53935d1edc7fd64eb21e047a839171b60405160405180910390a46001915050610461565b610f708282610ae9565b610fa45760405163e2517d3f60e01b81526001600160a01b0382166004820152602481018390526044015b60405180910390fd5b5050565b610fb061111c565b610d2257604051631afcd79f60e31b815260040160405180910390fd5b610ea6610fa8565b33600090815260046020526040812054369060149060ff168015610ff95750808210155b156110295760003661100b838561159f565b6110169282906115b2565b61101f916115dc565b60601c9250505090565b339250505090565b600554604080517f677102a0f8367f9e5ef52d68ff4941ef8fb7daa93e48f21aad714337fbb9c49960208201526001600160a01b038089169282019290925290861660608201526080810185905260a0810184905260c081018390526000919060e001604051602081830303815290604052805190602001206040516020016110d192919061190160f01b81526002810192909252602282015260420190565b60405160208183030381529060405280519060200120905095945050505050565b6000806000806111028686611136565b9250925092506111128282611183565b5090949350505050565b6000611126610cf1565b54600160401b900460ff16919050565b600080600083516041036111705760208401516040850151606086015160001a6111628882858561123c565b95509550955050505061117c565b50508151600091506002905b9250925092565b600082600381111561119757611197611611565b036111a0575050565b60018260038111156111b4576111b4611611565b036111d25760405163f645eedf60e01b815260040160405180910390fd5b60028260038111156111e6576111e6611611565b036112075760405163fce698f760e01b815260048101829052602401610f9b565b600382600381111561121b5761121b611611565b03610fa4576040516335e2f38360e21b815260048101829052602401610f9b565b600080807f7fffffffffffffffffffffffffffffff5d576e7357a4501ddfe92f46681b20a08411156112775750600091506003905082611301565b604080516000808252602082018084528a905260ff891692820192909252606081018790526080810186905260019060a0016020604051602081039080840390855afa1580156112cb573d6000803e3d6000fd5b5050604051601f1901519150506001600160a01b0381166112f757506000925060019150829050611301565b9250600091508190505b9450945094915050565b60006020828403121561131d57600080fd5b81356001600160e01b03198116811461133557600080fd5b9392505050565b80356001600160a01b038116811461135357600080fd5b919050565b6000806040838503121561136b57600080fd5b6113748361133c565b946020939093013593505050565b60008060006060848603121561139757600080fd5b6113a08461133c565b92506113ae6020850161133c565b9150604084013590509250925092565b6000602082840312156113d057600080fd5b5035919050565b6000806000806000608086880312156113ef57600080fd5b6113f88661133c565b94506020860135935060408601359250606086013567ffffffffffffffff8082111561142357600080fd5b818801915088601f83011261143757600080fd5b81358181111561144657600080fd5b89602082850101111561145857600080fd5b9699959850939650602001949392505050565b6000806040838503121561147e57600080fd5b8235915061148e6020840161133c565b90509250929050565b6000602082840312156114a957600080fd5b6113358261133c565b600080604083850312156114c557600080fd5b6114ce8361133c565b915061148e6020840161133c565b8015158114610cee57600080fd5b600080604083850312156114fd57600080fd5b6115068361133c565b91506020830135611516816114dc565b809150509250929050565b60006020828403121561153357600080fd5b8151611335816114dc565b6040815282604082015282846060830137600060608483018101919091529115156020820152601f909201601f191690910101919050565b634e487b7160e01b600052601160045260246000fd5b8082018082111561046157610461611576565b8181038181111561046157610461611576565b600080858511156115c257600080fd5b838611156115cf57600080fd5b5050820193919092039150565b6bffffffffffffffffffffffff1981358181169160148510156116095780818660140360031b1b83161692505b505092915050565b634e487b7160e01b600052602160045260246000fdfe02dd7bc7dec4dceedda775e58dd541e08a116c6c53815c0bd028192f7b626800a49807205ce4d355092ef5a8a18f56e8913cf4a201fbe287825b095693c21775a2646970667358221220c9faf67d610fc601be0295da19258e8d713bae6edbd6fbab5fce05892b45e2cc64736f6c63430008160033",
  "linkReferences": {},
  "deployedLinkReferences": {}
}