{
  "address": "0x650621CfAEC1b4f3f347FC74Aea9Ff74C63E11F0",
  "abi": [
    {
      "inputs": [
        {
          "internalType": "string",
          "name": "_name",
          "type": "string"
        },
        {
          "internalType": "string",
          "name": "_symbol",
          "type": "string"
        },
        {
          "internalType": "address",
          "name": "_lzEndpoint",
          "type": "address"
        },
        {
          "internalType": "address",
          "name": "_delegate",
          "type": "address"
        },
        {
          "internalType": "address",
          "name": "_trustedForwarder",
          "type": "address"
        }
      ],
      "stateMutability": "nonpayable",
      "type": "constructor"
    },
    {
      "inputs": [],
      "name": "AccessControlBadConfirmation",
      "type": "error"
    },
    {
      "inputs": [
        {
          "internalType": "address",
          "name": "account",
          "type": "address"
        },
        {
          "internalType": "bytes32",
          "name": "neededRole",
          "type": "bytes32"
        }
      ],
      "name": "AccessControlUnauthorizedAccount",
      "type": "error"
    },
    {
      "inputs": [],
      "name": "AlreadyTrustedForwarder",
      "type": "error"
    },
    {
      "inputs": [
        {
          "internalType": "uint256",
          "name": "amountSD",
          "type": "uint256"
        }
      ],
      "name": "AmountSDOverflowed",
      "type": "error"
    },
    {
      "inputs": [
        {
          "internalType": "address",
          "name": "account",
          "type": "address"
        }
      ],
      "name": "BlacklistedAddress",
      "type": "error"
    },
    {
      "inputs": [],
      "name": "CrossChainOperationsPaused",
      "type": "error"
    },
    {
      "inputs": [
        {
          "internalType": "address",
          "name": "spender",
          "type": "address"
        },
        {
          "internalType": "uint256",
          "name": "allowance",
          "type": "uint256"
        },
        {
          "internalType": "uint256",
          "name": "needed",
          "type": "uint256"
        }
      ],
      "name": "ERC20InsufficientAllowance",
      "type": "error"
    },
    {
      "inputs": [
        {
          "internalType": "address",
          "name": "sender",
          "type": "address"
        },
        {
          "internalType": "uint256",
          "name": "balance",
          "type": "uint256"
        },
        {
          "internalType": "uint256",
          "name": "needed",
          "type": "uint256"
        }
      ],
      "name": "ERC20InsufficientBalance",
      "type": "error"
    },
    {
      "inputs": [
        {
          "internalType": "address",
          "name": "approver",
          "type": "address"
        }
      ],
      "name": "ERC20InvalidApprover",
      "type": "error"
    },
    {
      "inputs": [
        {
          "internalType": "address",
          "name": "receiver",
          "type": "address"
        }
      ],
      "name": "ERC20InvalidReceiver",
      "type": "error"
    },
    {
      "inputs": [
        {
          "internalType": "address",
          "name": "sender",
          "type": "address"
        }
      ],
      "name": "ERC20InvalidSender",
      "type": "error"
    },
    {
      "inputs": [
        {
          "internalType": "address",
          "name": "spender",
          "type": "address"
        }
      ],
      "name": "ERC20InvalidSpender",
      "type": "error"
    },
    {
      "inputs": [],
      "name": "EnforcedPause",
      "type": "error"
    },
    {
      "inputs": [],
      "name": "ExpectedPause",
      "type": "error"
    },
    {
      "inputs": [],
      "name": "InvalidAmount",
      "type": "error"
    },
    {
      "inputs": [],
      "name": "InvalidDelegate",
      "type": "error"
    },
    {
      "inputs": [],
      "name": "InvalidEndpointCall",
      "type": "error"
    },
    {
      "inputs": [],
      "name": "InvalidLocalDecimals",
      "type": "error"
    },
    {
      "inputs": [
        {
          "internalType": "bytes",
          "name": "options",
          "type": "bytes"
        }
      ],
      "name": "InvalidOptions",
      "type": "error"
    },
    {
      "inputs": [],
      "name": "LzTokenUnavailable",
      "type": "error"
    },
    {
      "inputs": [],
      "name": "MaxTrustedForwardersExceeded",
      "type": "error"
    },
    {
      "inputs": [
        {
          "internalType": "uint32",
          "name": "eid",
          "type": "uint32"
        }
      ],
      "name": "NoPeer",
      "type": "error"
    },
    {
      "inputs": [
        {
          "internalType": "uint256",
          "name": "msgValue",
          "type": "uint256"
        }
      ],
      "name": "NotEnoughNative",
      "type": "error"
    },
    {
      "inputs": [],
      "name": "NotTrustedForwarder",
      "type": "error"
    },
    {
      "inputs": [
        {
          "internalType": "address",
          "name": "addr",
          "type": "address"
        }
      ],
      "name": "OnlyEndpoint",
      "type": "error"
    },
    {
      "inputs": [
        {
          "internalType": "uint32",
          "name": "eid",
          "type": "uint32"
        },
        {
          "internalType": "bytes32",
          "name": "sender",
          "type": "bytes32"
        }
      ],
      "name": "OnlyPeer",
      "type": "error"
    },
    {
      "inputs": [],
      "name": "OnlySelf",
      "type": "error"
    },
    {
      "inputs": [
        {
          "internalType": "address",
          "name": "owner",
          "type": "address"
        }
      ],
      "name": "OwnableInvalidOwner",
      "type": "error"
    },
    {
      "inputs": [
        {
          "internalType": "address",
          "name": "account",
          "type": "address"
        }
      ],
      "name": "OwnableUnauthorizedAccount",
      "type": "error"
    },
    {
      "inputs": [],
      "name": "ReentrancyGuardReentrantCall",
      "type": "error"
    },
    {
      "inputs": [
        {
          "internalType": "address",
          "name": "token",
          "type": "address"
        }
      ],
      "name": "SafeERC20FailedOperation",
      "type": "error"
    },
    {
      "inputs": [
        {
          "internalType": "bytes",
          "name": "result",
          "type": "bytes"
        }
      ],
      "name": "SimulationResult",
      "type": "error"
    },
    {
      "inputs": [
        {
          "internalType": "uint256",
          "name": "amountLD",
          "type": "uint256"
        },
        {
          "internalType": "uint256",
          "name": "minAmountLD",
          "type": "uint256"
        }
      ],
      "name": "SlippageExceeded",
      "type": "error"
    },
    {
      "inputs": [],
      "name": "TokenRecoveryFailed",
      "type": "error"
    },
    {
      "inputs": [],
      "name": "ZeroAddress",
      "type": "error"
    },
    {
      "anonymous": false,
      "inputs": [
        {
          "indexed": true,
          "internalType": "address",
          "name": "owner",
          "type": "address"
        },
        {
          "indexed": true,
          "internalType": "address",
          "name": "spender",
          "type": "address"
        },
        {
          "indexed": false,
          "internalType": "uint256",
          "name": "value",
          "type": "uint256"
        }
      ],
      "name": "Approval",
      "type": "event"
    },
    {
      "anonymous": false,
      "inputs": [
        {
          "indexed": true,
          "internalType": "address",
          "name": "account",
          "type": "address"
        },
        {
          "indexed": false,
          "internalType": "bool",
          "name": "isBlacklisted",
          "type": "bool"
        }
      ],
      "name": "BlacklistStatusChanged",
      "type": "event"
    },
    {
      "anonymous": false,
      "inputs": [
        {
          "indexed": false,
          "internalType": "bool",
          "name": "isPaused",
          "type": "bool"
        }
      ],
      "name": "CrossChainPauseStatusChanged",
      "type": "event"
    },
    {
      "anonymous": false,
      "inputs": [
        {
          "components": [
            {
              "internalType": "uint32",
              "name": "eid",
              "type": "uint32"
            },
            {
              "internalType": "uint16",
              "name": "msgType",
              "type": "uint16"
            },
            {
              "internalType": "bytes",
              "name": "options",
              "type": "bytes"
            }
          ],
          "indexed": false,
          "internalType": "struct EnforcedOptionParam[]",
          "name": "_enforcedOptions",
          "type": "tuple[]"
        }
      ],
      "name": "EnforcedOptionSet",
      "type": "event"
    },
    {
      "anonymous": false,
      "inputs": [
        {
          "indexed": false,
          "internalType": "address",
          "name": "inspector",
          "type": "address"
        }
      ],
      "name": "MsgInspectorSet",
      "type": "event"
    },
    {
      "anonymous": false,
      "inputs": [
        {
          "indexed": true,
          "internalType": "bytes32",
          "name": "guid",
          "type": "bytes32"
        },
        {
          "indexed": false,
          "internalType": "uint32",
          "name": "srcEid",
          "type": "uint32"
        },
        {
          "indexed": true,
          "internalType": "address",
          "name": "toAddress",
          "type": "address"
        },
        {
          "indexed": false,
          "internalType": "uint256",
          "name": "amountReceivedLD",
          "type": "uint256"
        }
      ],
      "name": "OFTReceived",
      "type": "event"
    },
    {
      "anonymous": false,
      "inputs": [
        {
          "indexed": true,
          "internalType": "bytes32",
          "name": "guid",
          "type": "bytes32"
        },
        {
          "indexed": false,
          "internalType": "uint32",
          "name": "dstEid",
          "type": "uint32"
        },
        {
          "indexed": true,
          "internalType": "address",
          "name": "fromAddress",
          "type": "address"
        },
        {
          "indexed": false,
          "internalType": "uint256",
          "name": "amountSentLD",
          "type": "uint256"
        },
        {
          "indexed": false,
          "internalType": "uint256",
          "name": "amountReceivedLD",
          "type": "uint256"
        }
      ],
      "name": "OFTSent",
      "type": "event"
    },
    {
      "anonymous": false,
      "inputs": [
        {
          "indexed": true,
          "internalType": "address",
          "name": "previousOwner",
          "type": "address"
        },
        {
          "indexed": true,
          "internalType": "address",
          "name": "newOwner",
          "type": "address"
        }
      ],
      "name": "OwnershipTransferred",
      "type": "event"
    },
    {
      "anonymous": false,
      "inputs": [
        {
          "indexed": false,
          "internalType": "bool",
          "name": "isPaused",
          "type": "bool"
        }
      ],
      "name": "PauseStatusChanged",
      "type": "event"
    },
    {
      "anonymous": false,
      "inputs": [
        {
          "indexed": false,
          "internalType": "address",
          "name": "account",
          "type": "address"
        }
      ],
      "name": "Paused",
      "type": "event"
    },
    {
      "anonymous": false,
      "inputs": [
        {
          "indexed": false,
          "internalType": "uint32",
          "name": "eid",
          "type": "uint32"
        },
        {
          "indexed": false,
          "internalType": "bytes32",
          "name": "peer",
          "type": "bytes32"
        }
      ],
      "name": "PeerSet",
      "type": "event"
    },
    {
      "anonymous": false,
      "inputs": [
        {
          "indexed": false,
          "internalType": "address",
          "name": "preCrimeAddress",
          "type": "address"
        }
      ],
      "name": "PreCrimeSet",
      "type": "event"
    },
    {
      "anonymous": false,
      "inputs": [
        {
          "indexed": true,
          "internalType": "address",
          "name": "user",
          "type": "address"
        },
        {
          "indexed": true,
          "internalType": "uint32",
          "name": "dstEid",
          "type": "uint32"
        },
        {
          "indexed": false,
          "internalType": "uint256",
          "name": "amount",
          "type": "uint256"
        },
        {
          "indexed": false,
          "internalType": "uint256",
          "name": "limit",
          "type": "uint256"
        }
      ],
      "name": "RateLimitExceeded",
      "type": "event"
    },
    {
      "anonymous": false,
      "inputs": [
        {
          "indexed": true,
          "internalType": "bytes32",
          "name": "role",
          "type": "bytes32"
        },
        {
          "indexed": true,
          "internalType": "bytes32",
          "name": "previousAdminRole",
          "type": "bytes32"
        },
        {
          "indexed": true,
          "internalType": "bytes32",
          "name": "newAdminRole",
          "type": "bytes32"
        }
      ],
      "name": "RoleAdminChanged",
      "type": "event"
    },
    {
      "anonymous": false,
      "inputs": [
        {
          "indexed": true,
          "internalType": "bytes32",
          "name": "role",
          "type": "bytes32"
        },
        {
          "indexed": true,
          "internalType": "address",
          "name": "account",
          "type": "address"
        },
        {
          "indexed": true,
          "internalType": "address",
          "name": "sender",
          "type": "address"
        }
      ],
      "name": "RoleGranted",
      "type": "event"
    },
    {
      "anonymous": false,
      "inputs": [
        {
          "indexed": true,
          "internalType": "bytes32",
          "name": "role",
          "type": "bytes32"
        },
        {
          "indexed": true,
          "internalType": "address",
          "name": "account",
          "type": "address"
        },
        {
          "indexed": true,
          "internalType": "address",
          "name": "sender",
          "type": "address"
        }
      ],
      "name": "RoleRevoked",
      "type": "event"
    },
    {
      "anonymous": false,
      "inputs": [
        {
          "indexed": true,
          "internalType": "address",
          "name": "token",
          "type": "address"
        },
        {
          "indexed": true,
          "internalType": "address",
          "name": "to",
          "type": "address"
        },
        {
          "indexed": false,
          "internalType": "uint256",
          "name": "amount",
          "type": "uint256"
        }
      ],
      "name": "TokenRecovered",
      "type": "event"
    },
    {
      "anonymous": false,
      "inputs": [
        {
          "indexed": true,
          "internalType": "address",
          "name": "from",
          "type": "address"
        },
        {
          "indexed": true,
          "internalType": "address",
          "name": "to",
          "type": "address"
        },
        {
          "indexed": false,
          "internalType": "uint256",
          "name": "value",
          "type": "uint256"
        }
      ],
      "name": "Transfer",
      "type": "event"
    },
    {
      "anonymous": false,
      "inputs": [
        {
          "indexed": true,
          "internalType": "address",
          "name": "forwarder",
          "type": "address"
        }
      ],
      "name": "TrustedForwarderAdded",
      "type": "event"
    },
    {
      "anonymous": false,
      "inputs": [
        {
          "indexed": true,
          "internalType": "address",
          "name": "forwarder",
          "type": "address"
        }
      ],
      "name": "TrustedForwarderRemoved",
      "type": "event"
    },
    {
      "anonymous": false,
      "inputs": [
        {
          "indexed": false,
          "internalType": "address",
          "name": "account",
          "type": "address"
        }
      ],
      "name": "Unpaused",
      "type": "event"
    },
    {
      "inputs": [],
      "name": "BLACKLIST_MANAGER_ROLE",
      "outputs": [
        {
          "internalType": "bytes32",
          "name": "",
          "type": "bytes32"
        }
      ],
      "stateMutability": "view",
      "type": "function"
    },
    {
      "inputs": [],
      "name": "DEFAULT_ADMIN_ROLE",
      "outputs": [
        {
          "internalType": "bytes32",
          "name": "",
          "type": "bytes32"
        }
      ],
      "stateMutability": "view",
      "type": "function"
    },
    {
      "inputs": [],
      "name": "FORWARDER_MANAGER_ROLE",
      "outputs": [
        {
          "internalType": "bytes32",
          "name": "",
          "type": "bytes32"
        }
      ],
      "stateMutability": "view",
      "type": "function"
    },
    {
      "inputs": [],
      "name": "MAX_TRUSTED_FORWARDERS",
      "outputs": [
        {
          "internalType": "uint256",
          "name": "",
          "type": "uint256"
        }
      ],
      "stateMutability": "view",
      "type": "function"
    },
    {
      "inputs": [],
      "name": "PAUSER_ROLE",
      "outputs": [
        {
          "internalType": "bytes32",
          "name": "",
          "type": "bytes32"
        }
      ],
      "stateMutability": "view",
      "type": "function"
    },
    {
      "inputs": [],
      "name": "SEND",
      "outputs": [
        {
          "internalType": "uint16",
          "name": "",
          "type": "uint16"
        }
      ],
      "stateMutability": "view",
      "type": "function"
    },
    {
      "inputs": [],
      "name": "SEND_AND_CALL",
      "outputs": [
        {
          "internalType": "uint16",
          "name": "",
          "type": "uint16"
        }
      ],
      "stateMutability": "view",
      "type": "function"
    },
    {
      "inputs": [],
      "name": "VERSION",
      "outputs": [
        {
          "internalType": "string",
          "name": "",
          "type": "string"
        }
      ],
      "stateMutability": "view",
      "type": "function"
    },
    {
      "inputs": [
        {
          "internalType": "address",
          "name": "forwarder",
          "type": "address"
        }
      ],
      "name": "addTrustedForwarder",
      "outputs": [],
      "stateMutability": "nonpayable",
      "type": "function"
    },
    {
      "inputs": [
        {
          "components": [
            {
              "internalType": "uint32",
              "name": "srcEid",
              "type": "uint32"
            },
            {
              "internalType": "bytes32",
              "name": "sender",
              "type": "bytes32"
            },
            {
              "internalType": "uint64",
              "name": "nonce",
              "type": "uint64"
            }
          ],
          "internalType": "struct Origin",
          "name": "origin",
          "type": "tuple"
        }
      ],
      "name": "allowInitializePath",
      "outputs": [
        {
          "internalType": "bool",
          "name": "",
          "type": "bool"
        }
      ],
      "stateMutability": "view",
      "type": "function"
    },
    {
      "inputs": [
        {
          "internalType": "address",
          "name": "owner",
          "type": "address"
        },
        {
          "internalType": "address",
          "name": "spender",
          "type": "address"
        }
      ],
      "name": "allowance",
      "outputs": [
        {
          "internalType": "uint256",
          "name": "",
          "type": "uint256"
        }
      ],
      "stateMutability": "view",
      "type": "function"
    },
    {
      "inputs": [],
      "name": "approvalRequired",
      "outputs": [
        {
          "internalType": "bool",
          "name": "",
          "type": "bool"
        }
      ],
      "stateMutability": "pure",
      "type": "function"
    },
    {
      "inputs": [
        {
          "internalType": "address",
          "name": "spender",
          "type": "address"
        },
        {
          "internalType": "uint256",
          "name": "value",
          "type": "uint256"
        }
      ],
      "name": "approve",
      "outputs": [
        {
          "internalType": "bool",
          "name": "",
          "type": "bool"
        }
      ],
      "stateMutability": "nonpayable",
      "type": "function"
    },
    {
      "inputs": [
        {
          "internalType": "address",
          "name": "account",
          "type": "address"
        }
      ],
      "name": "balanceOf",
      "outputs": [
        {
          "internalType": "uint256",
          "name": "",
          "type": "uint256"
        }
      ],
      "stateMutability": "view",
      "type": "function"
    },
    {
      "inputs": [
        {
          "internalType": "address[]",
          "name": "accounts",
          "type": "address[]"
        },
        {
          "internalType": "bool",
          "name": "blacklisted",
          "type": "bool"
        }
      ],
      "name": "batchSetBlacklistStatus",
      "outputs": [],
      "stateMutability": "nonpayable",
      "type": "function"
    },
    {
      "inputs": [
        {
          "internalType": "uint32",
          "name": "_eid",
          "type": "uint32"
        },
        {
          "internalType": "uint16",
          "name": "_msgType",
          "type": "uint16"
        },
        {
          "internalType": "bytes",
          "name": "_extraOptions",
          "type": "bytes"
        }
      ],
      "name": "combineOptions",
      "outputs": [
        {
          "internalType": "bytes",
          "name": "",
          "type": "bytes"
        }
      ],
      "stateMutability": "view",
      "type": "function"
    },
    {
      "inputs": [],
      "name": "crossChainPaused",
      "outputs": [
        {
          "internalType": "bool",
          "name": "",
          "type": "bool"
        }
      ],
      "stateMutability": "view",
      "type": "function"
    },
    {
      "inputs": [],
      "name": "decimalConversionRate",
      "outputs": [
        {
          "internalType": "uint256",
          "name": "",
          "type": "uint256"
        }
      ],
      "stateMutability": "view",
      "type": "function"
    },
    {
      "inputs": [],
      "name": "decimals",
      "outputs": [
        {
          "internalType": "uint8",
          "name": "",
          "type": "uint8"
        }
      ],
      "stateMutability": "view",
      "type": "function"
    },
    {
      "inputs": [],
      "name": "endpoint",
      "outputs": [
        {
          "internalType": "contract ILayerZeroEndpointV2",
          "name": "",
          "type": "address"
        }
      ],
      "stateMutability": "view",
      "type": "function"
    },
    {
      "inputs": [
        {
          "internalType": "uint32",
          "name": "eid",
          "type": "uint32"
        },
        {
          "internalType": "uint16",
          "name": "msgType",
          "type": "uint16"
        }
      ],
      "name": "enforcedOptions",
      "outputs": [
        {
          "internalType": "bytes",
          "name": "enforcedOption",
          "type": "bytes"
        }
      ],
      "stateMutability": "view",
      "type": "function"
    },
    {
      "inputs": [
        {
          "internalType": "bytes32",
          "name": "role",
          "type": "bytes32"
        }
      ],
      "name": "getRoleAdmin",
      "outputs": [
        {
          "internalType": "bytes32",
          "name": "",
          "type": "bytes32"
        }
      ],
      "stateMutability": "view",
      "type": "function"
    },
    {
      "inputs": [],
      "name": "getTrustedForwarders",
      "outputs": [
        {
          "internalType": "address[]",
          "name": "",
          "type": "address[]"
        }
      ],
      "stateMutability": "view",
      "type": "function"
    },
    {
      "inputs": [],
      "name": "getTrustedForwardersCount",
      "outputs": [
        {
          "internalType": "uint256",
          "name": "",
          "type": "uint256"
        }
      ],
      "stateMutability": "view",
      "type": "function"
    },
    {
      "inputs": [
        {
          "internalType": "bytes32",
          "name": "role",
          "type": "bytes32"
        },
        {
          "internalType": "address",
          "name": "account",
          "type": "address"
        }
      ],
      "name": "grantRole",
      "outputs": [],
      "stateMutability": "nonpayable",
      "type": "function"
    },
    {
      "inputs": [
        {
          "internalType": "bytes32",
          "name": "role",
          "type": "bytes32"
        },
        {
          "internalType": "address",
          "name": "account",
          "type": "address"
        }
      ],
      "name": "hasRole",
      "outputs": [
        {
          "internalType": "bool",
          "name": "",
          "type": "bool"
        }
      ],
      "stateMutability": "view",
      "type": "function"
    },
    {
      "inputs": [
        {
          "internalType": "address",
          "name": "",
          "type": "address"
        }
      ],
      "name": "isBlackListed",
      "outputs": [
        {
          "internalType": "bool",
          "name": "",
          "type": "bool"
        }
      ],
      "stateMutability": "view",
      "type": "function"
    },
    {
      "inputs": [
        {
          "components": [
            {
              "internalType": "uint32",
              "name": "srcEid",
              "type": "uint32"
            },
            {
              "internalType": "bytes32",
              "name": "sender",
              "type": "bytes32"
            },
            {
              "internalType": "uint64",
              "name": "nonce",
              "type": "uint64"
            }
          ],
          "internalType": "struct Origin",
          "name": "",
          "type": "tuple"
        },
        {
          "internalType": "bytes",
          "name": "",
          "type": "bytes"
        },
        {
          "internalType": "address",
          "name": "_sender",
          "type": "address"
        }
      ],
      "name": "isComposeMsgSender",
      "outputs": [
        {
          "internalType": "bool",
          "name": "",
          "type": "bool"
        }
      ],
      "stateMutability": "view",
      "type": "function"
    },
    {
      "inputs": [
        {
          "internalType": "uint32",
          "name": "_eid",
          "type": "uint32"
        },
        {
          "internalType": "bytes32",
          "name": "_peer",
          "type": "bytes32"
        }
      ],
      "name": "isPeer",
      "outputs": [
        {
          "internalType": "bool",
          "name": "",
          "type": "bool"
        }
      ],
      "stateMutability": "view",
      "type": "function"
    },
    {
      "inputs": [
        {
          "internalType": "address",
          "name": "forwarder",
          "type": "address"
        }
      ],
      "name": "isTrustedForwarder",
      "outputs": [
        {
          "internalType": "bool",
          "name": "",
          "type": "bool"
        }
      ],
      "stateMutability": "view",
      "type": "function"
    },
    {
      "inputs": [
        {
          "components": [
            {
              "internalType": "uint32",
              "name": "srcEid",
              "type": "uint32"
            },
            {
              "internalType": "bytes32",
              "name": "sender",
              "type": "bytes32"
            },
            {
              "internalType": "uint64",
              "name": "nonce",
              "type": "uint64"
            }
          ],
          "internalType": "struct Origin",
          "name": "_origin",
          "type": "tuple"
        },
        {
          "internalType": "bytes32",
          "name": "_guid",
          "type": "bytes32"
        },
        {
          "internalType": "bytes",
          "name": "_message",
          "type": "bytes"
        },
        {
          "internalType": "address",
          "name": "_executor",
          "type": "address"
        },
        {
          "internalType": "bytes",
          "name": "_extraData",
          "type": "bytes"
        }
      ],
      "name": "lzReceive",
      "outputs": [],
      "stateMutability": "payable",
      "type": "function"
    },
    {
      "inputs": [
        {
          "components": [
            {
              "components": [
                {
                  "internalType": "uint32",
                  "name": "srcEid",
                  "type": "uint32"
                },
                {
                  "internalType": "bytes32",
                  "name": "sender",
                  "type": "bytes32"
                },
                {
                  "internalType": "uint64",
                  "name": "nonce",
                  "type": "uint64"
                }
              ],
              "internalType": "struct Origin",
              "name": "origin",
              "type": "tuple"
            },
            {
              "internalType": "uint32",
              "name": "dstEid",
              "type": "uint32"
            },
            {
              "internalType": "address",
              "name": "receiver",
              "type": "address"
            },
            {
              "internalType": "bytes32",
              "name": "guid",
              "type": "bytes32"
            },
            {
              "internalType": "uint256",
              "name": "value",
              "type": "uint256"
            },
            {
              "internalType": "address",
              "name": "executor",
              "type": "address"
            },
            {
              "internalType": "bytes",
              "name": "message",
              "type": "bytes"
            },
            {
              "internalType": "bytes",
              "name": "extraData",
              "type": "bytes"
            }
          ],
          "internalType": "struct InboundPacket[]",
          "name": "_packets",
          "type": "tuple[]"
        }
      ],
      "name": "lzReceiveAndRevert",
      "outputs": [],
      "stateMutability": "payable",
      "type": "function"
    },
    {
      "inputs": [
        {
          "components": [
            {
              "internalType": "uint32",
              "name": "srcEid",
              "type": "uint32"
            },
            {
              "internalType": "bytes32",
              "name": "sender",
              "type": "bytes32"
            },
            {
              "internalType": "uint64",
              "name": "nonce",
              "type": "uint64"
            }
          ],
          "internalType": "struct Origin",
          "name": "_origin",
          "type": "tuple"
        },
        {
          "internalType": "bytes32",
          "name": "_guid",
          "type": "bytes32"
        },
        {
          "internalType": "bytes",
          "name": "_message",
          "type": "bytes"
        },
        {
          "internalType": "address",
          "name": "_executor",
          "type": "address"
        },
        {
          "internalType": "bytes",
          "name": "_extraData",
          "type": "bytes"
        }
      ],
      "name": "lzReceiveSimulate",
      "outputs": [],
      "stateMutability": "payable",
      "type": "function"
    },
    {
      "inputs": [],
      "name": "msgInspector",
      "outputs": [
        {
          "internalType": "address",
          "name": "",
          "type": "address"
        }
      ],
      "stateMutability": "view",
      "type": "function"
    },
    {
      "inputs": [],
      "name": "name",
      "outputs": [
        {
          "internalType": "string",
          "name": "",
          "type": "string"
        }
      ],
      "stateMutability": "view",
      "type": "function"
    },
    {
      "inputs": [
        {
          "internalType": "uint32",
          "name": "",
          "type": "uint32"
        },
        {
          "internalType": "bytes32",
          "name": "",
          "type": "bytes32"
        }
      ],
      "name": "nextNonce",
      "outputs": [
        {
          "internalType": "uint64",
          "name": "nonce",
          "type": "uint64"
        }
      ],
      "stateMutability": "view",
      "type": "function"
    },
    {
      "inputs": [],
      "name": "oApp",
      "outputs": [
        {
          "internalType": "address",
          "name": "",
          "type": "address"
        }
      ],
      "stateMutability": "view",
      "type": "function"
    },
    {
      "inputs": [],
      "name": "oAppVersion",
      "outputs": [
        {
          "internalType": "uint64",
          "name": "senderVersion",
          "type": "uint64"
        },
        {
          "internalType": "uint64",
          "name": "receiverVersion",
          "type": "uint64"
        }
      ],
      "stateMutability": "pure",
      "type": "function"
    },
    {
      "inputs": [],
      "name": "oftVersion",
      "outputs": [
        {
          "internalType": "bytes4",
          "name": "interfaceId",
          "type": "bytes4"
        },
        {
          "internalType": "uint64",
          "name": "version",
          "type": "uint64"
        }
      ],
      "stateMutability": "pure",
      "type": "function"
    },
    {
      "inputs": [],
      "name": "owner",
      "outputs": [
        {
          "internalType": "address",
          "name": "",
          "type": "address"
        }
      ],
      "stateMutability": "view",
      "type": "function"
    },
    {
      "inputs": [],
      "name": "paused",
      "outputs": [
        {
          "internalType": "bool",
          "name": "",
          "type": "bool"
        }
      ],
      "stateMutability": "view",
      "type": "function"
    },
    {
      "inputs": [
        {
          "internalType": "uint32",
          "name": "eid",
          "type": "uint32"
        }
      ],
      "name": "peers",
      "outputs": [
        {
          "internalType": "bytes32",
          "name": "peer",
          "type": "bytes32"
        }
      ],
      "stateMutability": "view",
      "type": "function"
    },
    {
      "inputs": [],
      "name": "preCrime",
      "outputs": [
        {
          "internalType": "address",
          "name": "",
          "type": "address"
        }
      ],
      "stateMutability": "view",
      "type": "function"
    },
    {
      "inputs": [
        {
          "components": [
            {
              "internalType": "uint32",
              "name": "dstEid",
              "type": "uint32"
            },
            {
              "internalType": "bytes32",
              "name": "to",
              "type": "bytes32"
            },
            {
              "internalType": "uint256",
              "name": "amountLD",
              "type": "uint256"
            },
            {
              "internalType": "uint256",
              "name": "minAmountLD",
              "type": "uint256"
            },
            {
              "internalType": "bytes",
              "name": "extraOptions",
              "type": "bytes"
            },
            {
              "internalType": "bytes",
              "name": "composeMsg",
              "type": "bytes"
            },
            {
              "internalType": "bytes",
              "name": "oftCmd",
              "type": "bytes"
            }
          ],
          "internalType": "struct SendParam",
          "name": "_sendParam",
          "type": "tuple"
        }
      ],
      "name": "quoteOFT",
      "outputs": [
        {
          "components": [
            {
              "internalType": "uint256",
              "name": "minAmountLD",
              "type": "uint256"
            },
            {
              "internalType": "uint256",
              "name": "maxAmountLD",
              "type": "uint256"
            }
          ],
          "internalType": "struct OFTLimit",
          "name": "oftLimit",
          "type": "tuple"
        },
        {
          "components": [
            {
              "internalType": "int256",
              "name": "feeAmountLD",
              "type": "int256"
            },
            {
              "internalType": "string",
              "name": "description",
              "type": "string"
            }
          ],
          "internalType": "struct OFTFeeDetail[]",
          "name": "oftFeeDetails",
          "type": "tuple[]"
        },
        {
          "components": [
            {
              "internalType": "uint256",
              "name": "amountSentLD",
              "type": "uint256"
            },
            {
              "internalType": "uint256",
              "name": "amountReceivedLD",
              "type": "uint256"
            }
          ],
          "internalType": "struct OFTReceipt",
          "name": "oftReceipt",
          "type": "tuple"
        }
      ],
      "stateMutability": "view",
      "type": "function"
    },
    {
      "inputs": [
        {
          "components": [
            {
              "internalType": "uint32",
              "name": "dstEid",
              "type": "uint32"
            },
            {
              "internalType": "bytes32",
              "name": "to",
              "type": "bytes32"
            },
            {
              "internalType": "uint256",
              "name": "amountLD",
              "type": "uint256"
            },
            {
              "internalType": "uint256",
              "name": "minAmountLD",
              "type": "uint256"
            },
            {
              "internalType": "bytes",
              "name": "extraOptions",
              "type": "bytes"
            },
            {
              "internalType": "bytes",
              "name": "composeMsg",
              "type": "bytes"
            },
            {
              "internalType": "bytes",
              "name": "oftCmd",
              "type": "bytes"
            }
          ],
          "internalType": "struct SendParam",
          "name": "_sendParam",
          "type": "tuple"
        },
        {
          "internalType": "bool",
          "name": "_payInLzToken",
          "type": "bool"
        }
      ],
      "name": "quoteSend",
      "outputs": [
        {
          "components": [
            {
              "internalType": "uint256",
              "name": "nativeFee",
              "type": "uint256"
            },
            {
              "internalType": "uint256",
              "name": "lzTokenFee",
              "type": "uint256"
            }
          ],
          "internalType": "struct MessagingFee",
          "name": "msgFee",
          "type": "tuple"
        }
      ],
      "stateMutability": "view",
      "type": "function"
    },
    {
      "inputs": [
        {
          "internalType": "address",
          "name": "token",
          "type": "address"
        },
        {
          "internalType": "address",
          "name": "to",
          "type": "address"
        },
        {
          "internalType": "uint256",
          "name": "amount",
          "type": "uint256"
        }
      ],
      "name": "recoverERC20",
      "outputs": [],
      "stateMutability": "nonpayable",
      "type": "function"
    },
    {
      "inputs": [
        {
          "internalType": "address payable",
          "name": "to",
          "type": "address"
        },
        {
          "internalType": "uint256",
          "name": "amount",
          "type": "uint256"
        }
      ],
      "name": "recoverETH",
      "outputs": [],
      "stateMutability": "nonpayable",
      "type": "function"
    },
    {
      "inputs": [
        {
          "internalType": "address",
          "name": "forwarder",
          "type": "address"
        }
      ],
      "name": "removeTrustedForwarder",
      "outputs": [],
      "stateMutability": "nonpayable",
      "type": "function"
    },
    {
      "inputs": [],
      "name": "renounceOwnership",
      "outputs": [],
      "stateMutability": "nonpayable",
      "type": "function"
    },
    {
      "inputs": [
        {
          "internalType": "bytes32",
          "name": "role",
          "type": "bytes32"
        },
        {
          "internalType": "address",
          "name": "callerConfirmation",
          "type": "address"
        }
      ],
      "name": "renounceRole",
      "outputs": [],
      "stateMutability": "nonpayable",
      "type": "function"
    },
    {
      "inputs": [
        {
          "internalType": "bytes32",
          "name": "role",
          "type": "bytes32"
        },
        {
          "internalType": "address",
          "name": "account",
          "type": "address"
        }
      ],
      "name": "revokeRole",
      "outputs": [],
      "stateMutability": "nonpayable",
      "type": "function"
    },
    {
      "inputs": [
        {
          "components": [
            {
              "internalType": "uint32",
              "name": "dstEid",
              "type": "uint32"
            },
            {
              "internalType": "bytes32",
              "name": "to",
              "type": "bytes32"
            },
            {
              "internalType": "uint256",
              "name": "amountLD",
              "type": "uint256"
            },
            {
              "internalType": "uint256",
              "name": "minAmountLD",
              "type": "uint256"
            },
            {
              "internalType": "bytes",
              "name": "extraOptions",
              "type": "bytes"
            },
            {
              "internalType": "bytes",
              "name": "composeMsg",
              "type": "bytes"
            },
            {
              "internalType": "bytes",
              "name": "oftCmd",
              "type": "bytes"
            }
          ],
          "internalType": "struct SendParam",
          "name": "_sendParam",
          "type": "tuple"
        },
        {
          "components": [
            {
              "internalType": "uint256",
              "name": "nativeFee",
              "type": "uint256"
            },
            {
              "internalType": "uint256",
              "name": "lzTokenFee",
              "type": "uint256"
            }
          ],
          "internalType": "struct MessagingFee",
          "name": "_fee",
          "type": "tuple"
        },
        {
          "internalType": "address",
          "name": "_refundAddress",
          "type": "address"
        }
      ],
      "name": "send",
      "outputs": [
        {
          "components": [
            {
              "internalType": "bytes32",
              "name": "guid",
              "type": "bytes32"
            },
            {
              "internalType": "uint64",
              "name": "nonce",
              "type": "uint64"
            },
            {
              "components": [
                {
                  "internalType": "uint256",
                  "name": "nativeFee",
                  "type": "uint256"
                },
                {
                  "internalType": "uint256",
                  "name": "lzTokenFee",
                  "type": "uint256"
                }
              ],
              "internalType": "struct MessagingFee",
              "name": "fee",
              "type": "tuple"
            }
          ],
          "internalType": "struct MessagingReceipt",
          "name": "msgReceipt",
          "type": "tuple"
        },
        {
          "components": [
            {
              "internalType": "uint256",
              "name": "amountSentLD",
              "type": "uint256"
            },
            {
              "internalType": "uint256",
              "name": "amountReceivedLD",
              "type": "uint256"
            }
          ],
          "internalType": "struct OFTReceipt",
          "name": "oftReceipt",
          "type": "tuple"
        }
      ],
      "stateMutability": "payable",
      "type": "function"
    },
    {
      "inputs": [
        {
          "internalType": "address",
          "name": "account",
          "type": "address"
        },
        {
          "internalType": "bool",
          "name": "blacklisted",
          "type": "bool"
        }
      ],
      "name": "setBlacklistStatus",
      "outputs": [],
      "stateMutability": "nonpayable",
      "type": "function"
    },
    {
      "inputs": [
        {
          "internalType": "bool",
          "name": "_paused",
          "type": "bool"
        }
      ],
      "name": "setCrossChainPaused",
      "outputs": [],
      "stateMutability": "nonpayable",
      "type": "function"
    },
    {
      "inputs": [
        {
          "internalType": "address",
          "name": "_delegate",
          "type": "address"
        }
      ],
      "name": "setDelegate",
      "outputs": [],
      "stateMutability": "nonpayable",
      "type": "function"
    },
    {
      "inputs": [
        {
          "components": [
            {
              "internalType": "uint32",
              "name": "eid",
              "type": "uint32"
            },
            {
              "internalType": "uint16",
              "name": "msgType",
              "type": "uint16"
            },
            {
              "internalType": "bytes",
              "name": "options",
              "type": "bytes"
            }
          ],
          "internalType": "struct EnforcedOptionParam[]",
          "name": "_enforcedOptions",
          "type": "tuple[]"
        }
      ],
      "name": "setEnforcedOptions",
      "outputs": [],
      "stateMutability": "nonpayable",
      "type": "function"
    },
    {
      "inputs": [
        {
          "internalType": "address",
          "name": "_msgInspector",
          "type": "address"
        }
      ],
      "name": "setMsgInspector",
      "outputs": [],
      "stateMutability": "nonpayable",
      "type": "function"
    },
    {
      "inputs": [
        {
          "internalType": "bool",
          "name": "_paused",
          "type": "bool"
        }
      ],
      "name": "setPaused",
      "outputs": [],
      "stateMutability": "nonpayable",
      "type": "function"
    },
    {
      "inputs": [
        {
          "internalType": "uint32",
          "name": "_eid",
          "type": "uint32"
        },
        {
          "internalType": "bytes32",
          "name": "_peer",
          "type": "bytes32"
        }
      ],
      "name": "setPeer",
      "outputs": [],
      "stateMutability": "nonpayable",
      "type": "function"
    },
    {
      "inputs": [
        {
          "internalType": "address",
          "name": "_preCrime",
          "type": "address"
        }
      ],
      "name": "setPreCrime",
      "outputs": [],
      "stateMutability": "nonpayable",
      "type": "function"
    },
    {
      "inputs": [],
      "name": "sharedDecimals",
      "outputs": [
        {
          "internalType": "uint8",
          "name": "",
          "type": "uint8"
        }
      ],
      "stateMutability": "view",
      "type": "function"
    },
    {
      "inputs": [
        {
          "internalType": "bytes4",
          "name": "interfaceId",
          "type": "bytes4"
        }
      ],
      "name": "supportsInterface",
      "outputs": [
        {
          "internalType": "bool",
          "name": "",
          "type": "bool"
        }
      ],
      "stateMutability": "view",
      "type": "function"
    },
    {
      "inputs": [],
      "name": "symbol",
      "outputs": [
        {
          "internalType": "string",
          "name": "",
          "type": "string"
        }
      ],
      "stateMutability": "view",
      "type": "function"
    },
    {
      "inputs": [],
      "name": "token",
      "outputs": [
        {
          "internalType": "address",
          "name": "",
          "type": "address"
        }
      ],
      "stateMutability": "view",
      "type": "function"
    },
    {
      "inputs": [],
      "name": "totalSupply",
      "outputs": [
        {
          "internalType": "uint256",
          "name": "",
          "type": "uint256"
        }
      ],
      "stateMutability": "view",
      "type": "function"
    },
    {
      "inputs": [
        {
          "internalType": "address",
          "name": "to",
          "type": "address"
        },
        {
          "internalType": "uint256",
          "name": "amount",
          "type": "uint256"
        }
      ],
      "name": "transfer",
      "outputs": [
        {
          "internalType": "bool",
          "name": "",
          "type": "bool"
        }
      ],
      "stateMutability": "nonpayable",
      "type": "function"
    },
    {
      "inputs": [
        {
          "internalType": "address",
          "name": "from",
          "type": "address"
        },
        {
          "internalType": "address",
          "name": "to",
          "type": "address"
        },
        {
          "internalType": "uint256",
          "name": "amount",
          "type": "uint256"
        }
      ],
      "name": "transferFrom",
      "outputs": [
        {
          "internalType": "bool",
          "name": "",
          "type": "bool"
        }
      ],
      "stateMutability": "nonpayable",
      "type": "function"
    },
    {
      "inputs": [
        {
          "internalType": "address",
          "name": "newOwner",
          "type": "address"
        }
      ],
      "name": "transferOwnership",
      "outputs": [],
      "stateMutability": "nonpayable",
      "type": "function"
    },
    {
      "inputs": [],
      "name": "trustedForwarder",
      "outputs": [
        {
          "internalType": "address",
          "name": "",
          "type": "address"
        }
      ],
      "stateMutability": "view",
      "type": "function"
    },
    {
      "inputs": [
        {
          "internalType": "address",
          "name": "oldForwarder",
          "type": "address"
        },
        {
          "internalType": "address",
          "name": "newForwarder",
          "type": "address"
        }
      ],
      "name": "updateTrustedForwarder",
      "outputs": [],
      "stateMutability": "nonpayable",
      "type": "function"
    }
  ],
  "transactionHash": "0xee41f010613938d4b291642f8850d503b3259e83516e99cb9681975e298ac7f5",
  "args": [
    "KGEN",
    "KGEN",
    "0x6EDCE65403992e310A62460808c4b910D972f10f",
    "0xfdAB4890ed81C416c9FF325e63c6B20B1691647B",
    "0xBD4568bC939F1f2eBC29b36963c6240822212183"
  ],
  "numDeployments": 1,
  "solcInputHash": "2ae76afe7145ea1103916a3a96ca7e89",
  "bytecode": "0x60e0604090808252346200059a5760009062004bb180380380916200002582856200059f565b833981019060a081830312620005965780516001600160401b03811162000592578262000054918301620005d9565b60208201519092906001600160401b0381116200058e579062000079918301620005d9565b620000868583016200064f565b92620000a360806200009b606086016200064f565b94016200064f565b936001600160a01b038416908115620005765786546001600160a01b031981168317885582906001600160a01b03167f8be0079c531659141344cd1fd0a4f28419497f9722a3daafe3b4186f6b6457e08980a36001600160a01b0316608081905290813b156200057257908680949392895192839163ca5eb5e160e01b835260048301528160249788925af18015620005685762000539575b5064e8d4a5100060a0528051906001600160401b0382116200052657600854600181811c911680156200051b575b602082101462000508579081601f849311620004a5575b50602090601f83116001146200042e57889262000422575b50508160011b916000199060031b1c1916176008555b8051916001600160401b038311620004105760095490600182811c9216801562000405575b6020831014620003f35750601f81116200039b575b50602090601f83116001146200031f576200025293929186918362000313575b50508160011b916000199060031b1c1916176009555b8260c0526001600c55620002338162000664565b506200023f81620006f2565b506200024b81620007a2565b5062000843565b506001600160a01b03169081620002db575b825161418a9081620009c78239608051818181610be1015281816114820152818161195f015281816125b5015281816126cf01528181613ea5015261402b015260a0518181816113cc01528181611dc501528181612438015281816130b3015281816138f40152613d0a015260c05181611bc10152f35b7f3ef8564460ada92419608d823c014975d98f8104d7d1e68c222967ac6814cd97906200030883620008e4565b5080a2388062000264565b01519050388062000209565b6009865260008051602062004b918339815191529190601f198416875b818110620003825750916001939185620002529796941062000368575b505050811b016009556200021f565b015160001960f88460031b161c1916905538808062000359565b929360206001819287860151815501950193016200033c565b6009865260008051602062004b91833981519152601f840160051c81019160208510620003e8575b601f0160051c01905b818110620003db5750620001e9565b60008155600101620003cc565b9091508190620003c3565b634e487b7160e01b8752602260045286fd5b91607f1691620001d4565b634e487b7160e01b8652604160045285fd5b01519050388062000199565b6008895260008051602062004b718339815191529250601f198416895b8181106200048c575090846001959493921062000472575b505050811b01600855620001af565b015160001960f88460031b161c1916905538808062000463565b929360206001819287860151815501950193016200044b565b6008895290915060008051602062004b71833981519152601f840160051c81019160208510620004fd575b90601f859493920160051c01905b818110620004ed575062000181565b60008155849350600101620004de565b9091508190620004d0565b634e487b7160e01b885260226004528488fd5b90607f16906200016a565b634e487b7160e01b875260416004528387fd5b9095906001600160401b0381116200055557875294386200013c565b634e487b7160e01b825260416004528382fd5b88513d89823e3d90fd5b8680fd5b8751631e4fbdf760e01b815260048101889052602490fd5b8480fd5b8380fd5b8280fd5b600080fd5b601f909101601f19168101906001600160401b03821190821017620005c357604052565b634e487b7160e01b600052604160045260246000fd5b919080601f840112156200059a5782516001600160401b038111620005c357602090604051926200061483601f19601f85011601856200059f565b8184528282870101116200059a5760005b8181106200063b57508260009394955001015290565b858101830151848201840152820162000625565b51906001600160a01b03821682036200059a57565b6001600160a01b0390811660008181527f13da86008ba1c6922daee3e07db95305ef49ebced9f5467a0b8613fcc6b343e3602052604081205490929060ff16620006ed57828052600a6020526040832082845260205260408320600160ff19825416179055620006d362000984565b169160008051602062004b518339815191528180a4600190565b505090565b6001600160a01b0390811660008181527f4aaeead83a124a477f4ad57567dc9a6913f7cd72b3b3f2ea23267c63fbfda42a602052604081205490927f0f02ac67aaec049af8ba62557decadf175c05bbe51a9857a673e4cc898bb0ca19160ff166200079c5760008051602062004b5183398151915290828552600a6020526040852084865260205260408520600160ff198254161790556200079362000984565b169380a4600190565b50505090565b6001600160a01b0390811660008181527f1df6b9ebfaca4b50668a34fa85e1f025e441b058ce9086eeba957364c7dda7f7602052604081205490927ff988e4fb62b8e14f4820fed03192306ddf4d7dbfa215595ba1c6ba4b76b369ee9160ff166200079c5760008051602062004b5183398151915290828552600a6020526040852084865260205260408520600160ff198254161790556200079362000984565b6001600160a01b0390811660008181527f6c4ab3a3cc4fea3ac566afdaa38e0e471d1bdfd1aa59eb20affdabfa5e893fed602052604081205490927f65d7a28e3265b37a6474929f336521b332c1681b933f6cb9f3376673440d862a9160ff166200079c5760008051602062004b5183398151915290828552600a6020526040852084865260205260408520600160ff198254161790556200079362000984565b6000818152600e60205260408120546200097f57600d54680100000000000000008110156200096b576001810180600d5581101562000957577fd7b6990105719101dabeb77144f2a3385c8033acd3af97e9423a695e81ad1eb501829055600d54918152600e6020526040902055600190565b634e487b7160e01b82526032600452602482fd5b634e487b7160e01b82526041600452602482fd5b905090565b601436101580620009ae575b15620009aa5760131936013681116200059a573560601c90565b3390565b5033600052600e60205260406000205415156200099056fe6080604052600436101561001257600080fd5b60003560e01c806301ffc9a71461046d57806303d29d281461046857806306fdde0314610463578063095ea7b31461045e5780630d35b41514610459578063111ecdad146104545780631171bda91461044f57806313137d651461044a578063134d4f2514610445578063156a0d0f1461044057806316c38b3c1461043b57806317442b701461043657806318160ddd146104315780631f5e13341461042c57806323b872dd14610427578063248a9ca31461042257806326d006681461041d57806327bffe53146104185780632f2ff15d14610413578063313ce5671461040e5780633400288b1461040957806336568abe146104045780633751d89c146103ff5780633b6f743b146103fa5780633e0c0629146103f5578063410b2424146103f05780634236420a146103eb578063496a0095146103e657806352ae28791461032d5780635535d461146103e1578063572b6c05146103dc5780635a0dfe4d146103d75780635c975abb146103d25780635e280f11146103cd5780635fedd7a9146103c85780636fc1b31e146103c357806370a08231146103be578063715018a6146103b95780637d25a05e146103b45780637da0a877146103af57806382413eac146103aa578063857749b0146103a55780638da5cb5b146103a057806391d148541461039b578063950dd8931461039657806395d89b4114610391578063963efcaa1461038c5780639f68b96414610387578063a217fddf14610387578063a9059cbb14610382578063b6a23a521461037d578063b731ea0a14610378578063b98bd07014610373578063bb0b6a531461036e578063bc70b35414610369578063bd815db014610364578063bea858ce1461035f578063c7c7f5b31461035a578063ca5eb5e114610355578063d045a0dc14610350578063d42438851461034b578063d547741f14610346578063dd62ed3e14610341578063e47d60601461033c578063e63ab1e914610337578063f2fde38b14610332578063fc0c546a1461032d578063ff7196c814610328578063ff7bd03d146103235763ffa1ad741461031e57600080fd5b612aaf565b612a34565b612976565b611675565b6128ea565b6128af565b61286d565b612828565b6127e6565b612776565b61261a565b612584565b612370565b61220c565b6120bd565b612069565b61202e565b611f53565b611ed0565b611ead565b611e04565b611de8565b611dad565b611d05565b611ce9565b611c93565b611c6a565b611c4e565b611bf0565b611bab565b611b84565b611b29565b611aec565b611a7c565b6119b3565b611949565b611926565b6118e8565b61189f565b611820565b61163a565b61161c565b6115e1565b611528565b61136f565b6112ea565b611295565b611213565b6111e9565b6111a7565b611145565b611097565b611068565b610f47565b610f2b565b610f0d565b610eeb565b610df0565b610dc9565b610dad565b610bc6565b610a22565b6109cd565b610876565b6106d8565b6105ef565b6104e3565b346104c35760203660031901126104c35760043563ffffffff60e01b81168091036104c357602090637965db0b60e01b81149081156104b2575b506040519015158152f35b6301ffc9a760e01b149050386104a7565b600080fd5b6001600160a01b038116036104c357565b801515036104c357565b346104c35760403660031901126104c357600435610500816104c8565b6024359061050d826104d9565b610515612f0c565b6001600160a01b03169081156105765760207fbece2c59ff19aac27479189f9483d2ef16545a8b28e6153240d00d393a6496f89183600052600f825261056b8160406000209060ff801983541691151516179055565b6040519015158152a2005b60405163d92e233d60e01b8152600490fd5b60009103126104c357565b60005b8381106105a65750506000910152565b8181015183820152602001610596565b906020916105cf81518092818552858086019101610593565b601f01601f1916010190565b9060206105ec9281815201906105b6565b90565b346104c3576000806003193601126106d557604051908060085490610613826116b0565b808552916020916001918281169081156106a85750600114610650575b61064c86610640818803826117ff565b604051918291826105db565b0390f35b9350600884527ff3f7a9fe364faab93b216da50a3214154f22a0a2b415b23a84c8169e8b636ee35b838510610695575050505081016020016106408261064c38610630565b8054868601840152938201938101610678565b905086955061064c9693506020925061064094915060ff191682840152151560051b820101929338610630565b80fd5b346104c35760403660031901126104c3576004356106f5816104c8565b602435906107016137fc565b6001600160a01b0380821692919083156107a557821693841561078c57806107797f8c5be1e5ebec7d5bd14f71427d1e84f3dd0314c0f7b2291e5b200ac8c7c3b9259461076260209560018060a01b03166000526006602052604060002090565b9060018060a01b0316600052602052604060002090565b55604051908152a3602060405160018152f35b604051634a1406b160e11b815260006004820152602490fd5b60405163e602df0560e01b815260006004820152602490fd5b908160e09103126104c35790565b9392916107e78560a081019360208091805184520151910152565b60409160a06040870152815180915260c086019160c08260051b880101936020809201936000915b848310610837575050505050509060606108359294019060208091805184520151910152565b565b90919293949584806108666001938d60bf1990820301875285838c5180518452015191818582015201906105b6565b980193019301919493929061080f565b346104c3576020806003193601126104c3576004356001600160401b0381116104c3576108a79036906004016107be565b906108b0612af5565b506108b9612af5565b50604051637e062a3560e11b8152908082600481305afa91821561099b5760049282916000916109a0575b506040516318160ddd60e01b815293849182906001600160a01b03165afa91821561099b57600092610968575b5061064c9061091e612a7a565b92600084528184015261094c610932612b55565b9461093c81612b78565b50604060608201359101356130aa565b9091610956612a7a565b928352820152604051938493846107cc565b81925061098d9061064c923d8511610994575b61098581836117ff565b810190612b2f565b9190610911565b503d61097b565b612b23565b6109c09150823d84116109c6575b6109b881836117ff565b810190612b0e565b386108e4565b503d6109ae565b346104c35760003660031901126104c3576004546040516001600160a01b039091168152602090f35b60609060031901126104c357600435610a0e816104c8565b90602435610a1b816104c8565b9060443590565b346104c357610a30366109f6565b610a38613104565b610a40613145565b6001600160a01b0382811693908415610576578215610b105760405163a9059cbb60e01b81526001600160a01b039490941660048501526024840183905216916020816044816000875af19081610ae1575b50610aa95760405163f2d094b360e01b8152600490fd5b6040519081527f879f92dded0f26b83c3e00b12e0395dc72cfc3077343d1854ed6988edd1f909690602090a3610adf6001600c55565b005b610b029060203d602011610b09575b610afa81836117ff565b810190612b82565b5038610a92565b503d610af0565b60405163162908e360e11b8152600490fd5b60609060031901126104c357600490565b9181601f840112156104c3578235916001600160401b0383116104c357602083818601950101116104c357565b600319810160e081126104c3576060136104c357600491606435916001600160401b03906084358281116104c35781610b9b91600401610b33565b9390939260a435610bab816104c8565b9260c4359182116104c357610bc291600401610b33565b9091565b610bcf36610b60565b50929492506001600160a01b039190507f00000000000000000000000000000000000000000000000000000000000000008216338103610d95578335610c1481611205565b610c1d81613168565b906020860135809203610d60575050610c45610c3983886138c8565b6001600160a01b031690565b91610c6b610c5b610c56838a6138d4565b6138e6565b610c6487612b78565b508461391a565b809760288311610cbc575b50505050610cb7610c9560008051602061411583398151915294612b78565b956040519384931696836020909392919363ffffffff60408201951681520152565b0390a3005b90610ce79291610ce1610cd160408a016131a0565b93610cdb8a612b78565b926139d8565b926139f4565b90803b156104c357604051633e5ac80960e11b8152916000918391829084908290610d17908c8a600485016131aa565b03925af1801561099b5760008051602061411583398151915294610cb792610c9592610d47575b88919650610c76565b80610d54610d5a926117b6565b80610588565b38610d3e565b610d6981611205565b60405163309afaf360e21b815263ffffffff9190911660048201526024810191909152604490fd5b0390fd5b6040516391ac5e4f60e01b8152336004820152602490fd5b346104c35760003660031901126104c357602060405160028152f35b346104c35760003660031901126104c3576040805162b9270b60e21b815260016020820152f35b346104c35760203660031901126104c357600435610e0d816104d9565b610e15612fa4565b8015610e5f57610e5a7fef37df9624f797913e7585c7f7b5d004ba6704be3c64b0561c157728ccc8698591610e486131d5565b60405190151581529081906020820190565b0390a1005b600b5460ff811615610ed95760ff1916600b557fef37df9624f797913e7585c7f7b5d004ba6704be3c64b0561c157728ccc8698590610e5a907f5db9ee0a495bf2e6ff9c91a7834c1ba4fdd244a5e8aa4e537bd38aeae4b073aa6020610ec36137fc565b6040516001600160a01b039091168152a1610e48565b604051638dfc202b60e01b8152600490fd5b346104c35760003660031901126104c357604080516001815260026020820152f35b346104c35760003660031901126104c3576020600754604051908152f35b346104c35760003660031901126104c357602060405160018152f35b346104c357610f55366109f6565b610f5d613228565b60018060a01b039182841693600094808652600f60205260409460ff8688205416611050578316808752600f60205260ff86882054166110395750610fc79085610fa56137fc565b97889281526006602052209060018060a01b0316600052602052604060002090565b54946000198610610fe9575b50610fdf939450613a51565b5160018152602090f35b838610611009576110029084610fdf9697039083613840565b8493610fd3565b8451637dc7a0d960e11b81526001600160a01b039190911660048201526024810186905260448101849052606490fd5b60249086519063d33f19e760e01b82526004820152fd5b855163d33f19e760e01b815260048101839052602490fd5b346104c35760203660031901126104c357600435600052600a6020526020600160406000200154604051908152f35b346104c35760203660031901126104c3576004356110b4816104c8565b6110bc61300d565b6001600160a01b03168015610576576110e281600052600e602052604060002054151590565b61113457600a600d541015611122576110fa81613b7a565b507f3ef8564460ada92419608d823c014975d98f8104d7d1e68c222967ac6814cd97600080a2005b60405163737b1a8360e01b8152600490fd5b604051627be45560e41b8152600490fd5b346104c35760203660031901126104c3577fb031b066beb1b03c598f034a64031de3b37d2d8764dddab6b0e693e96963543e6020600435611185816104d9565b61118d612fa4565b151560ff196010541660ff821617601055604051908152a1005b346104c35760403660031901126104c357610adf6024356004356111ca826104c8565b80600052600a6020526111e4600160406000200154613076565b613246565b346104c35760003660031901126104c357602060405160128152f35b63ffffffff8116036104c357565b346104c35760403660031901126104c3577f238399d427b947898edb290f5ff0f9109849b1c3ba196a42e35f00c50a54b98b60043561125181611205565b6024359061125d613104565b63ffffffff8116600052600160205281604060002055610e5a604051928392836020909392919363ffffffff60408201951681520152565b346104c35760403660031901126104c3576024356112b2816104c8565b6001600160a01b03806112c36137fc565b16908216036112d857610adf906004356132e9565b60405163334bd91960e11b8152600490fd5b346104c35760203660031901126104c357600435611307816104c8565b61130f61300d565b6001600160a01b03166000818152600e60205260409020541561135d5761133581613c52565b507fd2d636efcad0cea42e170256f4c5d8b1cd81e47b855557edaf44014e6cc4cee6600080a2005b60405163aa41dc9f60e01b8152600490fd5b346104c3576040806003193601126104c3576004356001600160401b0381116104c3576113a09036906004016107be565b906024356113ad816104d9565b6113b5612af5565b5060608301358335936113c785611205565b6113fd7f00000000000000000000000000000000000000000000000000000000000000006113f88187850135613890565b6138b0565b9180831061150b5750839261141961147e969361146393613394565b9061142385611205565b61142b612af5565b5061143585613168565b61144c611440612a87565b63ffffffff9097168752565b602086015285850152606084015215156080830152565b815180948192631bb8518b60e31b835230906004840161349e565b03817f00000000000000000000000000000000000000000000000000000000000000006001600160a01b03165afa90811561099b5761064c926000926114dc575b505191829182815181526020918201519181019190915260400190565b816114fd9293503d8411611504575b6114f581836117ff565b81019061348a565b90386114bf565b503d6114eb565b826044918651916371c4efed60e01b835260048301526024820152fd5b346104c35760403660031901126104c357600435611545816104c8565b60243590611551613104565b611559613145565b6001600160a01b0316801561057657811580156115d8575b610b10576115c8917f879f92dded0f26b83c3e00b12e0395dc72cfc3077343d1854ed6988edd1f9096600093826115b88680808080988a5af16115b2612b97565b50612bc7565b6040519081529081906020820190565b0390a36115d56001600c55565b80f35b50478211611571565b346104c35760003660031901126104c35760206040517ff988e4fb62b8e14f4820fed03192306ddf4d7dbfa215595ba1c6ba4b76b369ee8152f35b346104c35760003660031901126104c3576020600d54604051908152f35b346104c35760003660031901126104c35760206040517f0f02ac67aaec049af8ba62557decadf175c05bbe51a9857a673e4cc898bb0ca18152f35b346104c35760003660031901126104c3576020604051308152f35b6024359061ffff821682036104c357565b359061ffff821682036104c357565b90600182811c921680156116e0575b60208310146116ca57565b634e487b7160e01b600052602260045260246000fd5b91607f16916116bf565b8054600093926116f9826116b0565b918282526020936001916001811690816000146117615750600114611720575b5050505050565b90939495506000929192528360002092846000945b83861061174d57505050500101903880808080611719565b805485870183015294019385908201611735565b60ff19168685015250505090151560051b010191503880808080611719565b634e487b7160e01b600052604160045260246000fd5b606081019081106001600160401b038211176117b157604052565b611780565b6001600160401b0381116117b157604052565b604081019081106001600160401b038211176117b157604052565b60a081019081106001600160401b038211176117b157604052565b90601f801991011681019081106001600160401b038211176117b157604052565b346104c35760403660031901126104c35761064c61188461188b61187860043561184981611205565b63ffffffff611856611690565b9116600052600360205260406000209061ffff16600052602052604060002090565b604051928380926116ea565b03826117ff565b6040519182916020835260208301906105b6565b346104c35760203660031901126104c35760206118de6004356118c1816104c8565b6001600160a01b03166000908152600e6020526040902054151590565b6040519015158152f35b346104c35760403660031901126104c35760206118de60043561190a81611205565b6024359063ffffffff1660005260016020526040600020541490565b346104c35760003660031901126104c357602060ff600b54166040519015158152f35b346104c35760003660031901126104c3576040517f00000000000000000000000000000000000000000000000000000000000000006001600160a01b03168152602090f35b60409060031901126104c3576004356119a6816104c8565b906024356105ec816104c8565b346104c3576119c13661198e565b6119c961300d565b6001600160a01b039081169182156105765716906119fb6119f783600052600e602052604060002054151590565b1590565b61135d57611a1681600052600e602052604060002054151590565b61113457611a2382613c52565b50611a2d81613b7a565b506000917fd2d636efcad0cea42e170256f4c5d8b1cd81e47b855557edaf44014e6cc4cee68380a27f3ef8564460ada92419608d823c014975d98f8104d7d1e68c222967ac6814cd978280a280f35b346104c35760203660031901126104c3577ff0be4f1e87349231d80c36b33f9e8639658eeaf474014dee15a3e6a4d44141976020600435611abc816104c8565b611ac4613104565b600480546001600160a01b0319166001600160a01b03929092169182179055604051908152a1005b346104c35760203660031901126104c357600435611b09816104c8565b60018060a01b031660005260056020526020604060002054604051908152f35b346104c3576000806003193601126106d557611b43613104565b80546001600160a01b03198116825581906001600160a01b03167f8be0079c531659141344cd1fd0a4f28419497f9722a3daafe3b4186f6b6457e08280a380f35b346104c35760403660031901126104c357611ba0600435611205565b602060405160008152f35b346104c35760003660031901126104c3576040517f00000000000000000000000000000000000000000000000000000000000000006001600160a01b03168152602090f35b346104c35760a03660031901126104c357611c0a36610b22565b506064356001600160401b0381116104c357611c2a903690600401610b33565b50506020608435611c3a816104c8565b6040516001600160a01b0390911630148152f35b346104c35760003660031901126104c357602060405160068152f35b346104c35760003660031901126104c3576000546040516001600160a01b039091168152602090f35b346104c35760403660031901126104c357602060ff611cdd602435611cb7816104c8565b600435600052600a845260406000209060018060a01b0316600052602052604060002090565b54166040519015158152f35b346104c35760003660031901126104c3576020604051600a8152f35b346104c3576000806003193601126106d557604051908060095490611d29826116b0565b808552916020916001918281169081156106a85750600114611d555761064c86610640818803826117ff565b9350600984527f6e1540171b6c0c960b71a7020d9f60077f6af931a8bbf590da0223dacf75c7af5b838510611d9a575050505081016020016106408261064c38610630565b8054868601840152938201938101611d7d565b346104c35760003660031901126104c35760206040517f00000000000000000000000000000000000000000000000000000000000000008152f35b346104c35760003660031901126104c357602060405160008152f35b346104c3576040806003193601126104c357600435611e22816104c8565b611e2a613228565b6001600160a01b0380611e3b6137fc565b1680600052600f60205260ff846000205416611e965750811680600052600f60205260ff836000205416611e7f5750610fdf9060243590611e7a6137fc565b613a51565b60249083519063d33f19e760e01b82526004820152fd5b60249084519063d33f19e760e01b82526004820152fd5b346104c35760003660031901126104c357602060ff601054166040519015158152f35b346104c35760003660031901126104c3576002546040516001600160a01b039091168152602090f35b9181601f840112156104c3578235916001600160401b0383116104c3576020808501948460051b0101116104c357565b60206003198201126104c357600435906001600160401b0382116104c357610bc291600401611ef9565b346104c357611f6136611f29565b90611f6a613104565b611f7382612b3e565b906040611f8360405193846117ff565b8383526020938484019060051b8301923684116104c35780915b848310611fad57610adf866136d6565b6001600160401b039083358281116104c3578301916060833603126104c357855192611fd884611796565b8035611fe381611205565b8452611ff08a82016116a1565b8a850152868101359182116104c357019036601f830112156104c357889261201f849336908581359101612c09565b87820152815201920191611f9d565b346104c35760203660031901126104c35763ffffffff60043561205081611205565b1660005260016020526020604060002054604051908152f35b346104c35760603660031901126104c35760043561208681611205565b61208e611690565b604435906001600160401b0382116104c35761064c926120b561188b933690600401610b33565b929091612ccb565b6120c636611f29565b60005b81811061213557604051638e9e709960e01b8152600081600481335afa801561099b57610d9191600091612112575b50604051638351eea760e01b8152918291600483016105db565b61212f91503d806000833e61212781836117ff565b810190612e76565b826120f8565b612140818385612d87565b9061216e6119f761215084612b78565b60208501359063ffffffff1660005260016020526040600020541490565b61220357612180610100830183612daf565b9261218d60e08201612de1565b9061219c610120820182612daf565b959095303b156104c3576000946121d260c092604051998a9788968795633411683760e21b875260a08a01358a60048901612dfc565b03920135305af191821561099b576001926121f0575b505b016120c9565b80610d546121fd926117b6565b386121e8565b600191506121ea565b346104c3576040806003193601126104c357600480356001600160401b0381116104c35761223e903690600401611ef9565b602435939161224c856104d9565b612254612f0c565b60005b82811061226057005b61226b818484612ed4565b35612275816104c8565b6001600160a01b03161561230f57806122cb876122ba6122a061229b6001968989612ed4565b612de1565b6001600160a01b03166000908152600f6020526040902090565b9060ff801983541691151516179055565b6122dc610c3961229b838787612ed4565b855188151581527fbece2c59ff19aac27479189f9483d2ef16545a8b28e6153240d00d393a6496f890602090a201612257565b5050505163d92e233d60e01b8152fd5b91608061083592949361235f604060c0830197805184526001600160401b0360208201511660208501520151604083019060208091805184520151910152565b019060208091805184520151910152565b60803660031901126104c357600480356001600160401b0381116104c35761239b90369083016107be565b6040806023193601126104c3576064356123b4816104c8565b6123bc612ee4565b506123c5612af5565b506123ce612ee4565b506123d7612af5565b506123e0613228565b60ff60105416612574576001600160a01b0390816123fc6137fc565b1680600052600f60205260ff84600020541661255e575061241b613145565b6124236137fc565b6060850135956124338635611205565b6124647f00000000000000000000000000000000000000000000000000000000000000006113f881888a0135613890565b9680881061254157508382161561252a575061064c939291612489876124ac93613f19565b6124938787613394565b61249c88612b78565b916124a6366137d4565b92613e28565b937f85496b760a4b7f8d66384b9df21b381f5d1b1e79f229a47aaf4c232edc2fe59a6124d6612a7a565b968088528060208901526124eb875193612b78565b936124f46137fc565b865163ffffffff9690961686526020860183905260408601929092521692606090a36125206001600c55565b519283928361231f565b6024906000865191634b637e8f60e11b8352820152fd5b85516371c4efed60e01b8152918201889052602482015260449150fd5b8560249185519163d33f19e760e01b8352820152fd5b8151639ce0f02b60e01b81528490fd5b346104c357600060203660031901126106d5576004356125a3816104c8565b6125ab613104565b6001600160a01b037f0000000000000000000000000000000000000000000000000000000000000000811691839190833b156126165760249083604051958694859363ca5eb5e160e01b85521660048401525af1801561099b5761260d575080f35b6115d5906117b6565b8280fd5b61262336610b60565b50505092903033036127645761263c610c3985836138c8565b9361265d61264d610c5683856138d4565b61265685612b78565b508661391a565b91602882116126ad575b505061268160008051602061411583398151915292612b78565b6040805163ffffffff909216825260208201929092526001600160a01b03909416939081908101610cb7565b90826126cc92610ce16126c2604088016131a0565b93610cdb88612b78565b917f00000000000000000000000000000000000000000000000000000000000000006001600160a01b0316803b156104c357604051633e5ac80960e11b8152936000918591829084908290612726908b8d600485016131aa565b03925af190811561099b576000805160206141158339815191529361268192612751575b5092612667565b80610d5461275e926117b6565b3861274a565b60405163029a949d60e31b8152600490fd5b346104c35760203660031901126104c3577fd48d879cef83a1c0bdda516f27b13ddb1b3f8bbac1c9e1511bb2a659c242776060206004356127b6816104c8565b6127be613104565b600280546001600160a01b0319166001600160a01b03929092169182179055604051908152a1005b346104c35760403660031901126104c357610adf602435600435612809826104c8565b80600052600a602052612823600160406000200154613076565b6132e9565b346104c357602061286461283b3661198e565b6001600160a01b0391821660009081526006855260408082209290931681526020919091522090565b54604051908152f35b346104c35760203660031901126104c35760043561288a816104c8565b60018060a01b0316600052600f602052602060ff604060002054166040519015158152f35b346104c35760003660031901126104c35760206040517f65d7a28e3265b37a6474929f336521b332c1681b933f6cb9f3376673440d862a8152f35b346104c35760203660031901126104c357600435612907816104c8565b61290f613104565b6001600160a01b03908116801561295d57600080546001600160a01b03198116831782559092167f8be0079c531659141344cd1fd0a4f28419497f9722a3daafe3b4186f6b6457e08380a380f35b604051631e4fbdf760e01b815260006004820152602490fd5b346104c3576000806003193601126106d5576040518091600d549081835260208093018092600d83527fd7b6990105719101dabeb77144f2a3385c8033acd3af97e9423a695e81ad1eb590835b818110612a2057505050846129d99103856117ff565b60405193838594850191818652518092526040850193925b828110612a0057505050500390f35b83516001600160a01b0316855286955093810193928101926001016129f1565b8254845292860192600192830192016129c3565b346104c35760603660031901126104c3576020612a5036610b22565b63ffffffff8135612a6081611205565b166000526001825260406000205482604051920135148152f35b60405190610835826117c9565b60405190610835826117e4565b6001600160401b0381116117b157601f01601f191660200190565b346104c35760003660031901126104c35761064c604051612acf816117c9565b60058152640312e302e360dc1b60208201526040519182916020835260208301906105b6565b60405190612b02826117c9565b60006020838281520152565b908160209103126104c357516105ec816104c8565b6040513d6000823e3d90fd5b908160209103126104c3575190565b6001600160401b0381116117b15760051b60200190565b604051602081018181106001600160401b038211176117b1576040526000815290565b356105ec81611205565b908160209103126104c357516105ec816104d9565b3d15612bc2573d90612ba882612a94565b91612bb660405193846117ff565b82523d6000602084013e565b606090565b15612bce57565b60405162461bcd60e51b8152602060048201526013602482015272115512081c9958dbdd995c9e4819985a5b1959606a1b6044820152606490fd5b929192612c1582612a94565b91612c2360405193846117ff565b8294818452818301116104c3578281602093846000960137010152565b90929192836002116104c35783116104c357600201916001190190565b60209083610835939594956040519683612c808995518092888089019101610593565b84019185830137016000838201520380855201836117ff565b908060209392818452848401376000828201840152601f01601f1916010190565b9160206105ec938181520191612c99565b6118786118849263ffffffff612d00939795969716600052600360205260406000209061ffff16600052602052604060002090565b805115612d63578315612d5d576002841015612d34575050610d91604051928392639a6d49cd60e01b845260048401612cba565b909280612d57916105ec94612d52612d4d368484612c09565b61379c565b612c40565b91612c5d565b92509050565b5091906105ec913691612c09565b634e487b7160e01b600052603260045260246000fd5b9190811015612daa5760051b8101359061013e19813603018212156104c3570190565b612d71565b903590601e19813603018212156104c357018035906001600160401b0382116104c3576020019181360383136104c357565b356105ec816104c8565b6001600160401b038116036104c357565b929093612e58926001600160401b0360406105ec9a98999763ffffffff8135612e2481611205565b168852602081013560208901520135612e3c81612deb565b166040860152606085015260e0608085015260e0840191612c99565b6001600160a01b0390941660a082015280840360c090910152612c99565b6020818303126104c3578051906001600160401b0382116104c3570181601f820112156104c3578051612ea881612a94565b92612eb660405194856117ff565b818452602082840101116104c3576105ec9160208085019101610593565b9190811015612daa5760051b0190565b60405190612ef182611796565b8160008152600060208201526040612f07612af5565b910152565b612f146137fc565b6001600160a01b03811660009081527f1df6b9ebfaca4b50668a34fa85e1f025e441b058ce9086eeba957364c7dda7f7602052604090207ff988e4fb62b8e14f4820fed03192306ddf4d7dbfa215595ba1c6ba4b76b369ee9060ff905b541615612f7c575050565b60405163e2517d3f60e01b81526001600160a01b039092166004830152602482015260449150fd5b612fac6137fc565b6001600160a01b03811660009081527f6c4ab3a3cc4fea3ac566afdaa38e0e471d1bdfd1aa59eb20affdabfa5e893fed602052604090207f65d7a28e3265b37a6474929f336521b332c1681b933f6cb9f3376673440d862a9060ff90612f71565b6130156137fc565b6001600160a01b03811660009081527f4aaeead83a124a477f4ad57567dc9a6913f7cd72b3b3f2ea23267c63fbfda42a602052604090207f0f02ac67aaec049af8ba62557decadf175c05bbe51a9857a673e4cc898bb0ca19060ff90612f71565b61307e6137fc565b9080600052600a60205260ff612f718360406000209060018060a01b0316600052602052604060002090565b6130d9906113f87f00000000000000000000000000000000000000000000000000000000000000008092613890565b9182918084106130e65750565b83604491604051916371c4efed60e01b835260048301526024820152fd5b6000546001600160a01b039081168161311b6137fc565b16036131245750565b60249061312f6137fc565b60405163118cdaa760e01b815291166004820152fd5b6002600c5414613156576002600c55565b604051633ee5aeb560e01b8152600490fd5b63ffffffff16806000526001602052604060002054908115613188575090565b6024906040519063f6ff4fb760e01b82526004820152fd5b356105ec81612deb565b6105ec939260809260018060a01b0316825260208201526000604082015281606082015201906105b6565b6131dd613228565b600160ff19600b541617600b557f62e78cea01bee320cd4e420270b5ea74000d11b0c9f74754ebdbfc544b05a25860206132156137fc565b6040516001600160a01b039091168152a1565b60ff600b541661323457565b60405163d93c066560e01b8152600490fd5b600090808252600a60205260ff61327284604085209060018060a01b0316600052602052604060002090565b54166132e357808252600a602090815260408084206001600160a01b038616600090815292529020805460ff191660011790557f2f8788117e7eff1d82e926ec794901d17c78024a50270940304540a733656f0d6132ce6137fc565b6001600160a01b0390811694169280a4600190565b50905090565b600090808252600a60205260ff61331584604085209060018060a01b0316600052602052604060002090565b5416156132e357808252600a602090815260408084206001600160a01b038616600090815292529020805460ff191690557ff6391f5c32d9c69d2a47ea670b442974b53935d1edc7fd64eb21e047a839171b6132ce6137fc565b90916133866105ec936040845260408401906105b6565b9160208184039101526105b6565b90916133c76133a56133ee94613d04565b6133bc6133b560a0860186612daf565b3691612c09565b906020850135613d5b565b939092839460001461345a576002905b6120b56133e382612b78565b916080810190612daf565b60045490926001600160a01b0390911690838261340a57505050565b60405163043a78eb60e01b81529260209284928391829161342e916004840161336f565b03915afa801561099b5761343f5750565b6134579060203d602011610b0957610afa81836117ff565b50565b6001906133d7565b91908260409103126104c35760405161347a816117c9565b6020808294805184520151910152565b906040828203126104c3576105ec91613462565b906020909392936040835263ffffffff815116604084015281810151606084015260806134f26134dc604084015160a08488015260e08701906105b6565b6060840151868203603f190160a08801526105b6565b910151151560c08401526001600160a01b03909416910152565b8051821015612daa5760209160051b010190565b90601f811161352e57505050565b6000916000526020600020906020601f850160051c8301941061356c575b601f0160051c01915b82811061356157505050565b818155600101613555565b909250829061354c565b91909182516001600160401b0381116117b15761359d8161359784546116b0565b84613520565b602080601f83116001146135e0575081906135d19394956000926135d5575b50508160011b916000199060031b1c19161790565b9055565b0151905038806135bc565b90601f198316956135f685600052602060002090565b926000905b8882106136335750508360019596971061361a575b505050811b019055565b015160001960f88460031b161c19169055388080613610565b806001859682949686015181550195019301906135fb565b6020808201908083528351809252604092604081018260408560051b8401019601946000925b858410613682575050505050505090565b9091929394959685806136c5600193603f198682030188528b518760609163ffffffff815116845261ffff868201511686850152015191818982015201906105b6565b990194019401929594939190613671565b9060009160005b81518110156137625760019061375c6040613704816136fc858861350c565b51015161379c565b61375781613712858861350c565b5101519163ffffffff613725868961350c565b515116895261ffff602091600383528a2091613741878a61350c565b5101511661ffff16600052602052604060002090565b613576565b016136dd565b507fbe4864a8e820971c0247f5992e2da559595f7bf076a21cb5928d443d2a13b674919250613797906040519182918261364b565b0390a1565b600361ffff600283015116036137af5750565b604051639a6d49cd60e01b815260206004820152908190610d919060248301906105b6565b60409060231901126104c357604051906137ed826117c9565b60243582526044356020830152565b601436101580613823575b1561381f5760131936013681116104c3573560601c90565b3390565b5061383b33600052600e602052604060002054151590565b613807565b906001600160a01b03808316156107a55781161561078c576107626138779260018060a01b03166000526006602052604060002090565b55565b634e487b7160e01b600052601160045260246000fd5b811561389a570490565b634e487b7160e01b600052601260045260246000fd5b818102929181159184041417156138c357565b61387a565b906020116104c3573590565b906028116104c3576020013560c01c90565b6105ec906001600160401b037f000000000000000000000000000000000000000000000000000000000000000091166138b0565b6001600160a01b038181166000818152600f602052604090205490929060ff166139bf5791156139b5575b811690811561399c57600754908382018092116138c3576007919091556001600160a01b0316600090815260056020526040902082815401905560006000805160206141358339815191526020604051858152a390565b60405163ec442f0560e01b815260006004820152602490fd5b61dead9150613945565b60405163d33f19e760e01b815260048101849052602490fd5b90806028116104c3576105ec9136916027190190602801612c09565b604c91936105ec936040519586936001600160401b0360c01b9060c01b16602085015263ffffffff60e01b9060e01b166028840152602c830152613a418151809260208686019101610593565b810103602c8101845201826117ff565b916001600160a01b0380841692908315613b2a57811693841561399c576001600160a01b038116600090815260056020526040902054838110613afb57613af6928492613ac560008051602061413583398151915296613ae094039160018060a01b03166000526005602052604060002090565b556001600160a01b0316600090815260056020526040902090565b8054820190556040519081529081906020820190565b0390a3565b60405163391434e360e21b81526001600160a01b03929092166004830152602482015260448101839052606490fd5b604051634b637e8f60e11b815260006004820152602490fd5b600d54811015612daa57600d6000527fd7b6990105719101dabeb77144f2a3385c8033acd3af97e9423a695e81ad1eb50190600090565b80600052600e60205260406000205415600014613bf057600d54680100000000000000008110156117b1576001810180600d55811015612daa5781907fd7b6990105719101dabeb77144f2a3385c8033acd3af97e9423a695e81ad1eb50155600d5490600052600e602052604060002055600190565b50600090565b600d548015613c3c5760001981019080821015612daa577fd7b6990105719101dabeb77144f2a3385c8033acd3af97e9423a695e81ad1eb4600091600d83520155600d55565b634e487b7160e01b600052603160045260246000fd5b6000818152600e60205260409020548015613cfd5760001991818301918083116138c357600d549384019384116138c3578383600095613cad9503613cb3575b505050613c9d613bf6565b600052600e602052604060002090565b55600190565b613c9d613cdb91613cd3613cc9613cf495613b43565b90549060031b1c90565b928391613b43565b90919082549060031b91821b91600019901b1916179055565b55388080613c92565b5050600090565b613d2f907f000000000000000000000000000000000000000000000000000000000000000090613890565b6001600160401b0390818111613d43571690565b6024906040519063e2ce941360e01b82526004820152fd5b82511580159390613db957613db69160689160405194859260208401526001600160401b0360c01b9060c01b166040830152336048830152613da68151809260208686019101610593565b81010360488101845201826117ff565b91565b50906040519160208301526001600160401b0360c01b9060c01b16604082015260288152613db681611796565b906080828203126104c357613e20906040805193613e0385611796565b805185526020810151613e1581612deb565b602086015201613462565b604082015290565b613e8560809492613ea19694613e3c612ee4565b506020613e498651613ff2565b950191825180613f0a575b50613e5e85613168565b9251151592613e6e611440612a87565b602086015260408501526060840152151585830152565b6040518095819482936302637a4560e41b84526004840161349e565b03917f00000000000000000000000000000000000000000000000000000000000000006001600160a01b03165af190811561099b57600091613ee1575090565b6105ec915060803d608011613f03575b613efb81836117ff565b810190613de6565b503d613ef1565b613f1390614014565b38613e54565b6001600160a01b0381169081613f625750600754918083018093116138c3576020600080516020614135833981519152916000946007555b8060075403600755604051908152a3565b6001600160a01b038116600090815260056020526040902054939290818510613fc05781602091613fba6000805160206141358339815191529460009798039160018060a01b03166000526005602052604060002090565b55613f51565b60405163391434e360e21b81526001600160a01b03919091166004820152602481018590526044810191909152606490fd5b803403613ffc5790565b6040516304fb820960e51b8152346004820152602490fd5b60405163393f876560e21b81526001600160a01b037f0000000000000000000000000000000000000000000000000000000000000000811691602081600481865afa90811561099b576000916140f5575b50169182156140e35760209160009160405190848201926323b872dd60e01b845233602484015260448301526064820152606481526140a3816117e4565b519082855af115612b23576000513d6140da5750803b155b6140c25750565b60249060405190635274afe760e01b82526004820152fd5b600114156140bb565b6040516329b99a9560e11b8152600490fd5b61410e915060203d6020116109c6576109b881836117ff565b3861406556feefed6d3500546b29533b128a29e3a94d70788727f0507505ac12eaf2e578fd9cddf252ad1be2c89b69c2b068fc378daa952ba7f163c4a11628f55a4df523b3efa2646970667358221220f20b3126bb6faac2c408b52bcaf3610db603db698e0af5d7ee0c3905bf9dd11d64736f6c634300081600332f8788117e7eff1d82e926ec794901d17c78024a50270940304540a733656f0df3f7a9fe364faab93b216da50a3214154f22a0a2b415b23a84c8169e8b636ee36e1540171b6c0c960b71a7020d9f60077f6af931a8bbf590da0223dacf75c7af",
  "devdoc": {
    "author": "KGEN Development Team",
    "details": "Omnichain Fungible Token (OFT) implementation",
    "errors": {
      "AccessControlBadConfirmation()": [
        {
          "details": "The caller of a function is not the expected one. NOTE: Don't confuse with {AccessControlUnauthorizedAccount}."
        }
      ],
      "AccessControlUnauthorizedAccount(address,bytes32)": [
        {
          "details": "The `account` is missing a role."
        }
      ],
      "ERC20InsufficientAllowance(address,uint256,uint256)": [
        {
          "details": "Indicates a failure with the `spender`s `allowance`. Used in transfers.",
          "params": {
            "allowance": "Amount of tokens a `spender` is allowed to operate with.",
            "needed": "Minimum amount required to perform a transfer.",
            "spender": "Address that may be allowed to operate on tokens without being their owner."
          }
        }
      ],
      "ERC20InsufficientBalance(address,uint256,uint256)": [
        {
          "details": "Indicates an error related to the current `balance` of a `sender`. Used in transfers.",
          "params": {
            "balance": "Current balance for the interacting account.",
            "needed": "Minimum amount required to perform a transfer.",
            "sender": "Address whose tokens are being transferred."
          }
        }
      ],
      "ERC20InvalidApprover(address)": [
        {
          "details": "Indicates a failure with the `approver` of a token to be approved. Used in approvals.",
          "params": {
            "approver": "Address initiating an approval operation."
          }
        }
      ],
      "ERC20InvalidReceiver(address)": [
        {
          "details": "Indicates a failure with the token `receiver`. Used in transfers.",
          "params": {
            "receiver": "Address to which tokens are being transferred."
          }
        }
      ],
      "ERC20InvalidSender(address)": [
        {
          "details": "Indicates a failure with the token `sender`. Used in transfers.",
          "params": {
            "sender": "Address whose tokens are being transferred."
          }
        }
      ],
      "ERC20InvalidSpender(address)": [
        {
          "details": "Indicates a failure with the `spender` to be approved. Used in approvals.",
          "params": {
            "spender": "Address that may be allowed to operate on tokens without being their owner."
          }
        }
      ],
      "EnforcedPause()": [
        {
          "details": "The operation failed because the contract is paused."
        }
      ],
      "ExpectedPause()": [
        {
          "details": "The operation failed because the contract is not paused."
        }
      ],
      "OwnableInvalidOwner(address)": [
        {
          "details": "The owner is not a valid owner account. (eg. `address(0)`)"
        }
      ],
      "OwnableUnauthorizedAccount(address)": [
        {
          "details": "The caller account is not authorized to perform an operation."
        }
      ],
      "ReentrancyGuardReentrantCall()": [
        {
          "details": "Unauthorized reentrant call."
        }
      ],
      "SafeERC20FailedOperation(address)": [
        {
          "details": "An operation with an ERC-20 token failed."
        }
      ]
    },
    "events": {
      "Approval(address,address,uint256)": {
        "details": "Emitted when the allowance of a `spender` for an `owner` is set by a call to {approve}. `value` is the new allowance."
      },
      "Paused(address)": {
        "details": "Emitted when the pause is triggered by `account`."
      },
      "PreCrimeSet(address)": {
        "details": "Emitted when the preCrime contract address is set.",
        "params": {
          "preCrimeAddress": "The address of the preCrime contract."
        }
      },
      "RoleAdminChanged(bytes32,bytes32,bytes32)": {
        "details": "Emitted when `newAdminRole` is set as ``role``'s admin role, replacing `previousAdminRole` `DEFAULT_ADMIN_ROLE` is the starting admin for all roles, despite {RoleAdminChanged} not being emitted to signal this."
      },
      "RoleGranted(bytes32,address,address)": {
        "details": "Emitted when `account` is granted `role`. `sender` is the account that originated the contract call. This account bears the admin role (for the granted role). Expected in cases where the role was granted using the internal {AccessControl-_grantRole}."
      },
      "RoleRevoked(bytes32,address,address)": {
        "details": "Emitted when `account` is revoked `role`. `sender` is the account that originated the contract call:   - if using `revokeRole`, it is the admin role bearer   - if using `renounceRole`, it is the role bearer (i.e. `account`)"
      },
      "Transfer(address,address,uint256)": {
        "details": "Emitted when `value` tokens are moved from one account (`from`) to another (`to`). Note that `value` may be zero."
      },
      "Unpaused(address)": {
        "details": "Emitted when the pause is lifted by `account`."
      }
    },
    "kind": "dev",
    "methods": {
      "addTrustedForwarder(address)": {
        "params": {
          "forwarder": "Address of the forwarder to add"
        }
      },
      "allowInitializePath((uint32,bytes32,uint64))": {
        "details": "This indicates to the endpoint that the OApp has enabled msgs for this particular path to be received.This defaults to assuming if a peer has been set, its initialized. Can be overridden by the OApp if there is other logic to determine this.",
        "params": {
          "origin": "The origin information containing the source endpoint and sender address."
        },
        "returns": {
          "_0": "Whether the path has been initialized."
        }
      },
      "allowance(address,address)": {
        "details": "Returns the remaining number of tokens that `spender` will be allowed to spend on behalf of `owner` through {transferFrom}. This is zero by default. This value changes when {approve} or {transferFrom} are called."
      },
      "approvalRequired()": {
        "details": "In the case of OFT where the contract IS the token, approval is NOT required.",
        "returns": {
          "_0": "requiresApproval Needs approval of the underlying token implementation."
        }
      },
      "approve(address,uint256)": {
        "details": "See {IERC20-approve}. NOTE: If `value` is the maximum `uint256`, the allowance is not updated on `transferFrom`. This is semantically equivalent to an infinite approval. Requirements: - `spender` cannot be the zero address."
      },
      "balanceOf(address)": {
        "details": "Returns the value of tokens owned by `account`."
      },
      "batchSetBlacklistStatus(address[],bool)": {
        "params": {
          "accounts": "Array of addresses to modify",
          "blacklisted": "True to blacklist all, false to remove all from blacklist"
        }
      },
      "combineOptions(uint32,uint16,bytes)": {
        "details": "If there is an enforced lzReceive option: - {gasLimit: 200k, msg.value: 1 ether} AND a caller supplies a lzReceive option: {gasLimit: 100k, msg.value: 0.5 ether} - The resulting options will be {gasLimit: 300k, msg.value: 1.5 ether} when the message is executed on the remote lzReceive() function.This presence of duplicated options is handled off-chain in the verifier/executor.",
        "params": {
          "_eid": "The endpoint ID.",
          "_extraOptions": "Additional options passed by the caller.",
          "_msgType": "The OAPP message type."
        },
        "returns": {
          "_0": "options The combination of caller specified options AND enforced options."
        }
      },
      "constructor": {
        "params": {
          "_delegate": "Address that will receive admin roles",
          "_lzEndpoint": "LayerZero endpoint address",
          "_name": "Token name",
          "_symbol": "Token symbol",
          "_trustedForwarder": "Initial trusted forwarder for meta-transactions"
        }
      },
      "decimals()": {
        "details": "Returns the number of decimals used to get its user representation. For example, if `decimals` equals `2`, a balance of `505` tokens should be displayed to a user as `5.05` (`505 / 10 ** 2`). Tokens usually opt for a value of 18, imitating the relationship between Ether and Wei. This is the default value returned by this function, unless it's overridden. NOTE: This information is only used for _display_ purposes: it in no way affects any of the arithmetic of the contract, including {IERC20-balanceOf} and {IERC20-transfer}."
      },
      "getRoleAdmin(bytes32)": {
        "details": "Returns the admin role that controls `role`. See {grantRole} and {revokeRole}. To change a role's admin, use {_setRoleAdmin}."
      },
      "getTrustedForwarders()": {
        "returns": {
          "_0": "Array of trusted forwarder addresses"
        }
      },
      "getTrustedForwardersCount()": {
        "returns": {
          "_0": "Number of trusted forwarders"
        }
      },
      "grantRole(bytes32,address)": {
        "details": "Grants `role` to `account`. If `account` had not been already granted `role`, emits a {RoleGranted} event. Requirements: - the caller must have ``role``'s admin role. May emit a {RoleGranted} event."
      },
      "hasRole(bytes32,address)": {
        "details": "Returns `true` if `account` has been granted `role`."
      },
      "isComposeMsgSender((uint32,bytes32,uint64),bytes,address)": {
        "details": "_origin The origin information containing the source endpoint and sender address.  - srcEid: The source chain endpoint ID.  - sender: The sender address on the src chain.  - nonce: The nonce of the message._message The lzReceive payload.Applications can optionally choose to implement separate composeMsg senders that are NOT the bridging layer.The default sender IS the OAppReceiver implementer.",
        "params": {
          "_sender": "The sender address."
        },
        "returns": {
          "_0": "isSender Is a valid sender."
        }
      },
      "isPeer(uint32,bytes32)": {
        "details": "Check if the peer is considered 'trusted' by the OApp.Enables OAppPreCrimeSimulator to check whether a potential Inbound Packet is from a trusted source.",
        "params": {
          "_eid": "The endpoint ID to check.",
          "_peer": "The peer to check."
        },
        "returns": {
          "_0": "Whether the peer passed is considered 'trusted' by the OApp."
        }
      },
      "isTrustedForwarder(address)": {
        "params": {
          "forwarder": "Address to check"
        },
        "returns": {
          "_0": "True if the forwarder is trusted"
        }
      },
      "lzReceive((uint32,bytes32,uint64),bytes32,bytes,address,bytes)": {
        "details": "Entry point for receiving messages or packets from the endpoint.Entry point for receiving msg/packet from the LayerZero endpoint.",
        "params": {
          "_executor": "The address of the executor for the received message.",
          "_extraData": "Additional arbitrary data provided by the corresponding executor.",
          "_guid": "The unique identifier for the received LayerZero message.",
          "_message": "The payload of the received message.",
          "_origin": "The origin information containing the source endpoint and sender address.  - srcEid: The source chain endpoint ID.  - sender: The sender address on the src chain.  - nonce: The nonce of the message."
        }
      },
      "lzReceiveAndRevert(((uint32,bytes32,uint64),uint32,address,bytes32,uint256,address,bytes,bytes)[])": {
        "details": "Interface for pre-crime simulations. Always reverts at the end with the simulation results.WARNING: MUST revert at the end with the simulation results.Gives the preCrime implementation the ability to mock sending packets to the lzReceive function, WITHOUT actually executing them.",
        "params": {
          "_packets": "An array of InboundPacket objects representing received packets to be delivered."
        }
      },
      "lzReceiveSimulate((uint32,bytes32,uint64),bytes32,bytes,address,bytes)": {
        "details": "Is effectively an internal function because msg.sender must be address(this). Allows resetting the call stack for 'internal' calls.",
        "params": {
          "_executor": "The executor address for the packet.",
          "_extraData": "Additional data for the packet.",
          "_guid": "The unique identifier of the packet.",
          "_message": "The message payload of the packet.",
          "_origin": "The origin information containing the source endpoint and sender address.  - srcEid: The source chain endpoint ID.  - sender: The sender address on the src chain.  - nonce: The nonce of the message."
        }
      },
      "name()": {
        "details": "Returns the name of the token."
      },
      "nextNonce(uint32,bytes32)": {
        "details": "_srcEid The source endpoint ID._sender The sender address.The path nonce starts from 1. If 0 is returned it means that there is NO nonce ordered enforcement.Is required by the off-chain executor to determine the OApp expects msg execution is ordered.This is also enforced by the OApp.By default this is NOT enabled. ie. nextNonce is hardcoded to return 0.",
        "returns": {
          "nonce": "The next nonce."
        }
      },
      "oApp()": {
        "details": "Retrieves the address of the OApp contract.The simulator contract is the base contract for the OApp by default.If the simulator is a separate contract, override this function.",
        "returns": {
          "_0": "The address of the OApp contract."
        }
      },
      "oAppVersion()": {
        "returns": {
          "receiverVersion": "The version of the OAppReceiver.sol implementation.",
          "senderVersion": "The version of the OAppSender.sol implementation."
        }
      },
      "oftVersion()": {
        "details": "interfaceId: This specific interface ID is '0x02e49c2c'.version: Indicates a cross-chain compatible msg encoding with other OFTs.If a new feature is added to the OFT cross-chain msg encoding, the version will be incremented. ie. localOFT version(x,1) CAN send messages to remoteOFT version(x,1)",
        "returns": {
          "interfaceId": "The interface ID.",
          "version": "The version."
        }
      },
      "owner()": {
        "details": "Returns the address of the current owner."
      },
      "paused()": {
        "details": "Returns true if the contract is paused, and false otherwise."
      },
      "quoteOFT((uint32,bytes32,uint256,uint256,bytes,bytes,bytes))": {
        "params": {
          "_sendParam": "The parameters for the send operation."
        },
        "returns": {
          "oftFeeDetails": "The details of OFT fees.",
          "oftLimit": "The OFT limit information.",
          "oftReceipt": "The OFT receipt information."
        }
      },
      "quoteSend((uint32,bytes32,uint256,uint256,bytes,bytes,bytes),bool)": {
        "details": "MessagingFee: LayerZero msg fee  - nativeFee: The native fee.  - lzTokenFee: The lzToken fee.",
        "params": {
          "_payInLzToken": "Flag indicating whether the caller is paying in the LZ token.",
          "_sendParam": "The parameters for the send() operation."
        },
        "returns": {
          "msgFee": "The calculated LayerZero messaging fee from the send() operation."
        }
      },
      "recoverERC20(address,address,uint256)": {
        "details": "Should not be used to recover the native token of this contract",
        "params": {
          "amount": "Amount of tokens to recover",
          "to": "Address to send recovered tokens to",
          "token": "Address of the token to recover"
        }
      },
      "recoverETH(address,uint256)": {
        "params": {
          "amount": "Amount of ETH to recover",
          "to": "Address to send recovered ETH to"
        }
      },
      "removeTrustedForwarder(address)": {
        "params": {
          "forwarder": "Address of the forwarder to remove"
        }
      },
      "renounceOwnership()": {
        "details": "Leaves the contract without owner. It will not be possible to call `onlyOwner` functions. Can only be called by the current owner. NOTE: Renouncing ownership will leave the contract without an owner, thereby disabling any functionality that is only available to the owner."
      },
      "renounceRole(bytes32,address)": {
        "details": "Revokes `role` from the calling account. Roles are often managed via {grantRole} and {revokeRole}: this function's purpose is to provide a mechanism for accounts to lose their privileges if they are compromised (such as when a trusted device is misplaced). If the calling account had been revoked `role`, emits a {RoleRevoked} event. Requirements: - the caller must be `callerConfirmation`. May emit a {RoleRevoked} event."
      },
      "revokeRole(bytes32,address)": {
        "details": "Revokes `role` from `account`. If `account` had been granted `role`, emits a {RoleRevoked} event. Requirements: - the caller must have ``role``'s admin role. May emit a {RoleRevoked} event."
      },
      "send((uint32,bytes32,uint256,uint256,bytes,bytes,bytes),(uint256,uint256),address)": {
        "details": "Executes the send operation.MessagingReceipt: LayerZero msg receipt  - guid: The unique identifier for the sent message.  - nonce: The nonce of the sent message.  - fee: The LayerZero fee incurred for the message.",
        "params": {
          "_fee": "The calculated fee for the send() operation.      - nativeFee: The native fee.      - lzTokenFee: The lzToken fee.",
          "_refundAddress": "The address to receive any excess funds.",
          "_sendParam": "The parameters for the send operation."
        },
        "returns": {
          "msgReceipt": "The receipt for the send operation.",
          "oftReceipt": "The OFT receipt information."
        }
      },
      "setBlacklistStatus(address,bool)": {
        "params": {
          "account": "Address to modify blacklist status for",
          "blacklisted": "True to blacklist, false to remove from blacklist"
        }
      },
      "setCrossChainPaused(bool)": {
        "params": {
          "_paused": "True to pause cross-chain, false to unpause"
        }
      },
      "setDelegate(address)": {
        "details": "Only the owner/admin of the OApp can call this function.Provides the ability for a delegate to set configs, on behalf of the OApp, directly on the Endpoint contract.",
        "params": {
          "_delegate": "The address of the delegate to be set."
        }
      },
      "setEnforcedOptions((uint32,uint16,bytes)[])": {
        "details": "Sets the enforced options for specific endpoint and message type combinations.Only the owner/admin of the OApp can call this function.Provides a way for the OApp to enforce things like paying for PreCrime, AND/OR minimum dst lzReceive gas amounts etc.These enforced options can vary as the potential options/execution on the remote may differ as per the msgType. eg. Amount of lzReceive() gas necessary to deliver a lzCompose() message adds overhead you dont want to pay if you are only making a standard LayerZero message ie. lzReceive() WITHOUT sendCompose().",
        "params": {
          "_enforcedOptions": "An array of EnforcedOptionParam structures specifying enforced options."
        }
      },
      "setMsgInspector(address)": {
        "details": "Sets the message inspector address for the OFT.This is an optional contract that can be used to inspect both 'message' and 'options'.Set it to address(0) to disable it, or set it to a contract address to enable it.",
        "params": {
          "_msgInspector": "The address of the message inspector."
        }
      },
      "setPaused(bool)": {
        "params": {
          "_paused": "True to pause, false to unpause"
        }
      },
      "setPeer(uint32,bytes32)": {
        "details": "Only the owner/admin of the OApp can call this function.Indicates that the peer is trusted to send LayerZero messages to this OApp.Set this to bytes32(0) to remove the peer address.Peer is a bytes32 to accommodate non-evm chains.",
        "params": {
          "_eid": "The endpoint ID.",
          "_peer": "The address of the peer to be associated with the corresponding endpoint."
        }
      },
      "setPreCrime(address)": {
        "details": "Sets the preCrime contract address.",
        "params": {
          "_preCrime": "The address of the preCrime contract."
        }
      },
      "sharedDecimals()": {
        "details": "Retrieves the shared decimals of the OFT.Sets an implicit cap on the amount of tokens, over uint64.max() will need some sort of outbound cap / totalSupply cap Lowest common decimal denominator between chains. Defaults to 6 decimal places to provide up to 18,446,744,073,709.551615 units (max uint64). For tokens exceeding this totalSupply(), they will need to override the sharedDecimals function with something smaller. ie. 4 sharedDecimals would be 1,844,674,407,370,955.1615",
        "returns": {
          "_0": "The shared decimals of the OFT."
        }
      },
      "symbol()": {
        "details": "Returns the symbol of the token, usually a shorter version of the name."
      },
      "token()": {
        "details": "Retrieves the address of the underlying ERC20 implementation.In the case of OFT, address(this) and erc20 are the same contract.",
        "returns": {
          "_0": "The address of the OFT token."
        }
      },
      "totalSupply()": {
        "details": "Returns the value of tokens in existence."
      },
      "transferOwnership(address)": {
        "details": "Transfers ownership of the contract to a new account (`newOwner`). Can only be called by the current owner."
      },
      "trustedForwarder()": {
        "details": "Returns the address of the trusted forwarder."
      },
      "updateTrustedForwarder(address,address)": {
        "details": "Atomically removes old and adds new forwarder",
        "params": {
          "newForwarder": "Address of forwarder to add",
          "oldForwarder": "Address of forwarder to remove"
        }
      }
    },
    "title": "KGENOFT",
    "version": 1
  },
  "userdoc": {
    "events": {
      "BlacklistStatusChanged(address,bool)": {
        "notice": "Emitted when blacklist status changes"
      },
      "CrossChainPauseStatusChanged(bool)": {
        "notice": "Emitted when cross-chain pause status changes"
      },
      "PauseStatusChanged(bool)": {
        "notice": "Emitted when pause status changes"
      },
      "RateLimitExceeded(address,uint32,uint256,uint256)": {
        "notice": "Emitted when rate limit is hit"
      },
      "TokenRecovered(address,address,uint256)": {
        "notice": "Emitted when tokens are recovered"
      },
      "TrustedForwarderAdded(address)": {
        "notice": "Emitted when a trusted forwarder is added"
      },
      "TrustedForwarderRemoved(address)": {
        "notice": "Emitted when a trusted forwarder is removed  "
      }
    },
    "kind": "user",
    "methods": {
      "BLACKLIST_MANAGER_ROLE()": {
        "notice": "Role for managing blacklist"
      },
      "FORWARDER_MANAGER_ROLE()": {
        "notice": "Role for managing trusted forwarders"
      },
      "MAX_TRUSTED_FORWARDERS()": {
        "notice": "Maximum number of trusted forwarders allowed"
      },
      "PAUSER_ROLE()": {
        "notice": "Role for pausing/unpausing the contract"
      },
      "VERSION()": {
        "notice": "Contract version for upgrades tracking"
      },
      "addTrustedForwarder(address)": {
        "notice": "Adds a trusted forwarder for meta-transactions"
      },
      "allowInitializePath((uint32,bytes32,uint64))": {
        "notice": "Checks if the path initialization is allowed based on the provided origin."
      },
      "approvalRequired()": {
        "notice": "Indicates whether the OFT contract requires approval of the 'token()' to send."
      },
      "batchSetBlacklistStatus(address[],bool)": {
        "notice": "Batch blacklist operation for efficiency"
      },
      "combineOptions(uint32,uint16,bytes)": {
        "notice": "Combines options for a given endpoint and message type."
      },
      "constructor": {
        "notice": "Initializes the KGENOFT contract"
      },
      "crossChainPaused()": {
        "notice": "Emergency stop flag for cross-chain operations only"
      },
      "endpoint()": {
        "notice": "Retrieves the LayerZero endpoint associated with the OApp."
      },
      "getTrustedForwarders()": {
        "notice": "Gets all trusted forwarders"
      },
      "getTrustedForwardersCount()": {
        "notice": "Gets the number of trusted forwarders"
      },
      "isBlackListed(address)": {
        "notice": "Mapping to track blacklisted addresses"
      },
      "isComposeMsgSender((uint32,bytes32,uint64),bytes,address)": {
        "notice": "Indicates whether an address is an approved composeMsg sender to the Endpoint."
      },
      "isTrustedForwarder(address)": {
        "notice": "Checks if an address is a trusted forwarder"
      },
      "nextNonce(uint32,bytes32)": {
        "notice": "Retrieves the next nonce for a given source endpoint and sender address."
      },
      "oAppVersion()": {
        "notice": "Retrieves the OApp version information."
      },
      "oftVersion()": {
        "notice": "Retrieves interfaceID and the version of the OFT."
      },
      "peers(uint32)": {
        "notice": "Retrieves the peer (OApp) associated with a corresponding endpoint."
      },
      "quoteOFT((uint32,bytes32,uint256,uint256,bytes,bytes,bytes))": {
        "notice": "Provides the fee breakdown and settings data for an OFT. Unused in the default implementation."
      },
      "quoteSend((uint32,bytes32,uint256,uint256,bytes,bytes,bytes),bool)": {
        "notice": "Provides a quote for the send() operation."
      },
      "recoverERC20(address,address,uint256)": {
        "notice": "Recovers accidentally sent ERC20 tokens"
      },
      "recoverETH(address,uint256)": {
        "notice": "Recovers native ETH accidentally sent to contract"
      },
      "removeTrustedForwarder(address)": {
        "notice": "Removes a trusted forwarder"
      },
      "setBlacklistStatus(address,bool)": {
        "notice": "Adds or removes an address from blacklist"
      },
      "setCrossChainPaused(bool)": {
        "notice": "Pauses or unpauses only cross-chain operations"
      },
      "setDelegate(address)": {
        "notice": "Sets the delegate address for the OApp."
      },
      "setPaused(bool)": {
        "notice": "Pauses or unpauses all contract operations"
      },
      "setPeer(uint32,bytes32)": {
        "notice": "Sets the peer address (OApp instance) for a corresponding endpoint."
      },
      "supportsInterface(bytes4)": {
        "notice": "Override supportsInterface to include all inherited interfaces"
      },
      "transfer(address,uint256)": {
        "notice": "Override transfer to add blacklist checks"
      },
      "transferFrom(address,address,uint256)": {
        "notice": "Override transferFrom to add blacklist checks"
      },
      "updateTrustedForwarder(address,address)": {
        "notice": "Emergency function to update trusted forwarder"
      }
    },
    "notice": "This contract extends LayerZero's OFT with additional security features:         - Access control for different roles         - ERC2771 meta-transaction support with trusted forwarder management         - Blacklist functionality for compliance         - Emergency pause mechanism         - Token recovery functionality",
    "version": 1
  },
  "storageLayout": {
    "storage": [
      {
        "astId": 4241,
        "contract": "contracts/MyOFT.sol:KgenOFT",
        "label": "_owner",
        "offset": 0,
        "slot": "0",
        "type": "t_address"
      },
      {
        "astId": 1390,
        "contract": "contracts/MyOFT.sol:KgenOFT",
        "label": "peers",
        "offset": 0,
        "slot": "1",
        "type": "t_mapping(t_uint32,t_bytes32)"
      },
      {
        "astId": 2166,
        "contract": "contracts/MyOFT.sol:KgenOFT",
        "label": "preCrime",
        "offset": 0,
        "slot": "2",
        "type": "t_address"
      },
      {
        "astId": 2006,
        "contract": "contracts/MyOFT.sol:KgenOFT",
        "label": "enforcedOptions",
        "offset": 0,
        "slot": "3",
        "type": "t_mapping(t_uint32,t_mapping(t_uint16,t_bytes_storage))"
      },
      {
        "astId": 2786,
        "contract": "contracts/MyOFT.sol:KgenOFT",
        "label": "msgInspector",
        "offset": 0,
        "slot": "4",
        "type": "t_address"
      },
      {
        "astId": 4775,
        "contract": "contracts/MyOFT.sol:KgenOFT",
        "label": "_balances",
        "offset": 0,
        "slot": "5",
        "type": "t_mapping(t_address,t_uint256)"
      },
      {
        "astId": 4781,
        "contract": "contracts/MyOFT.sol:KgenOFT",
        "label": "_allowances",
        "offset": 0,
        "slot": "6",
        "type": "t_mapping(t_address,t_mapping(t_address,t_uint256))"
      },
      {
        "astId": 4783,
        "contract": "contracts/MyOFT.sol:KgenOFT",
        "label": "_totalSupply",
        "offset": 0,
        "slot": "7",
        "type": "t_uint256"
      },
      {
        "astId": 4785,
        "contract": "contracts/MyOFT.sol:KgenOFT",
        "label": "_name",
        "offset": 0,
        "slot": "8",
        "type": "t_string_storage"
      },
      {
        "astId": 4787,
        "contract": "contracts/MyOFT.sol:KgenOFT",
        "label": "_symbol",
        "offset": 0,
        "slot": "9",
        "type": "t_string_storage"
      },
      {
        "astId": 3880,
        "contract": "contracts/MyOFT.sol:KgenOFT",
        "label": "_roles",
        "offset": 0,
        "slot": "10",
        "type": "t_mapping(t_bytes32,t_struct(RoleData)3875_storage)"
      },
      {
        "astId": 6936,
        "contract": "contracts/MyOFT.sol:KgenOFT",
        "label": "_paused",
        "offset": 0,
        "slot": "11",
        "type": "t_bool"
      },
      {
        "astId": 7046,
        "contract": "contracts/MyOFT.sol:KgenOFT",
        "label": "_status",
        "offset": 0,
        "slot": "12",
        "type": "t_uint256"
      },
      {
        "astId": 12379,
        "contract": "contracts/MyOFT.sol:KgenOFT",
        "label": "_trustedForwardersSet",
        "offset": 0,
        "slot": "13",
        "type": "t_struct(AddressSet)11281_storage"
      },
      {
        "astId": 12384,
        "contract": "contracts/MyOFT.sol:KgenOFT",
        "label": "isBlackListed",
        "offset": 0,
        "slot": "15",
        "type": "t_mapping(t_address,t_bool)"
      },
      {
        "astId": 12387,
        "contract": "contracts/MyOFT.sol:KgenOFT",
        "label": "crossChainPaused",
        "offset": 0,
        "slot": "16",
        "type": "t_bool"
      }
    ],
    "types": {
      "t_address": {
        "encoding": "inplace",
        "label": "address",
        "numberOfBytes": "20"
      },
      "t_array(t_bytes32)dyn_storage": {
        "base": "t_bytes32",
        "encoding": "dynamic_array",
        "label": "bytes32[]",
        "numberOfBytes": "32"
      },
      "t_bool": {
        "encoding": "inplace",
        "label": "bool",
        "numberOfBytes": "1"
      },
      "t_bytes32": {
        "encoding": "inplace",
        "label": "bytes32",
        "numberOfBytes": "32"
      },
      "t_bytes_storage": {
        "encoding": "bytes",
        "label": "bytes",
        "numberOfBytes": "32"
      },
      "t_mapping(t_address,t_bool)": {
        "encoding": "mapping",
        "key": "t_address",
        "label": "mapping(address => bool)",
        "numberOfBytes": "32",
        "value": "t_bool"
      },
      "t_mapping(t_address,t_mapping(t_address,t_uint256))": {
        "encoding": "mapping",
        "key": "t_address",
        "label": "mapping(address => mapping(address => uint256))",
        "numberOfBytes": "32",
        "value": "t_mapping(t_address,t_uint256)"
      },
      "t_mapping(t_address,t_uint256)": {
        "encoding": "mapping",
        "key": "t_address",
        "label": "mapping(address => uint256)",
        "numberOfBytes": "32",
        "value": "t_uint256"
      },
      "t_mapping(t_bytes32,t_struct(RoleData)3875_storage)": {
        "encoding": "mapping",
        "key": "t_bytes32",
        "label": "mapping(bytes32 => struct AccessControl.RoleData)",
        "numberOfBytes": "32",
        "value": "t_struct(RoleData)3875_storage"
      },
      "t_mapping(t_bytes32,t_uint256)": {
        "encoding": "mapping",
        "key": "t_bytes32",
        "label": "mapping(bytes32 => uint256)",
        "numberOfBytes": "32",
        "value": "t_uint256"
      },
      "t_mapping(t_uint16,t_bytes_storage)": {
        "encoding": "mapping",
        "key": "t_uint16",
        "label": "mapping(uint16 => bytes)",
        "numberOfBytes": "32",
        "value": "t_bytes_storage"
      },
      "t_mapping(t_uint32,t_bytes32)": {
        "encoding": "mapping",
        "key": "t_uint32",
        "label": "mapping(uint32 => bytes32)",
        "numberOfBytes": "32",
        "value": "t_bytes32"
      },
      "t_mapping(t_uint32,t_mapping(t_uint16,t_bytes_storage))": {
        "encoding": "mapping",
        "key": "t_uint32",
        "label": "mapping(uint32 => mapping(uint16 => bytes))",
        "numberOfBytes": "32",
        "value": "t_mapping(t_uint16,t_bytes_storage)"
      },
      "t_string_storage": {
        "encoding": "bytes",
        "label": "string",
        "numberOfBytes": "32"
      },
      "t_struct(AddressSet)11281_storage": {
        "encoding": "inplace",
        "label": "struct EnumerableSet.AddressSet",
        "members": [
          {
            "astId": 11280,
            "contract": "contracts/MyOFT.sol:KgenOFT",
            "label": "_inner",
            "offset": 0,
            "slot": "0",
            "type": "t_struct(Set)10795_storage"
          }
        ],
        "numberOfBytes": "64"
      },
      "t_struct(RoleData)3875_storage": {
        "encoding": "inplace",
        "label": "struct AccessControl.RoleData",
        "members": [
          {
            "astId": 3872,
            "contract": "contracts/MyOFT.sol:KgenOFT",
            "label": "hasRole",
            "offset": 0,
            "slot": "0",
            "type": "t_mapping(t_address,t_bool)"
          },
          {
            "astId": 3874,
            "contract": "contracts/MyOFT.sol:KgenOFT",
            "label": "adminRole",
            "offset": 0,
            "slot": "1",
            "type": "t_bytes32"
          }
        ],
        "numberOfBytes": "64"
      },
      "t_struct(Set)10795_storage": {
        "encoding": "inplace",
        "label": "struct EnumerableSet.Set",
        "members": [
          {
            "astId": 10790,
            "contract": "contracts/MyOFT.sol:KgenOFT",
            "label": "_values",
            "offset": 0,
            "slot": "0",
            "type": "t_array(t_bytes32)dyn_storage"
          },
          {
            "astId": 10794,
            "contract": "contracts/MyOFT.sol:KgenOFT",
            "label": "_positions",
            "offset": 0,
            "slot": "1",
            "type": "t_mapping(t_bytes32,t_uint256)"
          }
        ],
        "numberOfBytes": "64"
      },
      "t_uint16": {
        "encoding": "inplace",
        "label": "uint16",
        "numberOfBytes": "2"
      },
      "t_uint256": {
        "encoding": "inplace",
        "label": "uint256",
        "numberOfBytes": "32"
      },
      "t_uint32": {
        "encoding": "inplace",
        "label": "uint32",
        "numberOfBytes": "4"
      }
    }
  }
}