{
  "address": "0x00275dbD7F643975fCE98b6820cc46735bcf83D4",
  "abi": [
    {
      "inputs": [],
      "name": "APYRangeNotFound",
      "type": "error"
    },
    {
      "inputs": [],
      "name": "AccessControlBadConfirmation",
      "type": "error"
    },
    {
      "inputs": [
        {
          "internalType": "address",
          "name": "account",
          "type": "address"
        },
        {
          "internalType": "bytes32",
          "name": "neededRole",
          "type": "bytes32"
        }
      ],
      "name": "AccessControlUnauthorizedAccount",
      "type": "error"
    },
    {
      "inputs": [],
      "name": "AlreadyWhitelisted",
      "type": "error"
    },
    {
      "inputs": [],
      "name": "AmountZero",
      "type": "error"
    },
    {
      "inputs": [],
      "name": "ECDSAInvalidSignature",
      "type": "error"
    },
    {
      "inputs": [
        {
          "internalType": "uint256",
          "name": "length",
          "type": "uint256"
        }
      ],
      "name": "ECDSAInvalidSignatureLength",
      "type": "error"
    },
    {
      "inputs": [
        {
          "internalType": "bytes32",
          "name": "s",
          "type": "bytes32"
        }
      ],
      "name": "ECDSAInvalidSignatureS",
      "type": "error"
    },
    {
      "inputs": [],
      "name": "HarvestTooSoon",
      "type": "error"
    },
    {
      "inputs": [],
      "name": "InvalidAdminSignature",
      "type": "error"
    },
    {
      "inputs": [],
      "name": "InvalidDuration",
      "type": "error"
    },
    {
      "inputs": [],
      "name": "InvalidInitialization",
      "type": "error"
    },
    {
      "inputs": [],
      "name": "InvalidReceiver",
      "type": "error"
    },
    {
      "inputs": [],
      "name": "NoAPY",
      "type": "error"
    },
    {
      "inputs": [],
      "name": "NoRewards",
      "type": "error"
    },
    {
      "inputs": [],
      "name": "NotInitializing",
      "type": "error"
    },
    {
      "inputs": [],
      "name": "NotMatured",
      "type": "error"
    },
    {
      "inputs": [],
      "name": "NotWhitelisted",
      "type": "error"
    },
    {
      "inputs": [],
      "name": "ReentrancyGuardReentrantCall",
      "type": "error"
    },
    {
      "inputs": [],
      "name": "StakeNotFound",
      "type": "error"
    },
    {
      "inputs": [],
      "name": "TokenNotWhitelisted",
      "type": "error"
    },
    {
      "inputs": [],
      "name": "TransferFailed",
      "type": "error"
    },
    {
      "anonymous": false,
      "inputs": [
        {
          "indexed": true,
          "internalType": "address",
          "name": "user",
          "type": "address"
        },
        {
          "indexed": true,
          "internalType": "uint256",
          "name": "stakeId",
          "type": "uint256"
        },
        {
          "indexed": false,
          "internalType": "uint256",
          "name": "stakedAmount",
          "type": "uint256"
        },
        {
          "indexed": false,
          "internalType": "uint256",
          "name": "totalClaimed",
          "type": "uint256"
        },
        {
          "indexed": false,
          "internalType": "uint256",
          "name": "rewards",
          "type": "uint256"
        },
        {
          "indexed": false,
          "internalType": "uint256",
          "name": "timestamp",
          "type": "uint256"
        },
        {
          "indexed": false,
          "internalType": "uint256",
          "name": "apy",
          "type": "uint256"
        }
      ],
      "name": "Claimed",
      "type": "event"
    },
    {
      "anonymous": false,
      "inputs": [
        {
          "indexed": true,
          "internalType": "address",
          "name": "user",
          "type": "address"
        },
        {
          "indexed": true,
          "internalType": "uint256",
          "name": "stakeId",
          "type": "uint256"
        },
        {
          "indexed": false,
          "internalType": "uint256",
          "name": "reward",
          "type": "uint256"
        },
        {
          "indexed": false,
          "internalType": "uint256",
          "name": "timestamp",
          "type": "uint256"
        },
        {
          "indexed": false,
          "internalType": "uint256",
          "name": "apy",
          "type": "uint256"
        }
      ],
      "name": "Harvested",
      "type": "event"
    },
    {
      "anonymous": false,
      "inputs": [
        {
          "indexed": false,
          "internalType": "uint64",
          "name": "version",
          "type": "uint64"
        }
      ],
      "name": "Initialized",
      "type": "event"
    },
    {
      "anonymous": false,
      "inputs": [
        {
          "indexed": true,
          "internalType": "bytes32",
          "name": "role",
          "type": "bytes32"
        },
        {
          "indexed": true,
          "internalType": "bytes32",
          "name": "previousAdminRole",
          "type": "bytes32"
        },
        {
          "indexed": true,
          "internalType": "bytes32",
          "name": "newAdminRole",
          "type": "bytes32"
        }
      ],
      "name": "RoleAdminChanged",
      "type": "event"
    },
    {
      "anonymous": false,
      "inputs": [
        {
          "indexed": true,
          "internalType": "bytes32",
          "name": "role",
          "type": "bytes32"
        },
        {
          "indexed": true,
          "internalType": "address",
          "name": "account",
          "type": "address"
        },
        {
          "indexed": true,
          "internalType": "address",
          "name": "sender",
          "type": "address"
        }
      ],
      "name": "RoleGranted",
      "type": "event"
    },
    {
      "anonymous": false,
      "inputs": [
        {
          "indexed": true,
          "internalType": "bytes32",
          "name": "role",
          "type": "bytes32"
        },
        {
          "indexed": true,
          "internalType": "address",
          "name": "account",
          "type": "address"
        },
        {
          "indexed": true,
          "internalType": "address",
          "name": "sender",
          "type": "address"
        }
      ],
      "name": "RoleRevoked",
      "type": "event"
    },
    {
      "anonymous": false,
      "inputs": [
        {
          "indexed": true,
          "internalType": "address",
          "name": "user",
          "type": "address"
        },
        {
          "indexed": true,
          "internalType": "address",
          "name": "token",
          "type": "address"
        },
        {
          "indexed": false,
          "internalType": "uint256",
          "name": "stakeId",
          "type": "uint256"
        },
        {
          "indexed": false,
          "internalType": "uint256",
          "name": "amount",
          "type": "uint256"
        },
        {
          "indexed": false,
          "internalType": "uint256",
          "name": "duration",
          "type": "uint256"
        },
        {
          "indexed": false,
          "internalType": "uint256",
          "name": "apy",
          "type": "uint256"
        }
      ],
      "name": "Staked",
      "type": "event"
    },
    {
      "anonymous": false,
      "inputs": [
        {
          "indexed": true,
          "internalType": "address",
          "name": "user",
          "type": "address"
        },
        {
          "indexed": true,
          "internalType": "address",
          "name": "token",
          "type": "address"
        },
        {
          "indexed": false,
          "internalType": "uint256",
          "name": "stakeId",
          "type": "uint256"
        },
        {
          "indexed": false,
          "internalType": "uint256",
          "name": "amount",
          "type": "uint256"
        },
        {
          "indexed": false,
          "internalType": "uint256",
          "name": "unstakeTime",
          "type": "uint256"
        },
        {
          "indexed": false,
          "internalType": "uint256",
          "name": "lockEndTime",
          "type": "uint256"
        }
      ],
      "name": "Unstaked",
      "type": "event"
    },
    {
      "inputs": [],
      "name": "ADMIN_ROLE",
      "outputs": [
        {
          "internalType": "bytes32",
          "name": "",
          "type": "bytes32"
        }
      ],
      "stateMutability": "view",
      "type": "function"
    },
    {
      "inputs": [],
      "name": "DEFAULT_ADMIN_ROLE",
      "outputs": [
        {
          "internalType": "bytes32",
          "name": "",
          "type": "bytes32"
        }
      ],
      "stateMutability": "view",
      "type": "function"
    },
    {
      "inputs": [],
      "name": "HARVEST_TIME",
      "outputs": [
        {
          "internalType": "uint256",
          "name": "",
          "type": "uint256"
        }
      ],
      "stateMutability": "view",
      "type": "function"
    },
    {
      "inputs": [
        {
          "internalType": "address",
          "name": "",
          "type": "address"
        },
        {
          "internalType": "address",
          "name": "",
          "type": "address"
        }
      ],
      "name": "activeStakeCount",
      "outputs": [
        {
          "internalType": "uint256",
          "name": "",
          "type": "uint256"
        }
      ],
      "stateMutability": "view",
      "type": "function"
    },
    {
      "inputs": [
        {
          "internalType": "address",
          "name": "token",
          "type": "address"
        },
        {
          "internalType": "uint256",
          "name": "duration",
          "type": "uint256"
        },
        {
          "internalType": "uint256",
          "name": "min",
          "type": "uint256"
        },
        {
          "internalType": "uint256",
          "name": "max",
          "type": "uint256"
        },
        {
          "internalType": "uint256",
          "name": "apy",
          "type": "uint256"
        }
      ],
      "name": "addAPYRange",
      "outputs": [],
      "stateMutability": "nonpayable",
      "type": "function"
    },
    {
      "inputs": [
        {
          "internalType": "address",
          "name": "token",
          "type": "address"
        },
        {
          "internalType": "uint256",
          "name": "amount",
          "type": "uint256"
        },
        {
          "internalType": "uint256",
          "name": "duration",
          "type": "uint256"
        },
        {
          "internalType": "bytes",
          "name": "adminSignature",
          "type": "bytes"
        }
      ],
      "name": "addStake",
      "outputs": [],
      "stateMutability": "nonpayable",
      "type": "function"
    },
    {
      "inputs": [
        {
          "internalType": "address",
          "name": "token",
          "type": "address"
        }
      ],
      "name": "addWhitelistedToken",
      "outputs": [],
      "stateMutability": "nonpayable",
      "type": "function"
    },
    {
      "inputs": [
        {
          "internalType": "address",
          "name": "token",
          "type": "address"
        },
        {
          "internalType": "address",
          "name": "receiver",
          "type": "address"
        },
        {
          "internalType": "uint256",
          "name": "amount",
          "type": "uint256"
        }
      ],
      "name": "adminWithdrawToken",
      "outputs": [],
      "stateMutability": "nonpayable",
      "type": "function"
    },
    {
      "inputs": [
        {
          "internalType": "address",
          "name": "",
          "type": "address"
        },
        {
          "internalType": "uint256",
          "name": "",
          "type": "uint256"
        },
        {
          "internalType": "uint256",
          "name": "",
          "type": "uint256"
        }
      ],
      "name": "apyRanges",
      "outputs": [
        {
          "internalType": "uint256",
          "name": "minAmount",
          "type": "uint256"
        },
        {
          "internalType": "uint256",
          "name": "maxAmount",
          "type": "uint256"
        },
        {
          "internalType": "uint256",
          "name": "apy",
          "type": "uint256"
        },
        {
          "internalType": "uint256",
          "name": "duration",
          "type": "uint256"
        }
      ],
      "stateMutability": "view",
      "type": "function"
    },
    {
      "inputs": [
        {
          "internalType": "address",
          "name": "user",
          "type": "address"
        },
        {
          "internalType": "address",
          "name": "token",
          "type": "address"
        },
        {
          "internalType": "uint256",
          "name": "stakeId",
          "type": "uint256"
        }
      ],
      "name": "autoRenewStake",
      "outputs": [],
      "stateMutability": "nonpayable",
      "type": "function"
    },
    {
      "inputs": [
        {
          "internalType": "address",
          "name": "token",
          "type": "address"
        },
        {
          "internalType": "uint256",
          "name": "stakeId",
          "type": "uint256"
        },
        {
          "internalType": "bytes",
          "name": "adminSignature",
          "type": "bytes"
        }
      ],
      "name": "claimStake",
      "outputs": [],
      "stateMutability": "nonpayable",
      "type": "function"
    },
    {
      "inputs": [
        {
          "internalType": "bytes32",
          "name": "role",
          "type": "bytes32"
        }
      ],
      "name": "getRoleAdmin",
      "outputs": [
        {
          "internalType": "bytes32",
          "name": "",
          "type": "bytes32"
        }
      ],
      "stateMutability": "view",
      "type": "function"
    },
    {
      "inputs": [
        {
          "internalType": "bytes32",
          "name": "role",
          "type": "bytes32"
        },
        {
          "internalType": "address",
          "name": "account",
          "type": "address"
        }
      ],
      "name": "grantRole",
      "outputs": [],
      "stateMutability": "nonpayable",
      "type": "function"
    },
    {
      "inputs": [
        {
          "internalType": "address",
          "name": "token",
          "type": "address"
        },
        {
          "internalType": "uint256",
          "name": "stakeId",
          "type": "uint256"
        },
        {
          "internalType": "bytes",
          "name": "adminSignature",
          "type": "bytes"
        }
      ],
      "name": "harvestStake",
      "outputs": [],
      "stateMutability": "nonpayable",
      "type": "function"
    },
    {
      "inputs": [
        {
          "internalType": "bytes32",
          "name": "role",
          "type": "bytes32"
        },
        {
          "internalType": "address",
          "name": "account",
          "type": "address"
        }
      ],
      "name": "hasRole",
      "outputs": [
        {
          "internalType": "bool",
          "name": "",
          "type": "bool"
        }
      ],
      "stateMutability": "view",
      "type": "function"
    },
    {
      "inputs": [],
      "name": "initialize",
      "outputs": [],
      "stateMutability": "nonpayable",
      "type": "function"
    },
    {
      "inputs": [
        {
          "internalType": "address",
          "name": "forwarder",
          "type": "address"
        }
      ],
      "name": "isTrustedForwarder",
      "outputs": [
        {
          "internalType": "bool",
          "name": "",
          "type": "bool"
        }
      ],
      "stateMutability": "view",
      "type": "function"
    },
    {
      "inputs": [
        {
          "internalType": "address",
          "name": "",
          "type": "address"
        }
      ],
      "name": "nonce",
      "outputs": [
        {
          "internalType": "uint256",
          "name": "",
          "type": "uint256"
        }
      ],
      "stateMutability": "view",
      "type": "function"
    },
    {
      "inputs": [
        {
          "internalType": "address",
          "name": "token",
          "type": "address"
        }
      ],
      "name": "removeWhitelistedToken",
      "outputs": [],
      "stateMutability": "nonpayable",
      "type": "function"
    },
    {
      "inputs": [
        {
          "internalType": "bytes32",
          "name": "role",
          "type": "bytes32"
        },
        {
          "internalType": "address",
          "name": "callerConfirmation",
          "type": "address"
        }
      ],
      "name": "renounceRole",
      "outputs": [],
      "stateMutability": "nonpayable",
      "type": "function"
    },
    {
      "inputs": [
        {
          "internalType": "bytes32",
          "name": "role",
          "type": "bytes32"
        },
        {
          "internalType": "address",
          "name": "account",
          "type": "address"
        }
      ],
      "name": "revokeRole",
      "outputs": [],
      "stateMutability": "nonpayable",
      "type": "function"
    },
    {
      "inputs": [
        {
          "internalType": "address",
          "name": "_trustedForwarder",
          "type": "address"
        },
        {
          "internalType": "bool",
          "name": "_isTrusted",
          "type": "bool"
        }
      ],
      "name": "setTrustedForwarder",
      "outputs": [],
      "stateMutability": "nonpayable",
      "type": "function"
    },
    {
      "inputs": [
        {
          "internalType": "bytes4",
          "name": "interfaceId",
          "type": "bytes4"
        }
      ],
      "name": "supportsInterface",
      "outputs": [
        {
          "internalType": "bool",
          "name": "",
          "type": "bool"
        }
      ],
      "stateMutability": "view",
      "type": "function"
    },
    {
      "inputs": [
        {
          "internalType": "address",
          "name": "",
          "type": "address"
        }
      ],
      "name": "trustedForwarder",
      "outputs": [
        {
          "internalType": "bool",
          "name": "",
          "type": "bool"
        }
      ],
      "stateMutability": "view",
      "type": "function"
    },
    {
      "inputs": [
        {
          "internalType": "address",
          "name": "token",
          "type": "address"
        },
        {
          "internalType": "uint256",
          "name": "stakeId",
          "type": "uint256"
        },
        {
          "internalType": "bytes",
          "name": "adminSignature",
          "type": "bytes"
        }
      ],
      "name": "unstake",
      "outputs": [],
      "stateMutability": "nonpayable",
      "type": "function"
    },
    {
      "inputs": [
        {
          "internalType": "address",
          "name": "token",
          "type": "address"
        },
        {
          "internalType": "uint256",
          "name": "duration",
          "type": "uint256"
        },
        {
          "internalType": "uint256",
          "name": "oldMin",
          "type": "uint256"
        },
        {
          "internalType": "uint256",
          "name": "oldMax",
          "type": "uint256"
        },
        {
          "internalType": "uint256",
          "name": "newMin",
          "type": "uint256"
        },
        {
          "internalType": "uint256",
          "name": "newMax",
          "type": "uint256"
        },
        {
          "internalType": "uint256",
          "name": "newApy",
          "type": "uint256"
        }
      ],
      "name": "updateAPYRangeByBounds",
      "outputs": [],
      "stateMutability": "nonpayable",
      "type": "function"
    },
    {
      "inputs": [
        {
          "internalType": "address",
          "name": "",
          "type": "address"
        },
        {
          "internalType": "address",
          "name": "",
          "type": "address"
        }
      ],
      "name": "userStakeCount",
      "outputs": [
        {
          "internalType": "uint256",
          "name": "",
          "type": "uint256"
        }
      ],
      "stateMutability": "view",
      "type": "function"
    },
    {
      "inputs": [
        {
          "internalType": "address",
          "name": "",
          "type": "address"
        },
        {
          "internalType": "address",
          "name": "",
          "type": "address"
        },
        {
          "internalType": "uint256",
          "name": "",
          "type": "uint256"
        }
      ],
      "name": "userTokenStakes",
      "outputs": [
        {
          "internalType": "uint256",
          "name": "stakeId",
          "type": "uint256"
        },
        {
          "internalType": "uint256",
          "name": "amount",
          "type": "uint256"
        },
        {
          "internalType": "uint256",
          "name": "startTime",
          "type": "uint256"
        },
        {
          "internalType": "uint256",
          "name": "duration",
          "type": "uint256"
        },
        {
          "internalType": "uint256",
          "name": "apy",
          "type": "uint256"
        },
        {
          "internalType": "uint256",
          "name": "totalClaimed",
          "type": "uint256"
        },
        {
          "internalType": "uint256",
          "name": "lastHarvested",
          "type": "uint256"
        }
      ],
      "stateMutability": "view",
      "type": "function"
    },
    {
      "inputs": [
        {
          "internalType": "address",
          "name": "user",
          "type": "address"
        },
        {
          "internalType": "address",
          "name": "token",
          "type": "address"
        },
        {
          "internalType": "uint256",
          "name": "amountOrStakeId",
          "type": "uint256"
        },
        {
          "internalType": "uint256",
          "name": "userNonce",
          "type": "uint256"
        },
        {
          "internalType": "enum KgenStorage.ActionType",
          "name": "action",
          "type": "uint8"
        },
        {
          "internalType": "bytes",
          "name": "signature",
          "type": "bytes"
        }
      ],
      "name": "verifySignature",
      "outputs": [
        {
          "internalType": "bool",
          "name": "",
          "type": "bool"
        }
      ],
      "stateMutability": "view",
      "type": "function"
    },
    {
      "inputs": [
        {
          "internalType": "address",
          "name": "",
          "type": "address"
        }
      ],
      "name": "whitelistedToken",
      "outputs": [
        {
          "internalType": "bool",
          "name": "",
          "type": "bool"
        }
      ],
      "stateMutability": "view",
      "type": "function"
    }
  ],
  "transactionHash": "0x10b7e17daf1e663bf38ccd0e13c627cbd0dafafe7119661bcce8a92334499578",
  "args": [],
  "numDeployments": 1,
  "solcInputHash": "3cfe8fb897c929c93d2ba034b9b614c1",
  "bytecode": "0x608060405234801561001057600080fd5b50612c37806100206000396000f3fe608060405234801561001057600080fd5b50600436106101da5760003560e01c806359856cb811610104578063a217fddf116100a2578063c5219e2011610071578063c5219e201461048e578063d547741f146104a1578063e2cc5f3c146104b4578063e691d03b146104d757600080fd5b8063a217fddf14610418578063ba77b40e14610420578063bf94190414610433578063c4113b881461047b57600080fd5b806376b88024116100de57806376b88024146103c75780638129fc1c146103ea5780638a1d8407146103f257806391d148541461040557600080fd5b806359856cb81461037f57806370ae92d21461039257806375b238fc146103b257600080fd5b806325f7c4d11161017c578063363cb34d1161014b578063363cb34d1461031a57806336568abe1461032d57806338fe3f7414610340578063572b6c051461035357600080fd5b806325f7c4d11461029e57806329ad5031146102c95780632db4b663146102dc5780632f2ff15d1461030757600080fd5b806315ea6ae4116101b857806315ea6ae41461022f5780631c88705d146102455780632024950714610258578063248a9ca31461028b57600080fd5b806301ffc9a7146101df5780630ac20ed514610207578063110f1e6f1461021c575b600080fd5b6101f26101ed3660046125e3565b6104ea565b60405190151581526020015b60405180910390f35b61021a6102153660046126d3565b610521565b005b61021a61022a366004612734565b610a3f565b610237603c81565b6040519081526020016101fe565b61021a610253366004612776565b610acb565b61026b610266366004612791565b610b3e565b6040805194855260208501939093529183015260608201526080016101fe565b6102376102993660046127c4565b610b93565b6102376102ac3660046127dd565b600260209081526000928352604080842090915290825290205481565b6101f26102d7366004612810565b610bb5565b6102376102ea3660046127dd565b600360209081526000928352604080842090915290825290205481565b61021a610315366004612897565b610c5a565b61021a610328366004612776565b610c76565b61021a61033b366004612897565b610ced565b61021a61034e3660046128ba565b610d35565b6101f2610361366004612776565b6001600160a01b031660009081526006602052604090205460ff1690565b61021a61038d36600461290d565b610e71565b6102376103a0366004612776565b60056020526000908152604090205481565b610237600080516020612bc283398151915281565b6101f26103d5366004612776565b60066020526000908152604090205460ff1681565b61021a6111e3565b61021a61040036600461290d565b61130b565b6101f2610413366004612897565b6113e1565b610237600081565b61021a61042e366004612949565b611419565b61044661044136600461290d565b6117df565b604080519788526020880196909652948601939093526060850191909152608084015260a083015260c082015260e0016101fe565b61021a610489366004612949565b611847565b61021a61049c366004612949565b611ba0565b61021a6104af366004612897565b611f0f565b6101f26104c2366004612776565b60046020526000908152604090205460ff1681565b61021a6104e53660046129ae565b611f2b565b60006001600160e01b03198216637965db0b60e01b148061051b57506301ffc9a760e01b6001600160e01b03198316145b92915050565b610529611f62565b6001600160a01b03841660009081526004602052604090205460ff16610562576040516307c241ad60e51b815260040160405180910390fd5b82600003610583576040516365e52d5160e11b815260040160405180910390fd5b6105c561058e611fac565b85856005600061059c611fac565b6001600160a01b03166001600160a01b0316815260200190815260200160002054600086610bb5565b6105e257604051633b95b10160e21b815260040160405180910390fd5b6001600160a01b038416600090815260208181526040808320858452825280832080548251818502810185019093528083529192909190849084015b8282101561067857838290600052602060002090600402016040518060800160405290816000820154815260200160018201548152602001600282015481526020016003820154815250508152602001906001019061061e565b50505050905080516000036106a057604051637616640160e01b815260040160405180910390fd5b6000805b8251811015610729578281815181106106bf576106bf6129e5565b60200260200101516000015186101580156106f757508281815181106106e7576106e76129e5565b6020026020010151602001518611155b156107215782818151811061070e5761070e6129e5565b6020026020010151604001519150610729565b6001016106a4565b508060000361074b576040516309327f4560e21b815260040160405180910390fd5b6000866001600160a01b03166323b872dd610764611fac565b6040516001600160e01b031960e084901b1681526001600160a01b039091166004820152306024820152604481018990526064016020604051808303816000875af11580156107b7573d6000803e3d6000fd5b505050506040513d601f19601f820116820180604052508101906107db91906129fb565b9050806107fb576040516312171d8360e31b815260040160405180910390fd5b600060026000610809611fac565b6001600160a01b03166001600160a01b031681526020019081526020016000206000896001600160a01b03166001600160a01b031681526020019081526020016000206000815461085990612a2e565b918290555090506003600061086c611fac565b6001600160a01b03908116825260208083019390935260409182016000908120918c168152925281208054916108a183612a2e565b919050555060006040518060e0016040528083815260200189815260200142815260200188815260200185815260200160008152602001428152509050600160006108ea611fac565b6001600160a01b03908116825260208083019390935260409182016000908120918d16815290835281812080546001818101835591835284832086516007909202019081559385015190840155908301516002830155606083015160038301556080830151600483015560a083015160058084019190915560c0840151600690930192909255610978611fac565b6001600160a01b031681526020810191909152604001600090812080549161099f83612a2e565b9190505550886001600160a01b03166109b6611fac565b60408051858152602081018c90529081018a9052606081018790526001600160a01b0391909116907f1a239cfcc9eee66af37729671dcbd82e1544f57835d53fa02eb9220a930a8f879060800160405180910390a35050505050610a3960017f9b779b17422d0df92223018b32b4d1fa46e071723d6817e2486d003becc55f0055565b50505050565b600080516020612bc2833981519152610a5781611fbb565b506001600160a01b03909416600090815260208181526040808320868452825280832081516080810183529586528583019485529085019687526060850195865280546001818101835591845291909220935160049091029093019283559051908201559151600283015551600390910155565b600080516020612bc2833981519152610ae381611fbb565b6001600160a01b03821660009081526004602052604090205460ff16610b1c57604051630b094f2760e31b815260040160405180910390fd5b506001600160a01b03166000908152600460205260409020805460ff19169055565b60006020528260005260406000206020528160005260406000208181548110610b6657600080fd5b60009182526020909120600490910201805460018201546002830154600390930154919550935090915084565b6000908152600080516020612be2833981519152602052604090206001015490565b600080878787873088604051602001610bd396959493929190612a5d565b6040516020818303038152906040528051906020012090506000610c24827f19457468657265756d205369676e6564204d6573736167653a0a3332000000006000908152601c91909152603c902090565b90506000610c328286611fcf565b9050610c4c600080516020612bc2833981519152826113e1565b9a9950505050505050505050565b610c6382610b93565b610c6c81611fbb565b610a398383611ff9565b600080516020612bc2833981519152610c8e81611fbb565b6001600160a01b03821660009081526004602052604090205460ff1615610cc85760405163b73e95e160e01b815260040160405180910390fd5b506001600160a01b03166000908152600460205260409020805460ff19166001179055565b610cf5611fac565b6001600160a01b0316816001600160a01b031614610d265760405163334bd91960e11b815260040160405180910390fd5b610d30828261209f565b505050565b600080516020612bc2833981519152610d4d81611fbb565b6001600160a01b0388166000908152602081815260408083208a84529091528120905b8154811015610e4d5787828281548110610d8c57610d8c6129e5565b906000526020600020906004020160000154148015610dcd575086828281548110610db957610db96129e5565b906000526020600020906004020160010154145b15610e455760405180608001604052808781526020018681526020018581526020018a815250828281548110610e0557610e056129e5565b9060005260206000209060040201600082015181600001556020820151816001015560408201518160020155606082015181600301559050505050610e67565b600101610d70565b50604051636ac7e45560e11b815260040160405180910390fd5b5050505050505050565b600080516020612bc2833981519152610e8981611fbb565b6001600160a01b0380851660009081526001602090815260408083209387168352929052908120905b81548110156111c95783828281548110610ece57610ece6129e5565b906000526020600020906007020160000154036111c1576000828281548110610ef957610ef96129e5565b90600052602060002090600702016040518060e001604052908160008201548152602001600182015481526020016002820154815260200160038201548152602001600482015481526020016005820154815260200160068201548152505090506000816060015162015180610f6f9190612aba565b8260400151610f7e9190612ad1565b90506000651cae8c13e000836040015183610f999190612ae4565b84608001518560200151610fad9190612aba565b610fb79190612aba565b610fc19190612b0d565b905060008360a0015182610fd59190612ae4565b905082421015610ff85760405163111c440960e01b815260040160405180910390fd5b600062015180856040015161100d9190612b21565b61101a6201518042612b21565b6110249042612ae4565b61102e9190612ad1565b6001600160a01b03808d166000908152600260209081526040808320938f16835292905290812080549293509091908261106783612a2e565b919050559050876040518060e0016040528083815260200185896020015161108f9190612ad1565b8152602001848152602001886060015181526020018860800151815260200160008152602001848152509080600181540180825580915050600190039060005260206000209060070201600090919091909150600082015181600001556020820151816001015560408201518160020155606082015181600301556080820151816004015560a0820151816005015560c0820151816006015550508a6001600160a01b03168c6001600160a01b03167f1a239cfcc9eee66af37729671dcbd82e1544f57835d53fa02eb9220a930a8f8783868a602001516111709190612ad1565b8a606001518b608001516040516111a0949392919093845260208401929092526040830152606082015260800190565b60405180910390a36111b488888e8e612139565b5050505050505050610a39565b600101610eb2565b50604051638c877d2160e01b815260040160405180910390fd5b60006111ed61228d565b805490915060ff600160401b820416159067ffffffffffffffff166000811580156112155750825b905060008267ffffffffffffffff1660011480156112325750303b155b905081158015611240575080155b1561125e5760405163f92ee8a960e01b815260040160405180910390fd5b845467ffffffffffffffff19166001178555831561128857845460ff60401b1916600160401b1785555b6112906122b6565b6112a2600061129d611fac565b611ff9565b506112bd600080516020612bc283398151915261129d611fac565b50831561130457845460ff60401b19168555604051600181527fc7f505b2f371ae2175ee4913f4499e1f2633a7b5936321eed1cdaeb6115181d29060200160405180910390a15b5050505050565b600080516020612bc283398151915261132381611fbb565b6001600160a01b03831661134a57604051631e4ec46b60e01b815260040160405180910390fd5b60405163a9059cbb60e01b81526001600160a01b038481166004830152602482018490526000919086169063a9059cbb906044016020604051808303816000875af115801561139d573d6000803e3d6000fd5b505050506040513d601f19601f820116820180604052508101906113c191906129fb565b905080611304576040516312171d8360e31b815260040160405180910390fd5b6000918252600080516020612be2833981519152602090815260408084206001600160a01b0393909316845291905290205460ff1690565b611421611f62565b6001600160a01b03831660009081526004602052604090205460ff1661145a576040516307c241ad60e51b815260040160405180910390fd5b61149c611465611fac565b848460056000611473611fac565b6001600160a01b03166001600160a01b0316815260200190815260200160002054600186610bb5565b6114b957604051633b95b10160e21b815260040160405180910390fd5b6000600160006114c7611fac565b6001600160a01b0390811682526020808301939093526040918201600090812091881681529252812091505b81548110156111c9578382828154811061150f5761150f6129e5565b906000526020600020906007020160000154036117ae57600082828154811061153a5761153a6129e5565b90600052602060002090600702019050603c81600601544261155c9190612ae4565b101561157b57604051630cb562bd60e41b815260040160405180910390fd5b60008160030154620151806115909190612aba565b826002015461159f9190612ad1565b905060008142116115b057426115b2565b815b90506000651cae8c13e0008460020154836115cd9190612ae4565b856004015486600101546115e19190612aba565b6115eb9190612aba565b6115f59190612b0d565b905060008460050154821161160b57600061161a565b600585015461161a9083612ae4565b90508060000361163d57604051630fec21fd60e21b815260040160405180910390fd5b808560050160008282546116519190612ad1565b90915550506006850183905560006001600160a01b038b1663a9059cbb611676611fac565b6040516001600160e01b031960e084901b1681526001600160a01b039091166004820152602481018590526044016020604051808303816000875af11580156116c3573d6000803e3d6000fd5b505050506040513d601f19601f820116820180604052508101906116e791906129fb565b905080611707576040516312171d8360e31b815260040160405180910390fd5b89611710611fac565b6001600160a01b03167fe7d9801d1d042469575a53334cb3601a4d973e612b19b1d06b1ed01606e725ff84878a60040154604051611761939291909283526020830191909152604082015260600190565b60405180910390a360056000611775611fac565b6001600160a01b031681526020810191909152604001600090812080549161179c83612a2e565b919050555050505050505050506117b6565b6001016114f3565b610d3060017f9b779b17422d0df92223018b32b4d1fa46e071723d6817e2486d003becc55f0055565b6001602052826000526040600020602052816000526040600020818154811061180757600080fd5b6000918252602090912060079091020180546001820154600283015460038401546004850154600586015460069096015494985092965090945092909187565b61184f611f62565b6001600160a01b03831660009081526004602052604090205460ff16611888576040516307c241ad60e51b815260040160405180910390fd5b6118ca611893611fac565b8484600560006118a1611fac565b6001600160a01b03166001600160a01b0316815260200190815260200160002054600386610bb5565b6118e757604051633b95b10160e21b815260040160405180910390fd5b6000600160006118f5611fac565b6001600160a01b0390811682526020808301939093526040918201600090812091881681529252812091505b81548110156111c9578382828154811061193d5761193d6129e5565b90600052602060002090600702016000015403611b98576000828281548110611968576119686129e5565b90600052602060002090600702016040518060e0016040529081600082015481526020016001820154815260200160028201548152602001600382015481526020016004820154815260200160058201548152602001600682015481525050905060008160600151620151806119de9190612aba565b82604001516119ed9190612ad1565b9050426000828210611a03578360200151611a2d565b8360a00151846020015111611a19576000611a2d565b8360a001518460200151611a2d9190612ae4565b90506000896001600160a01b031663a9059cbb611a48611fac565b6040516001600160e01b031960e084901b1681526001600160a01b039091166004820152602481018590526044016020604051808303816000875af1158015611a95573d6000803e3d6000fd5b505050506040513d601f19601f82011682018060405250810190611ab991906129fb565b905080611ad9576040516312171d8360e31b815260040160405180910390fd5b896001600160a01b0316611aeb611fac565b604080518c815260208101869052908101869052606081018790526001600160a01b0391909116907fb0a965057daf910d1d2273c69da4f421a60d314cbf2805613ffd17c1b229f44c906080015b60405180910390a3611b548787611b4e611fac565b8d612139565b60056000611b60611fac565b6001600160a01b0316815260208101919091526040016000908120805491611b8783612a2e565b9190505550505050505050506117b6565b600101611921565b611ba8611f62565b6001600160a01b03831660009081526004602052604090205460ff16611be1576040516307c241ad60e51b815260040160405180910390fd5b611c23611bec611fac565b848460056000611bfa611fac565b6001600160a01b03166001600160a01b0316815260200190815260200160002054600286610bb5565b611c4057604051633b95b10160e21b815260040160405180910390fd5b600060016000611c4e611fac565b6001600160a01b0390811682526020808301939093526040918201600090812091881681529252812091505b81548110156111c95783828281548110611c9657611c966129e5565b90600052602060002090600702016000015403611f07576000828281548110611cc157611cc16129e5565b90600052602060002090600702016040518060e001604052908160008201548152602001600182015481526020016002820154815260200160038201548152602001600482015481526020016005820154815260200160068201548152505090506000816060015162015180611d379190612aba565b8260400151611d469190612ad1565b9050611d5281426122c0565b80421015611d735760405163111c440960e01b815260040160405180910390fd5b6000651cae8c13e000836040015183611d8c9190612ae4565b84608001518560200151611da09190612aba565b611daa9190612aba565b611db49190612b0d565b905060008360a001518211611dca576000611dd9565b60a0840151611dd99083612ae4565b90506000896001600160a01b031663a9059cbb611df4611fac565b848860200151611e049190612ad1565b6040516001600160e01b031960e085901b1681526001600160a01b03909216600483015260248201526044016020604051808303816000875af1158015611e4f573d6000803e3d6000fd5b505050506040513d601f19601f82011682018060405250810190611e7391906129fb565b905080611e93576040516312171d8360e31b815260040160405180910390fd5b88611e9c611fac565b6001600160a01b03167f394988eccc08ce012bd270f969ff7baa2fcf584610db195bc89bced7f53d3d638760200151858960200151611edb9190612ad1565b6080808b015160408051948552602085019390935291830188905242606084015282015260a001611b39565b600101611c7a565b611f1882610b93565b611f2181611fbb565b610a39838361209f565b6000611f3681611fbb565b506001600160a01b03919091166000908152600660205260409020805460ff1916911515919091179055565b7f9b779b17422d0df92223018b32b4d1fa46e071723d6817e2486d003becc55f00805460011901611fa657604051633ee5aeb560e01b815260040160405180910390fd5b60029055565b6000611fb661230b565b905090565b611fcc81611fc7611fac565b612367565b50565b600080600080611fdf86866123a5565b925092509250611fef82826123f2565b5090949350505050565b6000600080516020612be283398151915261201484846113e1565b612095576000848152602082815260408083206001600160a01b03871684529091529020805460ff1916600117905561204b611fac565b6001600160a01b0316836001600160a01b0316857f2f8788117e7eff1d82e926ec794901d17c78024a50270940304540a733656f0d60405160405180910390a4600191505061051b565b600091505061051b565b6000600080516020612be28339815191526120ba84846113e1565b15612095576000848152602082815260408083206001600160a01b03871684529091529020805460ff191690556120ef611fac565b6001600160a01b0316836001600160a01b0316857ff6391f5c32d9c69d2a47ea670b442974b53935d1edc7fd64eb21e047a839171b60405160405180910390a4600191505061051b565b8354849061214990600190612ae4565b81548110612159576121596129e5565b9060005260206000209060070201848481548110612179576121796129e5565b906000526020600020906007020160008201548160000155600182015481600101556002820154816002015560038201548160030155600482015481600401556005820154816005015560068201548160060155905050838054806121e0576121e0612b35565b600082815260208082206007600019909401938402018281556001810183905560028101839055600380820184905560048201849055600582018490556006909101839055929093556001600160a01b038086168252918352604080822092851682529190925290205415610a39576001600160a01b038083166000908152600360209081526040808320938516835292905290812080549161228283612b4b565b919050555050505050565b6000807ff0c57e16840df040f15088dc2f81fe391c3923bec73e23a9662efc9c229c6a0061051b565b6122be6124ab565b565b60405160248101839052604481018290526123079060640160408051601f198184030181529190526020810180516001600160e01b0316637b3338ad60e11b1790526124d0565b5050565b33600090815260066020526040812054369060149060ff16801561232f5750808210155b1561235f576000366123418385612ae4565b61234c928290612b62565b61235591612b8c565b60601c9250505090565b339250505090565b61237182826113e1565b6123075760405163e2517d3f60e01b81526001600160a01b0382166004820152602481018390526044015b60405180910390fd5b600080600083516041036123df5760208401516040850151606086015160001a6123d1888285856124d9565b9550955095505050506123eb565b50508151600091506002905b9250925092565b600082600381111561240657612406612a47565b0361240f575050565b600182600381111561242357612423612a47565b036124415760405163f645eedf60e01b815260040160405180910390fd5b600282600381111561245557612455612a47565b036124765760405163fce698f760e01b81526004810182905260240161239c565b600382600381111561248a5761248a612a47565b03612307576040516335e2f38360e21b81526004810182905260240161239c565b6124b36125a8565b6122be57604051631afcd79f60e31b815260040160405180910390fd5b611fcc816125c2565b600080807f7fffffffffffffffffffffffffffffff5d576e7357a4501ddfe92f46681b20a0841115612514575060009150600390508261259e565b604080516000808252602082018084528a905260ff891692820192909252606081018790526080810186905260019060a0016020604051602081039080840390855afa158015612568573d6000803e3d6000fd5b5050604051601f1901519150506001600160a01b0381166125945750600092506001915082905061259e565b9250600091508190505b9450945094915050565b60006125b261228d565b54600160401b900460ff16919050565b60006a636f6e736f6c652e6c6f679050600080835160208501845afa505050565b6000602082840312156125f557600080fd5b81356001600160e01b03198116811461260d57600080fd5b9392505050565b80356001600160a01b038116811461262b57600080fd5b919050565b634e487b7160e01b600052604160045260246000fd5b600082601f83011261265757600080fd5b813567ffffffffffffffff8082111561267257612672612630565b604051601f8301601f19908116603f0116810190828211818310171561269a5761269a612630565b816040528381528660208588010111156126b357600080fd5b836020870160208301376000602085830101528094505050505092915050565b600080600080608085870312156126e957600080fd5b6126f285612614565b93506020850135925060408501359150606085013567ffffffffffffffff81111561271c57600080fd5b61272887828801612646565b91505092959194509250565b600080600080600060a0868803121561274c57600080fd5b61275586612614565b97602087013597506040870135966060810135965060800135945092505050565b60006020828403121561278857600080fd5b61260d82612614565b6000806000606084860312156127a657600080fd5b6127af84612614565b95602085013595506040909401359392505050565b6000602082840312156127d657600080fd5b5035919050565b600080604083850312156127f057600080fd5b6127f983612614565b915061280760208401612614565b90509250929050565b60008060008060008060c0878903121561282957600080fd5b61283287612614565b955061284060208801612614565b9450604087013593506060870135925060808701356005811061286257600080fd5b915060a087013567ffffffffffffffff81111561287e57600080fd5b61288a89828a01612646565b9150509295509295509295565b600080604083850312156128aa57600080fd5b8235915061280760208401612614565b600080600080600080600060e0888a0312156128d557600080fd5b6128de88612614565b9960208901359950604089013598606081013598506080810135975060a0810135965060c00135945092505050565b60008060006060848603121561292257600080fd5b61292b84612614565b925061293960208501612614565b9150604084013590509250925092565b60008060006060848603121561295e57600080fd5b61296784612614565b925060208401359150604084013567ffffffffffffffff81111561298a57600080fd5b61299686828701612646565b9150509250925092565b8015158114611fcc57600080fd5b600080604083850312156129c157600080fd5b6129ca83612614565b915060208301356129da816129a0565b809150509250929050565b634e487b7160e01b600052603260045260246000fd5b600060208284031215612a0d57600080fd5b815161260d816129a0565b634e487b7160e01b600052601160045260246000fd5b600060018201612a4057612a40612a18565b5060010190565b634e487b7160e01b600052602160045260246000fd5b6001600160a01b038781168252868116602083015260408201869052606082018590528316608082015260c0810160058310612aa957634e487b7160e01b600052602160045260246000fd5b8260a0830152979650505050505050565b808202811582820484141761051b5761051b612a18565b8082018082111561051b5761051b612a18565b8181038181111561051b5761051b612a18565b634e487b7160e01b600052601260045260246000fd5b600082612b1c57612b1c612af7565b500490565b600082612b3057612b30612af7565b500690565b634e487b7160e01b600052603160045260246000fd5b600081612b5a57612b5a612a18565b506000190190565b60008085851115612b7257600080fd5b83861115612b7f57600080fd5b5050820193919092039150565b6bffffffffffffffffffffffff198135818116916014851015612bb95780818660140360031b1b83161692505b50509291505056fe3dde51b01299a1377c7ec9368143e293e8a5046eb74e8fad35d919e76739618f02dd7bc7dec4dceedda775e58dd541e08a116c6c53815c0bd028192f7b626800a264697066735822122091a46a5581c40065b40b29ca8187ef2ba2b5420a885a7b56368fc5ff92e1cb2f64736f6c63430008160033",
  "devdoc": {
    "errors": {
      "AccessControlBadConfirmation()": [
        {
          "details": "The caller of a function is not the expected one. NOTE: Don't confuse with {AccessControlUnauthorizedAccount}."
        }
      ],
      "AccessControlUnauthorizedAccount(address,bytes32)": [
        {
          "details": "The `account` is missing a role."
        }
      ],
      "ECDSAInvalidSignature()": [
        {
          "details": "The signature derives the `address(0)`."
        }
      ],
      "ECDSAInvalidSignatureLength(uint256)": [
        {
          "details": "The signature has an invalid length."
        }
      ],
      "ECDSAInvalidSignatureS(bytes32)": [
        {
          "details": "The signature has an S value that is in the upper half order."
        }
      ],
      "InvalidInitialization()": [
        {
          "details": "The contract is already initialized."
        }
      ],
      "NotInitializing()": [
        {
          "details": "The contract is not initializing."
        }
      ],
      "ReentrancyGuardReentrantCall()": [
        {
          "details": "Unauthorized reentrant call."
        }
      ]
    },
    "events": {
      "Initialized(uint64)": {
        "details": "Triggered when the contract has been initialized or reinitialized."
      },
      "RoleAdminChanged(bytes32,bytes32,bytes32)": {
        "details": "Emitted when `newAdminRole` is set as ``role``'s admin role, replacing `previousAdminRole` `DEFAULT_ADMIN_ROLE` is the starting admin for all roles, despite {RoleAdminChanged} not being emitted to signal this."
      },
      "RoleGranted(bytes32,address,address)": {
        "details": "Emitted when `account` is granted `role`. `sender` is the account that originated the contract call. This account bears the admin role (for the granted role). Expected in cases where the role was granted using the internal {AccessControl-_grantRole}."
      },
      "RoleRevoked(bytes32,address,address)": {
        "details": "Emitted when `account` is revoked `role`. `sender` is the account that originated the contract call:   - if using `revokeRole`, it is the admin role bearer   - if using `renounceRole`, it is the role bearer (i.e. `account`)"
      }
    },
    "kind": "dev",
    "methods": {
      "getRoleAdmin(bytes32)": {
        "details": "Returns the admin role that controls `role`. See {grantRole} and {revokeRole}. To change a role's admin, use {_setRoleAdmin}."
      },
      "grantRole(bytes32,address)": {
        "details": "Grants `role` to `account`. If `account` had not been already granted `role`, emits a {RoleGranted} event. Requirements: - the caller must have ``role``'s admin role. May emit a {RoleGranted} event."
      },
      "hasRole(bytes32,address)": {
        "details": "Returns `true` if `account` has been granted `role`."
      },
      "renounceRole(bytes32,address)": {
        "details": "Revokes `role` from the calling account. Roles are often managed via {grantRole} and {revokeRole}: this function's purpose is to provide a mechanism for accounts to lose their privileges if they are compromised (such as when a trusted device is misplaced). If the calling account had been revoked `role`, emits a {RoleRevoked} event. Requirements: - the caller must be `callerConfirmation`. May emit a {RoleRevoked} event."
      },
      "revokeRole(bytes32,address)": {
        "details": "Revokes `role` from `account`. If `account` had been granted `role`, emits a {RoleRevoked} event. Requirements: - the caller must have ``role``'s admin role. May emit a {RoleRevoked} event."
      },
      "supportsInterface(bytes4)": {
        "details": "See {IERC165-supportsInterface}."
      }
    },
    "version": 1
  },
  "userdoc": {
    "kind": "user",
    "methods": {},
    "version": 1
  },
  "storageLayout": {
    "storage": [
      {
        "astId": 8020,
        "contract": "contracts/KgenStaking.sol:KgenStaking",
        "label": "apyRanges",
        "offset": 0,
        "slot": "0",
        "type": "t_mapping(t_address,t_mapping(t_uint256,t_array(t_struct(APYRange)8001_storage)dyn_storage))"
      },
      {
        "astId": 8028,
        "contract": "contracts/KgenStaking.sol:KgenStaking",
        "label": "userTokenStakes",
        "offset": 0,
        "slot": "1",
        "type": "t_mapping(t_address,t_mapping(t_address,t_array(t_struct(StakeDetails)7992_storage)dyn_storage))"
      },
      {
        "astId": 8034,
        "contract": "contracts/KgenStaking.sol:KgenStaking",
        "label": "userStakeCount",
        "offset": 0,
        "slot": "2",
        "type": "t_mapping(t_address,t_mapping(t_address,t_uint256))"
      },
      {
        "astId": 8040,
        "contract": "contracts/KgenStaking.sol:KgenStaking",
        "label": "activeStakeCount",
        "offset": 0,
        "slot": "3",
        "type": "t_mapping(t_address,t_mapping(t_address,t_uint256))"
      },
      {
        "astId": 8044,
        "contract": "contracts/KgenStaking.sol:KgenStaking",
        "label": "whitelistedToken",
        "offset": 0,
        "slot": "4",
        "type": "t_mapping(t_address,t_bool)"
      },
      {
        "astId": 8048,
        "contract": "contracts/KgenStaking.sol:KgenStaking",
        "label": "nonce",
        "offset": 0,
        "slot": "5",
        "type": "t_mapping(t_address,t_uint256)"
      },
      {
        "astId": 8052,
        "contract": "contracts/KgenStaking.sol:KgenStaking",
        "label": "trustedForwarder",
        "offset": 0,
        "slot": "6",
        "type": "t_mapping(t_address,t_bool)"
      },
      {
        "astId": 8056,
        "contract": "contracts/KgenStaking.sol:KgenStaking",
        "label": "__gap",
        "offset": 0,
        "slot": "7",
        "type": "t_array(t_uint256)50_storage"
      }
    ],
    "types": {
      "t_address": {
        "encoding": "inplace",
        "label": "address",
        "numberOfBytes": "20"
      },
      "t_array(t_struct(APYRange)8001_storage)dyn_storage": {
        "base": "t_struct(APYRange)8001_storage",
        "encoding": "dynamic_array",
        "label": "struct KgenStorage.APYRange[]",
        "numberOfBytes": "32"
      },
      "t_array(t_struct(StakeDetails)7992_storage)dyn_storage": {
        "base": "t_struct(StakeDetails)7992_storage",
        "encoding": "dynamic_array",
        "label": "struct KgenStorage.StakeDetails[]",
        "numberOfBytes": "32"
      },
      "t_array(t_uint256)50_storage": {
        "base": "t_uint256",
        "encoding": "inplace",
        "label": "uint256[50]",
        "numberOfBytes": "1600"
      },
      "t_bool": {
        "encoding": "inplace",
        "label": "bool",
        "numberOfBytes": "1"
      },
      "t_mapping(t_address,t_array(t_struct(StakeDetails)7992_storage)dyn_storage)": {
        "encoding": "mapping",
        "key": "t_address",
        "label": "mapping(address => struct KgenStorage.StakeDetails[])",
        "numberOfBytes": "32",
        "value": "t_array(t_struct(StakeDetails)7992_storage)dyn_storage"
      },
      "t_mapping(t_address,t_bool)": {
        "encoding": "mapping",
        "key": "t_address",
        "label": "mapping(address => bool)",
        "numberOfBytes": "32",
        "value": "t_bool"
      },
      "t_mapping(t_address,t_mapping(t_address,t_array(t_struct(StakeDetails)7992_storage)dyn_storage))": {
        "encoding": "mapping",
        "key": "t_address",
        "label": "mapping(address => mapping(address => struct KgenStorage.StakeDetails[]))",
        "numberOfBytes": "32",
        "value": "t_mapping(t_address,t_array(t_struct(StakeDetails)7992_storage)dyn_storage)"
      },
      "t_mapping(t_address,t_mapping(t_address,t_uint256))": {
        "encoding": "mapping",
        "key": "t_address",
        "label": "mapping(address => mapping(address => uint256))",
        "numberOfBytes": "32",
        "value": "t_mapping(t_address,t_uint256)"
      },
      "t_mapping(t_address,t_mapping(t_uint256,t_array(t_struct(APYRange)8001_storage)dyn_storage))": {
        "encoding": "mapping",
        "key": "t_address",
        "label": "mapping(address => mapping(uint256 => struct KgenStorage.APYRange[]))",
        "numberOfBytes": "32",
        "value": "t_mapping(t_uint256,t_array(t_struct(APYRange)8001_storage)dyn_storage)"
      },
      "t_mapping(t_address,t_uint256)": {
        "encoding": "mapping",
        "key": "t_address",
        "label": "mapping(address => uint256)",
        "numberOfBytes": "32",
        "value": "t_uint256"
      },
      "t_mapping(t_uint256,t_array(t_struct(APYRange)8001_storage)dyn_storage)": {
        "encoding": "mapping",
        "key": "t_uint256",
        "label": "mapping(uint256 => struct KgenStorage.APYRange[])",
        "numberOfBytes": "32",
        "value": "t_array(t_struct(APYRange)8001_storage)dyn_storage"
      },
      "t_struct(APYRange)8001_storage": {
        "encoding": "inplace",
        "label": "struct KgenStorage.APYRange",
        "members": [
          {
            "astId": 7994,
            "contract": "contracts/KgenStaking.sol:KgenStaking",
            "label": "minAmount",
            "offset": 0,
            "slot": "0",
            "type": "t_uint256"
          },
          {
            "astId": 7996,
            "contract": "contracts/KgenStaking.sol:KgenStaking",
            "label": "maxAmount",
            "offset": 0,
            "slot": "1",
            "type": "t_uint256"
          },
          {
            "astId": 7998,
            "contract": "contracts/KgenStaking.sol:KgenStaking",
            "label": "apy",
            "offset": 0,
            "slot": "2",
            "type": "t_uint256"
          },
          {
            "astId": 8000,
            "contract": "contracts/KgenStaking.sol:KgenStaking",
            "label": "duration",
            "offset": 0,
            "slot": "3",
            "type": "t_uint256"
          }
        ],
        "numberOfBytes": "128"
      },
      "t_struct(StakeDetails)7992_storage": {
        "encoding": "inplace",
        "label": "struct KgenStorage.StakeDetails",
        "members": [
          {
            "astId": 7979,
            "contract": "contracts/KgenStaking.sol:KgenStaking",
            "label": "stakeId",
            "offset": 0,
            "slot": "0",
            "type": "t_uint256"
          },
          {
            "astId": 7981,
            "contract": "contracts/KgenStaking.sol:KgenStaking",
            "label": "amount",
            "offset": 0,
            "slot": "1",
            "type": "t_uint256"
          },
          {
            "astId": 7983,
            "contract": "contracts/KgenStaking.sol:KgenStaking",
            "label": "startTime",
            "offset": 0,
            "slot": "2",
            "type": "t_uint256"
          },
          {
            "astId": 7985,
            "contract": "contracts/KgenStaking.sol:KgenStaking",
            "label": "duration",
            "offset": 0,
            "slot": "3",
            "type": "t_uint256"
          },
          {
            "astId": 7987,
            "contract": "contracts/KgenStaking.sol:KgenStaking",
            "label": "apy",
            "offset": 0,
            "slot": "4",
            "type": "t_uint256"
          },
          {
            "astId": 7989,
            "contract": "contracts/KgenStaking.sol:KgenStaking",
            "label": "totalClaimed",
            "offset": 0,
            "slot": "5",
            "type": "t_uint256"
          },
          {
            "astId": 7991,
            "contract": "contracts/KgenStaking.sol:KgenStaking",
            "label": "lastHarvested",
            "offset": 0,
            "slot": "6",
            "type": "t_uint256"
          }
        ],
        "numberOfBytes": "224"
      },
      "t_uint256": {
        "encoding": "inplace",
        "label": "uint256",
        "numberOfBytes": "32"
      }
    }
  }
}