{"contracts/rKGEN.sol":{"rKGEN":{"abi":[{"inputs":[],"stateMutability":"nonpayable","type":"constructor"},{"inputs":[],"name":"AccessControlBadConfirmation","type":"error"},{"inputs":[{"internalType":"address","name":"account","type":"address"},{"internalType":"bytes32","name":"neededRole","type":"bytes32"}],"name":"AccessControlUnauthorizedAccount","type":"error"},{"inputs":[],"name":"AlreadyExists","type":"error"},{"inputs":[],"name":"CannotDeleteTreasuryAddress","type":"error"},{"inputs":[{"internalType":"address","name":"spender","type":"address"},{"internalType":"uint256","name":"allowance","type":"uint256"},{"internalType":"uint256","name":"needed","type":"uint256"}],"name":"ERC20InsufficientAllowance","type":"error"},{"inputs":[{"internalType":"address","name":"sender","type":"address"},{"internalType":"uint256","name":"balance","type":"uint256"},{"internalType":"uint256","name":"needed","type":"uint256"}],"name":"ERC20InsufficientBalance","type":"error"},{"inputs":[{"internalType":"address","name":"approver","type":"address"}],"name":"ERC20InvalidApprover","type":"error"},{"inputs":[{"internalType":"address","name":"receiver","type":"address"}],"name":"ERC20InvalidReceiver","type":"error"},{"inputs":[{"internalType":"address","name":"sender","type":"address"}],"name":"ERC20InvalidSender","type":"error"},{"inputs":[{"internalType":"address","name":"spender","type":"address"}],"name":"ERC20InvalidSpender","type":"error"},{"inputs":[],"name":"InvalidAmount","type":"error"},{"inputs":[],"name":"InvalidInitialization","type":"error"},{"inputs":[],"name":"InvalidReceiverOrSender","type":"error"},{"inputs":[],"name":"NoPending","type":"error"},{"inputs":[],"name":"NotAdmin","type":"error"},{"inputs":[],"name":"NotBurnVault","type":"error"},{"inputs":[],"name":"NotInitializing","type":"error"},{"inputs":[],"name":"NotOwner","type":"error"},{"inputs":[],"name":"NotTreasuryAddress","type":"error"},{"inputs":[],"name":"NotValidAddress","type":"error"},{"inputs":[],"name":"NotWhitelistReceiver","type":"error"},{"inputs":[],"name":"NotWhitelistSender","type":"error"},{"inputs":[],"name":"OnlyAdmin","type":"error"},{"inputs":[],"name":"ReentrancyGuardReentrantCall","type":"error"},{"anonymous":false,"inputs":[{"indexed":true,"internalType":"address","name":"account","type":"address"}],"name":"AccountFrozen","type":"event"},{"anonymous":false,"inputs":[{"indexed":true,"internalType":"address","name":"account","type":"address"}],"name":"AccountUnfrozen","type":"event"},{"anonymous":false,"inputs":[{"indexed":false,"internalType":"string","name":"msg","type":"string"},{"indexed":true,"internalType":"address","name":"addedAddress","type":"address"}],"name":"AddedReceiverAddress","type":"event"},{"anonymous":false,"inputs":[{"indexed":false,"internalType":"string","name":"msg","type":"string"},{"indexed":true,"internalType":"address","name":"addedAddress","type":"address"}],"name":"AddedSenderAddress","type":"event"},{"anonymous":false,"inputs":[{"indexed":false,"internalType":"string","name":"msg","type":"string"},{"indexed":true,"internalType":"address","name":"addedAddress","type":"address"}],"name":"AddedTreasuryAddress","type":"event"},{"anonymous":false,"inputs":[{"indexed":true,"internalType":"address","name":"owner","type":"address"},{"indexed":true,"internalType":"address","name":"spender","type":"address"},{"indexed":false,"internalType":"uint256","name":"value","type":"uint256"}],"name":"Approval","type":"event"},{"anonymous":false,"inputs":[{"indexed":false,"internalType":"uint64","name":"version","type":"uint64"}],"name":"Initialized","type":"event"},{"anonymous":false,"inputs":[{"indexed":true,"internalType":"address","name":"treasury","type":"address"},{"indexed":false,"internalType":"uint256","name":"amount","type":"uint256"}],"name":"MintedToTreasury","type":"event"},{"anonymous":false,"inputs":[{"indexed":false,"internalType":"string","name":"role","type":"string"},{"indexed":true,"internalType":"address","name":"nominatedAdmin","type":"address"}],"name":"NominatedAdminEvent","type":"event"},{"anonymous":false,"inputs":[{"indexed":false,"internalType":"string","name":"msg","type":"string"},{"indexed":true,"internalType":"address","name":"removedAddress","type":"address"}],"name":"RemovedReceiverAddress","type":"event"},{"anonymous":false,"inputs":[{"indexed":false,"internalType":"string","name":"msg","type":"string"},{"indexed":true,"internalType":"address","name":"removedAddress","type":"address"}],"name":"RemovedSenderAddress","type":"event"},{"anonymous":false,"inputs":[{"indexed":false,"internalType":"string","name":"msg","type":"string"},{"indexed":true,"internalType":"address","name":"removedAddress","type":"address"}],"name":"RemovedTreasuryAddress","type":"event"},{"anonymous":false,"inputs":[{"indexed":true,"internalType":"bytes32","name":"role","type":"bytes32"},{"indexed":true,"internalType":"bytes32","name":"previousAdminRole","type":"bytes32"},{"indexed":true,"internalType":"bytes32","name":"newAdminRole","type":"bytes32"}],"name":"RoleAdminChanged","type":"event"},{"anonymous":false,"inputs":[{"indexed":true,"internalType":"bytes32","name":"role","type":"bytes32"},{"indexed":true,"internalType":"address","name":"account","type":"address"},{"indexed":true,"internalType":"address","name":"sender","type":"address"}],"name":"RoleGranted","type":"event"},{"anonymous":false,"inputs":[{"indexed":true,"internalType":"bytes32","name":"role","type":"bytes32"},{"indexed":true,"internalType":"address","name":"account","type":"address"},{"indexed":true,"internalType":"address","name":"sender","type":"address"}],"name":"RoleRevoked","type":"event"},{"anonymous":false,"inputs":[{"indexed":true,"internalType":"address","name":"from","type":"address"},{"indexed":true,"internalType":"address","name":"to","type":"address"},{"indexed":false,"internalType":"uint256","name":"value","type":"uint256"}],"name":"Transfer","type":"event"},{"anonymous":false,"inputs":[{"indexed":false,"internalType":"string","name":"role","type":"string"},{"indexed":true,"internalType":"address","name":"addedAdmin","type":"address"}],"name":"UpdatedAdmin","type":"event"},{"anonymous":false,"inputs":[{"indexed":false,"internalType":"string","name":"role","type":"string"},{"indexed":true,"internalType":"address","name":"updatedAddress","type":"address"}],"name":"UpdatedBurnVault","type":"event"},{"anonymous":false,"inputs":[{"indexed":false,"internalType":"string","name":"role","type":"string"},{"indexed":true,"internalType":"address","name":"addedUser","type":"address"}],"name":"UpdatedMinter","type":"event"},{"inputs":[],"name":"BURN_VAULT_ROLE","outputs":[{"internalType":"bytes32","name":"","type":"bytes32"}],"stateMutability":"view","type":"function"},{"inputs":[],"name":"DEFAULT_ADMIN_ROLE","outputs":[{"internalType":"bytes32","name":"","type":"bytes32"}],"stateMutability":"view","type":"function"},{"inputs":[],"name":"MINTER_ROLE","outputs":[{"internalType":"bytes32","name":"","type":"bytes32"}],"stateMutability":"view","type":"function"},{"inputs":[],"name":"TREASURY_ROLE","outputs":[{"internalType":"bytes32","name":"","type":"bytes32"}],"stateMutability":"view","type":"function"},{"inputs":[],"name":"UPGRADER_ROLE","outputs":[{"internalType":"bytes32","name":"","type":"bytes32"}],"stateMutability":"view","type":"function"},{"inputs":[],"name":"WHITELIST_RECEIVER_ROLE","outputs":[{"internalType":"bytes32","name":"","type":"bytes32"}],"stateMutability":"view","type":"function"},{"inputs":[],"name":"WHITELIST_SENDER_ROLE","outputs":[{"internalType":"bytes32","name":"","type":"bytes32"}],"stateMutability":"view","type":"function"},{"inputs":[],"name":"acceptAdminRole","outputs":[],"stateMutability":"nonpayable","type":"function"},{"inputs":[{"internalType":"address","name":"newAddress","type":"address"}],"name":"addTreasuryAddress","outputs":[],"stateMutability":"nonpayable","type":"function"},{"inputs":[{"internalType":"address","name":"newAddress","type":"address"}],"name":"addWhitelistReceiver","outputs":[],"stateMutability":"nonpayable","type":"function"},{"inputs":[{"internalType":"address","name":"newAddress","type":"address"}],"name":"addWhitelistSender","outputs":[],"stateMutability":"nonpayable","type":"function"},{"inputs":[{"internalType":"address","name":"owner","type":"address"},{"internalType":"address","name":"spender","type":"address"}],"name":"allowance","outputs":[{"internalType":"uint256","name":"","type":"uint256"}],"stateMutability":"view","type":"function"},{"inputs":[{"internalType":"address","name":"spender","type":"address"},{"internalType":"uint256","name":"value","type":"uint256"}],"name":"approve","outputs":[{"internalType":"bool","name":"","type":"bool"}],"stateMutability":"nonpayable","type":"function"},{"inputs":[{"internalType":"address","name":"account","type":"address"}],"name":"balanceOf","outputs":[{"internalType":"uint256","name":"","type":"uint256"}],"stateMutability":"view","type":"function"},{"inputs":[{"internalType":"address","name":"from","type":"address"},{"internalType":"uint256","name":"amount","type":"uint256"}],"name":"burn","outputs":[],"stateMutability":"nonpayable","type":"function"},{"inputs":[],"name":"decimals","outputs":[{"internalType":"uint8","name":"","type":"uint8"}],"stateMutability":"pure","type":"function"},{"inputs":[{"internalType":"address","name":"account","type":"address"}],"name":"freezeAccount","outputs":[],"stateMutability":"nonpayable","type":"function"},{"inputs":[{"internalType":"address","name":"","type":"address"}],"name":"frozenAccounts","outputs":[{"internalType":"bool","name":"","type":"bool"}],"stateMutability":"view","type":"function"},{"inputs":[{"internalType":"bytes32","name":"role","type":"bytes32"}],"name":"getRoleAdmin","outputs":[{"internalType":"bytes32","name":"","type":"bytes32"}],"stateMutability":"view","type":"function"},{"inputs":[{"internalType":"bytes32","name":"role","type":"bytes32"},{"internalType":"uint256","name":"index","type":"uint256"}],"name":"getRoleMember","outputs":[{"internalType":"address","name":"","type":"address"}],"stateMutability":"view","type":"function"},{"inputs":[{"internalType":"bytes32","name":"role","type":"bytes32"}],"name":"getRoleMemberCount","outputs":[{"internalType":"uint256","name":"","type":"uint256"}],"stateMutability":"view","type":"function"},{"inputs":[{"internalType":"bytes32","name":"role","type":"bytes32"}],"name":"getRoleMembers","outputs":[{"internalType":"address[]","name":"","type":"address[]"}],"stateMutability":"view","type":"function"},{"inputs":[{"internalType":"bytes32","name":"role","type":"bytes32"},{"internalType":"address","name":"account","type":"address"}],"name":"grantRole","outputs":[],"stateMutability":"nonpayable","type":"function"},{"inputs":[{"internalType":"bytes32","name":"role","type":"bytes32"},{"internalType":"address","name":"account","type":"address"}],"name":"hasRole","outputs":[{"internalType":"bool","name":"","type":"bool"}],"stateMutability":"view","type":"function"},{"inputs":[{"internalType":"address","name":"initialAdmin","type":"address"}],"name":"initialize","outputs":[],"stateMutability":"nonpayable","type":"function"},{"inputs":[{"internalType":"address","name":"forwarder","type":"address"}],"name":"isTrustedForwarder","outputs":[{"internalType":"bool","name":"","type":"bool"}],"stateMutability":"view","type":"function"},{"inputs":[{"internalType":"address","name":"to","type":"address"},{"internalType":"uint256","name":"amount","type":"uint256"}],"name":"mint","outputs":[],"stateMutability":"nonpayable","type":"function"},{"inputs":[],"name":"name","outputs":[{"internalType":"string","name":"","type":"string"}],"stateMutability":"view","type":"function"},{"inputs":[{"internalType":"address","name":"newAdmin","type":"address"}],"name":"nominateAdmin","outputs":[],"stateMutability":"nonpayable","type":"function"},{"inputs":[],"name":"nominatedAdmin","outputs":[{"internalType":"address","name":"","type":"address"}],"stateMutability":"view","type":"function"},{"inputs":[{"internalType":"address","name":"treasuryAddress","type":"address"}],"name":"removeTreasuryAddress","outputs":[],"stateMutability":"nonpayable","type":"function"},{"inputs":[{"internalType":"address","name":"receiverAddress","type":"address"}],"name":"removeWhitelistReceiver","outputs":[],"stateMutability":"nonpayable","type":"function"},{"inputs":[{"internalType":"address","name":"senderAddress","type":"address"}],"name":"removeWhitelistSender","outputs":[],"stateMutability":"nonpayable","type":"function"},{"inputs":[{"internalType":"bytes32","name":"role","type":"bytes32"},{"internalType":"address","name":"callerConfirmation","type":"address"}],"name":"renounceRole","outputs":[],"stateMutability":"nonpayable","type":"function"},{"inputs":[{"internalType":"bytes32","name":"role","type":"bytes32"},{"internalType":"address","name":"account","type":"address"}],"name":"revokeRole","outputs":[],"stateMutability":"nonpayable","type":"function"},{"inputs":[{"internalType":"address","name":"_trustedForwarder","type":"address"},{"internalType":"bool","name":"_isTrusted","type":"bool"}],"name":"setTrustedForwarder","outputs":[],"stateMutability":"nonpayable","type":"function"},{"inputs":[{"internalType":"bytes4","name":"interfaceId","type":"bytes4"}],"name":"supportsInterface","outputs":[{"internalType":"bool","name":"","type":"bool"}],"stateMutability":"view","type":"function"},{"inputs":[],"name":"symbol","outputs":[{"internalType":"string","name":"","type":"string"}],"stateMutability":"view","type":"function"},{"inputs":[],"name":"totalSupply","outputs":[{"internalType":"uint256","name":"","type":"uint256"}],"stateMutability":"view","type":"function"},{"inputs":[{"internalType":"address","name":"to","type":"address"},{"internalType":"uint256","name":"amount","type":"uint256"}],"name":"transfer","outputs":[{"internalType":"bool","name":"","type":"bool"}],"stateMutability":"nonpayable","type":"function"},{"inputs":[{"internalType":"address","name":"from","type":"address"},{"internalType":"address","name":"to","type":"address"},{"internalType":"uint256","name":"amount","type":"uint256"}],"name":"transferFrom","outputs":[{"internalType":"bool","name":"","type":"bool"}],"stateMutability":"nonpayable","type":"function"},{"inputs":[{"internalType":"address","name":"","type":"address"}],"name":"trustedForwarder","outputs":[{"internalType":"bool","name":"","type":"bool"}],"stateMutability":"view","type":"function"},{"inputs":[{"internalType":"address","name":"account","type":"address"}],"name":"unfreezeAccount","outputs":[],"stateMutability":"nonpayable","type":"function"},{"inputs":[{"internalType":"address","name":"newBurnVault","type":"address"}],"name":"updateBurnVault","outputs":[],"stateMutability":"nonpayable","type":"function"},{"inputs":[{"internalType":"address","name":"newMinter","type":"address"}],"name":"updateMinter","outputs":[],"stateMutability":"nonpayable","type":"function"}],"evm":{"bytecode":{"linkReferences":{},"object":"60806040523480156200001157600080fd5b506200001c62000022565b620000d6565b7ff0c57e16840df040f15088dc2f81fe391c3923bec73e23a9662efc9c229c6a00805468010000000000000000900460ff1615620000735760405163f92ee8a960e01b815260040160405180910390fd5b80546001600160401b0390811614620000d35780546001600160401b0319166001600160401b0390811782556040519081527fc7f505b2f371ae2175ee4913f4499e1f2633a7b5936321eed1cdaeb6115181d29060200160405180910390a15b50565b612e7d80620000e66000396000f3fe608060405234801561001057600080fd5b506004361061027f5760003560e01c80639010d07c1161015c578063ca15c873116100ce578063d547741f11610087578063d547741f1461060a578063dd62ed3e1461061d578063e691d03b14610630578063e8ac653314610643578063f26c159f14610656578063f72c0d8b1461066957600080fd5b8063ca15c87314610594578063cd5ad4c5146105a7578063d11a57ec146105ba578063d403c878146105cf578063d4179e8d146105e2578063d5391393146105f557600080fd5b8063a3246ad311610120578063a3246ad314610513578063a8422c2f14610533578063a9059cbb14610548578063bae5ec041461055b578063c4d66de81461056e578063c80eeec21461058157600080fd5b80639010d07c146104b257806391d14854146104dd57806395d89b41146104f05780639dc29fac146104f8578063a217fddf1461050b57600080fd5b806335f14f14116101f5578063572b6c05116101b9578063572b6c05146103ef57806370a082311461041b57806376b8802414610451578063788649ea14610474578063860838a5146104875780638c3d7301146104aa57600080fd5b806335f14f141461038e57806336568abe146103a15780633a594a1d146103b457806340c10f19146103c95780634eb03f6e146103dc57600080fd5b8063175badcb11610247578063175badcb1461030c57806318160ddd1461031f57806323b872dd14610346578063248a9ca3146103595780632f2ff15d1461036c578063313ce5671461037f57600080fd5b806301ffc9a71461028457806306fdde03146102ac578063095ea7b3146102c15780630ee3153f146102d457806314eeb828146102e9575b600080fd5b6102976102923660046127c3565b610690565b60405190151581526020015b60405180910390f35b6102b46106bb565b6040516102a391906127ed565b6102976102cf366004612858565b61077e565b6102e76102e2366004612882565b6107a0565b005b6102fe600080516020612d6883398151915281565b6040519081526020016102a3565b6102e761031a366004612882565b610930565b7f52c63247e1f47db19d5ce0460030c497f067ca4cebf71ba98eeadabe20bace02546102fe565b61029761035436600461289d565b610a59565b6102fe6103673660046128d9565b610c13565b6102e761037a3660046128f2565b610c35565b604051600881526020016102a3565b6102e761039c366004612882565b610c57565b6102e76103af3660046128f2565b610dba565b6102fe600080516020612e2883398151915281565b6102e76103d7366004612858565b610e02565b6102e76103ea366004612882565b610f15565b6102976103fd366004612882565b6001600160a01b031660009081526002602052604090205460ff1690565b6102fe610429366004612882565b6001600160a01b03166000908152600080516020612d88833981519152602052604090205490565b61029761045f366004612882565b60026020526000908152604090205460ff1681565b6102e7610482366004612882565b611053565b610297610495366004612882565b60016020526000908152604090205460ff1681565b6102e76110d1565b6104c56104c036600461291e565b611230565b6040516001600160a01b0390911681526020016102a3565b6102976104eb3660046128f2565b61125f565b6102b4611297565b6102e7610506366004612858565b6112d6565b6102fe600081565b6105266105213660046128d9565b611349565b6040516102a39190612940565b6102fe600080516020612da883398151915281565b610297610556366004612858565b61137b565b6102e7610569366004612882565b611520565b6102e761057c366004612882565b6116d4565b6102e761058f366004612882565b6118a7565b6102fe6105a23660046128d9565b6119bf565b6102e76105b5366004612882565b6119e5565b6102fe600080516020612e0883398151915281565b6102e76105dd366004612882565b611b0c565b6102e76105f0366004612882565b611c26565b6102fe600080516020612dc883398151915281565b6102e76106183660046128f2565b611d2e565b6102fe61062b36600461298d565b611d4a565b6102e761063e3660046129b7565b611d94565b6000546104c5906001600160a01b031681565b6102e7610664366004612882565b611dcb565b6102fe7f189ab7a9244df0848122154315af71fe140f3db0fe014031783b0946b8c9d2e381565b60006001600160e01b03198216635a05180f60e01b14806106b557506106b582611e4f565b92915050565b7f52c63247e1f47db19d5ce0460030c497f067ca4cebf71ba98eeadabe20bace038054606091600080516020612d88833981519152916106fa906129f3565b80601f0160208091040260200160405190810160405280929190818152602001828054610726906129f3565b80156107735780601f1061074857610100808354040283529160200191610773565b820191906000526020600020905b81548152906001019060200180831161075657829003601f168201915b505050505091505090565b600080610789611e84565b9050610796818585611e93565b5060019392505050565b60006107ab81611ea0565b816001600160a01b0381166107d357604051636e5ec59f60e01b815260040160405180910390fd5b6107eb600080516020612d688339815191528461125f565b6108355760405162461bcd60e51b81526020600482015260166024820152752737ba103bb434ba32b634b9ba32b21039b2b73232b960511b60448201526064015b60405180910390fd5b61084d600080516020612e088339815191528461125f565b156108935760405162461bcd60e51b815260206004820152601660248201527543616e6e6f742072656d6f766520747265617375727960501b604482015260640161082c565b6108ab600080516020612d6883398151915284611eb4565b50826001600160a01b03167f0e178bf7cc940ed3c4d14c1206db670ab5b94749d88646dc197f874a32372ea56040516109239060208082526025908201527f53656e64657220416464726573732052656d6f7665642046726f6d2057686974604082015264195b1a5cdd60da1b606082015260800190565b60405180910390a2505050565b600061093b81611ea0565b816001600160a01b03811661096357604051636e5ec59f60e01b815260040160405180910390fd5b61097b600080516020612da88339815191528461125f565b6109c75760405162461bcd60e51b815260206004820152601860248201527f4e6f742077686974656c69737465642072656365697665720000000000000000604482015260640161082c565b6109df600080516020612da883398151915284611eb4565b50826001600160a01b03167faaf02ba1bcb5b6c4b56e5b51c64ffb18bd8ed3760523f4d845a3c0cc0a8592446040516109239060208082526027908201527f526563656976657220416464726573732052656d6f7665642046726f6d2057686040820152661a5d195b1a5cdd60ca1b606082015260800190565b60008180600003610a7d5760405163162908e360e11b815260040160405180910390fd5b836001600160a01b038116610aa557604051636e5ec59f60e01b815260040160405180910390fd5b6001600160a01b038616600090815260016020526040902054869060ff1615610ae05760405162461bcd60e51b815260040161082c90612a2d565b6001600160a01b038616600090815260016020526040902054869060ff1615610b1b5760405162461bcd60e51b815260040161082c90612a2d565b8787816001600160a01b0316816001600160a01b031603610b785760405162461bcd60e51b815260206004820152601760248201527621b0b73737ba103a3930b739b332b9103a379039b2b63360491b604482015260640161082c565b610b90600080516020612d688339815191528361125f565b80610bae5750610bae600080516020612da88339815191528261125f565b610bfa5760405162461bcd60e51b815260206004820152601a60248201527f496e76616c69642073656e646572206f72207265636569766572000000000000604482015260640161082c565b610c058a8a8a611ef9565b9a9950505050505050505050565b6000908152600080516020612de8833981519152602052604090206001015490565b610c3e82610c13565b610c4781611ea0565b610c518383611f27565b50505050565b6000610c6281611ea0565b816001600160a01b038116610c8a57604051636e5ec59f60e01b815260040160405180910390fd5b610ca2600080516020612e288339815191528461125f565b15610ce45760405162461bcd60e51b8152602060048201526012602482015271105b1c9958591e48189d5c9b881d985d5b1d60721b604482015260640161082c565b6000610cff600080516020612e288339815191526000611230565b90506001600160a01b03811615610d2a57610d28600080516020612e2883398151915282611eb4565b505b610d42600080516020612e2883398151915285611f27565b50836001600160a01b03167f27cb0b1f15cf273268c02c4ac770f2121077509fd09f76000f26fef2107c8e39604051610dac9060208082526018908201527f4275726e61626c65204164647265737320557064617465640000000000000000604082015260600190565b60405180910390a250505050565b610dc2611e84565b6001600160a01b0316816001600160a01b031614610df35760405163334bd91960e11b815260040160405180910390fd5b610dfd8282611eb4565b505050565b600080516020612dc8833981519152610e1a81611ea0565b8180600003610e3c5760405163162908e360e11b815260040160405180910390fd5b836001600160a01b038116610e6457604051636e5ec59f60e01b815260040160405180910390fd5b610e7c600080516020612e088339815191528661125f565b610ec15760405162461bcd60e51b81526020600482015260166024820152754e6f742061207472656173757279206164647265737360501b604482015260640161082c565b610ecb8585611f63565b846001600160a01b03167fbfa21aa5d5f9a1f0120a95e7c0749f389863cbdbfff531aa7339077a5bc919de85604051610f0691815260200190565b60405180910390a25050505050565b6000610f2081611ea0565b816001600160a01b038116610f4857604051636e5ec59f60e01b815260040160405180910390fd5b610f60600080516020612dc88339815191528461125f565b15610f9e5760405162461bcd60e51b815260206004820152600e60248201526d20b63932b0b23c9036b4b73a32b960911b604482015260640161082c565b6000610fb9600080516020612dc88339815191526000611230565b90506001600160a01b03811615610fe457610fe2600080516020612dc883398151915282611eb4565b505b610ffc600080516020612dc883398151915285611f27565b50836001600160a01b03167f6de4157337b92becadb23ac8c53bdcaba13d56eaa4e2350eff3e65c4d1d84c7c604051610dac906020808252600a90820152692732bb9026b4b73a32b960b11b604082015260600190565b600061105e81611ea0565b816001600160a01b03811661108657604051636e5ec59f60e01b815260040160405180910390fd5b6001600160a01b038316600081815260016020526040808220805460ff19169055517ff915cd9fe234de6e8d3afe7bf2388d35b2b6d48e8c629a24602019bde79c213a9190a2505050565b33806110f057604051636e5ec59f60e01b815260040160405180910390fd5b6000546001600160a01b0316331461113a5760405162461bcd60e51b815260206004820152600d60248201526c139bdd081b9bdb5a5b985d1959609a1b604482015260640161082c565b6000546001600160a01b031661118a5760405162461bcd60e51b81526020600482015260156024820152742737903832b73234b733903737b6b4b730ba34b7b760591b604482015260640161082c565b60006111968180611230565b90506001600160a01b038116156111b4576111b2600082611eb4565b505b6111bf600033611f27565b50600080546001600160a01b031916905560405133907f33357bb61b6ce4d9e2a54fd3d9ec5807e7df4bbd6ba3fa1b0860c0a1a39e700a90611224906020808252600f908201526e13995dc810591b5a5b881059191959608a1b604082015260600190565b60405180910390a25050565b6000828152600080516020612d488339815191526020819052604082206112579084611f9d565b949350505050565b6000918252600080516020612de8833981519152602090815260408084206001600160a01b0393909316845291905290205460ff1690565b7f52c63247e1f47db19d5ce0460030c497f067ca4cebf71ba98eeadabe20bace048054606091600080516020612d88833981519152916106fa906129f3565b600080516020612e288339815191526112ee81611ea0565b81806000036113105760405163162908e360e11b815260040160405180910390fd5b836001600160a01b03811661133857604051636e5ec59f60e01b815260040160405180910390fd5b6113428585611fa9565b5050505050565b6000818152600080516020612d48833981519152602081905260409091206060919061137490611fdf565b9392505050565b6000818060000361139f5760405163162908e360e11b815260040160405180910390fd5b836001600160a01b0381166113c757604051636e5ec59f60e01b815260040160405180910390fd5b3360008181526001602052604090205460ff16156113f75760405162461bcd60e51b815260040161082c90612a2d565b6001600160a01b038616600090815260016020526040902054869060ff16156114325760405162461bcd60e51b815260040161082c90612a2d565b33876001600160a01b0381168290036114875760405162461bcd60e51b815260206004820152601760248201527621b0b73737ba103a3930b739b332b9103a379039b2b63360491b604482015260640161082c565b61149f600080516020612d688339815191528361125f565b806114bd57506114bd600080516020612da88339815191528261125f565b6115095760405162461bcd60e51b815260206004820152601a60248201527f496e76616c69642073656e646572206f72207265636569766572000000000000604482015260640161082c565b6115138989611fec565b9998505050505050505050565b600061152b81611ea0565b816001600160a01b03811661155357604051636e5ec59f60e01b815260040160405180910390fd5b61156b600080516020612e088339815191528461125f565b156115ab5760405162461bcd60e51b815260206004820152601060248201526f416c726561647920747265617375727960801b604482015260640161082c565b6115c3600080516020612e0883398151915284611f27565b506115dc600080516020612d688339815191528461125f565b61166b576115f8600080516020612d6883398151915284611f27565b50826001600160a01b03167fa148f9af0f634918fbaf23b2be442ee99c628242fb2805bf87c08e4be7a1afac604051611662906020808252601e908201527f4e65772053656e64657220416464726573732057686974656c69737465640000604082015260600190565b60405180910390a25b826001600160a01b03167fd93a23cfa249287d5dd4d056066c79b1a45bc8608890ea92b4dafa6e874b3fd0604051610923906020808252601a908201527f4e65772054726561737572792041646472657373204164646564000000000000604082015260600190565b60006116de612004565b805490915060ff600160401b820416159067ffffffffffffffff166000811580156117065750825b905060008267ffffffffffffffff1660011480156117235750303b155b905081158015611731575080155b1561174f5760405163f92ee8a960e01b815260040160405180910390fd5b845467ffffffffffffffff19166001178555831561177957845460ff60401b1916600160401b1785555b6117bd604051806040016040528060058152602001643925a3a2a760d91b815250604051806040016040528060058152602001643925a3a2a760d91b81525061202d565b6117c561203f565b6117cd612049565b6117d8600087611f27565b506117f1600080516020612dc883398151915287611f27565b5061180a600080516020612e2883398151915287611f27565b506118357f189ab7a9244df0848122154315af71fe140f3db0fe014031783b0946b8c9d2e387611f27565b50611859866118466008600a612b52565b611854906317d78400612b61565b611f63565b831561189f57845460ff60401b19168555604051600181527fc7f505b2f371ae2175ee4913f4499e1f2633a7b5936321eed1cdaeb6115181d29060200160405180910390a15b505050505050565b60006118b281611ea0565b816001600160a01b0381166118da57604051636e5ec59f60e01b815260040160405180910390fd5b6118f2600080516020612da88339815191528461125f565b1561193f5760405162461bcd60e51b815260206004820152601c60248201527f416c72656164792077686974656c697374656420726563656976657200000000604482015260640161082c565b611957600080516020612da883398151915284611f27565b50826001600160a01b03167ffe6d2d6f86f1b4f5f6d5833a27d9eb52bba0f8aad51eb089023c6a4dcfd21a8f604051610923906020808252818101527f4e657720526563656976657220416464726573732057686974656c6973746564604082015260600190565b6000818152600080516020612d4883398151915260208190526040822061137490612059565b60006119f081611ea0565b816001600160a01b038116611a1857604051636e5ec59f60e01b815260040160405180910390fd5b336001600160a01b03841603611a675760405162461bcd60e51b815260206004820152601460248201527321b0b73737ba103737b6b4b730ba329039b2b63360611b604482015260640161082c565b600080546001600160a01b0385166001600160a01b031990911681179091556040517fa9c1d417fdb88c493dbab369bd79c043aa4c6c9522a681d9334ba091ede58cd990610923906020808252603a908201527f4e65772041646d696e204e6f6d696e617465642c204e6f77206e65772061646d60408201527f696e206e65656420746f206163636570742074686520726f6c65000000000000606082015260800190565b6000611b1781611ea0565b816001600160a01b038116611b3f57604051636e5ec59f60e01b815260040160405180910390fd5b611b57600080516020612d688339815191528461125f565b15611ba45760405162461bcd60e51b815260206004820152601a60248201527f416c72656164792077686974656c69737465642073656e646572000000000000604482015260640161082c565b611bbc600080516020612d6883398151915284611f27565b50826001600160a01b03167fa148f9af0f634918fbaf23b2be442ee99c628242fb2805bf87c08e4be7a1afac604051610923906020808252601e908201527f4e65772053656e64657220416464726573732057686974656c69737465640000604082015260600190565b6000611c3181611ea0565b816001600160a01b038116611c5957604051636e5ec59f60e01b815260040160405180910390fd5b611c71600080516020612e088339815191528461125f565b611cac5760405162461bcd60e51b815260206004820152600c60248201526b4e6f7420747265617375727960a01b604482015260640161082c565b611cc4600080516020612e0883398151915284611eb4565b50826001600160a01b03167f238be719becf7de7673229da18d51189916a74316ccd29739e8bf3fa30288d876040516109239060208082526018908201527f547265617375727920416464726573732052656d6f7665640000000000000000604082015260600190565b611d3782610c13565b611d4081611ea0565b610c518383611eb4565b6001600160a01b0391821660009081527f52c63247e1f47db19d5ce0460030c497f067ca4cebf71ba98eeadabe20bace016020908152604080832093909416825291909152205490565b6000611d9f81611ea0565b506001600160a01b03919091166000908152600260205260409020805460ff1916911515919091179055565b6000611dd681611ea0565b816001600160a01b038116611dfe57604051636e5ec59f60e01b815260040160405180910390fd5b6001600160a01b0383166000818152600160208190526040808320805460ff1916909217909155517f4f2a367e694e71282f29ab5eaa04c4c0be45ac5bf2ca74fb67068b98bdc2887d9190a2505050565b60006001600160e01b03198216637965db0b60e01b14806106b557506301ffc9a760e01b6001600160e01b03198316146106b5565b6000611e8e612063565b905090565b610dfd83838360016120bf565b611eb181611eac611e84565b6121a6565b50565b6000600080516020612d4883398151915281611ed085856121df565b90508015611257576000858152602083905260409020611ef09085612283565b50949350505050565b600080611f04611e84565b9050611f11858285612298565b611f1c8585856122f9565b506001949350505050565b6000600080516020612d4883398151915281611f438585612358565b90508015611257576000858152602083905260409020611ef090856123f4565b6001600160a01b038216611f8d5760405163ec442f0560e01b81526000600482015260240161082c565b611f9960008383612409565b5050565b60006113748383612547565b6001600160a01b038216611fd357604051634b637e8f60e11b81526000600482015260240161082c565b611f9982600083612409565b6060600061137483612571565b600080611ff7611e84565b90506107968185856122f9565b6000807ff0c57e16840df040f15088dc2f81fe391c3923bec73e23a9662efc9c229c6a006106b5565b6120356125cd565b611f9982826125f2565b6120476125cd565b565b6120516125cd565b612047612643565b60006106b5825490565b33600090815260026020526040812054369060149060ff1680156120875750808210155b156120b7576000366120998385612b78565b6120a4928290612b8b565b6120ad91612bb5565b60601c9250505090565b339250505090565b600080516020612d888339815191526001600160a01b0385166120f85760405163e602df0560e01b81526000600482015260240161082c565b6001600160a01b03841661212257604051634a1406b160e11b81526000600482015260240161082c565b6001600160a01b0380861660009081526001830160209081526040808320938816835292905220839055811561134257836001600160a01b0316856001600160a01b03167f8c5be1e5ebec7d5bd14f71427d1e84f3dd0314c0f7b2291e5b200ac8c7c3b9258560405161219791815260200190565b60405180910390a35050505050565b6121b0828261125f565b611f995760405163e2517d3f60e01b81526001600160a01b03821660048201526024810183905260440161082c565b6000600080516020612de88339815191526121fa848461125f565b15612279576000848152602082815260408083206001600160a01b03871684529091529020805460ff1916905561222f611e84565b6001600160a01b0316836001600160a01b0316857ff6391f5c32d9c69d2a47ea670b442974b53935d1edc7fd64eb21e047a839171b60405160405180910390a460019150506106b5565b60009150506106b5565b6000611374836001600160a01b038416612671565b60006122a48484611d4a565b9050600019811015610c5157818110156122ea57604051637dc7a0d960e11b81526001600160a01b0384166004820152602481018290526044810183905260640161082c565b610c51848484840360006120bf565b6001600160a01b03831661232357604051634b637e8f60e11b81526000600482015260240161082c565b6001600160a01b03821661234d5760405163ec442f0560e01b81526000600482015260240161082c565b610dfd838383612409565b6000600080516020612de8833981519152612373848461125f565b612279576000848152602082815260408083206001600160a01b03871684529091529020805460ff191660011790556123aa611e84565b6001600160a01b0316836001600160a01b0316857f2f8788117e7eff1d82e926ec794901d17c78024a50270940304540a733656f0d60405160405180910390a460019150506106b5565b6000611374836001600160a01b03841661275a565b600080516020612d888339815191526001600160a01b038416612445578181600201600082825461243a9190612bea565b909155506124b79050565b6001600160a01b038416600090815260208290526040902054828110156124985760405163391434e360e21b81526001600160a01b0386166004820152602481018290526044810184905260640161082c565b6001600160a01b03851660009081526020839052604090209083900390555b6001600160a01b0383166124d55760028101805483900390556124f4565b6001600160a01b03831660009081526020829052604090208054830190555b826001600160a01b0316846001600160a01b03167fddf252ad1be2c89b69c2b068fc378daa952ba7f163c4a11628f55a4df523b3ef8460405161253991815260200190565b60405180910390a350505050565b600082600001828154811061255e5761255e612bfd565b9060005260206000200154905092915050565b6060816000018054806020026020016040519081016040528092919081815260200182805480156125c157602002820191906000526020600020905b8154815260200190600101908083116125ad575b50505050509050919050565b6125d56127a9565b61204757604051631afcd79f60e31b815260040160405180910390fd5b6125fa6125cd565b600080516020612d888339815191527f52c63247e1f47db19d5ce0460030c497f067ca4cebf71ba98eeadabe20bace036126348482612c71565b5060048101610c518382612c71565b61264b6125cd565b60017f9b779b17422d0df92223018b32b4d1fa46e071723d6817e2486d003becc55f0055565b60008181526001830160205260408120548015612279576000612695600183612b78565b85549091506000906126a990600190612b78565b905080821461270e5760008660000182815481106126c9576126c9612bfd565b90600052602060002001549050808760000184815481106126ec576126ec612bfd565b6000918252602080832090910192909255918252600188019052604090208390555b855486908061271f5761271f612d31565b6001900381819060005260206000200160009055905585600101600086815260200190815260200160002060009055600193505050506106b5565b60008181526001830160205260408120546127a1575081546001818101845560008481526020808220909301849055845484825282860190935260409020919091556106b5565b5060006106b5565b60006127b3612004565b54600160401b900460ff16919050565b6000602082840312156127d557600080fd5b81356001600160e01b03198116811461137457600080fd5b60006020808352835180602085015260005b8181101561281b578581018301518582016040015282016127ff565b506000604082860101526040601f19601f8301168501019250505092915050565b80356001600160a01b038116811461285357600080fd5b919050565b6000806040838503121561286b57600080fd5b6128748361283c565b946020939093013593505050565b60006020828403121561289457600080fd5b6113748261283c565b6000806000606084860312156128b257600080fd5b6128bb8461283c565b92506128c96020850161283c565b9150604084013590509250925092565b6000602082840312156128eb57600080fd5b5035919050565b6000806040838503121561290557600080fd5b823591506129156020840161283c565b90509250929050565b6000806040838503121561293157600080fd5b50508035926020909101359150565b6020808252825182820181905260009190848201906040850190845b818110156129815783516001600160a01b03168352928401929184019160010161295c565b50909695505050505050565b600080604083850312156129a057600080fd5b6129a98361283c565b91506129156020840161283c565b600080604083850312156129ca57600080fd5b6129d38361283c565b9150602083013580151581146129e857600080fd5b809150509250929050565b600181811c90821680612a0757607f821691505b602082108103612a2757634e487b7160e01b600052602260045260246000fd5b50919050565b60208082526011908201527020b1b1b7bab73a1034b990333937bd32b760791b604082015260600190565b634e487b7160e01b600052601160045260246000fd5b600181815b80851115612aa9578160001904821115612a8f57612a8f612a58565b80851615612a9c57918102915b93841c9390800290612a73565b509250929050565b600082612ac0575060016106b5565b81612acd575060006106b5565b8160018114612ae35760028114612aed57612b09565b60019150506106b5565b60ff841115612afe57612afe612a58565b50506001821b6106b5565b5060208310610133831016604e8410600b8410161715612b2c575081810a6106b5565b612b368383612a6e565b8060001904821115612b4a57612b4a612a58565b029392505050565b600061137460ff841683612ab1565b80820281158282048414176106b5576106b5612a58565b818103818111156106b5576106b5612a58565b60008085851115612b9b57600080fd5b83861115612ba857600080fd5b5050820193919092039150565b6bffffffffffffffffffffffff198135818116916014851015612be25780818660140360031b1b83161692505b505092915050565b808201808211156106b5576106b5612a58565b634e487b7160e01b600052603260045260246000fd5b634e487b7160e01b600052604160045260246000fd5b601f821115610dfd576000816000526020600020601f850160051c81016020861015612c525750805b601f850160051c820191505b8181101561189f57828155600101612c5e565b815167ffffffffffffffff811115612c8b57612c8b612c13565b612c9f81612c9984546129f3565b84612c29565b602080601f831160018114612cd45760008415612cbc5750858301515b600019600386901b1c1916600185901b17855561189f565b600085815260208120601f198616915b82811015612d0357888601518255948401946001909101908401612ce4565b5085821015612d215787850151600019600388901b60f8161c191681555b5050505050600190811b01905550565b634e487b7160e01b600052603160045260246000fdfec1f6fe24621ce81ec5827caf0253cadb74709b061630e6b55e82371705932000d22ed3a112884bd9fd6003b71d02c2a671cf1ddcc8740e9a0a8e3ab3973e344f52c63247e1f47db19d5ce0460030c497f067ca4cebf71ba98eeadabe20bace00da4d20b686f7404041d4a40bc922508734f59795e8a7394e246602eb8ec5b77b9f2df0fed2c77648de5860a4cc508cd0818c85b8b8a1ab4ceeef8d981c8956a602dd7bc7dec4dceedda775e58dd541e08a116c6c53815c0bd028192f7b626800e1dcbdb91df27212a29bc27177c840cf2f819ecf2187432e1fac86c2dd5dfca9cb4c1560f0ac783af04187bda6c71d491dee6a63e28b3ad8457b60790f38eebaa26469706673582212200b34e04657972da5769e85e3639cf6947222a4df6dfc41aaa3c0820f52355d8164736f6c63430008160033","opcodes":"PUSH1 0x80 PUSH1 0x40 MSTORE CALLVALUE DUP1 ISZERO PUSH3 0x11 JUMPI PUSH1 0x0 DUP1 REVERT JUMPDEST POP PUSH3 0x1C PUSH3 0x22 JUMP JUMPDEST PUSH3 0xD6 JUMP JUMPDEST PUSH32 0xF0C57E16840DF040F15088DC2F81FE391C3923BEC73E23A9662EFC9C229C6A00 DUP1 SLOAD PUSH9 0x10000000000000000 SWAP1 DIV PUSH1 0xFF AND ISZERO PUSH3 0x73 JUMPI PUSH1 0x40 MLOAD PUSH4 0xF92EE8A9 PUSH1 0xE0 SHL DUP2 MSTORE PUSH1 0x4 ADD PUSH1 0x40 MLOAD DUP1 SWAP2 SUB SWAP1 REVERT JUMPDEST DUP1 SLOAD PUSH1 0x1 PUSH1 0x1 PUSH1 0x40 SHL SUB SWAP1 DUP2 AND EQ PUSH3 0xD3 JUMPI DUP1 SLOAD PUSH1 0x1 PUSH1 0x1 PUSH1 0x40 SHL SUB NOT AND PUSH1 0x1 PUSH1 0x1 PUSH1 0x40 SHL SUB SWAP1 DUP2 OR DUP3 SSTORE PUSH1 0x40 MLOAD SWAP1 DUP2 MSTORE PUSH32 0xC7F505B2F371AE2175EE4913F4499E1F2633A7B5936321EED1CDAEB6115181D2 SWAP1 PUSH1 0x20 ADD PUSH1 0x40 MLOAD DUP1 SWAP2 SUB SWAP1 LOG1 JUMPDEST POP JUMP JUMPDEST PUSH2 0x2E7D DUP1 PUSH3 0xE6 PUSH1 0x0 CODECOPY PUSH1 0x0 RETURN INVALID PUSH1 0x80 PUSH1 0x40 MSTORE CALLVALUE DUP1 ISZERO PUSH2 0x10 JUMPI PUSH1 0x0 DUP1 REVERT JUMPDEST POP PUSH1 0x4 CALLDATASIZE LT PUSH2 0x27F JUMPI PUSH1 0x0 CALLDATALOAD PUSH1 0xE0 SHR DUP1 PUSH4 0x9010D07C GT PUSH2 0x15C JUMPI DUP1 PUSH4 0xCA15C873 GT PUSH2 0xCE JUMPI DUP1 PUSH4 0xD547741F GT PUSH2 0x87 JUMPI DUP1 PUSH4 0xD547741F EQ PUSH2 0x60A JUMPI DUP1 PUSH4 0xDD62ED3E EQ PUSH2 0x61D JUMPI DUP1 PUSH4 0xE691D03B EQ PUSH2 0x630 JUMPI DUP1 PUSH4 0xE8AC6533 EQ PUSH2 0x643 JUMPI DUP1 PUSH4 0xF26C159F EQ PUSH2 0x656 JUMPI DUP1 PUSH4 0xF72C0D8B EQ PUSH2 0x669 JUMPI PUSH1 0x0 DUP1 REVERT JUMPDEST DUP1 PUSH4 0xCA15C873 EQ PUSH2 0x594 JUMPI DUP1 PUSH4 0xCD5AD4C5 EQ PUSH2 0x5A7 JUMPI DUP1 PUSH4 0xD11A57EC EQ PUSH2 0x5BA JUMPI DUP1 PUSH4 0xD403C878 EQ PUSH2 0x5CF JUMPI DUP1 PUSH4 0xD4179E8D EQ PUSH2 0x5E2 JUMPI DUP1 PUSH4 0xD5391393 EQ PUSH2 0x5F5 JUMPI PUSH1 0x0 DUP1 REVERT JUMPDEST DUP1 PUSH4 0xA3246AD3 GT PUSH2 0x120 JUMPI DUP1 PUSH4 0xA3246AD3 EQ PUSH2 0x513 JUMPI DUP1 PUSH4 0xA8422C2F EQ PUSH2 0x533 JUMPI DUP1 PUSH4 0xA9059CBB EQ PUSH2 0x548 JUMPI DUP1 PUSH4 0xBAE5EC04 EQ PUSH2 0x55B JUMPI DUP1 PUSH4 0xC4D66DE8 EQ PUSH2 0x56E JUMPI DUP1 PUSH4 0xC80EEEC2 EQ PUSH2 0x581 JUMPI PUSH1 0x0 DUP1 REVERT JUMPDEST DUP1 PUSH4 0x9010D07C EQ PUSH2 0x4B2 JUMPI DUP1 PUSH4 0x91D14854 EQ PUSH2 0x4DD JUMPI DUP1 PUSH4 0x95D89B41 EQ PUSH2 0x4F0 JUMPI DUP1 PUSH4 0x9DC29FAC EQ PUSH2 0x4F8 JUMPI DUP1 PUSH4 0xA217FDDF EQ PUSH2 0x50B JUMPI PUSH1 0x0 DUP1 REVERT JUMPDEST DUP1 PUSH4 0x35F14F14 GT PUSH2 0x1F5 JUMPI DUP1 PUSH4 0x572B6C05 GT PUSH2 0x1B9 JUMPI DUP1 PUSH4 0x572B6C05 EQ PUSH2 0x3EF JUMPI DUP1 PUSH4 0x70A08231 EQ PUSH2 0x41B JUMPI DUP1 PUSH4 0x76B88024 EQ PUSH2 0x451 JUMPI DUP1 PUSH4 0x788649EA EQ PUSH2 0x474 JUMPI DUP1 PUSH4 0x860838A5 EQ PUSH2 0x487 JUMPI DUP1 PUSH4 0x8C3D7301 EQ PUSH2 0x4AA JUMPI PUSH1 0x0 DUP1 REVERT JUMPDEST DUP1 PUSH4 0x35F14F14 EQ PUSH2 0x38E JUMPI DUP1 PUSH4 0x36568ABE EQ PUSH2 0x3A1 JUMPI DUP1 PUSH4 0x3A594A1D EQ PUSH2 0x3B4 JUMPI DUP1 PUSH4 0x40C10F19 EQ PUSH2 0x3C9 JUMPI DUP1 PUSH4 0x4EB03F6E EQ PUSH2 0x3DC JUMPI PUSH1 0x0 DUP1 REVERT JUMPDEST DUP1 PUSH4 0x175BADCB GT PUSH2 0x247 JUMPI DUP1 PUSH4 0x175BADCB EQ PUSH2 0x30C JUMPI DUP1 PUSH4 0x18160DDD EQ PUSH2 0x31F JUMPI DUP1 PUSH4 0x23B872DD EQ PUSH2 0x346 JUMPI DUP1 PUSH4 0x248A9CA3 EQ PUSH2 0x359 JUMPI DUP1 PUSH4 0x2F2FF15D EQ PUSH2 0x36C JUMPI DUP1 PUSH4 0x313CE567 EQ PUSH2 0x37F JUMPI PUSH1 0x0 DUP1 REVERT JUMPDEST DUP1 PUSH4 0x1FFC9A7 EQ PUSH2 0x284 JUMPI DUP1 PUSH4 0x6FDDE03 EQ PUSH2 0x2AC JUMPI DUP1 PUSH4 0x95EA7B3 EQ PUSH2 0x2C1 JUMPI DUP1 PUSH4 0xEE3153F EQ PUSH2 0x2D4 JUMPI DUP1 PUSH4 0x14EEB828 EQ PUSH2 0x2E9 JUMPI JUMPDEST PUSH1 0x0 DUP1 REVERT JUMPDEST PUSH2 0x297 PUSH2 0x292 CALLDATASIZE PUSH1 0x4 PUSH2 0x27C3 JUMP JUMPDEST PUSH2 0x690 JUMP JUMPDEST PUSH1 0x40 MLOAD SWAP1 ISZERO ISZERO DUP2 MSTORE PUSH1 0x20 ADD JUMPDEST PUSH1 0x40 MLOAD DUP1 SWAP2 SUB SWAP1 RETURN JUMPDEST PUSH2 0x2B4 PUSH2 0x6BB JUMP JUMPDEST PUSH1 0x40 MLOAD PUSH2 0x2A3 SWAP2 SWAP1 PUSH2 0x27ED JUMP JUMPDEST PUSH2 0x297 PUSH2 0x2CF CALLDATASIZE PUSH1 0x4 PUSH2 0x2858 JUMP JUMPDEST PUSH2 0x77E JUMP JUMPDEST PUSH2 0x2E7 PUSH2 0x2E2 CALLDATASIZE PUSH1 0x4 PUSH2 0x2882 JUMP JUMPDEST PUSH2 0x7A0 JUMP JUMPDEST STOP JUMPDEST PUSH2 0x2FE PUSH1 0x0 DUP1 MLOAD PUSH1 0x20 PUSH2 0x2D68 DUP4 CODECOPY DUP2 MLOAD SWAP2 MSTORE DUP2 JUMP JUMPDEST PUSH1 0x40 MLOAD SWAP1 DUP2 MSTORE PUSH1 0x20 ADD PUSH2 0x2A3 JUMP JUMPDEST PUSH2 0x2E7 PUSH2 0x31A CALLDATASIZE PUSH1 0x4 PUSH2 0x2882 JUMP JUMPDEST PUSH2 0x930 JUMP JUMPDEST PUSH32 0x52C63247E1F47DB19D5CE0460030C497F067CA4CEBF71BA98EEADABE20BACE02 SLOAD PUSH2 0x2FE JUMP JUMPDEST PUSH2 0x297 PUSH2 0x354 CALLDATASIZE PUSH1 0x4 PUSH2 0x289D JUMP JUMPDEST PUSH2 0xA59 JUMP JUMPDEST PUSH2 0x2FE PUSH2 0x367 CALLDATASIZE PUSH1 0x4 PUSH2 0x28D9 JUMP JUMPDEST PUSH2 0xC13 JUMP JUMPDEST PUSH2 0x2E7 PUSH2 0x37A CALLDATASIZE PUSH1 0x4 PUSH2 0x28F2 JUMP JUMPDEST PUSH2 0xC35 JUMP JUMPDEST PUSH1 0x40 MLOAD PUSH1 0x8 DUP2 MSTORE PUSH1 0x20 ADD PUSH2 0x2A3 JUMP JUMPDEST PUSH2 0x2E7 PUSH2 0x39C CALLDATASIZE PUSH1 0x4 PUSH2 0x2882 JUMP JUMPDEST PUSH2 0xC57 JUMP JUMPDEST PUSH2 0x2E7 PUSH2 0x3AF CALLDATASIZE PUSH1 0x4 PUSH2 0x28F2 JUMP JUMPDEST PUSH2 0xDBA JUMP JUMPDEST PUSH2 0x2FE PUSH1 0x0 DUP1 MLOAD PUSH1 0x20 PUSH2 0x2E28 DUP4 CODECOPY DUP2 MLOAD SWAP2 MSTORE DUP2 JUMP JUMPDEST PUSH2 0x2E7 PUSH2 0x3D7 CALLDATASIZE PUSH1 0x4 PUSH2 0x2858 JUMP JUMPDEST PUSH2 0xE02 JUMP JUMPDEST PUSH2 0x2E7 PUSH2 0x3EA CALLDATASIZE PUSH1 0x4 PUSH2 0x2882 JUMP JUMPDEST PUSH2 0xF15 JUMP JUMPDEST PUSH2 0x297 PUSH2 0x3FD CALLDATASIZE PUSH1 0x4 PUSH2 0x2882 JUMP JUMPDEST PUSH1 0x1 PUSH1 0x1 PUSH1 0xA0 SHL SUB AND PUSH1 0x0 SWAP1 DUP2 MSTORE PUSH1 0x2 PUSH1 0x20 MSTORE PUSH1 0x40 SWAP1 KECCAK256 SLOAD PUSH1 0xFF AND SWAP1 JUMP JUMPDEST PUSH2 0x2FE PUSH2 0x429 CALLDATASIZE PUSH1 0x4 PUSH2 0x2882 JUMP JUMPDEST PUSH1 0x1 PUSH1 0x1 PUSH1 0xA0 SHL SUB AND PUSH1 0x0 SWAP1 DUP2 MSTORE PUSH1 0x0 DUP1 MLOAD PUSH1 0x20 PUSH2 0x2D88 DUP4 CODECOPY DUP2 MLOAD SWAP2 MSTORE PUSH1 0x20 MSTORE PUSH1 0x40 SWAP1 KECCAK256 SLOAD SWAP1 JUMP JUMPDEST PUSH2 0x297 PUSH2 0x45F CALLDATASIZE PUSH1 0x4 PUSH2 0x2882 JUMP JUMPDEST PUSH1 0x2 PUSH1 0x20 MSTORE PUSH1 0x0 SWAP1 DUP2 MSTORE PUSH1 0x40 SWAP1 KECCAK256 SLOAD PUSH1 0xFF AND DUP2 JUMP JUMPDEST PUSH2 0x2E7 PUSH2 0x482 CALLDATASIZE PUSH1 0x4 PUSH2 0x2882 JUMP JUMPDEST PUSH2 0x1053 JUMP JUMPDEST PUSH2 0x297 PUSH2 0x495 CALLDATASIZE PUSH1 0x4 PUSH2 0x2882 JUMP JUMPDEST PUSH1 0x1 PUSH1 0x20 MSTORE PUSH1 0x0 SWAP1 DUP2 MSTORE PUSH1 0x40 SWAP1 KECCAK256 SLOAD PUSH1 0xFF AND DUP2 JUMP JUMPDEST PUSH2 0x2E7 PUSH2 0x10D1 JUMP JUMPDEST PUSH2 0x4C5 PUSH2 0x4C0 CALLDATASIZE PUSH1 0x4 PUSH2 0x291E JUMP JUMPDEST PUSH2 0x1230 JUMP JUMPDEST PUSH1 0x40 MLOAD PUSH1 0x1 PUSH1 0x1 PUSH1 0xA0 SHL SUB SWAP1 SWAP2 AND DUP2 MSTORE PUSH1 0x20 ADD PUSH2 0x2A3 JUMP JUMPDEST PUSH2 0x297 PUSH2 0x4EB CALLDATASIZE PUSH1 0x4 PUSH2 0x28F2 JUMP JUMPDEST PUSH2 0x125F JUMP JUMPDEST PUSH2 0x2B4 PUSH2 0x1297 JUMP JUMPDEST PUSH2 0x2E7 PUSH2 0x506 CALLDATASIZE PUSH1 0x4 PUSH2 0x2858 JUMP JUMPDEST PUSH2 0x12D6 JUMP JUMPDEST PUSH2 0x2FE PUSH1 0x0 DUP2 JUMP JUMPDEST PUSH2 0x526 PUSH2 0x521 CALLDATASIZE PUSH1 0x4 PUSH2 0x28D9 JUMP JUMPDEST PUSH2 0x1349 JUMP JUMPDEST PUSH1 0x40 MLOAD PUSH2 0x2A3 SWAP2 SWAP1 PUSH2 0x2940 JUMP JUMPDEST PUSH2 0x2FE PUSH1 0x0 DUP1 MLOAD PUSH1 0x20 PUSH2 0x2DA8 DUP4 CODECOPY DUP2 MLOAD SWAP2 MSTORE DUP2 JUMP JUMPDEST PUSH2 0x297 PUSH2 0x556 CALLDATASIZE PUSH1 0x4 PUSH2 0x2858 JUMP JUMPDEST PUSH2 0x137B JUMP JUMPDEST PUSH2 0x2E7 PUSH2 0x569 CALLDATASIZE PUSH1 0x4 PUSH2 0x2882 JUMP JUMPDEST PUSH2 0x1520 JUMP JUMPDEST PUSH2 0x2E7 PUSH2 0x57C CALLDATASIZE PUSH1 0x4 PUSH2 0x2882 JUMP JUMPDEST PUSH2 0x16D4 JUMP JUMPDEST PUSH2 0x2E7 PUSH2 0x58F CALLDATASIZE PUSH1 0x4 PUSH2 0x2882 JUMP JUMPDEST PUSH2 0x18A7 JUMP JUMPDEST PUSH2 0x2FE PUSH2 0x5A2 CALLDATASIZE PUSH1 0x4 PUSH2 0x28D9 JUMP JUMPDEST PUSH2 0x19BF JUMP JUMPDEST PUSH2 0x2E7 PUSH2 0x5B5 CALLDATASIZE PUSH1 0x4 PUSH2 0x2882 JUMP JUMPDEST PUSH2 0x19E5 JUMP JUMPDEST PUSH2 0x2FE PUSH1 0x0 DUP1 MLOAD PUSH1 0x20 PUSH2 0x2E08 DUP4 CODECOPY DUP2 MLOAD SWAP2 MSTORE DUP2 JUMP JUMPDEST PUSH2 0x2E7 PUSH2 0x5DD CALLDATASIZE PUSH1 0x4 PUSH2 0x2882 JUMP JUMPDEST PUSH2 0x1B0C JUMP JUMPDEST PUSH2 0x2E7 PUSH2 0x5F0 CALLDATASIZE PUSH1 0x4 PUSH2 0x2882 JUMP JUMPDEST PUSH2 0x1C26 JUMP JUMPDEST PUSH2 0x2FE PUSH1 0x0 DUP1 MLOAD PUSH1 0x20 PUSH2 0x2DC8 DUP4 CODECOPY DUP2 MLOAD SWAP2 MSTORE DUP2 JUMP JUMPDEST PUSH2 0x2E7 PUSH2 0x618 CALLDATASIZE PUSH1 0x4 PUSH2 0x28F2 JUMP JUMPDEST PUSH2 0x1D2E JUMP JUMPDEST PUSH2 0x2FE PUSH2 0x62B CALLDATASIZE PUSH1 0x4 PUSH2 0x298D JUMP JUMPDEST PUSH2 0x1D4A JUMP JUMPDEST PUSH2 0x2E7 PUSH2 0x63E CALLDATASIZE PUSH1 0x4 PUSH2 0x29B7 JUMP JUMPDEST PUSH2 0x1D94 JUMP JUMPDEST PUSH1 0x0 SLOAD PUSH2 0x4C5 SWAP1 PUSH1 0x1 PUSH1 0x1 PUSH1 0xA0 SHL SUB AND DUP2 JUMP JUMPDEST PUSH2 0x2E7 PUSH2 0x664 CALLDATASIZE PUSH1 0x4 PUSH2 0x2882 JUMP JUMPDEST PUSH2 0x1DCB JUMP JUMPDEST PUSH2 0x2FE PUSH32 0x189AB7A9244DF0848122154315AF71FE140F3DB0FE014031783B0946B8C9D2E3 DUP2 JUMP JUMPDEST PUSH1 0x0 PUSH1 0x1 PUSH1 0x1 PUSH1 0xE0 SHL SUB NOT DUP3 AND PUSH4 0x5A05180F PUSH1 0xE0 SHL EQ DUP1 PUSH2 0x6B5 JUMPI POP PUSH2 0x6B5 DUP3 PUSH2 0x1E4F JUMP JUMPDEST SWAP3 SWAP2 POP POP JUMP JUMPDEST PUSH32 0x52C63247E1F47DB19D5CE0460030C497F067CA4CEBF71BA98EEADABE20BACE03 DUP1 SLOAD PUSH1 0x60 SWAP2 PUSH1 0x0 DUP1 MLOAD PUSH1 0x20 PUSH2 0x2D88 DUP4 CODECOPY DUP2 MLOAD SWAP2 MSTORE SWAP2 PUSH2 0x6FA SWAP1 PUSH2 0x29F3 JUMP JUMPDEST DUP1 PUSH1 0x1F ADD PUSH1 0x20 DUP1 SWAP2 DIV MUL PUSH1 0x20 ADD PUSH1 0x40 MLOAD SWAP1 DUP2 ADD PUSH1 0x40 MSTORE DUP1 SWAP3 SWAP2 SWAP1 DUP2 DUP2 MSTORE PUSH1 0x20 ADD DUP3 DUP1 SLOAD PUSH2 0x726 SWAP1 PUSH2 0x29F3 JUMP JUMPDEST DUP1 ISZERO PUSH2 0x773 JUMPI DUP1 PUSH1 0x1F LT PUSH2 0x748 JUMPI PUSH2 0x100 DUP1 DUP4 SLOAD DIV MUL DUP4 MSTORE SWAP2 PUSH1 0x20 ADD SWAP2 PUSH2 0x773 JUMP JUMPDEST DUP3 ADD SWAP2 SWAP1 PUSH1 0x0 MSTORE PUSH1 0x20 PUSH1 0x0 KECCAK256 SWAP1 JUMPDEST DUP2 SLOAD DUP2 MSTORE SWAP1 PUSH1 0x1 ADD SWAP1 PUSH1 0x20 ADD DUP1 DUP4 GT PUSH2 0x756 JUMPI DUP3 SWAP1 SUB PUSH1 0x1F AND DUP3 ADD SWAP2 JUMPDEST POP POP POP POP POP SWAP2 POP POP SWAP1 JUMP JUMPDEST PUSH1 0x0 DUP1 PUSH2 0x789 PUSH2 0x1E84 JUMP JUMPDEST SWAP1 POP PUSH2 0x796 DUP2 DUP6 DUP6 PUSH2 0x1E93 JUMP JUMPDEST POP PUSH1 0x1 SWAP4 SWAP3 POP POP POP JUMP JUMPDEST PUSH1 0x0 PUSH2 0x7AB DUP2 PUSH2 0x1EA0 JUMP JUMPDEST DUP2 PUSH1 0x1 PUSH1 0x1 PUSH1 0xA0 SHL SUB DUP2 AND PUSH2 0x7D3 JUMPI PUSH1 0x40 MLOAD PUSH4 0x6E5EC59F PUSH1 0xE0 SHL DUP2 MSTORE PUSH1 0x4 ADD PUSH1 0x40 MLOAD DUP1 SWAP2 SUB SWAP1 REVERT JUMPDEST PUSH2 0x7EB PUSH1 0x0 DUP1 MLOAD PUSH1 0x20 PUSH2 0x2D68 DUP4 CODECOPY DUP2 MLOAD SWAP2 MSTORE DUP5 PUSH2 0x125F JUMP JUMPDEST PUSH2 0x835 JUMPI PUSH1 0x40 MLOAD PUSH3 0x461BCD PUSH1 0xE5 SHL DUP2 MSTORE PUSH1 0x20 PUSH1 0x4 DUP3 ADD MSTORE PUSH1 0x16 PUSH1 0x24 DUP3 ADD MSTORE PUSH22 0x2737BA103BB434BA32B634B9BA32B21039B2B73232B9 PUSH1 0x51 SHL PUSH1 0x44 DUP3 ADD MSTORE PUSH1 0x64 ADD JUMPDEST PUSH1 0x40 MLOAD DUP1 SWAP2 SUB SWAP1 REVERT JUMPDEST PUSH2 0x84D PUSH1 0x0 DUP1 MLOAD PUSH1 0x20 PUSH2 0x2E08 DUP4 CODECOPY DUP2 MLOAD SWAP2 MSTORE DUP5 PUSH2 0x125F JUMP JUMPDEST ISZERO PUSH2 0x893 JUMPI PUSH1 0x40 MLOAD PUSH3 0x461BCD PUSH1 0xE5 SHL DUP2 MSTORE PUSH1 0x20 PUSH1 0x4 DUP3 ADD MSTORE PUSH1 0x16 PUSH1 0x24 DUP3 ADD MSTORE PUSH22 0x43616E6E6F742072656D6F7665207472656173757279 PUSH1 0x50 SHL PUSH1 0x44 DUP3 ADD MSTORE PUSH1 0x64 ADD PUSH2 0x82C JUMP JUMPDEST PUSH2 0x8AB PUSH1 0x0 DUP1 MLOAD PUSH1 0x20 PUSH2 0x2D68 DUP4 CODECOPY DUP2 MLOAD SWAP2 MSTORE DUP5 PUSH2 0x1EB4 JUMP JUMPDEST POP DUP3 PUSH1 0x1 PUSH1 0x1 PUSH1 0xA0 SHL SUB AND PUSH32 0xE178BF7CC940ED3C4D14C1206DB670AB5B94749D88646DC197F874A32372EA5 PUSH1 0x40 MLOAD PUSH2 0x923 SWAP1 PUSH1 0x20 DUP1 DUP3 MSTORE PUSH1 0x25 SWAP1 DUP3 ADD MSTORE PUSH32 0x53656E64657220416464726573732052656D6F7665642046726F6D2057686974 PUSH1 0x40 DUP3 ADD MSTORE PUSH5 0x195B1A5CDD PUSH1 0xDA SHL PUSH1 0x60 DUP3 ADD MSTORE PUSH1 0x80 ADD SWAP1 JUMP JUMPDEST PUSH1 0x40 MLOAD DUP1 SWAP2 SUB SWAP1 LOG2 POP POP POP JUMP JUMPDEST PUSH1 0x0 PUSH2 0x93B DUP2 PUSH2 0x1EA0 JUMP JUMPDEST DUP2 PUSH1 0x1 PUSH1 0x1 PUSH1 0xA0 SHL SUB DUP2 AND PUSH2 0x963 JUMPI PUSH1 0x40 MLOAD PUSH4 0x6E5EC59F PUSH1 0xE0 SHL DUP2 MSTORE PUSH1 0x4 ADD PUSH1 0x40 MLOAD DUP1 SWAP2 SUB SWAP1 REVERT JUMPDEST PUSH2 0x97B PUSH1 0x0 DUP1 MLOAD PUSH1 0x20 PUSH2 0x2DA8 DUP4 CODECOPY DUP2 MLOAD SWAP2 MSTORE DUP5 PUSH2 0x125F JUMP JUMPDEST PUSH2 0x9C7 JUMPI PUSH1 0x40 MLOAD PUSH3 0x461BCD PUSH1 0xE5 SHL DUP2 MSTORE PUSH1 0x20 PUSH1 0x4 DUP3 ADD MSTORE PUSH1 0x18 PUSH1 0x24 DUP3 ADD MSTORE PUSH32 0x4E6F742077686974656C69737465642072656365697665720000000000000000 PUSH1 0x44 DUP3 ADD MSTORE PUSH1 0x64 ADD PUSH2 0x82C JUMP JUMPDEST PUSH2 0x9DF PUSH1 0x0 DUP1 MLOAD PUSH1 0x20 PUSH2 0x2DA8 DUP4 CODECOPY DUP2 MLOAD SWAP2 MSTORE DUP5 PUSH2 0x1EB4 JUMP JUMPDEST POP DUP3 PUSH1 0x1 PUSH1 0x1 PUSH1 0xA0 SHL SUB AND PUSH32 0xAAF02BA1BCB5B6C4B56E5B51C64FFB18BD8ED3760523F4D845A3C0CC0A859244 PUSH1 0x40 MLOAD PUSH2 0x923 SWAP1 PUSH1 0x20 DUP1 DUP3 MSTORE PUSH1 0x27 SWAP1 DUP3 ADD MSTORE PUSH32 0x526563656976657220416464726573732052656D6F7665642046726F6D205768 PUSH1 0x40 DUP3 ADD MSTORE PUSH7 0x1A5D195B1A5CDD PUSH1 0xCA SHL PUSH1 0x60 DUP3 ADD MSTORE PUSH1 0x80 ADD SWAP1 JUMP JUMPDEST PUSH1 0x0 DUP2 DUP1 PUSH1 0x0 SUB PUSH2 0xA7D JUMPI PUSH1 0x40 MLOAD PUSH4 0x162908E3 PUSH1 0xE1 SHL DUP2 MSTORE PUSH1 0x4 ADD PUSH1 0x40 MLOAD DUP1 SWAP2 SUB SWAP1 REVERT JUMPDEST DUP4 PUSH1 0x1 PUSH1 0x1 PUSH1 0xA0 SHL SUB DUP2 AND PUSH2 0xAA5 JUMPI PUSH1 0x40 MLOAD PUSH4 0x6E5EC59F PUSH1 0xE0 SHL DUP2 MSTORE PUSH1 0x4 ADD PUSH1 0x40 MLOAD DUP1 SWAP2 SUB SWAP1 REVERT JUMPDEST PUSH1 0x1 PUSH1 0x1 PUSH1 0xA0 SHL SUB DUP7 AND PUSH1 0x0 SWAP1 DUP2 MSTORE PUSH1 0x1 PUSH1 0x20 MSTORE PUSH1 0x40 SWAP1 KECCAK256 SLOAD DUP7 SWAP1 PUSH1 0xFF AND ISZERO PUSH2 0xAE0 JUMPI PUSH1 0x40 MLOAD PUSH3 0x461BCD PUSH1 0xE5 SHL DUP2 MSTORE PUSH1 0x4 ADD PUSH2 0x82C SWAP1 PUSH2 0x2A2D JUMP JUMPDEST PUSH1 0x1 PUSH1 0x1 PUSH1 0xA0 SHL SUB DUP7 AND PUSH1 0x0 SWAP1 DUP2 MSTORE PUSH1 0x1 PUSH1 0x20 MSTORE PUSH1 0x40 SWAP1 KECCAK256 SLOAD DUP7 SWAP1 PUSH1 0xFF AND ISZERO PUSH2 0xB1B JUMPI PUSH1 0x40 MLOAD PUSH3 0x461BCD PUSH1 0xE5 SHL DUP2 MSTORE PUSH1 0x4 ADD PUSH2 0x82C SWAP1 PUSH2 0x2A2D JUMP JUMPDEST DUP8 DUP8 DUP2 PUSH1 0x1 PUSH1 0x1 PUSH1 0xA0 SHL SUB AND DUP2 PUSH1 0x1 PUSH1 0x1 PUSH1 0xA0 SHL SUB AND SUB PUSH2 0xB78 JUMPI PUSH1 0x40 MLOAD PUSH3 0x461BCD PUSH1 0xE5 SHL DUP2 MSTORE PUSH1 0x20 PUSH1 0x4 DUP3 ADD MSTORE PUSH1 0x17 PUSH1 0x24 DUP3 ADD MSTORE PUSH23 0x21B0B73737BA103A3930B739B332B9103A379039B2B633 PUSH1 0x49 SHL PUSH1 0x44 DUP3 ADD MSTORE PUSH1 0x64 ADD PUSH2 0x82C JUMP JUMPDEST PUSH2 0xB90 PUSH1 0x0 DUP1 MLOAD PUSH1 0x20 PUSH2 0x2D68 DUP4 CODECOPY DUP2 MLOAD SWAP2 MSTORE DUP4 PUSH2 0x125F JUMP JUMPDEST DUP1 PUSH2 0xBAE JUMPI POP PUSH2 0xBAE PUSH1 0x0 DUP1 MLOAD PUSH1 0x20 PUSH2 0x2DA8 DUP4 CODECOPY DUP2 MLOAD SWAP2 MSTORE DUP3 PUSH2 0x125F JUMP JUMPDEST PUSH2 0xBFA JUMPI PUSH1 0x40 MLOAD PUSH3 0x461BCD PUSH1 0xE5 SHL DUP2 MSTORE PUSH1 0x20 PUSH1 0x4 DUP3 ADD MSTORE PUSH1 0x1A PUSH1 0x24 DUP3 ADD MSTORE PUSH32 0x496E76616C69642073656E646572206F72207265636569766572000000000000 PUSH1 0x44 DUP3 ADD MSTORE PUSH1 0x64 ADD PUSH2 0x82C JUMP JUMPDEST PUSH2 0xC05 DUP11 DUP11 DUP11 PUSH2 0x1EF9 JUMP JUMPDEST SWAP11 SWAP10 POP POP POP POP POP POP POP POP POP POP JUMP JUMPDEST PUSH1 0x0 SWAP1 DUP2 MSTORE PUSH1 0x0 DUP1 MLOAD PUSH1 0x20 PUSH2 0x2DE8 DUP4 CODECOPY DUP2 MLOAD SWAP2 MSTORE PUSH1 0x20 MSTORE PUSH1 0x40 SWAP1 KECCAK256 PUSH1 0x1 ADD SLOAD SWAP1 JUMP JUMPDEST PUSH2 0xC3E DUP3 PUSH2 0xC13 JUMP JUMPDEST PUSH2 0xC47 DUP2 PUSH2 0x1EA0 JUMP JUMPDEST PUSH2 0xC51 DUP4 DUP4 PUSH2 0x1F27 JUMP JUMPDEST POP POP POP POP JUMP JUMPDEST PUSH1 0x0 PUSH2 0xC62 DUP2 PUSH2 0x1EA0 JUMP JUMPDEST DUP2 PUSH1 0x1 PUSH1 0x1 PUSH1 0xA0 SHL SUB DUP2 AND PUSH2 0xC8A JUMPI PUSH1 0x40 MLOAD PUSH4 0x6E5EC59F PUSH1 0xE0 SHL DUP2 MSTORE PUSH1 0x4 ADD PUSH1 0x40 MLOAD DUP1 SWAP2 SUB SWAP1 REVERT JUMPDEST PUSH2 0xCA2 PUSH1 0x0 DUP1 MLOAD PUSH1 0x20 PUSH2 0x2E28 DUP4 CODECOPY DUP2 MLOAD SWAP2 MSTORE DUP5 PUSH2 0x125F JUMP JUMPDEST ISZERO PUSH2 0xCE4 JUMPI PUSH1 0x40 MLOAD PUSH3 0x461BCD PUSH1 0xE5 SHL DUP2 MSTORE PUSH1 0x20 PUSH1 0x4 DUP3 ADD MSTORE PUSH1 0x12 PUSH1 0x24 DUP3 ADD MSTORE PUSH18 0x105B1C9958591E48189D5C9B881D985D5B1D PUSH1 0x72 SHL PUSH1 0x44 DUP3 ADD MSTORE PUSH1 0x64 ADD PUSH2 0x82C JUMP JUMPDEST PUSH1 0x0 PUSH2 0xCFF PUSH1 0x0 DUP1 MLOAD PUSH1 0x20 PUSH2 0x2E28 DUP4 CODECOPY DUP2 MLOAD SWAP2 MSTORE PUSH1 0x0 PUSH2 0x1230 JUMP JUMPDEST SWAP1 POP PUSH1 0x1 PUSH1 0x1 PUSH1 0xA0 SHL SUB DUP2 AND ISZERO PUSH2 0xD2A JUMPI PUSH2 0xD28 PUSH1 0x0 DUP1 MLOAD PUSH1 0x20 PUSH2 0x2E28 DUP4 CODECOPY DUP2 MLOAD SWAP2 MSTORE DUP3 PUSH2 0x1EB4 JUMP JUMPDEST POP JUMPDEST PUSH2 0xD42 PUSH1 0x0 DUP1 MLOAD PUSH1 0x20 PUSH2 0x2E28 DUP4 CODECOPY DUP2 MLOAD SWAP2 MSTORE DUP6 PUSH2 0x1F27 JUMP JUMPDEST POP DUP4 PUSH1 0x1 PUSH1 0x1 PUSH1 0xA0 SHL SUB AND PUSH32 0x27CB0B1F15CF273268C02C4AC770F2121077509FD09F76000F26FEF2107C8E39 PUSH1 0x40 MLOAD PUSH2 0xDAC SWAP1 PUSH1 0x20 DUP1 DUP3 MSTORE PUSH1 0x18 SWAP1 DUP3 ADD MSTORE PUSH32 0x4275726E61626C65204164647265737320557064617465640000000000000000 PUSH1 0x40 DUP3 ADD MSTORE PUSH1 0x60 ADD SWAP1 JUMP JUMPDEST PUSH1 0x40 MLOAD DUP1 SWAP2 SUB SWAP1 LOG2 POP POP POP POP JUMP JUMPDEST PUSH2 0xDC2 PUSH2 0x1E84 JUMP JUMPDEST PUSH1 0x1 PUSH1 0x1 PUSH1 0xA0 SHL SUB AND DUP2 PUSH1 0x1 PUSH1 0x1 PUSH1 0xA0 SHL SUB AND EQ PUSH2 0xDF3 JUMPI PUSH1 0x40 MLOAD PUSH4 0x334BD919 PUSH1 0xE1 SHL DUP2 MSTORE PUSH1 0x4 ADD PUSH1 0x40 MLOAD DUP1 SWAP2 SUB SWAP1 REVERT JUMPDEST PUSH2 0xDFD DUP3 DUP3 PUSH2 0x1EB4 JUMP JUMPDEST POP POP POP JUMP JUMPDEST PUSH1 0x0 DUP1 MLOAD PUSH1 0x20 PUSH2 0x2DC8 DUP4 CODECOPY DUP2 MLOAD SWAP2 MSTORE PUSH2 0xE1A DUP2 PUSH2 0x1EA0 JUMP JUMPDEST DUP2 DUP1 PUSH1 0x0 SUB PUSH2 0xE3C JUMPI PUSH1 0x40 MLOAD PUSH4 0x162908E3 PUSH1 0xE1 SHL DUP2 MSTORE PUSH1 0x4 ADD PUSH1 0x40 MLOAD DUP1 SWAP2 SUB SWAP1 REVERT JUMPDEST DUP4 PUSH1 0x1 PUSH1 0x1 PUSH1 0xA0 SHL SUB DUP2 AND PUSH2 0xE64 JUMPI PUSH1 0x40 MLOAD PUSH4 0x6E5EC59F PUSH1 0xE0 SHL DUP2 MSTORE PUSH1 0x4 ADD PUSH1 0x40 MLOAD DUP1 SWAP2 SUB SWAP1 REVERT JUMPDEST PUSH2 0xE7C PUSH1 0x0 DUP1 MLOAD PUSH1 0x20 PUSH2 0x2E08 DUP4 CODECOPY DUP2 MLOAD SWAP2 MSTORE DUP7 PUSH2 0x125F JUMP JUMPDEST PUSH2 0xEC1 JUMPI PUSH1 0x40 MLOAD PUSH3 0x461BCD PUSH1 0xE5 SHL DUP2 MSTORE PUSH1 0x20 PUSH1 0x4 DUP3 ADD MSTORE PUSH1 0x16 PUSH1 0x24 DUP3 ADD MSTORE PUSH22 0x4E6F7420612074726561737572792061646472657373 PUSH1 0x50 SHL PUSH1 0x44 DUP3 ADD MSTORE PUSH1 0x64 ADD PUSH2 0x82C JUMP JUMPDEST PUSH2 0xECB DUP6 DUP6 PUSH2 0x1F63 JUMP JUMPDEST DUP5 PUSH1 0x1 PUSH1 0x1 PUSH1 0xA0 SHL SUB AND PUSH32 0xBFA21AA5D5F9A1F0120A95E7C0749F389863CBDBFFF531AA7339077A5BC919DE DUP6 PUSH1 0x40 MLOAD PUSH2 0xF06 SWAP2 DUP2 MSTORE PUSH1 0x20 ADD SWAP1 JUMP JUMPDEST PUSH1 0x40 MLOAD DUP1 SWAP2 SUB SWAP1 LOG2 POP POP POP POP POP JUMP JUMPDEST PUSH1 0x0 PUSH2 0xF20 DUP2 PUSH2 0x1EA0 JUMP JUMPDEST DUP2 PUSH1 0x1 PUSH1 0x1 PUSH1 0xA0 SHL SUB DUP2 AND PUSH2 0xF48 JUMPI PUSH1 0x40 MLOAD PUSH4 0x6E5EC59F PUSH1 0xE0 SHL DUP2 MSTORE PUSH1 0x4 ADD PUSH1 0x40 MLOAD DUP1 SWAP2 SUB SWAP1 REVERT JUMPDEST PUSH2 0xF60 PUSH1 0x0 DUP1 MLOAD PUSH1 0x20 PUSH2 0x2DC8 DUP4 CODECOPY DUP2 MLOAD SWAP2 MSTORE DUP5 PUSH2 0x125F JUMP JUMPDEST ISZERO PUSH2 0xF9E JUMPI PUSH1 0x40 MLOAD PUSH3 0x461BCD PUSH1 0xE5 SHL DUP2 MSTORE PUSH1 0x20 PUSH1 0x4 DUP3 ADD MSTORE PUSH1 0xE PUSH1 0x24 DUP3 ADD MSTORE PUSH14 0x20B63932B0B23C9036B4B73A32B9 PUSH1 0x91 SHL PUSH1 0x44 DUP3 ADD MSTORE PUSH1 0x64 ADD PUSH2 0x82C JUMP JUMPDEST PUSH1 0x0 PUSH2 0xFB9 PUSH1 0x0 DUP1 MLOAD PUSH1 0x20 PUSH2 0x2DC8 DUP4 CODECOPY DUP2 MLOAD SWAP2 MSTORE PUSH1 0x0 PUSH2 0x1230 JUMP JUMPDEST SWAP1 POP PUSH1 0x1 PUSH1 0x1 PUSH1 0xA0 SHL SUB DUP2 AND ISZERO PUSH2 0xFE4 JUMPI PUSH2 0xFE2 PUSH1 0x0 DUP1 MLOAD PUSH1 0x20 PUSH2 0x2DC8 DUP4 CODECOPY DUP2 MLOAD SWAP2 MSTORE DUP3 PUSH2 0x1EB4 JUMP JUMPDEST POP JUMPDEST PUSH2 0xFFC PUSH1 0x0 DUP1 MLOAD PUSH1 0x20 PUSH2 0x2DC8 DUP4 CODECOPY DUP2 MLOAD SWAP2 MSTORE DUP6 PUSH2 0x1F27 JUMP JUMPDEST POP DUP4 PUSH1 0x1 PUSH1 0x1 PUSH1 0xA0 SHL SUB AND PUSH32 0x6DE4157337B92BECADB23AC8C53BDCABA13D56EAA4E2350EFF3E65C4D1D84C7C PUSH1 0x40 MLOAD PUSH2 0xDAC SWAP1 PUSH1 0x20 DUP1 DUP3 MSTORE PUSH1 0xA SWAP1 DUP3 ADD MSTORE PUSH10 0x2732BB9026B4B73A32B9 PUSH1 0xB1 SHL PUSH1 0x40 DUP3 ADD MSTORE PUSH1 0x60 ADD SWAP1 JUMP JUMPDEST PUSH1 0x0 PUSH2 0x105E DUP2 PUSH2 0x1EA0 JUMP JUMPDEST DUP2 PUSH1 0x1 PUSH1 0x1 PUSH1 0xA0 SHL SUB DUP2 AND PUSH2 0x1086 JUMPI PUSH1 0x40 MLOAD PUSH4 0x6E5EC59F PUSH1 0xE0 SHL DUP2 MSTORE PUSH1 0x4 ADD PUSH1 0x40 MLOAD DUP1 SWAP2 SUB SWAP1 REVERT JUMPDEST PUSH1 0x1 PUSH1 0x1 PUSH1 0xA0 SHL SUB DUP4 AND PUSH1 0x0 DUP2 DUP2 MSTORE PUSH1 0x1 PUSH1 0x20 MSTORE PUSH1 0x40 DUP1 DUP3 KECCAK256 DUP1 SLOAD PUSH1 0xFF NOT AND SWAP1 SSTORE MLOAD PUSH32 0xF915CD9FE234DE6E8D3AFE7BF2388D35B2B6D48E8C629A24602019BDE79C213A SWAP2 SWAP1 LOG2 POP POP POP JUMP JUMPDEST CALLER DUP1 PUSH2 0x10F0 JUMPI PUSH1 0x40 MLOAD PUSH4 0x6E5EC59F PUSH1 0xE0 SHL DUP2 MSTORE PUSH1 0x4 ADD PUSH1 0x40 MLOAD DUP1 SWAP2 SUB SWAP1 REVERT JUMPDEST PUSH1 0x0 SLOAD PUSH1 0x1 PUSH1 0x1 PUSH1 0xA0 SHL SUB AND CALLER EQ PUSH2 0x113A JUMPI PUSH1 0x40 MLOAD PUSH3 0x461BCD PUSH1 0xE5 SHL DUP2 MSTORE PUSH1 0x20 PUSH1 0x4 DUP3 ADD MSTORE PUSH1 0xD PUSH1 0x24 DUP3 ADD MSTORE PUSH13 0x139BDD081B9BDB5A5B985D1959 PUSH1 0x9A SHL PUSH1 0x44 DUP3 ADD MSTORE PUSH1 0x64 ADD PUSH2 0x82C JUMP JUMPDEST PUSH1 0x0 SLOAD PUSH1 0x1 PUSH1 0x1 PUSH1 0xA0 SHL SUB AND PUSH2 0x118A JUMPI PUSH1 0x40 MLOAD PUSH3 0x461BCD PUSH1 0xE5 SHL DUP2 MSTORE PUSH1 0x20 PUSH1 0x4 DUP3 ADD MSTORE PUSH1 0x15 PUSH1 0x24 DUP3 ADD MSTORE PUSH21 0x2737903832B73234B733903737B6B4B730BA34B7B7 PUSH1 0x59 SHL PUSH1 0x44 DUP3 ADD MSTORE PUSH1 0x64 ADD PUSH2 0x82C JUMP JUMPDEST PUSH1 0x0 PUSH2 0x1196 DUP2 DUP1 PUSH2 0x1230 JUMP JUMPDEST SWAP1 POP PUSH1 0x1 PUSH1 0x1 PUSH1 0xA0 SHL SUB DUP2 AND ISZERO PUSH2 0x11B4 JUMPI PUSH2 0x11B2 PUSH1 0x0 DUP3 PUSH2 0x1EB4 JUMP JUMPDEST POP JUMPDEST PUSH2 0x11BF PUSH1 0x0 CALLER PUSH2 0x1F27 JUMP JUMPDEST POP PUSH1 0x0 DUP1 SLOAD PUSH1 0x1 PUSH1 0x1 PUSH1 0xA0 SHL SUB NOT AND SWAP1 SSTORE PUSH1 0x40 MLOAD CALLER SWAP1 PUSH32 0x33357BB61B6CE4D9E2A54FD3D9EC5807E7DF4BBD6BA3FA1B0860C0A1A39E700A SWAP1 PUSH2 0x1224 SWAP1 PUSH1 0x20 DUP1 DUP3 MSTORE PUSH1 0xF SWAP1 DUP3 ADD MSTORE PUSH15 0x13995DC810591B5A5B881059191959 PUSH1 0x8A SHL PUSH1 0x40 DUP3 ADD MSTORE PUSH1 0x60 ADD SWAP1 JUMP JUMPDEST PUSH1 0x40 MLOAD DUP1 SWAP2 SUB SWAP1 LOG2 POP POP JUMP JUMPDEST PUSH1 0x0 DUP3 DUP2 MSTORE PUSH1 0x0 DUP1 MLOAD PUSH1 0x20 PUSH2 0x2D48 DUP4 CODECOPY DUP2 MLOAD SWAP2 MSTORE PUSH1 0x20 DUP2 SWAP1 MSTORE PUSH1 0x40 DUP3 KECCAK256 PUSH2 0x1257 SWAP1 DUP5 PUSH2 0x1F9D JUMP JUMPDEST SWAP5 SWAP4 POP POP POP POP JUMP JUMPDEST PUSH1 0x0 SWAP2 DUP3 MSTORE PUSH1 0x0 DUP1 MLOAD PUSH1 0x20 PUSH2 0x2DE8 DUP4 CODECOPY DUP2 MLOAD SWAP2 MSTORE PUSH1 0x20 SWAP1 DUP2 MSTORE PUSH1 0x40 DUP1 DUP5 KECCAK256 PUSH1 0x1 PUSH1 0x1 PUSH1 0xA0 SHL SUB SWAP4 SWAP1 SWAP4 AND DUP5 MSTORE SWAP2 SWAP1 MSTORE SWAP1 KECCAK256 SLOAD PUSH1 0xFF AND SWAP1 JUMP JUMPDEST PUSH32 0x52C63247E1F47DB19D5CE0460030C497F067CA4CEBF71BA98EEADABE20BACE04 DUP1 SLOAD PUSH1 0x60 SWAP2 PUSH1 0x0 DUP1 MLOAD PUSH1 0x20 PUSH2 0x2D88 DUP4 CODECOPY DUP2 MLOAD SWAP2 MSTORE SWAP2 PUSH2 0x6FA SWAP1 PUSH2 0x29F3 JUMP JUMPDEST PUSH1 0x0 DUP1 MLOAD PUSH1 0x20 PUSH2 0x2E28 DUP4 CODECOPY DUP2 MLOAD SWAP2 MSTORE PUSH2 0x12EE DUP2 PUSH2 0x1EA0 JUMP JUMPDEST DUP2 DUP1 PUSH1 0x0 SUB PUSH2 0x1310 JUMPI PUSH1 0x40 MLOAD PUSH4 0x162908E3 PUSH1 0xE1 SHL DUP2 MSTORE PUSH1 0x4 ADD PUSH1 0x40 MLOAD DUP1 SWAP2 SUB SWAP1 REVERT JUMPDEST DUP4 PUSH1 0x1 PUSH1 0x1 PUSH1 0xA0 SHL SUB DUP2 AND PUSH2 0x1338 JUMPI PUSH1 0x40 MLOAD PUSH4 0x6E5EC59F PUSH1 0xE0 SHL DUP2 MSTORE PUSH1 0x4 ADD PUSH1 0x40 MLOAD DUP1 SWAP2 SUB SWAP1 REVERT JUMPDEST PUSH2 0x1342 DUP6 DUP6 PUSH2 0x1FA9 JUMP JUMPDEST POP POP POP POP POP JUMP JUMPDEST PUSH1 0x0 DUP2 DUP2 MSTORE PUSH1 0x0 DUP1 MLOAD PUSH1 0x20 PUSH2 0x2D48 DUP4 CODECOPY DUP2 MLOAD SWAP2 MSTORE PUSH1 0x20 DUP2 SWAP1 MSTORE PUSH1 0x40 SWAP1 SWAP2 KECCAK256 PUSH1 0x60 SWAP2 SWAP1 PUSH2 0x1374 SWAP1 PUSH2 0x1FDF JUMP JUMPDEST SWAP4 SWAP3 POP POP POP JUMP JUMPDEST PUSH1 0x0 DUP2 DUP1 PUSH1 0x0 SUB PUSH2 0x139F JUMPI PUSH1 0x40 MLOAD PUSH4 0x162908E3 PUSH1 0xE1 SHL DUP2 MSTORE PUSH1 0x4 ADD PUSH1 0x40 MLOAD DUP1 SWAP2 SUB SWAP1 REVERT JUMPDEST DUP4 PUSH1 0x1 PUSH1 0x1 PUSH1 0xA0 SHL SUB DUP2 AND PUSH2 0x13C7 JUMPI PUSH1 0x40 MLOAD PUSH4 0x6E5EC59F PUSH1 0xE0 SHL DUP2 MSTORE PUSH1 0x4 ADD PUSH1 0x40 MLOAD DUP1 SWAP2 SUB SWAP1 REVERT JUMPDEST CALLER PUSH1 0x0 DUP2 DUP2 MSTORE PUSH1 0x1 PUSH1 0x20 MSTORE PUSH1 0x40 SWAP1 KECCAK256 SLOAD PUSH1 0xFF AND ISZERO PUSH2 0x13F7 JUMPI PUSH1 0x40 MLOAD PUSH3 0x461BCD PUSH1 0xE5 SHL DUP2 MSTORE PUSH1 0x4 ADD PUSH2 0x82C SWAP1 PUSH2 0x2A2D JUMP JUMPDEST PUSH1 0x1 PUSH1 0x1 PUSH1 0xA0 SHL SUB DUP7 AND PUSH1 0x0 SWAP1 DUP2 MSTORE PUSH1 0x1 PUSH1 0x20 MSTORE PUSH1 0x40 SWAP1 KECCAK256 SLOAD DUP7 SWAP1 PUSH1 0xFF AND ISZERO PUSH2 0x1432 JUMPI PUSH1 0x40 MLOAD PUSH3 0x461BCD PUSH1 0xE5 SHL DUP2 MSTORE PUSH1 0x4 ADD PUSH2 0x82C SWAP1 PUSH2 0x2A2D JUMP JUMPDEST CALLER DUP8 PUSH1 0x1 PUSH1 0x1 PUSH1 0xA0 SHL SUB DUP2 AND DUP3 SWAP1 SUB PUSH2 0x1487 JUMPI PUSH1 0x40 MLOAD PUSH3 0x461BCD PUSH1 0xE5 SHL DUP2 MSTORE PUSH1 0x20 PUSH1 0x4 DUP3 ADD MSTORE PUSH1 0x17 PUSH1 0x24 DUP3 ADD MSTORE PUSH23 0x21B0B73737BA103A3930B739B332B9103A379039B2B633 PUSH1 0x49 SHL PUSH1 0x44 DUP3 ADD MSTORE PUSH1 0x64 ADD PUSH2 0x82C JUMP JUMPDEST PUSH2 0x149F PUSH1 0x0 DUP1 MLOAD PUSH1 0x20 PUSH2 0x2D68 DUP4 CODECOPY DUP2 MLOAD SWAP2 MSTORE DUP4 PUSH2 0x125F JUMP JUMPDEST DUP1 PUSH2 0x14BD JUMPI POP PUSH2 0x14BD PUSH1 0x0 DUP1 MLOAD PUSH1 0x20 PUSH2 0x2DA8 DUP4 CODECOPY DUP2 MLOAD SWAP2 MSTORE DUP3 PUSH2 0x125F JUMP JUMPDEST PUSH2 0x1509 JUMPI PUSH1 0x40 MLOAD PUSH3 0x461BCD PUSH1 0xE5 SHL DUP2 MSTORE PUSH1 0x20 PUSH1 0x4 DUP3 ADD MSTORE PUSH1 0x1A PUSH1 0x24 DUP3 ADD MSTORE PUSH32 0x496E76616C69642073656E646572206F72207265636569766572000000000000 PUSH1 0x44 DUP3 ADD MSTORE PUSH1 0x64 ADD PUSH2 0x82C JUMP JUMPDEST PUSH2 0x1513 DUP10 DUP10 PUSH2 0x1FEC JUMP JUMPDEST SWAP10 SWAP9 POP POP POP POP POP POP POP POP POP JUMP JUMPDEST PUSH1 0x0 PUSH2 0x152B DUP2 PUSH2 0x1EA0 JUMP JUMPDEST DUP2 PUSH1 0x1 PUSH1 0x1 PUSH1 0xA0 SHL SUB DUP2 AND PUSH2 0x1553 JUMPI PUSH1 0x40 MLOAD PUSH4 0x6E5EC59F PUSH1 0xE0 SHL DUP2 MSTORE PUSH1 0x4 ADD PUSH1 0x40 MLOAD DUP1 SWAP2 SUB SWAP1 REVERT JUMPDEST PUSH2 0x156B PUSH1 0x0 DUP1 MLOAD PUSH1 0x20 PUSH2 0x2E08 DUP4 CODECOPY DUP2 MLOAD SWAP2 MSTORE DUP5 PUSH2 0x125F JUMP JUMPDEST ISZERO PUSH2 0x15AB JUMPI PUSH1 0x40 MLOAD PUSH3 0x461BCD PUSH1 0xE5 SHL DUP2 MSTORE PUSH1 0x20 PUSH1 0x4 DUP3 ADD MSTORE PUSH1 0x10 PUSH1 0x24 DUP3 ADD MSTORE PUSH16 0x416C7265616479207472656173757279 PUSH1 0x80 SHL PUSH1 0x44 DUP3 ADD MSTORE PUSH1 0x64 ADD PUSH2 0x82C JUMP JUMPDEST PUSH2 0x15C3 PUSH1 0x0 DUP1 MLOAD PUSH1 0x20 PUSH2 0x2E08 DUP4 CODECOPY DUP2 MLOAD SWAP2 MSTORE DUP5 PUSH2 0x1F27 JUMP JUMPDEST POP PUSH2 0x15DC PUSH1 0x0 DUP1 MLOAD PUSH1 0x20 PUSH2 0x2D68 DUP4 CODECOPY DUP2 MLOAD SWAP2 MSTORE DUP5 PUSH2 0x125F JUMP JUMPDEST PUSH2 0x166B JUMPI PUSH2 0x15F8 PUSH1 0x0 DUP1 MLOAD PUSH1 0x20 PUSH2 0x2D68 DUP4 CODECOPY DUP2 MLOAD SWAP2 MSTORE DUP5 PUSH2 0x1F27 JUMP JUMPDEST POP DUP3 PUSH1 0x1 PUSH1 0x1 PUSH1 0xA0 SHL SUB AND PUSH32 0xA148F9AF0F634918FBAF23B2BE442EE99C628242FB2805BF87C08E4BE7A1AFAC PUSH1 0x40 MLOAD PUSH2 0x1662 SWAP1 PUSH1 0x20 DUP1 DUP3 MSTORE PUSH1 0x1E SWAP1 DUP3 ADD MSTORE PUSH32 0x4E65772053656E64657220416464726573732057686974656C69737465640000 PUSH1 0x40 DUP3 ADD MSTORE PUSH1 0x60 ADD SWAP1 JUMP JUMPDEST PUSH1 0x40 MLOAD DUP1 SWAP2 SUB SWAP1 LOG2 JUMPDEST DUP3 PUSH1 0x1 PUSH1 0x1 PUSH1 0xA0 SHL SUB AND PUSH32 0xD93A23CFA249287D5DD4D056066C79B1A45BC8608890EA92B4DAFA6E874B3FD0 PUSH1 0x40 MLOAD PUSH2 0x923 SWAP1 PUSH1 0x20 DUP1 DUP3 MSTORE PUSH1 0x1A SWAP1 DUP3 ADD MSTORE PUSH32 0x4E65772054726561737572792041646472657373204164646564000000000000 PUSH1 0x40 DUP3 ADD MSTORE PUSH1 0x60 ADD SWAP1 JUMP JUMPDEST PUSH1 0x0 PUSH2 0x16DE PUSH2 0x2004 JUMP JUMPDEST DUP1 SLOAD SWAP1 SWAP2 POP PUSH1 0xFF PUSH1 0x1 PUSH1 0x40 SHL DUP3 DIV AND ISZERO SWAP1 PUSH8 0xFFFFFFFFFFFFFFFF AND PUSH1 0x0 DUP2 ISZERO DUP1 ISZERO PUSH2 0x1706 JUMPI POP DUP3 JUMPDEST SWAP1 POP PUSH1 0x0 DUP3 PUSH8 0xFFFFFFFFFFFFFFFF AND PUSH1 0x1 EQ DUP1 ISZERO PUSH2 0x1723 JUMPI POP ADDRESS EXTCODESIZE ISZERO JUMPDEST SWAP1 POP DUP2 ISZERO DUP1 ISZERO PUSH2 0x1731 JUMPI POP DUP1 ISZERO JUMPDEST ISZERO PUSH2 0x174F JUMPI PUSH1 0x40 MLOAD PUSH4 0xF92EE8A9 PUSH1 0xE0 SHL DUP2 MSTORE PUSH1 0x4 ADD PUSH1 0x40 MLOAD DUP1 SWAP2 SUB SWAP1 REVERT JUMPDEST DUP5 SLOAD PUSH8 0xFFFFFFFFFFFFFFFF NOT AND PUSH1 0x1 OR DUP6 SSTORE DUP4 ISZERO PUSH2 0x1779 JUMPI DUP5 SLOAD PUSH1 0xFF PUSH1 0x40 SHL NOT AND PUSH1 0x1 PUSH1 0x40 SHL OR DUP6 SSTORE JUMPDEST PUSH2 0x17BD PUSH1 0x40 MLOAD DUP1 PUSH1 0x40 ADD PUSH1 0x40 MSTORE DUP1 PUSH1 0x5 DUP2 MSTORE PUSH1 0x20 ADD PUSH5 0x3925A3A2A7 PUSH1 0xD9 SHL DUP2 MSTORE POP PUSH1 0x40 MLOAD DUP1 PUSH1 0x40 ADD PUSH1 0x40 MSTORE DUP1 PUSH1 0x5 DUP2 MSTORE PUSH1 0x20 ADD PUSH5 0x3925A3A2A7 PUSH1 0xD9 SHL DUP2 MSTORE POP PUSH2 0x202D JUMP JUMPDEST PUSH2 0x17C5 PUSH2 0x203F JUMP JUMPDEST PUSH2 0x17CD PUSH2 0x2049 JUMP JUMPDEST PUSH2 0x17D8 PUSH1 0x0 DUP8 PUSH2 0x1F27 JUMP JUMPDEST POP PUSH2 0x17F1 PUSH1 0x0 DUP1 MLOAD PUSH1 0x20 PUSH2 0x2DC8 DUP4 CODECOPY DUP2 MLOAD SWAP2 MSTORE DUP8 PUSH2 0x1F27 JUMP JUMPDEST POP PUSH2 0x180A PUSH1 0x0 DUP1 MLOAD PUSH1 0x20 PUSH2 0x2E28 DUP4 CODECOPY DUP2 MLOAD SWAP2 MSTORE DUP8 PUSH2 0x1F27 JUMP JUMPDEST POP PUSH2 0x1835 PUSH32 0x189AB7A9244DF0848122154315AF71FE140F3DB0FE014031783B0946B8C9D2E3 DUP8 PUSH2 0x1F27 JUMP JUMPDEST POP PUSH2 0x1859 DUP7 PUSH2 0x1846 PUSH1 0x8 PUSH1 0xA PUSH2 0x2B52 JUMP JUMPDEST PUSH2 0x1854 SWAP1 PUSH4 0x17D78400 PUSH2 0x2B61 JUMP JUMPDEST PUSH2 0x1F63 JUMP JUMPDEST DUP4 ISZERO PUSH2 0x189F JUMPI DUP5 SLOAD PUSH1 0xFF PUSH1 0x40 SHL NOT AND DUP6 SSTORE PUSH1 0x40 MLOAD PUSH1 0x1 DUP2 MSTORE PUSH32 0xC7F505B2F371AE2175EE4913F4499E1F2633A7B5936321EED1CDAEB6115181D2 SWAP1 PUSH1 0x20 ADD PUSH1 0x40 MLOAD DUP1 SWAP2 SUB SWAP1 LOG1 JUMPDEST POP POP POP POP POP POP JUMP JUMPDEST PUSH1 0x0 PUSH2 0x18B2 DUP2 PUSH2 0x1EA0 JUMP JUMPDEST DUP2 PUSH1 0x1 PUSH1 0x1 PUSH1 0xA0 SHL SUB DUP2 AND PUSH2 0x18DA JUMPI PUSH1 0x40 MLOAD PUSH4 0x6E5EC59F PUSH1 0xE0 SHL DUP2 MSTORE PUSH1 0x4 ADD PUSH1 0x40 MLOAD DUP1 SWAP2 SUB SWAP1 REVERT JUMPDEST PUSH2 0x18F2 PUSH1 0x0 DUP1 MLOAD PUSH1 0x20 PUSH2 0x2DA8 DUP4 CODECOPY DUP2 MLOAD SWAP2 MSTORE DUP5 PUSH2 0x125F JUMP JUMPDEST ISZERO PUSH2 0x193F JUMPI PUSH1 0x40 MLOAD PUSH3 0x461BCD PUSH1 0xE5 SHL DUP2 MSTORE PUSH1 0x20 PUSH1 0x4 DUP3 ADD MSTORE PUSH1 0x1C PUSH1 0x24 DUP3 ADD MSTORE PUSH32 0x416C72656164792077686974656C697374656420726563656976657200000000 PUSH1 0x44 DUP3 ADD MSTORE PUSH1 0x64 ADD PUSH2 0x82C JUMP JUMPDEST PUSH2 0x1957 PUSH1 0x0 DUP1 MLOAD PUSH1 0x20 PUSH2 0x2DA8 DUP4 CODECOPY DUP2 MLOAD SWAP2 MSTORE DUP5 PUSH2 0x1F27 JUMP JUMPDEST POP DUP3 PUSH1 0x1 PUSH1 0x1 PUSH1 0xA0 SHL SUB AND PUSH32 0xFE6D2D6F86F1B4F5F6D5833A27D9EB52BBA0F8AAD51EB089023C6A4DCFD21A8F PUSH1 0x40 MLOAD PUSH2 0x923 SWAP1 PUSH1 0x20 DUP1 DUP3 MSTORE DUP2 DUP2 ADD MSTORE PUSH32 0x4E657720526563656976657220416464726573732057686974656C6973746564 PUSH1 0x40 DUP3 ADD MSTORE PUSH1 0x60 ADD SWAP1 JUMP JUMPDEST PUSH1 0x0 DUP2 DUP2 MSTORE PUSH1 0x0 DUP1 MLOAD PUSH1 0x20 PUSH2 0x2D48 DUP4 CODECOPY DUP2 MLOAD SWAP2 MSTORE PUSH1 0x20 DUP2 SWAP1 MSTORE PUSH1 0x40 DUP3 KECCAK256 PUSH2 0x1374 SWAP1 PUSH2 0x2059 JUMP JUMPDEST PUSH1 0x0 PUSH2 0x19F0 DUP2 PUSH2 0x1EA0 JUMP JUMPDEST DUP2 PUSH1 0x1 PUSH1 0x1 PUSH1 0xA0 SHL SUB DUP2 AND PUSH2 0x1A18 JUMPI PUSH1 0x40 MLOAD PUSH4 0x6E5EC59F PUSH1 0xE0 SHL DUP2 MSTORE PUSH1 0x4 ADD PUSH1 0x40 MLOAD DUP1 SWAP2 SUB SWAP1 REVERT JUMPDEST CALLER PUSH1 0x1 PUSH1 0x1 PUSH1 0xA0 SHL SUB DUP5 AND SUB PUSH2 0x1A67 JUMPI PUSH1 0x40 MLOAD PUSH3 0x461BCD PUSH1 0xE5 SHL DUP2 MSTORE PUSH1 0x20 PUSH1 0x4 DUP3 ADD MSTORE PUSH1 0x14 PUSH1 0x24 DUP3 ADD MSTORE PUSH20 0x21B0B73737BA103737B6B4B730BA329039B2B633 PUSH1 0x61 SHL PUSH1 0x44 DUP3 ADD MSTORE PUSH1 0x64 ADD PUSH2 0x82C JUMP JUMPDEST PUSH1 0x0 DUP1 SLOAD PUSH1 0x1 PUSH1 0x1 PUSH1 0xA0 SHL SUB DUP6 AND PUSH1 0x1 PUSH1 0x1 PUSH1 0xA0 SHL SUB NOT SWAP1 SWAP2 AND DUP2 OR SWAP1 SWAP2 SSTORE PUSH1 0x40 MLOAD PUSH32 0xA9C1D417FDB88C493DBAB369BD79C043AA4C6C9522A681D9334BA091EDE58CD9 SWAP1 PUSH2 0x923 SWAP1 PUSH1 0x20 DUP1 DUP3 MSTORE PUSH1 0x3A SWAP1 DUP3 ADD MSTORE PUSH32 0x4E65772041646D696E204E6F6D696E617465642C204E6F77206E65772061646D PUSH1 0x40 DUP3 ADD MSTORE PUSH32 0x696E206E65656420746F206163636570742074686520726F6C65000000000000 PUSH1 0x60 DUP3 ADD MSTORE PUSH1 0x80 ADD SWAP1 JUMP JUMPDEST PUSH1 0x0 PUSH2 0x1B17 DUP2 PUSH2 0x1EA0 JUMP JUMPDEST DUP2 PUSH1 0x1 PUSH1 0x1 PUSH1 0xA0 SHL SUB DUP2 AND PUSH2 0x1B3F JUMPI PUSH1 0x40 MLOAD PUSH4 0x6E5EC59F PUSH1 0xE0 SHL DUP2 MSTORE PUSH1 0x4 ADD PUSH1 0x40 MLOAD DUP1 SWAP2 SUB SWAP1 REVERT JUMPDEST PUSH2 0x1B57 PUSH1 0x0 DUP1 MLOAD PUSH1 0x20 PUSH2 0x2D68 DUP4 CODECOPY DUP2 MLOAD SWAP2 MSTORE DUP5 PUSH2 0x125F JUMP JUMPDEST ISZERO PUSH2 0x1BA4 JUMPI PUSH1 0x40 MLOAD PUSH3 0x461BCD PUSH1 0xE5 SHL DUP2 MSTORE PUSH1 0x20 PUSH1 0x4 DUP3 ADD MSTORE PUSH1 0x1A PUSH1 0x24 DUP3 ADD MSTORE PUSH32 0x416C72656164792077686974656C69737465642073656E646572000000000000 PUSH1 0x44 DUP3 ADD MSTORE PUSH1 0x64 ADD PUSH2 0x82C JUMP JUMPDEST PUSH2 0x1BBC PUSH1 0x0 DUP1 MLOAD PUSH1 0x20 PUSH2 0x2D68 DUP4 CODECOPY DUP2 MLOAD SWAP2 MSTORE DUP5 PUSH2 0x1F27 JUMP JUMPDEST POP DUP3 PUSH1 0x1 PUSH1 0x1 PUSH1 0xA0 SHL SUB AND PUSH32 0xA148F9AF0F634918FBAF23B2BE442EE99C628242FB2805BF87C08E4BE7A1AFAC PUSH1 0x40 MLOAD PUSH2 0x923 SWAP1 PUSH1 0x20 DUP1 DUP3 MSTORE PUSH1 0x1E SWAP1 DUP3 ADD MSTORE PUSH32 0x4E65772053656E64657220416464726573732057686974656C69737465640000 PUSH1 0x40 DUP3 ADD MSTORE PUSH1 0x60 ADD SWAP1 JUMP JUMPDEST PUSH1 0x0 PUSH2 0x1C31 DUP2 PUSH2 0x1EA0 JUMP JUMPDEST DUP2 PUSH1 0x1 PUSH1 0x1 PUSH1 0xA0 SHL SUB DUP2 AND PUSH2 0x1C59 JUMPI PUSH1 0x40 MLOAD PUSH4 0x6E5EC59F PUSH1 0xE0 SHL DUP2 MSTORE PUSH1 0x4 ADD PUSH1 0x40 MLOAD DUP1 SWAP2 SUB SWAP1 REVERT JUMPDEST PUSH2 0x1C71 PUSH1 0x0 DUP1 MLOAD PUSH1 0x20 PUSH2 0x2E08 DUP4 CODECOPY DUP2 MLOAD SWAP2 MSTORE DUP5 PUSH2 0x125F JUMP JUMPDEST PUSH2 0x1CAC JUMPI PUSH1 0x40 MLOAD PUSH3 0x461BCD PUSH1 0xE5 SHL DUP2 MSTORE PUSH1 0x20 PUSH1 0x4 DUP3 ADD MSTORE PUSH1 0xC PUSH1 0x24 DUP3 ADD MSTORE PUSH12 0x4E6F74207472656173757279 PUSH1 0xA0 SHL PUSH1 0x44 DUP3 ADD MSTORE PUSH1 0x64 ADD PUSH2 0x82C JUMP JUMPDEST PUSH2 0x1CC4 PUSH1 0x0 DUP1 MLOAD PUSH1 0x20 PUSH2 0x2E08 DUP4 CODECOPY DUP2 MLOAD SWAP2 MSTORE DUP5 PUSH2 0x1EB4 JUMP JUMPDEST POP DUP3 PUSH1 0x1 PUSH1 0x1 PUSH1 0xA0 SHL SUB AND PUSH32 0x238BE719BECF7DE7673229DA18D51189916A74316CCD29739E8BF3FA30288D87 PUSH1 0x40 MLOAD PUSH2 0x923 SWAP1 PUSH1 0x20 DUP1 DUP3 MSTORE PUSH1 0x18 SWAP1 DUP3 ADD MSTORE PUSH32 0x547265617375727920416464726573732052656D6F7665640000000000000000 PUSH1 0x40 DUP3 ADD MSTORE PUSH1 0x60 ADD SWAP1 JUMP JUMPDEST PUSH2 0x1D37 DUP3 PUSH2 0xC13 JUMP JUMPDEST PUSH2 0x1D40 DUP2 PUSH2 0x1EA0 JUMP JUMPDEST PUSH2 0xC51 DUP4 DUP4 PUSH2 0x1EB4 JUMP JUMPDEST PUSH1 0x1 PUSH1 0x1 PUSH1 0xA0 SHL SUB SWAP2 DUP3 AND PUSH1 0x0 SWAP1 DUP2 MSTORE PUSH32 0x52C63247E1F47DB19D5CE0460030C497F067CA4CEBF71BA98EEADABE20BACE01 PUSH1 0x20 SWAP1 DUP2 MSTORE PUSH1 0x40 DUP1 DUP4 KECCAK256 SWAP4 SWAP1 SWAP5 AND DUP3 MSTORE SWAP2 SWAP1 SWAP2 MSTORE KECCAK256 SLOAD SWAP1 JUMP JUMPDEST PUSH1 0x0 PUSH2 0x1D9F DUP2 PUSH2 0x1EA0 JUMP JUMPDEST POP PUSH1 0x1 PUSH1 0x1 PUSH1 0xA0 SHL SUB SWAP2 SWAP1 SWAP2 AND PUSH1 0x0 SWAP1 DUP2 MSTORE PUSH1 0x2 PUSH1 0x20 MSTORE PUSH1 0x40 SWAP1 KECCAK256 DUP1 SLOAD PUSH1 0xFF NOT AND SWAP2 ISZERO ISZERO SWAP2 SWAP1 SWAP2 OR SWAP1 SSTORE JUMP JUMPDEST PUSH1 0x0 PUSH2 0x1DD6 DUP2 PUSH2 0x1EA0 JUMP JUMPDEST DUP2 PUSH1 0x1 PUSH1 0x1 PUSH1 0xA0 SHL SUB DUP2 AND PUSH2 0x1DFE JUMPI PUSH1 0x40 MLOAD PUSH4 0x6E5EC59F PUSH1 0xE0 SHL DUP2 MSTORE PUSH1 0x4 ADD PUSH1 0x40 MLOAD DUP1 SWAP2 SUB SWAP1 REVERT JUMPDEST PUSH1 0x1 PUSH1 0x1 PUSH1 0xA0 SHL SUB DUP4 AND PUSH1 0x0 DUP2 DUP2 MSTORE PUSH1 0x1 PUSH1 0x20 DUP2 SWAP1 MSTORE PUSH1 0x40 DUP1 DUP4 KECCAK256 DUP1 SLOAD PUSH1 0xFF NOT AND SWAP1 SWAP3 OR SWAP1 SWAP2 SSTORE MLOAD PUSH32 0x4F2A367E694E71282F29AB5EAA04C4C0BE45AC5BF2CA74FB67068B98BDC2887D SWAP2 SWAP1 LOG2 POP POP POP JUMP JUMPDEST PUSH1 0x0 PUSH1 0x1 PUSH1 0x1 PUSH1 0xE0 SHL SUB NOT DUP3 AND PUSH4 0x7965DB0B PUSH1 0xE0 SHL EQ DUP1 PUSH2 0x6B5 JUMPI POP PUSH4 0x1FFC9A7 PUSH1 0xE0 SHL PUSH1 0x1 PUSH1 0x1 PUSH1 0xE0 SHL SUB NOT DUP4 AND EQ PUSH2 0x6B5 JUMP JUMPDEST PUSH1 0x0 PUSH2 0x1E8E PUSH2 0x2063 JUMP JUMPDEST SWAP1 POP SWAP1 JUMP JUMPDEST PUSH2 0xDFD DUP4 DUP4 DUP4 PUSH1 0x1 PUSH2 0x20BF JUMP JUMPDEST PUSH2 0x1EB1 DUP2 PUSH2 0x1EAC PUSH2 0x1E84 JUMP JUMPDEST PUSH2 0x21A6 JUMP JUMPDEST POP JUMP JUMPDEST PUSH1 0x0 PUSH1 0x0 DUP1 MLOAD PUSH1 0x20 PUSH2 0x2D48 DUP4 CODECOPY DUP2 MLOAD SWAP2 MSTORE DUP2 PUSH2 0x1ED0 DUP6 DUP6 PUSH2 0x21DF JUMP JUMPDEST SWAP1 POP DUP1 ISZERO PUSH2 0x1257 JUMPI PUSH1 0x0 DUP6 DUP2 MSTORE PUSH1 0x20 DUP4 SWAP1 MSTORE PUSH1 0x40 SWAP1 KECCAK256 PUSH2 0x1EF0 SWAP1 DUP6 PUSH2 0x2283 JUMP JUMPDEST POP SWAP5 SWAP4 POP POP POP POP JUMP JUMPDEST PUSH1 0x0 DUP1 PUSH2 0x1F04 PUSH2 0x1E84 JUMP JUMPDEST SWAP1 POP PUSH2 0x1F11 DUP6 DUP3 DUP6 PUSH2 0x2298 JUMP JUMPDEST PUSH2 0x1F1C DUP6 DUP6 DUP6 PUSH2 0x22F9 JUMP JUMPDEST POP PUSH1 0x1 SWAP5 SWAP4 POP POP POP POP JUMP JUMPDEST PUSH1 0x0 PUSH1 0x0 DUP1 MLOAD PUSH1 0x20 PUSH2 0x2D48 DUP4 CODECOPY DUP2 MLOAD SWAP2 MSTORE DUP2 PUSH2 0x1F43 DUP6 DUP6 PUSH2 0x2358 JUMP JUMPDEST SWAP1 POP DUP1 ISZERO PUSH2 0x1257 JUMPI PUSH1 0x0 DUP6 DUP2 MSTORE PUSH1 0x20 DUP4 SWAP1 MSTORE PUSH1 0x40 SWAP1 KECCAK256 PUSH2 0x1EF0 SWAP1 DUP6 PUSH2 0x23F4 JUMP JUMPDEST PUSH1 0x1 PUSH1 0x1 PUSH1 0xA0 SHL SUB DUP3 AND PUSH2 0x1F8D JUMPI PUSH1 0x40 MLOAD PUSH4 0xEC442F05 PUSH1 0xE0 SHL DUP2 MSTORE PUSH1 0x0 PUSH1 0x4 DUP3 ADD MSTORE PUSH1 0x24 ADD PUSH2 0x82C JUMP JUMPDEST PUSH2 0x1F99 PUSH1 0x0 DUP4 DUP4 PUSH2 0x2409 JUMP JUMPDEST POP POP JUMP JUMPDEST PUSH1 0x0 PUSH2 0x1374 DUP4 DUP4 PUSH2 0x2547 JUMP JUMPDEST PUSH1 0x1 PUSH1 0x1 PUSH1 0xA0 SHL SUB DUP3 AND PUSH2 0x1FD3 JUMPI PUSH1 0x40 MLOAD PUSH4 0x4B637E8F PUSH1 0xE1 SHL DUP2 MSTORE PUSH1 0x0 PUSH1 0x4 DUP3 ADD MSTORE PUSH1 0x24 ADD PUSH2 0x82C JUMP JUMPDEST PUSH2 0x1F99 DUP3 PUSH1 0x0 DUP4 PUSH2 0x2409 JUMP JUMPDEST PUSH1 0x60 PUSH1 0x0 PUSH2 0x1374 DUP4 PUSH2 0x2571 JUMP JUMPDEST PUSH1 0x0 DUP1 PUSH2 0x1FF7 PUSH2 0x1E84 JUMP JUMPDEST SWAP1 POP PUSH2 0x796 DUP2 DUP6 DUP6 PUSH2 0x22F9 JUMP JUMPDEST PUSH1 0x0 DUP1 PUSH32 0xF0C57E16840DF040F15088DC2F81FE391C3923BEC73E23A9662EFC9C229C6A00 PUSH2 0x6B5 JUMP JUMPDEST PUSH2 0x2035 PUSH2 0x25CD JUMP JUMPDEST PUSH2 0x1F99 DUP3 DUP3 PUSH2 0x25F2 JUMP JUMPDEST PUSH2 0x2047 PUSH2 0x25CD JUMP JUMPDEST JUMP JUMPDEST PUSH2 0x2051 PUSH2 0x25CD JUMP JUMPDEST PUSH2 0x2047 PUSH2 0x2643 JUMP JUMPDEST PUSH1 0x0 PUSH2 0x6B5 DUP3 SLOAD SWAP1 JUMP JUMPDEST CALLER PUSH1 0x0 SWAP1 DUP2 MSTORE PUSH1 0x2 PUSH1 0x20 MSTORE PUSH1 0x40 DUP2 KECCAK256 SLOAD CALLDATASIZE SWAP1 PUSH1 0x14 SWAP1 PUSH1 0xFF AND DUP1 ISZERO PUSH2 0x2087 JUMPI POP DUP1 DUP3 LT ISZERO JUMPDEST ISZERO PUSH2 0x20B7 JUMPI PUSH1 0x0 CALLDATASIZE PUSH2 0x2099 DUP4 DUP6 PUSH2 0x2B78 JUMP JUMPDEST PUSH2 0x20A4 SWAP3 DUP3 SWAP1 PUSH2 0x2B8B JUMP JUMPDEST PUSH2 0x20AD SWAP2 PUSH2 0x2BB5 JUMP JUMPDEST PUSH1 0x60 SHR SWAP3 POP POP POP SWAP1 JUMP JUMPDEST CALLER SWAP3 POP POP POP SWAP1 JUMP JUMPDEST PUSH1 0x0 DUP1 MLOAD PUSH1 0x20 PUSH2 0x2D88 DUP4 CODECOPY DUP2 MLOAD SWAP2 MSTORE PUSH1 0x1 PUSH1 0x1 PUSH1 0xA0 SHL SUB DUP6 AND PUSH2 0x20F8 JUMPI PUSH1 0x40 MLOAD PUSH4 0xE602DF05 PUSH1 0xE0 SHL DUP2 MSTORE PUSH1 0x0 PUSH1 0x4 DUP3 ADD MSTORE PUSH1 0x24 ADD PUSH2 0x82C JUMP JUMPDEST PUSH1 0x1 PUSH1 0x1 PUSH1 0xA0 SHL SUB DUP5 AND PUSH2 0x2122 JUMPI PUSH1 0x40 MLOAD PUSH4 0x4A1406B1 PUSH1 0xE1 SHL DUP2 MSTORE PUSH1 0x0 PUSH1 0x4 DUP3 ADD MSTORE PUSH1 0x24 ADD PUSH2 0x82C JUMP JUMPDEST PUSH1 0x1 PUSH1 0x1 PUSH1 0xA0 SHL SUB DUP1 DUP7 AND PUSH1 0x0 SWAP1 DUP2 MSTORE PUSH1 0x1 DUP4 ADD PUSH1 0x20 SWAP1 DUP2 MSTORE PUSH1 0x40 DUP1 DUP4 KECCAK256 SWAP4 DUP9 AND DUP4 MSTORE SWAP3 SWAP1 MSTORE KECCAK256 DUP4 SWAP1 SSTORE DUP2 ISZERO PUSH2 0x1342 JUMPI DUP4 PUSH1 0x1 PUSH1 0x1 PUSH1 0xA0 SHL SUB AND DUP6 PUSH1 0x1 PUSH1 0x1 PUSH1 0xA0 SHL SUB AND PUSH32 0x8C5BE1E5EBEC7D5BD14F71427D1E84F3DD0314C0F7B2291E5B200AC8C7C3B925 DUP6 PUSH1 0x40 MLOAD PUSH2 0x2197 SWAP2 DUP2 MSTORE PUSH1 0x20 ADD SWAP1 JUMP JUMPDEST PUSH1 0x40 MLOAD DUP1 SWAP2 SUB SWAP1 LOG3 POP POP POP POP POP JUMP JUMPDEST PUSH2 0x21B0 DUP3 DUP3 PUSH2 0x125F JUMP JUMPDEST PUSH2 0x1F99 JUMPI PUSH1 0x40 MLOAD PUSH4 0xE2517D3F PUSH1 0xE0 SHL DUP2 MSTORE PUSH1 0x1 PUSH1 0x1 PUSH1 0xA0 SHL SUB DUP3 AND PUSH1 0x4 DUP3 ADD MSTORE PUSH1 0x24 DUP2 ADD DUP4 SWAP1 MSTORE PUSH1 0x44 ADD PUSH2 0x82C JUMP JUMPDEST PUSH1 0x0 PUSH1 0x0 DUP1 MLOAD PUSH1 0x20 PUSH2 0x2DE8 DUP4 CODECOPY DUP2 MLOAD SWAP2 MSTORE PUSH2 0x21FA DUP5 DUP5 PUSH2 0x125F JUMP JUMPDEST ISZERO PUSH2 0x2279 JUMPI PUSH1 0x0 DUP5 DUP2 MSTORE PUSH1 0x20 DUP3 DUP2 MSTORE PUSH1 0x40 DUP1 DUP4 KECCAK256 PUSH1 0x1 PUSH1 0x1 PUSH1 0xA0 SHL SUB DUP8 AND DUP5 MSTORE SWAP1 SWAP2 MSTORE SWAP1 KECCAK256 DUP1 SLOAD PUSH1 0xFF NOT AND SWAP1 SSTORE PUSH2 0x222F PUSH2 0x1E84 JUMP JUMPDEST PUSH1 0x1 PUSH1 0x1 PUSH1 0xA0 SHL SUB AND DUP4 PUSH1 0x1 PUSH1 0x1 PUSH1 0xA0 SHL SUB AND DUP6 PUSH32 0xF6391F5C32D9C69D2A47EA670B442974B53935D1EDC7FD64EB21E047A839171B PUSH1 0x40 MLOAD PUSH1 0x40 MLOAD DUP1 SWAP2 SUB SWAP1 LOG4 PUSH1 0x1 SWAP2 POP POP PUSH2 0x6B5 JUMP JUMPDEST PUSH1 0x0 SWAP2 POP POP PUSH2 0x6B5 JUMP JUMPDEST PUSH1 0x0 PUSH2 0x1374 DUP4 PUSH1 0x1 PUSH1 0x1 PUSH1 0xA0 SHL SUB DUP5 AND PUSH2 0x2671 JUMP JUMPDEST PUSH1 0x0 PUSH2 0x22A4 DUP5 DUP5 PUSH2 0x1D4A JUMP JUMPDEST SWAP1 POP PUSH1 0x0 NOT DUP2 LT ISZERO PUSH2 0xC51 JUMPI DUP2 DUP2 LT ISZERO PUSH2 0x22EA JUMPI PUSH1 0x40 MLOAD PUSH4 0x7DC7A0D9 PUSH1 0xE1 SHL DUP2 MSTORE PUSH1 0x1 PUSH1 0x1 PUSH1 0xA0 SHL SUB DUP5 AND PUSH1 0x4 DUP3 ADD MSTORE PUSH1 0x24 DUP2 ADD DUP3 SWAP1 MSTORE PUSH1 0x44 DUP2 ADD DUP4 SWAP1 MSTORE PUSH1 0x64 ADD PUSH2 0x82C JUMP JUMPDEST PUSH2 0xC51 DUP5 DUP5 DUP5 DUP5 SUB PUSH1 0x0 PUSH2 0x20BF JUMP JUMPDEST PUSH1 0x1 PUSH1 0x1 PUSH1 0xA0 SHL SUB DUP4 AND PUSH2 0x2323 JUMPI PUSH1 0x40 MLOAD PUSH4 0x4B637E8F PUSH1 0xE1 SHL DUP2 MSTORE PUSH1 0x0 PUSH1 0x4 DUP3 ADD MSTORE PUSH1 0x24 ADD PUSH2 0x82C JUMP JUMPDEST PUSH1 0x1 PUSH1 0x1 PUSH1 0xA0 SHL SUB DUP3 AND PUSH2 0x234D JUMPI PUSH1 0x40 MLOAD PUSH4 0xEC442F05 PUSH1 0xE0 SHL DUP2 MSTORE PUSH1 0x0 PUSH1 0x4 DUP3 ADD MSTORE PUSH1 0x24 ADD PUSH2 0x82C JUMP JUMPDEST PUSH2 0xDFD DUP4 DUP4 DUP4 PUSH2 0x2409 JUMP JUMPDEST PUSH1 0x0 PUSH1 0x0 DUP1 MLOAD PUSH1 0x20 PUSH2 0x2DE8 DUP4 CODECOPY DUP2 MLOAD SWAP2 MSTORE PUSH2 0x2373 DUP5 DUP5 PUSH2 0x125F JUMP JUMPDEST PUSH2 0x2279 JUMPI PUSH1 0x0 DUP5 DUP2 MSTORE PUSH1 0x20 DUP3 DUP2 MSTORE PUSH1 0x40 DUP1 DUP4 KECCAK256 PUSH1 0x1 PUSH1 0x1 PUSH1 0xA0 SHL SUB DUP8 AND DUP5 MSTORE SWAP1 SWAP2 MSTORE SWAP1 KECCAK256 DUP1 SLOAD PUSH1 0xFF NOT AND PUSH1 0x1 OR SWAP1 SSTORE PUSH2 0x23AA PUSH2 0x1E84 JUMP JUMPDEST PUSH1 0x1 PUSH1 0x1 PUSH1 0xA0 SHL SUB AND DUP4 PUSH1 0x1 PUSH1 0x1 PUSH1 0xA0 SHL SUB AND DUP6 PUSH32 0x2F8788117E7EFF1D82E926EC794901D17C78024A50270940304540A733656F0D PUSH1 0x40 MLOAD PUSH1 0x40 MLOAD DUP1 SWAP2 SUB SWAP1 LOG4 PUSH1 0x1 SWAP2 POP POP PUSH2 0x6B5 JUMP JUMPDEST PUSH1 0x0 PUSH2 0x1374 DUP4 PUSH1 0x1 PUSH1 0x1 PUSH1 0xA0 SHL SUB DUP5 AND PUSH2 0x275A JUMP JUMPDEST PUSH1 0x0 DUP1 MLOAD PUSH1 0x20 PUSH2 0x2D88 DUP4 CODECOPY DUP2 MLOAD SWAP2 MSTORE PUSH1 0x1 PUSH1 0x1 PUSH1 0xA0 SHL SUB DUP5 AND PUSH2 0x2445 JUMPI DUP2 DUP2 PUSH1 0x2 ADD PUSH1 0x0 DUP3 DUP3 SLOAD PUSH2 0x243A SWAP2 SWAP1 PUSH2 0x2BEA JUMP JUMPDEST SWAP1 SWAP2 SSTORE POP PUSH2 0x24B7 SWAP1 POP JUMP JUMPDEST PUSH1 0x1 PUSH1 0x1 PUSH1 0xA0 SHL SUB DUP5 AND PUSH1 0x0 SWAP1 DUP2 MSTORE PUSH1 0x20 DUP3 SWAP1 MSTORE PUSH1 0x40 SWAP1 KECCAK256 SLOAD DUP3 DUP2 LT ISZERO PUSH2 0x2498 JUMPI PUSH1 0x40 MLOAD PUSH4 0x391434E3 PUSH1 0xE2 SHL DUP2 MSTORE PUSH1 0x1 PUSH1 0x1 PUSH1 0xA0 SHL SUB DUP7 AND PUSH1 0x4 DUP3 ADD MSTORE PUSH1 0x24 DUP2 ADD DUP3 SWAP1 MSTORE PUSH1 0x44 DUP2 ADD DUP5 SWAP1 MSTORE PUSH1 0x64 ADD PUSH2 0x82C JUMP JUMPDEST PUSH1 0x1 PUSH1 0x1 PUSH1 0xA0 SHL SUB DUP6 AND PUSH1 0x0 SWAP1 DUP2 MSTORE PUSH1 0x20 DUP4 SWAP1 MSTORE PUSH1 0x40 SWAP1 KECCAK256 SWAP1 DUP4 SWAP1 SUB SWAP1 SSTORE JUMPDEST PUSH1 0x1 PUSH1 0x1 PUSH1 0xA0 SHL SUB DUP4 AND PUSH2 0x24D5 JUMPI PUSH1 0x2 DUP2 ADD DUP1 SLOAD DUP4 SWAP1 SUB SWAP1 SSTORE PUSH2 0x24F4 JUMP JUMPDEST PUSH1 0x1 PUSH1 0x1 PUSH1 0xA0 SHL SUB DUP4 AND PUSH1 0x0 SWAP1 DUP2 MSTORE PUSH1 0x20 DUP3 SWAP1 MSTORE PUSH1 0x40 SWAP1 KECCAK256 DUP1 SLOAD DUP4 ADD SWAP1 SSTORE JUMPDEST DUP3 PUSH1 0x1 PUSH1 0x1 PUSH1 0xA0 SHL SUB AND DUP5 PUSH1 0x1 PUSH1 0x1 PUSH1 0xA0 SHL SUB AND PUSH32 0xDDF252AD1BE2C89B69C2B068FC378DAA952BA7F163C4A11628F55A4DF523B3EF DUP5 PUSH1 0x40 MLOAD PUSH2 0x2539 SWAP2 DUP2 MSTORE PUSH1 0x20 ADD SWAP1 JUMP JUMPDEST PUSH1 0x40 MLOAD DUP1 SWAP2 SUB SWAP1 LOG3 POP POP POP POP JUMP JUMPDEST PUSH1 0x0 DUP3 PUSH1 0x0 ADD DUP3 DUP2 SLOAD DUP2 LT PUSH2 0x255E JUMPI PUSH2 0x255E PUSH2 0x2BFD JUMP JUMPDEST SWAP1 PUSH1 0x0 MSTORE PUSH1 0x20 PUSH1 0x0 KECCAK256 ADD SLOAD SWAP1 POP SWAP3 SWAP2 POP POP JUMP JUMPDEST PUSH1 0x60 DUP2 PUSH1 0x0 ADD DUP1 SLOAD DUP1 PUSH1 0x20 MUL PUSH1 0x20 ADD PUSH1 0x40 MLOAD SWAP1 DUP2 ADD PUSH1 0x40 MSTORE DUP1 SWAP3 SWAP2 SWAP1 DUP2 DUP2 MSTORE PUSH1 0x20 ADD DUP3 DUP1 SLOAD DUP1 ISZERO PUSH2 0x25C1 JUMPI PUSH1 0x20 MUL DUP3 ADD SWAP2 SWAP1 PUSH1 0x0 MSTORE PUSH1 0x20 PUSH1 0x0 KECCAK256 SWAP1 JUMPDEST DUP2 SLOAD DUP2 MSTORE PUSH1 0x20 ADD SWAP1 PUSH1 0x1 ADD SWAP1 DUP1 DUP4 GT PUSH2 0x25AD JUMPI JUMPDEST POP POP POP POP POP SWAP1 POP SWAP2 SWAP1 POP JUMP JUMPDEST PUSH2 0x25D5 PUSH2 0x27A9 JUMP JUMPDEST PUSH2 0x2047 JUMPI PUSH1 0x40 MLOAD PUSH4 0x1AFCD79F PUSH1 0xE3 SHL DUP2 MSTORE PUSH1 0x4 ADD PUSH1 0x40 MLOAD DUP1 SWAP2 SUB SWAP1 REVERT JUMPDEST PUSH2 0x25FA PUSH2 0x25CD JUMP JUMPDEST PUSH1 0x0 DUP1 MLOAD PUSH1 0x20 PUSH2 0x2D88 DUP4 CODECOPY DUP2 MLOAD SWAP2 MSTORE PUSH32 0x52C63247E1F47DB19D5CE0460030C497F067CA4CEBF71BA98EEADABE20BACE03 PUSH2 0x2634 DUP5 DUP3 PUSH2 0x2C71 JUMP JUMPDEST POP PUSH1 0x4 DUP2 ADD PUSH2 0xC51 DUP4 DUP3 PUSH2 0x2C71 JUMP JUMPDEST PUSH2 0x264B PUSH2 0x25CD JUMP JUMPDEST PUSH1 0x1 PUSH32 0x9B779B17422D0DF92223018B32B4D1FA46E071723D6817E2486D003BECC55F00 SSTORE JUMP JUMPDEST PUSH1 0x0 DUP2 DUP2 MSTORE PUSH1 0x1 DUP4 ADD PUSH1 0x20 MSTORE PUSH1 0x40 DUP2 KECCAK256 SLOAD DUP1 ISZERO PUSH2 0x2279 JUMPI PUSH1 0x0 PUSH2 0x2695 PUSH1 0x1 DUP4 PUSH2 0x2B78 JUMP JUMPDEST DUP6 SLOAD SWAP1 SWAP2 POP PUSH1 0x0 SWAP1 PUSH2 0x26A9 SWAP1 PUSH1 0x1 SWAP1 PUSH2 0x2B78 JUMP JUMPDEST SWAP1 POP DUP1 DUP3 EQ PUSH2 0x270E JUMPI PUSH1 0x0 DUP7 PUSH1 0x0 ADD DUP3 DUP2 SLOAD DUP2 LT PUSH2 0x26C9 JUMPI PUSH2 0x26C9 PUSH2 0x2BFD JUMP JUMPDEST SWAP1 PUSH1 0x0 MSTORE PUSH1 0x20 PUSH1 0x0 KECCAK256 ADD SLOAD SWAP1 POP DUP1 DUP8 PUSH1 0x0 ADD DUP5 DUP2 SLOAD DUP2 LT PUSH2 0x26EC JUMPI PUSH2 0x26EC PUSH2 0x2BFD JUMP JUMPDEST PUSH1 0x0 SWAP2 DUP3 MSTORE PUSH1 0x20 DUP1 DUP4 KECCAK256 SWAP1 SWAP2 ADD SWAP3 SWAP1 SWAP3 SSTORE SWAP2 DUP3 MSTORE PUSH1 0x1 DUP9 ADD SWAP1 MSTORE PUSH1 0x40 SWAP1 KECCAK256 DUP4 SWAP1 SSTORE JUMPDEST DUP6 SLOAD DUP7 SWAP1 DUP1 PUSH2 0x271F JUMPI PUSH2 0x271F PUSH2 0x2D31 JUMP JUMPDEST PUSH1 0x1 SWAP1 SUB DUP2 DUP2 SWAP1 PUSH1 0x0 MSTORE PUSH1 0x20 PUSH1 0x0 KECCAK256 ADD PUSH1 0x0 SWAP1 SSTORE SWAP1 SSTORE DUP6 PUSH1 0x1 ADD PUSH1 0x0 DUP7 DUP2 MSTORE PUSH1 0x20 ADD SWAP1 DUP2 MSTORE PUSH1 0x20 ADD PUSH1 0x0 KECCAK256 PUSH1 0x0 SWAP1 SSTORE PUSH1 0x1 SWAP4 POP POP POP POP PUSH2 0x6B5 JUMP JUMPDEST PUSH1 0x0 DUP2 DUP2 MSTORE PUSH1 0x1 DUP4 ADD PUSH1 0x20 MSTORE PUSH1 0x40 DUP2 KECCAK256 SLOAD PUSH2 0x27A1 JUMPI POP DUP2 SLOAD PUSH1 0x1 DUP2 DUP2 ADD DUP5 SSTORE PUSH1 0x0 DUP5 DUP2 MSTORE PUSH1 0x20 DUP1 DUP3 KECCAK256 SWAP1 SWAP4 ADD DUP5 SWAP1 SSTORE DUP5 SLOAD DUP5 DUP3 MSTORE DUP3 DUP7 ADD SWAP1 SWAP4 MSTORE PUSH1 0x40 SWAP1 KECCAK256 SWAP2 SWAP1 SWAP2 SSTORE PUSH2 0x6B5 JUMP JUMPDEST POP PUSH1 0x0 PUSH2 0x6B5 JUMP JUMPDEST PUSH1 0x0 PUSH2 0x27B3 PUSH2 0x2004 JUMP JUMPDEST SLOAD PUSH1 0x1 PUSH1 0x40 SHL SWAP1 DIV PUSH1 0xFF AND SWAP2 SWAP1 POP JUMP JUMPDEST PUSH1 0x0 PUSH1 0x20 DUP3 DUP5 SUB SLT ISZERO PUSH2 0x27D5 JUMPI PUSH1 0x0 DUP1 REVERT JUMPDEST DUP2 CALLDATALOAD PUSH1 0x1 PUSH1 0x1 PUSH1 0xE0 SHL SUB NOT DUP2 AND DUP2 EQ PUSH2 0x1374 JUMPI PUSH1 0x0 DUP1 REVERT JUMPDEST PUSH1 0x0 PUSH1 0x20 DUP1 DUP4 MSTORE DUP4 MLOAD DUP1 PUSH1 0x20 DUP6 ADD MSTORE PUSH1 0x0 JUMPDEST DUP2 DUP2 LT ISZERO PUSH2 0x281B JUMPI DUP6 DUP2 ADD DUP4 ADD MLOAD DUP6 DUP3 ADD PUSH1 0x40 ADD MSTORE DUP3 ADD PUSH2 0x27FF JUMP JUMPDEST POP PUSH1 0x0 PUSH1 0x40 DUP3 DUP7 ADD ADD MSTORE PUSH1 0x40 PUSH1 0x1F NOT PUSH1 0x1F DUP4 ADD AND DUP6 ADD ADD SWAP3 POP POP POP SWAP3 SWAP2 POP POP JUMP JUMPDEST DUP1 CALLDATALOAD PUSH1 0x1 PUSH1 0x1 PUSH1 0xA0 SHL SUB DUP2 AND DUP2 EQ PUSH2 0x2853 JUMPI PUSH1 0x0 DUP1 REVERT JUMPDEST SWAP2 SWAP1 POP JUMP JUMPDEST PUSH1 0x0 DUP1 PUSH1 0x40 DUP4 DUP6 SUB SLT ISZERO PUSH2 0x286B JUMPI PUSH1 0x0 DUP1 REVERT JUMPDEST PUSH2 0x2874 DUP4 PUSH2 0x283C JUMP JUMPDEST SWAP5 PUSH1 0x20 SWAP4 SWAP1 SWAP4 ADD CALLDATALOAD SWAP4 POP POP POP JUMP JUMPDEST PUSH1 0x0 PUSH1 0x20 DUP3 DUP5 SUB SLT ISZERO PUSH2 0x2894 JUMPI PUSH1 0x0 DUP1 REVERT JUMPDEST PUSH2 0x1374 DUP3 PUSH2 0x283C JUMP JUMPDEST PUSH1 0x0 DUP1 PUSH1 0x0 PUSH1 0x60 DUP5 DUP7 SUB SLT ISZERO PUSH2 0x28B2 JUMPI PUSH1 0x0 DUP1 REVERT JUMPDEST PUSH2 0x28BB DUP5 PUSH2 0x283C JUMP JUMPDEST SWAP3 POP PUSH2 0x28C9 PUSH1 0x20 DUP6 ADD PUSH2 0x283C JUMP JUMPDEST SWAP2 POP PUSH1 0x40 DUP5 ADD CALLDATALOAD SWAP1 POP SWAP3 POP SWAP3 POP SWAP3 JUMP JUMPDEST PUSH1 0x0 PUSH1 0x20 DUP3 DUP5 SUB SLT ISZERO PUSH2 0x28EB JUMPI PUSH1 0x0 DUP1 REVERT JUMPDEST POP CALLDATALOAD SWAP2 SWAP1 POP JUMP JUMPDEST PUSH1 0x0 DUP1 PUSH1 0x40 DUP4 DUP6 SUB SLT ISZERO PUSH2 0x2905 JUMPI PUSH1 0x0 DUP1 REVERT JUMPDEST DUP3 CALLDATALOAD SWAP2 POP PUSH2 0x2915 PUSH1 0x20 DUP5 ADD PUSH2 0x283C JUMP JUMPDEST SWAP1 POP SWAP3 POP SWAP3 SWAP1 POP JUMP JUMPDEST PUSH1 0x0 DUP1 PUSH1 0x40 DUP4 DUP6 SUB SLT ISZERO PUSH2 0x2931 JUMPI PUSH1 0x0 DUP1 REVERT JUMPDEST POP POP DUP1 CALLDATALOAD SWAP3 PUSH1 0x20 SWAP1 SWAP2 ADD CALLDATALOAD SWAP2 POP JUMP JUMPDEST PUSH1 0x20 DUP1 DUP3 MSTORE DUP3 MLOAD DUP3 DUP3 ADD DUP2 SWAP1 MSTORE PUSH1 0x0 SWAP2 SWAP1 DUP5 DUP3 ADD SWAP1 PUSH1 0x40 DUP6 ADD SWAP1 DUP5 JUMPDEST DUP2 DUP2 LT ISZERO PUSH2 0x2981 JUMPI DUP4 MLOAD PUSH1 0x1 PUSH1 0x1 PUSH1 0xA0 SHL SUB AND DUP4 MSTORE SWAP3 DUP5 ADD SWAP3 SWAP2 DUP5 ADD SWAP2 PUSH1 0x1 ADD PUSH2 0x295C JUMP JUMPDEST POP SWAP1 SWAP7 SWAP6 POP POP POP POP POP POP JUMP JUMPDEST PUSH1 0x0 DUP1 PUSH1 0x40 DUP4 DUP6 SUB SLT ISZERO PUSH2 0x29A0 JUMPI PUSH1 0x0 DUP1 REVERT JUMPDEST PUSH2 0x29A9 DUP4 PUSH2 0x283C JUMP JUMPDEST SWAP2 POP PUSH2 0x2915 PUSH1 0x20 DUP5 ADD PUSH2 0x283C JUMP JUMPDEST PUSH1 0x0 DUP1 PUSH1 0x40 DUP4 DUP6 SUB SLT ISZERO PUSH2 0x29CA JUMPI PUSH1 0x0 DUP1 REVERT JUMPDEST PUSH2 0x29D3 DUP4 PUSH2 0x283C JUMP JUMPDEST SWAP2 POP PUSH1 0x20 DUP4 ADD CALLDATALOAD DUP1 ISZERO ISZERO DUP2 EQ PUSH2 0x29E8 JUMPI PUSH1 0x0 DUP1 REVERT JUMPDEST DUP1 SWAP2 POP POP SWAP3 POP SWAP3 SWAP1 POP JUMP JUMPDEST PUSH1 0x1 DUP2 DUP2 SHR SWAP1 DUP3 AND DUP1 PUSH2 0x2A07 JUMPI PUSH1 0x7F DUP3 AND SWAP2 POP JUMPDEST PUSH1 0x20 DUP3 LT DUP2 SUB PUSH2 0x2A27 JUMPI PUSH4 0x4E487B71 PUSH1 0xE0 SHL PUSH1 0x0 MSTORE PUSH1 0x22 PUSH1 0x4 MSTORE PUSH1 0x24 PUSH1 0x0 REVERT JUMPDEST POP SWAP2 SWAP1 POP JUMP JUMPDEST PUSH1 0x20 DUP1 DUP3 MSTORE PUSH1 0x11 SWAP1 DUP3 ADD MSTORE PUSH17 0x20B1B1B7BAB73A1034B990333937BD32B7 PUSH1 0x79 SHL PUSH1 0x40 DUP3 ADD MSTORE PUSH1 0x60 ADD SWAP1 JUMP JUMPDEST PUSH4 0x4E487B71 PUSH1 0xE0 SHL PUSH1 0x0 MSTORE PUSH1 0x11 PUSH1 0x4 MSTORE PUSH1 0x24 PUSH1 0x0 REVERT JUMPDEST PUSH1 0x1 DUP2 DUP2 JUMPDEST DUP1 DUP6 GT ISZERO PUSH2 0x2AA9 JUMPI DUP2 PUSH1 0x0 NOT DIV DUP3 GT ISZERO PUSH2 0x2A8F JUMPI PUSH2 0x2A8F PUSH2 0x2A58 JUMP JUMPDEST DUP1 DUP6 AND ISZERO PUSH2 0x2A9C JUMPI SWAP2 DUP2 MUL SWAP2 JUMPDEST SWAP4 DUP5 SHR SWAP4 SWAP1 DUP1 MUL SWAP1 PUSH2 0x2A73 JUMP JUMPDEST POP SWAP3 POP SWAP3 SWAP1 POP JUMP JUMPDEST PUSH1 0x0 DUP3 PUSH2 0x2AC0 JUMPI POP PUSH1 0x1 PUSH2 0x6B5 JUMP JUMPDEST DUP2 PUSH2 0x2ACD JUMPI POP PUSH1 0x0 PUSH2 0x6B5 JUMP JUMPDEST DUP2 PUSH1 0x1 DUP2 EQ PUSH2 0x2AE3 JUMPI PUSH1 0x2 DUP2 EQ PUSH2 0x2AED JUMPI PUSH2 0x2B09 JUMP JUMPDEST PUSH1 0x1 SWAP2 POP POP PUSH2 0x6B5 JUMP JUMPDEST PUSH1 0xFF DUP5 GT ISZERO PUSH2 0x2AFE JUMPI PUSH2 0x2AFE PUSH2 0x2A58 JUMP JUMPDEST POP POP PUSH1 0x1 DUP3 SHL PUSH2 0x6B5 JUMP JUMPDEST POP PUSH1 0x20 DUP4 LT PUSH2 0x133 DUP4 LT AND PUSH1 0x4E DUP5 LT PUSH1 0xB DUP5 LT AND OR ISZERO PUSH2 0x2B2C JUMPI POP DUP2 DUP2 EXP PUSH2 0x6B5 JUMP JUMPDEST PUSH2 0x2B36 DUP4 DUP4 PUSH2 0x2A6E JUMP JUMPDEST DUP1 PUSH1 0x0 NOT DIV DUP3 GT ISZERO PUSH2 0x2B4A JUMPI PUSH2 0x2B4A PUSH2 0x2A58 JUMP JUMPDEST MUL SWAP4 SWAP3 POP POP POP JUMP JUMPDEST PUSH1 0x0 PUSH2 0x1374 PUSH1 0xFF DUP5 AND DUP4 PUSH2 0x2AB1 JUMP JUMPDEST DUP1 DUP3 MUL DUP2 ISZERO DUP3 DUP3 DIV DUP5 EQ OR PUSH2 0x6B5 JUMPI PUSH2 0x6B5 PUSH2 0x2A58 JUMP JUMPDEST DUP2 DUP2 SUB DUP2 DUP2 GT ISZERO PUSH2 0x6B5 JUMPI PUSH2 0x6B5 PUSH2 0x2A58 JUMP JUMPDEST PUSH1 0x0 DUP1 DUP6 DUP6 GT ISZERO PUSH2 0x2B9B JUMPI PUSH1 0x0 DUP1 REVERT JUMPDEST DUP4 DUP7 GT ISZERO PUSH2 0x2BA8 JUMPI PUSH1 0x0 DUP1 REVERT JUMPDEST POP POP DUP3 ADD SWAP4 SWAP2 SWAP1 SWAP3 SUB SWAP2 POP JUMP JUMPDEST PUSH12 0xFFFFFFFFFFFFFFFFFFFFFFFF NOT DUP2 CALLDATALOAD DUP2 DUP2 AND SWAP2 PUSH1 0x14 DUP6 LT ISZERO PUSH2 0x2BE2 JUMPI DUP1 DUP2 DUP7 PUSH1 0x14 SUB PUSH1 0x3 SHL SHL DUP4 AND AND SWAP3 POP JUMPDEST POP POP SWAP3 SWAP2 POP POP JUMP JUMPDEST DUP1 DUP3 ADD DUP1 DUP3 GT ISZERO PUSH2 0x6B5 JUMPI PUSH2 0x6B5 PUSH2 0x2A58 JUMP JUMPDEST PUSH4 0x4E487B71 PUSH1 0xE0 SHL PUSH1 0x0 MSTORE PUSH1 0x32 PUSH1 0x4 MSTORE PUSH1 0x24 PUSH1 0x0 REVERT JUMPDEST PUSH4 0x4E487B71 PUSH1 0xE0 SHL PUSH1 0x0 MSTORE PUSH1 0x41 PUSH1 0x4 MSTORE PUSH1 0x24 PUSH1 0x0 REVERT JUMPDEST PUSH1 0x1F DUP3 GT ISZERO PUSH2 0xDFD JUMPI PUSH1 0x0 DUP2 PUSH1 0x0 MSTORE PUSH1 0x20 PUSH1 0x0 KECCAK256 PUSH1 0x1F DUP6 ADD PUSH1 0x5 SHR DUP2 ADD PUSH1 0x20 DUP7 LT ISZERO PUSH2 0x2C52 JUMPI POP DUP1 JUMPDEST PUSH1 0x1F DUP6 ADD PUSH1 0x5 SHR DUP3 ADD SWAP2 POP JUMPDEST DUP2 DUP2 LT ISZERO PUSH2 0x189F JUMPI DUP3 DUP2 SSTORE PUSH1 0x1 ADD PUSH2 0x2C5E JUMP JUMPDEST DUP2 MLOAD PUSH8 0xFFFFFFFFFFFFFFFF DUP2 GT ISZERO PUSH2 0x2C8B JUMPI PUSH2 0x2C8B PUSH2 0x2C13 JUMP JUMPDEST PUSH2 0x2C9F DUP2 PUSH2 0x2C99 DUP5 SLOAD PUSH2 0x29F3 JUMP JUMPDEST DUP5 PUSH2 0x2C29 JUMP JUMPDEST PUSH1 0x20 DUP1 PUSH1 0x1F DUP4 GT PUSH1 0x1 DUP2 EQ PUSH2 0x2CD4 JUMPI PUSH1 0x0 DUP5 ISZERO PUSH2 0x2CBC JUMPI POP DUP6 DUP4 ADD MLOAD JUMPDEST PUSH1 0x0 NOT PUSH1 0x3 DUP7 SWAP1 SHL SHR NOT AND PUSH1 0x1 DUP6 SWAP1 SHL OR DUP6 SSTORE PUSH2 0x189F JUMP JUMPDEST PUSH1 0x0 DUP6 DUP2 MSTORE PUSH1 0x20 DUP2 KECCAK256 PUSH1 0x1F NOT DUP7 AND SWAP2 JUMPDEST DUP3 DUP2 LT ISZERO PUSH2 0x2D03 JUMPI DUP9 DUP7 ADD MLOAD DUP3 SSTORE SWAP5 DUP5 ADD SWAP5 PUSH1 0x1 SWAP1 SWAP2 ADD SWAP1 DUP5 ADD PUSH2 0x2CE4 JUMP JUMPDEST POP DUP6 DUP3 LT ISZERO PUSH2 0x2D21 JUMPI DUP8 DUP6 ADD MLOAD PUSH1 0x0 NOT PUSH1 0x3 DUP9 SWAP1 SHL PUSH1 0xF8 AND SHR NOT AND DUP2 SSTORE JUMPDEST POP POP POP POP POP PUSH1 0x1 SWAP1 DUP2 SHL ADD SWAP1 SSTORE POP JUMP JUMPDEST PUSH4 0x4E487B71 PUSH1 0xE0 SHL PUSH1 0x0 MSTORE PUSH1 0x31 PUSH1 0x4 MSTORE PUSH1 0x24 PUSH1 0x0 REVERT INVALID 0xC1 0xF6 INVALID 0x24 PUSH3 0x1CE81E 0xC5 DUP3 PUSH29 0xAF0253CADB74709B061630E6B55E82371705932000D22ED3A112884BD9 REVERT PUSH1 0x3 0xB7 SAR MUL 0xC2 0xA6 PUSH18 0xCF1DDCC8740E9A0A8E3AB3973E344F52C632 SELFBALANCE 0xE1 DELEGATECALL PUSH30 0xB19D5CE0460030C497F067CA4CEBF71BA98EEADABE20BACE00DA4D20B686 0xF7 BLOCKHASH BLOCKHASH COINBASE 0xD4 LOG4 SIGNEXTEND 0xC9 0x22 POP DUP8 CALLVALUE CREATE2 SWAP8 SWAP6 0xE8 0xA7 CODECOPY 0x4E 0x24 PUSH7 0x2EB8EC5B77B9F 0x2D CREATE INVALID 0xD2 0xC7 PUSH23 0x48DE5860A4CC508CD0818C85B8B8A1AB4CEEEF8D981C89 JUMP 0xA6 MUL 0xDD PUSH28 0xC7DEC4DCEEDDA775E58DD541E08A116C6C53815C0BD028192F7B6268 STOP 0xE1 0xDC 0xBD 0xB9 SAR CALLCODE PUSH19 0x12A29BC27177C840CF2F819ECF2187432E1FAC DUP7 0xC2 0xDD 0x5D 0xFC 0xA9 0xCB 0x4C ISZERO PUSH1 0xF0 0xAC PUSH25 0x3AF04187BDA6C71D491DEE6A63E28B3AD8457B60790F38EEBA LOG2 PUSH5 0x6970667358 0x22 SLT KECCAK256 SIGNEXTEND CALLVALUE 0xE0 CHAINID JUMPI SWAP8 0x2D 0xA5 PUSH23 0x9E85E3639CF6947222A4DF6DFC41AAA3C0820F52355D81 PUSH5 0x736F6C6343 STOP ADDMOD AND STOP CALLER "},"methodIdentifiers":{"BURN_VAULT_ROLE()":"3a594a1d","DEFAULT_ADMIN_ROLE()":"a217fddf","MINTER_ROLE()":"d5391393","TREASURY_ROLE()":"d11a57ec","UPGRADER_ROLE()":"f72c0d8b","WHITELIST_RECEIVER_ROLE()":"a8422c2f","WHITELIST_SENDER_ROLE()":"14eeb828","acceptAdminRole()":"8c3d7301","addTreasuryAddress(address)":"bae5ec04","addWhitelistReceiver(address)":"c80eeec2","addWhitelistSender(address)":"d403c878","allowance(address,address)":"dd62ed3e","approve(address,uint256)":"095ea7b3","balanceOf(address)":"70a08231","burn(address,uint256)":"9dc29fac","decimals()":"313ce567","freezeAccount(address)":"f26c159f","frozenAccounts(address)":"860838a5","getRoleAdmin(bytes32)":"248a9ca3","getRoleMember(bytes32,uint256)":"9010d07c","getRoleMemberCount(bytes32)":"ca15c873","getRoleMembers(bytes32)":"a3246ad3","grantRole(bytes32,address)":"2f2ff15d","hasRole(bytes32,address)":"91d14854","initialize(address)":"c4d66de8","isTrustedForwarder(address)":"572b6c05","mint(address,uint256)":"40c10f19","name()":"06fdde03","nominateAdmin(address)":"cd5ad4c5","nominatedAdmin()":"e8ac6533","removeTreasuryAddress(address)":"d4179e8d","removeWhitelistReceiver(address)":"175badcb","removeWhitelistSender(address)":"0ee3153f","renounceRole(bytes32,address)":"36568abe","revokeRole(bytes32,address)":"d547741f","setTrustedForwarder(address,bool)":"e691d03b","supportsInterface(bytes4)":"01ffc9a7","symbol()":"95d89b41","totalSupply()":"18160ddd","transfer(address,uint256)":"a9059cbb","transferFrom(address,address,uint256)":"23b872dd","trustedForwarder(address)":"76b88024","unfreezeAccount(address)":"788649ea","updateBurnVault(address)":"35f14f14","updateMinter(address)":"4eb03f6e"}},"storageLayout":{"storage":[{"astId":9560,"contract":"contracts/rKGEN.sol:rKGEN","label":"nominatedAdmin","offset":0,"slot":"0","type":"t_address"},{"astId":9564,"contract":"contracts/rKGEN.sol:rKGEN","label":"frozenAccounts","offset":0,"slot":"1","type":"t_mapping(t_address,t_bool)"},{"astId":9568,"contract":"contracts/rKGEN.sol:rKGEN","label":"trustedForwarder","offset":0,"slot":"2","type":"t_mapping(t_address,t_bool)"}],"types":{"t_address":{"encoding":"inplace","label":"address","numberOfBytes":"20"},"t_bool":{"encoding":"inplace","label":"bool","numberOfBytes":"1"},"t_mapping(t_address,t_bool)":{"encoding":"mapping","key":"t_address","label":"mapping(address => bool)","numberOfBytes":"32","value":"t_bool"}}}}}}