{"contracts/rkgen_airdrop.sol":{"RKGENAirdrop":{"abi":[{"inputs":[],"name":"AccessControlBadConfirmation","type":"error"},{"inputs":[{"internalType":"address","name":"account","type":"address"},{"internalType":"bytes32","name":"neededRole","type":"bytes32"}],"name":"AccessControlUnauthorizedAccount","type":"error"},{"inputs":[],"name":"AlreadyExists","type":"error"},{"inputs":[],"name":"ECDSAInvalidSignature","type":"error"},{"inputs":[{"internalType":"uint256","name":"length","type":"uint256"}],"name":"ECDSAInvalidSignatureLength","type":"error"},{"inputs":[{"internalType":"bytes32","name":"s","type":"bytes32"}],"name":"ECDSAInvalidSignatureS","type":"error"},{"inputs":[],"name":"InvalidAdmin","type":"error"},{"inputs":[],"name":"InvalidInitialization","type":"error"},{"inputs":[],"name":"InvalidNonce","type":"error"},{"inputs":[],"name":"InvalidSignature","type":"error"},{"inputs":[],"name":"InvalidSigner","type":"error"},{"inputs":[],"name":"NoNominatedAdmin","type":"error"},{"inputs":[],"name":"NotAdmin","type":"error"},{"inputs":[],"name":"NotInitializing","type":"error"},{"inputs":[],"name":"ReentrancyGuardReentrantCall","type":"error"},{"anonymous":false,"inputs":[{"indexed":true,"internalType":"address","name":"nominatedAdmin","type":"address"}],"name":"AdminNominated","type":"event"},{"anonymous":false,"inputs":[{"indexed":true,"internalType":"address","name":"newAdmin","type":"address"}],"name":"AdminUpdated","type":"event"},{"anonymous":false,"inputs":[{"indexed":true,"internalType":"address","name":"user","type":"address"},{"indexed":true,"internalType":"address","name":"token","type":"address"},{"indexed":false,"internalType":"uint256","name":"amount","type":"uint256"},{"indexed":false,"internalType":"uint256","name":"nonce","type":"uint256"}],"name":"Claimed","type":"event"},{"anonymous":false,"inputs":[{"indexed":false,"internalType":"uint64","name":"version","type":"uint64"}],"name":"Initialized","type":"event"},{"anonymous":false,"inputs":[{"indexed":true,"internalType":"bytes32","name":"role","type":"bytes32"},{"indexed":true,"internalType":"bytes32","name":"previousAdminRole","type":"bytes32"},{"indexed":true,"internalType":"bytes32","name":"newAdminRole","type":"bytes32"}],"name":"RoleAdminChanged","type":"event"},{"anonymous":false,"inputs":[{"indexed":true,"internalType":"bytes32","name":"role","type":"bytes32"},{"indexed":true,"internalType":"address","name":"account","type":"address"},{"indexed":true,"internalType":"address","name":"sender","type":"address"}],"name":"RoleGranted","type":"event"},{"anonymous":false,"inputs":[{"indexed":true,"internalType":"bytes32","name":"role","type":"bytes32"},{"indexed":true,"internalType":"address","name":"account","type":"address"},{"indexed":true,"internalType":"address","name":"sender","type":"address"}],"name":"RoleRevoked","type":"event"},{"anonymous":false,"inputs":[{"indexed":false,"internalType":"bytes","name":"signature","type":"bytes"},{"indexed":false,"internalType":"bool","name":"result","type":"bool"}],"name":"SignatureVerified","type":"event"},{"anonymous":false,"inputs":[{"indexed":true,"internalType":"address","name":"newSigner","type":"address"}],"name":"SignerUpdated","type":"event"},{"anonymous":false,"inputs":[{"indexed":true,"internalType":"address","name":"admin","type":"address"},{"indexed":true,"internalType":"address","name":"token","type":"address"},{"indexed":false,"internalType":"uint256","name":"amount","type":"uint256"}],"name":"TokensWithdrawn","type":"event"},{"inputs":[],"name":"ADMIN_ROLE","outputs":[{"internalType":"bytes32","name":"","type":"bytes32"}],"stateMutability":"view","type":"function"},{"inputs":[],"name":"DEFAULT_ADMIN_ROLE","outputs":[{"internalType":"bytes32","name":"","type":"bytes32"}],"stateMutability":"view","type":"function"},{"inputs":[],"name":"acceptAdminRole","outputs":[],"stateMutability":"nonpayable","type":"function"},{"inputs":[],"name":"chainId","outputs":[{"internalType":"uint256","name":"","type":"uint256"}],"stateMutability":"view","type":"function"},{"inputs":[{"internalType":"address","name":"token","type":"address"},{"internalType":"uint256","name":"amount","type":"uint256"},{"internalType":"uint256","name":"nonce","type":"uint256"},{"internalType":"bytes","name":"signature","type":"bytes"}],"name":"claim","outputs":[],"stateMutability":"nonpayable","type":"function"},{"inputs":[],"name":"getChainId","outputs":[{"internalType":"uint256","name":"","type":"uint256"}],"stateMutability":"view","type":"function"},{"inputs":[],"name":"getNominatedAdmin","outputs":[{"internalType":"address","name":"","type":"address"}],"stateMutability":"view","type":"function"},{"inputs":[{"internalType":"address","name":"user","type":"address"},{"internalType":"address","name":"token","type":"address"}],"name":"getNonce","outputs":[{"internalType":"uint256","name":"","type":"uint256"}],"stateMutability":"view","type":"function"},{"inputs":[],"name":"getRewardSigner","outputs":[{"internalType":"address","name":"","type":"address"}],"stateMutability":"view","type":"function"},{"inputs":[{"internalType":"bytes32","name":"role","type":"bytes32"}],"name":"getRoleAdmin","outputs":[{"internalType":"bytes32","name":"","type":"bytes32"}],"stateMutability":"view","type":"function"},{"inputs":[{"internalType":"bytes32","name":"role","type":"bytes32"},{"internalType":"address","name":"account","type":"address"}],"name":"grantRole","outputs":[],"stateMutability":"nonpayable","type":"function"},{"inputs":[{"internalType":"bytes32","name":"role","type":"bytes32"},{"internalType":"address","name":"account","type":"address"}],"name":"hasRole","outputs":[{"internalType":"bool","name":"","type":"bool"}],"stateMutability":"view","type":"function"},{"inputs":[{"internalType":"address","name":"admin","type":"address"},{"internalType":"address","name":"signer","type":"address"},{"internalType":"uint256","name":"_chainId","type":"uint256"}],"name":"initialize","outputs":[],"stateMutability":"nonpayable","type":"function"},{"inputs":[{"internalType":"address","name":"newAdmin","type":"address"}],"name":"nominateAdmin","outputs":[],"stateMutability":"nonpayable","type":"function"},{"inputs":[],"name":"nominatedAdmin","outputs":[{"internalType":"address","name":"","type":"address"}],"stateMutability":"view","type":"function"},{"inputs":[{"internalType":"address","name":"","type":"address"},{"internalType":"address","name":"","type":"address"}],"name":"nonces","outputs":[{"internalType":"uint256","name":"","type":"uint256"}],"stateMutability":"view","type":"function"},{"inputs":[{"internalType":"bytes32","name":"role","type":"bytes32"},{"internalType":"address","name":"callerConfirmation","type":"address"}],"name":"renounceRole","outputs":[],"stateMutability":"nonpayable","type":"function"},{"inputs":[{"internalType":"bytes32","name":"role","type":"bytes32"},{"internalType":"address","name":"account","type":"address"}],"name":"revokeRole","outputs":[],"stateMutability":"nonpayable","type":"function"},{"inputs":[],"name":"rewardSigner","outputs":[{"internalType":"address","name":"","type":"address"}],"stateMutability":"view","type":"function"},{"inputs":[{"internalType":"bytes4","name":"interfaceId","type":"bytes4"}],"name":"supportsInterface","outputs":[{"internalType":"bool","name":"","type":"bool"}],"stateMutability":"view","type":"function"},{"inputs":[{"internalType":"address","name":"newSigner","type":"address"}],"name":"updateSigner","outputs":[],"stateMutability":"nonpayable","type":"function"},{"inputs":[{"internalType":"address","name":"token","type":"address"},{"internalType":"uint256","name":"amount","type":"uint256"}],"name":"withdrawTokens","outputs":[],"stateMutability":"nonpayable","type":"function"}],"evm":{"bytecode":{"linkReferences":{},"object":"608060405234801561001057600080fd5b5060016000556111fd806100256000396000f3fe608060405234801561001057600080fd5b50600436106101425760003560e01c80638c3d7301116100b8578063a7ecd37e1161007c578063a7ecd37e146102a1578063b58ad07f146102b4578063cd5ad4c5146102c5578063d547741f146102d8578063d828435d146102eb578063e8ac65331461032457600080fd5b80638c3d73011461024a57806391d14854146102525780639333fbda146102655780639a8a059214610290578063a217fddf1461029957600080fd5b80632f2ff15d1161010a5780632f2ff15d146101cb578063323f24ab146101de5780633408e4701461020957806336568abe14610211578063442058991461022457806375b238fc1461023557600080fd5b806301ffc9a71461014757806306b091f91461016f5780631794bb3c14610184578063248a9ca3146101975780632ada8a32146101b8575b600080fd5b61015a610155366004610f25565b610337565b60405190151581526020015b60405180910390f35b61018261017d366004610f72565b61036e565b005b610182610192366004610f9c565b61043d565b6101aa6101a5366004610fd8565b61057f565b604051908152602001610166565b6101826101c6366004610ff1565b6105a1565b6101826101d9366004611085565b61084b565b6001546101f1906001600160a01b031681565b6040516001600160a01b039091168152602001610166565b6002546101aa565b61018261021f366004611085565b61086d565b6001546001600160a01b03166101f1565b6101aa6000805160206111a883398151915281565b6101826108a5565b61015a610260366004611085565b61095b565b6101aa6102733660046110b1565b600460209081526000928352604080842090915290825290205481565b6101aa60025481565b6101aa600081565b6101826102af3660046110db565b610993565b6003546001600160a01b03166101f1565b6101826102d33660046110db565b610a4b565b6101826102e6366004611085565b610afe565b6101aa6102f93660046110b1565b6001600160a01b03918216600090815260046020908152604080832093909416825291909152205490565b6003546101f1906001600160a01b031681565b60006001600160e01b03198216637965db0b60e01b148061036857506301ffc9a760e01b6001600160e01b03198316145b92915050565b6000805160206111a883398151915261038681610b1a565b60405163a9059cbb60e01b8152336004820152602481018390526001600160a01b0384169063a9059cbb906044016020604051808303816000875af11580156103d3573d6000803e3d6000fd5b505050506040513d601f19601f820116820180604052508101906103f791906110f6565b506040518281526001600160a01b0384169033907f6337ed398c0e8467698c581374fdce4db14922df487b5a39483079f5f59b60a49060200160405180910390a3505050565b6000610447610b27565b805490915060ff600160401b820416159067ffffffffffffffff1660008115801561046f5750825b905060008267ffffffffffffffff16600114801561048c5750303b155b90508115801561049a575080155b156104b85760405163f92ee8a960e01b815260040160405180910390fd5b845467ffffffffffffffff1916600117855583156104e257845460ff60401b1916600160401b1785555b6104ea610b50565b6104f5600089610b5a565b5061050e6000805160206111a883398151915289610b5a565b50600180546001600160a01b0319166001600160a01b0389161790556002869055831561057557845460ff60401b19168555604051600181527fc7f505b2f371ae2175ee4913f4499e1f2633a7b5936321eed1cdaeb6115181d29060200160405180910390a15b5050505050505050565b6000908152600080516020611188833981519152602052604090206001015490565b6105a9610bff565b3360009081526004602090815260408083206001600160a01b038916845290915290205483146105ec57604051633ab3447f60e11b815260040160405180910390fd5b6000336002546040516bffffffffffffffffffffffff19606093841b811660208301529289901b90921660348301526048820187905260688201869052608882015260a8016040516020818303038152906040528051906020012090506000610682827f19457468657265756d205369676e6564204d6573736167653a0a3332000000006000908152601c91909152603c902090565b905060006106c68286868080601f016020809104026020016040519081016040528093929190818152602001838380828437600092019190915250610c2992505050565b6001546040519192506001600160a01b03808416911614907f913cfe5a6bb4486c7cca917d162d4d03f1b72efe6d62d10003d8dcebfe5db92c9061070f90889088908590611118565b60405180910390a18061073557604051638baa579f60e01b815260040160405180910390fd5b3360009081526004602090815260408083206001600160a01b038d1684529091528120805460019290610769908490611150565b90915550506001600160a01b03891663a9059cbb336040516001600160e01b031960e084901b1681526001600160a01b039091166004820152602481018b90526044016020604051808303816000875af11580156107cb573d6000803e3d6000fd5b505050506040513d601f19601f820116820180604052508101906107ef91906110f6565b5060408051898152602081018990526001600160a01b038b169133917f2f6639d24651730c7bf57c95ddbf96d66d11477e4ec626876f92c22e5f365e68910160405180910390a3505050506108446001600055565b5050505050565b6108548261057f565b61085d81610b1a565b6108678383610b5a565b50505050565b6001600160a01b03811633146108965760405163334bd91960e11b815260040160405180910390fd5b6108a08282610c53565b505050565b6003546001600160a01b03166108ce57604051632091660760e21b815260040160405180910390fd5b6003546001600160a01b031633146108f957604051630b5eba9f60e41b815260040160405180910390fd5b610904600033610b5a565b5061091d6000805160206111a883398151915233610b5a565b50600380546001600160a01b031916905560405133907f54e4612788f90384e6843298d7854436f3a585b2c3831ab66abf1de63bfa6c2d90600090a2565b6000918252600080516020611188833981519152602090815260408084206001600160a01b0393909316845291905290205460ff1690565b6000805160206111a88339815191526109ab81610b1a565b6001600160a01b0382166109d257604051632057875960e21b815260040160405180910390fd5b6001546001600160a01b03808416911603610a005760405163119b4fd360e11b815260040160405180910390fd5b600180546001600160a01b0319166001600160a01b0384169081179091556040517f5553331329228fbd4123164423717a4a7539f6dfa1c3279a923b98fd681a6c7390600090a25050565b6000805160206111a8833981519152610a6381610b1a565b6001600160a01b038216610a8a57604051630b5eba9f60e41b815260040160405180910390fd5b336001600160a01b03831603610ab35760405163119b4fd360e11b815260040160405180910390fd5b600380546001600160a01b0319166001600160a01b0384169081179091556040517f0cc480c920b59003be60d60bb7b685b220d313037231045fbea988d33938d86790600090a25050565b610b078261057f565b610b1081610b1a565b6108678383610c53565b610b248133610ccf565b50565b6000807ff0c57e16840df040f15088dc2f81fe391c3923bec73e23a9662efc9c229c6a00610368565b610b58610d11565b565b6000600080516020611188833981519152610b75848461095b565b610bf5576000848152602082815260408083206001600160a01b03871684529091529020805460ff19166001179055610bab3390565b6001600160a01b0316836001600160a01b0316857f2f8788117e7eff1d82e926ec794901d17c78024a50270940304540a733656f0d60405160405180910390a46001915050610368565b6000915050610368565b600260005403610c2257604051633ee5aeb560e01b815260040160405180910390fd5b6002600055565b600080600080610c398686610d36565b925092509250610c498282610d83565b5090949350505050565b6000600080516020611188833981519152610c6e848461095b565b15610bf5576000848152602082815260408083206001600160a01b0387168085529252808320805460ff1916905551339287917ff6391f5c32d9c69d2a47ea670b442974b53935d1edc7fd64eb21e047a839171b9190a46001915050610368565b610cd9828261095b565b610d0d5760405163e2517d3f60e01b81526001600160a01b0382166004820152602481018390526044015b60405180910390fd5b5050565b610d19610e3c565b610b5857604051631afcd79f60e31b815260040160405180910390fd5b60008060008351604103610d705760208401516040850151606086015160001a610d6288828585610e56565b955095509550505050610d7c565b50508151600091506002905b9250925092565b6000826003811115610d9757610d97611171565b03610da0575050565b6001826003811115610db457610db4611171565b03610dd25760405163f645eedf60e01b815260040160405180910390fd5b6002826003811115610de657610de6611171565b03610e075760405163fce698f760e01b815260048101829052602401610d04565b6003826003811115610e1b57610e1b611171565b03610d0d576040516335e2f38360e21b815260048101829052602401610d04565b6000610e46610b27565b54600160401b900460ff16919050565b600080807f7fffffffffffffffffffffffffffffff5d576e7357a4501ddfe92f46681b20a0841115610e915750600091506003905082610f1b565b604080516000808252602082018084528a905260ff891692820192909252606081018790526080810186905260019060a0016020604051602081039080840390855afa158015610ee5573d6000803e3d6000fd5b5050604051601f1901519150506001600160a01b038116610f1157506000925060019150829050610f1b565b9250600091508190505b9450945094915050565b600060208284031215610f3757600080fd5b81356001600160e01b031981168114610f4f57600080fd5b9392505050565b80356001600160a01b0381168114610f6d57600080fd5b919050565b60008060408385031215610f8557600080fd5b610f8e83610f56565b946020939093013593505050565b600080600060608486031215610fb157600080fd5b610fba84610f56565b9250610fc860208501610f56565b9150604084013590509250925092565b600060208284031215610fea57600080fd5b5035919050565b60008060008060006080868803121561100957600080fd5b61101286610f56565b94506020860135935060408601359250606086013567ffffffffffffffff8082111561103d57600080fd5b818801915088601f83011261105157600080fd5b81358181111561106057600080fd5b89602082850101111561107257600080fd5b9699959850939650602001949392505050565b6000806040838503121561109857600080fd5b823591506110a860208401610f56565b90509250929050565b600080604083850312156110c457600080fd5b6110cd83610f56565b91506110a860208401610f56565b6000602082840312156110ed57600080fd5b610f4f82610f56565b60006020828403121561110857600080fd5b81518015158114610f4f57600080fd5b6040815282604082015282846060830137600060608483018101919091529115156020820152601f909201601f191690910101919050565b8082018082111561036857634e487b7160e01b600052601160045260246000fd5b634e487b7160e01b600052602160045260246000fdfe02dd7bc7dec4dceedda775e58dd541e08a116c6c53815c0bd028192f7b626800a49807205ce4d355092ef5a8a18f56e8913cf4a201fbe287825b095693c21775a26469706673582212203ab1f63ae2bce39f712823ca250b078faeee878fb7c292cf9928019c6f55fa4964736f6c63430008160033","opcodes":"PUSH1 0x80 PUSH1 0x40 MSTORE CALLVALUE DUP1 ISZERO PUSH2 0x10 JUMPI PUSH1 0x0 DUP1 REVERT JUMPDEST POP PUSH1 0x1 PUSH1 0x0 SSTORE PUSH2 0x11FD DUP1 PUSH2 0x25 PUSH1 0x0 CODECOPY PUSH1 0x0 RETURN INVALID PUSH1 0x80 PUSH1 0x40 MSTORE CALLVALUE DUP1 ISZERO PUSH2 0x10 JUMPI PUSH1 0x0 DUP1 REVERT JUMPDEST POP PUSH1 0x4 CALLDATASIZE LT PUSH2 0x142 JUMPI PUSH1 0x0 CALLDATALOAD PUSH1 0xE0 SHR DUP1 PUSH4 0x8C3D7301 GT PUSH2 0xB8 JUMPI DUP1 PUSH4 0xA7ECD37E GT PUSH2 0x7C JUMPI DUP1 PUSH4 0xA7ECD37E EQ PUSH2 0x2A1 JUMPI DUP1 PUSH4 0xB58AD07F EQ PUSH2 0x2B4 JUMPI DUP1 PUSH4 0xCD5AD4C5 EQ PUSH2 0x2C5 JUMPI DUP1 PUSH4 0xD547741F EQ PUSH2 0x2D8 JUMPI DUP1 PUSH4 0xD828435D EQ PUSH2 0x2EB JUMPI DUP1 PUSH4 0xE8AC6533 EQ PUSH2 0x324 JUMPI PUSH1 0x0 DUP1 REVERT JUMPDEST DUP1 PUSH4 0x8C3D7301 EQ PUSH2 0x24A JUMPI DUP1 PUSH4 0x91D14854 EQ PUSH2 0x252 JUMPI DUP1 PUSH4 0x9333FBDA EQ PUSH2 0x265 JUMPI DUP1 PUSH4 0x9A8A0592 EQ PUSH2 0x290 JUMPI DUP1 PUSH4 0xA217FDDF EQ PUSH2 0x299 JUMPI PUSH1 0x0 DUP1 REVERT JUMPDEST DUP1 PUSH4 0x2F2FF15D GT PUSH2 0x10A JUMPI DUP1 PUSH4 0x2F2FF15D EQ PUSH2 0x1CB JUMPI DUP1 PUSH4 0x323F24AB EQ PUSH2 0x1DE JUMPI DUP1 PUSH4 0x3408E470 EQ PUSH2 0x209 JUMPI DUP1 PUSH4 0x36568ABE EQ PUSH2 0x211 JUMPI DUP1 PUSH4 0x44205899 EQ PUSH2 0x224 JUMPI DUP1 PUSH4 0x75B238FC EQ PUSH2 0x235 JUMPI PUSH1 0x0 DUP1 REVERT JUMPDEST DUP1 PUSH4 0x1FFC9A7 EQ PUSH2 0x147 JUMPI DUP1 PUSH4 0x6B091F9 EQ PUSH2 0x16F JUMPI DUP1 PUSH4 0x1794BB3C EQ PUSH2 0x184 JUMPI DUP1 PUSH4 0x248A9CA3 EQ PUSH2 0x197 JUMPI DUP1 PUSH4 0x2ADA8A32 EQ PUSH2 0x1B8 JUMPI JUMPDEST PUSH1 0x0 DUP1 REVERT JUMPDEST PUSH2 0x15A PUSH2 0x155 CALLDATASIZE PUSH1 0x4 PUSH2 0xF25 JUMP JUMPDEST PUSH2 0x337 JUMP JUMPDEST PUSH1 0x40 MLOAD SWAP1 ISZERO ISZERO DUP2 MSTORE PUSH1 0x20 ADD JUMPDEST PUSH1 0x40 MLOAD DUP1 SWAP2 SUB SWAP1 RETURN JUMPDEST PUSH2 0x182 PUSH2 0x17D CALLDATASIZE PUSH1 0x4 PUSH2 0xF72 JUMP JUMPDEST PUSH2 0x36E JUMP JUMPDEST STOP JUMPDEST PUSH2 0x182 PUSH2 0x192 CALLDATASIZE PUSH1 0x4 PUSH2 0xF9C JUMP JUMPDEST PUSH2 0x43D JUMP JUMPDEST PUSH2 0x1AA PUSH2 0x1A5 CALLDATASIZE PUSH1 0x4 PUSH2 0xFD8 JUMP JUMPDEST PUSH2 0x57F JUMP JUMPDEST PUSH1 0x40 MLOAD SWAP1 DUP2 MSTORE PUSH1 0x20 ADD PUSH2 0x166 JUMP JUMPDEST PUSH2 0x182 PUSH2 0x1C6 CALLDATASIZE PUSH1 0x4 PUSH2 0xFF1 JUMP JUMPDEST PUSH2 0x5A1 JUMP JUMPDEST PUSH2 0x182 PUSH2 0x1D9 CALLDATASIZE PUSH1 0x4 PUSH2 0x1085 JUMP JUMPDEST PUSH2 0x84B JUMP JUMPDEST PUSH1 0x1 SLOAD PUSH2 0x1F1 SWAP1 PUSH1 0x1 PUSH1 0x1 PUSH1 0xA0 SHL SUB AND DUP2 JUMP JUMPDEST PUSH1 0x40 MLOAD PUSH1 0x1 PUSH1 0x1 PUSH1 0xA0 SHL SUB SWAP1 SWAP2 AND DUP2 MSTORE PUSH1 0x20 ADD PUSH2 0x166 JUMP JUMPDEST PUSH1 0x2 SLOAD PUSH2 0x1AA JUMP JUMPDEST PUSH2 0x182 PUSH2 0x21F CALLDATASIZE PUSH1 0x4 PUSH2 0x1085 JUMP JUMPDEST PUSH2 0x86D JUMP JUMPDEST PUSH1 0x1 SLOAD PUSH1 0x1 PUSH1 0x1 PUSH1 0xA0 SHL SUB AND PUSH2 0x1F1 JUMP JUMPDEST PUSH2 0x1AA PUSH1 0x0 DUP1 MLOAD PUSH1 0x20 PUSH2 0x11A8 DUP4 CODECOPY DUP2 MLOAD SWAP2 MSTORE DUP2 JUMP JUMPDEST PUSH2 0x182 PUSH2 0x8A5 JUMP JUMPDEST PUSH2 0x15A PUSH2 0x260 CALLDATASIZE PUSH1 0x4 PUSH2 0x1085 JUMP JUMPDEST PUSH2 0x95B JUMP JUMPDEST PUSH2 0x1AA PUSH2 0x273 CALLDATASIZE PUSH1 0x4 PUSH2 0x10B1 JUMP JUMPDEST PUSH1 0x4 PUSH1 0x20 SWAP1 DUP2 MSTORE PUSH1 0x0 SWAP3 DUP4 MSTORE PUSH1 0x40 DUP1 DUP5 KECCAK256 SWAP1 SWAP2 MSTORE SWAP1 DUP3 MSTORE SWAP1 KECCAK256 SLOAD DUP2 JUMP JUMPDEST PUSH2 0x1AA PUSH1 0x2 SLOAD DUP2 JUMP JUMPDEST PUSH2 0x1AA PUSH1 0x0 DUP2 JUMP JUMPDEST PUSH2 0x182 PUSH2 0x2AF CALLDATASIZE PUSH1 0x4 PUSH2 0x10DB JUMP JUMPDEST PUSH2 0x993 JUMP JUMPDEST PUSH1 0x3 SLOAD PUSH1 0x1 PUSH1 0x1 PUSH1 0xA0 SHL SUB AND PUSH2 0x1F1 JUMP JUMPDEST PUSH2 0x182 PUSH2 0x2D3 CALLDATASIZE PUSH1 0x4 PUSH2 0x10DB JUMP JUMPDEST PUSH2 0xA4B JUMP JUMPDEST PUSH2 0x182 PUSH2 0x2E6 CALLDATASIZE PUSH1 0x4 PUSH2 0x1085 JUMP JUMPDEST PUSH2 0xAFE JUMP JUMPDEST PUSH2 0x1AA PUSH2 0x2F9 CALLDATASIZE PUSH1 0x4 PUSH2 0x10B1 JUMP JUMPDEST PUSH1 0x1 PUSH1 0x1 PUSH1 0xA0 SHL SUB SWAP2 DUP3 AND PUSH1 0x0 SWAP1 DUP2 MSTORE PUSH1 0x4 PUSH1 0x20 SWAP1 DUP2 MSTORE PUSH1 0x40 DUP1 DUP4 KECCAK256 SWAP4 SWAP1 SWAP5 AND DUP3 MSTORE SWAP2 SWAP1 SWAP2 MSTORE KECCAK256 SLOAD SWAP1 JUMP JUMPDEST PUSH1 0x3 SLOAD PUSH2 0x1F1 SWAP1 PUSH1 0x1 PUSH1 0x1 PUSH1 0xA0 SHL SUB AND DUP2 JUMP JUMPDEST PUSH1 0x0 PUSH1 0x1 PUSH1 0x1 PUSH1 0xE0 SHL SUB NOT DUP3 AND PUSH4 0x7965DB0B PUSH1 0xE0 SHL EQ DUP1 PUSH2 0x368 JUMPI POP PUSH4 0x1FFC9A7 PUSH1 0xE0 SHL PUSH1 0x1 PUSH1 0x1 PUSH1 0xE0 SHL SUB NOT DUP4 AND EQ JUMPDEST SWAP3 SWAP2 POP POP JUMP JUMPDEST PUSH1 0x0 DUP1 MLOAD PUSH1 0x20 PUSH2 0x11A8 DUP4 CODECOPY DUP2 MLOAD SWAP2 MSTORE PUSH2 0x386 DUP2 PUSH2 0xB1A JUMP JUMPDEST PUSH1 0x40 MLOAD PUSH4 0xA9059CBB PUSH1 0xE0 SHL DUP2 MSTORE CALLER PUSH1 0x4 DUP3 ADD MSTORE PUSH1 0x24 DUP2 ADD DUP4 SWAP1 MSTORE PUSH1 0x1 PUSH1 0x1 PUSH1 0xA0 SHL SUB DUP5 AND SWAP1 PUSH4 0xA9059CBB SWAP1 PUSH1 0x44 ADD PUSH1 0x20 PUSH1 0x40 MLOAD DUP1 DUP4 SUB DUP2 PUSH1 0x0 DUP8 GAS CALL ISZERO DUP1 ISZERO PUSH2 0x3D3 JUMPI RETURNDATASIZE PUSH1 0x0 DUP1 RETURNDATACOPY RETURNDATASIZE PUSH1 0x0 REVERT JUMPDEST POP POP POP POP PUSH1 0x40 MLOAD RETURNDATASIZE PUSH1 0x1F NOT PUSH1 0x1F DUP3 ADD AND DUP3 ADD DUP1 PUSH1 0x40 MSTORE POP DUP2 ADD SWAP1 PUSH2 0x3F7 SWAP2 SWAP1 PUSH2 0x10F6 JUMP JUMPDEST POP PUSH1 0x40 MLOAD DUP3 DUP2 MSTORE PUSH1 0x1 PUSH1 0x1 PUSH1 0xA0 SHL SUB DUP5 AND SWAP1 CALLER SWAP1 PUSH32 0x6337ED398C0E8467698C581374FDCE4DB14922DF487B5A39483079F5F59B60A4 SWAP1 PUSH1 0x20 ADD PUSH1 0x40 MLOAD DUP1 SWAP2 SUB SWAP1 LOG3 POP POP POP JUMP JUMPDEST PUSH1 0x0 PUSH2 0x447 PUSH2 0xB27 JUMP JUMPDEST DUP1 SLOAD SWAP1 SWAP2 POP PUSH1 0xFF PUSH1 0x1 PUSH1 0x40 SHL DUP3 DIV AND ISZERO SWAP1 PUSH8 0xFFFFFFFFFFFFFFFF AND PUSH1 0x0 DUP2 ISZERO DUP1 ISZERO PUSH2 0x46F JUMPI POP DUP3 JUMPDEST SWAP1 POP PUSH1 0x0 DUP3 PUSH8 0xFFFFFFFFFFFFFFFF AND PUSH1 0x1 EQ DUP1 ISZERO PUSH2 0x48C JUMPI POP ADDRESS EXTCODESIZE ISZERO JUMPDEST SWAP1 POP DUP2 ISZERO DUP1 ISZERO PUSH2 0x49A JUMPI POP DUP1 ISZERO JUMPDEST ISZERO PUSH2 0x4B8 JUMPI PUSH1 0x40 MLOAD PUSH4 0xF92EE8A9 PUSH1 0xE0 SHL DUP2 MSTORE PUSH1 0x4 ADD PUSH1 0x40 MLOAD DUP1 SWAP2 SUB SWAP1 REVERT JUMPDEST DUP5 SLOAD PUSH8 0xFFFFFFFFFFFFFFFF NOT AND PUSH1 0x1 OR DUP6 SSTORE DUP4 ISZERO PUSH2 0x4E2 JUMPI DUP5 SLOAD PUSH1 0xFF PUSH1 0x40 SHL NOT AND PUSH1 0x1 PUSH1 0x40 SHL OR DUP6 SSTORE JUMPDEST PUSH2 0x4EA PUSH2 0xB50 JUMP JUMPDEST PUSH2 0x4F5 PUSH1 0x0 DUP10 PUSH2 0xB5A JUMP JUMPDEST POP PUSH2 0x50E PUSH1 0x0 DUP1 MLOAD PUSH1 0x20 PUSH2 0x11A8 DUP4 CODECOPY DUP2 MLOAD SWAP2 MSTORE DUP10 PUSH2 0xB5A JUMP JUMPDEST POP PUSH1 0x1 DUP1 SLOAD PUSH1 0x1 PUSH1 0x1 PUSH1 0xA0 SHL SUB NOT AND PUSH1 0x1 PUSH1 0x1 PUSH1 0xA0 SHL SUB DUP10 AND OR SWAP1 SSTORE PUSH1 0x2 DUP7 SWAP1 SSTORE DUP4 ISZERO PUSH2 0x575 JUMPI DUP5 SLOAD PUSH1 0xFF PUSH1 0x40 SHL NOT AND DUP6 SSTORE PUSH1 0x40 MLOAD PUSH1 0x1 DUP2 MSTORE PUSH32 0xC7F505B2F371AE2175EE4913F4499E1F2633A7B5936321EED1CDAEB6115181D2 SWAP1 PUSH1 0x20 ADD PUSH1 0x40 MLOAD DUP1 SWAP2 SUB SWAP1 LOG1 JUMPDEST POP POP POP POP POP POP POP POP JUMP JUMPDEST PUSH1 0x0 SWAP1 DUP2 MSTORE PUSH1 0x0 DUP1 MLOAD PUSH1 0x20 PUSH2 0x1188 DUP4 CODECOPY DUP2 MLOAD SWAP2 MSTORE PUSH1 0x20 MSTORE PUSH1 0x40 SWAP1 KECCAK256 PUSH1 0x1 ADD SLOAD SWAP1 JUMP JUMPDEST PUSH2 0x5A9 PUSH2 0xBFF JUMP JUMPDEST CALLER PUSH1 0x0 SWAP1 DUP2 MSTORE PUSH1 0x4 PUSH1 0x20 SWAP1 DUP2 MSTORE PUSH1 0x40 DUP1 DUP4 KECCAK256 PUSH1 0x1 PUSH1 0x1 PUSH1 0xA0 SHL SUB DUP10 AND DUP5 MSTORE SWAP1 SWAP2 MSTORE SWAP1 KECCAK256 SLOAD DUP4 EQ PUSH2 0x5EC JUMPI PUSH1 0x40 MLOAD PUSH4 0x3AB3447F PUSH1 0xE1 SHL DUP2 MSTORE PUSH1 0x4 ADD PUSH1 0x40 MLOAD DUP1 SWAP2 SUB SWAP1 REVERT JUMPDEST PUSH1 0x0 CALLER PUSH1 0x2 SLOAD PUSH1 0x40 MLOAD PUSH12 0xFFFFFFFFFFFFFFFFFFFFFFFF NOT PUSH1 0x60 SWAP4 DUP5 SHL DUP2 AND PUSH1 0x20 DUP4 ADD MSTORE SWAP3 DUP10 SWAP1 SHL SWAP1 SWAP3 AND PUSH1 0x34 DUP4 ADD MSTORE PUSH1 0x48 DUP3 ADD DUP8 SWAP1 MSTORE PUSH1 0x68 DUP3 ADD DUP7 SWAP1 MSTORE PUSH1 0x88 DUP3 ADD MSTORE PUSH1 0xA8 ADD PUSH1 0x40 MLOAD PUSH1 0x20 DUP2 DUP4 SUB SUB DUP2 MSTORE SWAP1 PUSH1 0x40 MSTORE DUP1 MLOAD SWAP1 PUSH1 0x20 ADD KECCAK256 SWAP1 POP PUSH1 0x0 PUSH2 0x682 DUP3 PUSH32 0x19457468657265756D205369676E6564204D6573736167653A0A333200000000 PUSH1 0x0 SWAP1 DUP2 MSTORE PUSH1 0x1C SWAP2 SWAP1 SWAP2 MSTORE PUSH1 0x3C SWAP1 KECCAK256 SWAP1 JUMP JUMPDEST SWAP1 POP PUSH1 0x0 PUSH2 0x6C6 DUP3 DUP7 DUP7 DUP1 DUP1 PUSH1 0x1F ADD PUSH1 0x20 DUP1 SWAP2 DIV MUL PUSH1 0x20 ADD PUSH1 0x40 MLOAD SWAP1 DUP2 ADD PUSH1 0x40 MSTORE DUP1 SWAP4 SWAP3 SWAP2 SWAP1 DUP2 DUP2 MSTORE PUSH1 0x20 ADD DUP4 DUP4 DUP1 DUP3 DUP5 CALLDATACOPY PUSH1 0x0 SWAP3 ADD SWAP2 SWAP1 SWAP2 MSTORE POP PUSH2 0xC29 SWAP3 POP POP POP JUMP JUMPDEST PUSH1 0x1 SLOAD PUSH1 0x40 MLOAD SWAP2 SWAP3 POP PUSH1 0x1 PUSH1 0x1 PUSH1 0xA0 SHL SUB DUP1 DUP5 AND SWAP2 AND EQ SWAP1 PUSH32 0x913CFE5A6BB4486C7CCA917D162D4D03F1B72EFE6D62D10003D8DCEBFE5DB92C SWAP1 PUSH2 0x70F SWAP1 DUP9 SWAP1 DUP9 SWAP1 DUP6 SWAP1 PUSH2 0x1118 JUMP JUMPDEST PUSH1 0x40 MLOAD DUP1 SWAP2 SUB SWAP1 LOG1 DUP1 PUSH2 0x735 JUMPI PUSH1 0x40 MLOAD PUSH4 0x8BAA579F PUSH1 0xE0 SHL DUP2 MSTORE PUSH1 0x4 ADD PUSH1 0x40 MLOAD DUP1 SWAP2 SUB SWAP1 REVERT JUMPDEST CALLER PUSH1 0x0 SWAP1 DUP2 MSTORE PUSH1 0x4 PUSH1 0x20 SWAP1 DUP2 MSTORE PUSH1 0x40 DUP1 DUP4 KECCAK256 PUSH1 0x1 PUSH1 0x1 PUSH1 0xA0 SHL SUB DUP14 AND DUP5 MSTORE SWAP1 SWAP2 MSTORE DUP2 KECCAK256 DUP1 SLOAD PUSH1 0x1 SWAP3 SWAP1 PUSH2 0x769 SWAP1 DUP5 SWAP1 PUSH2 0x1150 JUMP JUMPDEST SWAP1 SWAP2 SSTORE POP POP PUSH1 0x1 PUSH1 0x1 PUSH1 0xA0 SHL SUB DUP10 AND PUSH4 0xA9059CBB CALLER PUSH1 0x40 MLOAD PUSH1 0x1 PUSH1 0x1 PUSH1 0xE0 SHL SUB NOT PUSH1 0xE0 DUP5 SWAP1 SHL AND DUP2 MSTORE PUSH1 0x1 PUSH1 0x1 PUSH1 0xA0 SHL SUB SWAP1 SWAP2 AND PUSH1 0x4 DUP3 ADD MSTORE PUSH1 0x24 DUP2 ADD DUP12 SWAP1 MSTORE PUSH1 0x44 ADD PUSH1 0x20 PUSH1 0x40 MLOAD DUP1 DUP4 SUB DUP2 PUSH1 0x0 DUP8 GAS CALL ISZERO DUP1 ISZERO PUSH2 0x7CB JUMPI RETURNDATASIZE PUSH1 0x0 DUP1 RETURNDATACOPY RETURNDATASIZE PUSH1 0x0 REVERT JUMPDEST POP POP POP POP PUSH1 0x40 MLOAD RETURNDATASIZE PUSH1 0x1F NOT PUSH1 0x1F DUP3 ADD AND DUP3 ADD DUP1 PUSH1 0x40 MSTORE POP DUP2 ADD SWAP1 PUSH2 0x7EF SWAP2 SWAP1 PUSH2 0x10F6 JUMP JUMPDEST POP PUSH1 0x40 DUP1 MLOAD DUP10 DUP2 MSTORE PUSH1 0x20 DUP2 ADD DUP10 SWAP1 MSTORE PUSH1 0x1 PUSH1 0x1 PUSH1 0xA0 SHL SUB DUP12 AND SWAP2 CALLER SWAP2 PUSH32 0x2F6639D24651730C7BF57C95DDBF96D66D11477E4EC626876F92C22E5F365E68 SWAP2 ADD PUSH1 0x40 MLOAD DUP1 SWAP2 SUB SWAP1 LOG3 POP POP POP POP PUSH2 0x844 PUSH1 0x1 PUSH1 0x0 SSTORE JUMP JUMPDEST POP POP POP POP POP JUMP JUMPDEST PUSH2 0x854 DUP3 PUSH2 0x57F JUMP JUMPDEST PUSH2 0x85D DUP2 PUSH2 0xB1A JUMP JUMPDEST PUSH2 0x867 DUP4 DUP4 PUSH2 0xB5A JUMP JUMPDEST POP POP POP POP JUMP JUMPDEST PUSH1 0x1 PUSH1 0x1 PUSH1 0xA0 SHL SUB DUP2 AND CALLER EQ PUSH2 0x896 JUMPI PUSH1 0x40 MLOAD PUSH4 0x334BD919 PUSH1 0xE1 SHL DUP2 MSTORE PUSH1 0x4 ADD PUSH1 0x40 MLOAD DUP1 SWAP2 SUB SWAP1 REVERT JUMPDEST PUSH2 0x8A0 DUP3 DUP3 PUSH2 0xC53 JUMP JUMPDEST POP POP POP JUMP JUMPDEST PUSH1 0x3 SLOAD PUSH1 0x1 PUSH1 0x1 PUSH1 0xA0 SHL SUB AND PUSH2 0x8CE JUMPI PUSH1 0x40 MLOAD PUSH4 0x20916607 PUSH1 0xE2 SHL DUP2 MSTORE PUSH1 0x4 ADD PUSH1 0x40 MLOAD DUP1 SWAP2 SUB SWAP1 REVERT JUMPDEST PUSH1 0x3 SLOAD PUSH1 0x1 PUSH1 0x1 PUSH1 0xA0 SHL SUB AND CALLER EQ PUSH2 0x8F9 JUMPI PUSH1 0x40 MLOAD PUSH4 0xB5EBA9F PUSH1 0xE4 SHL DUP2 MSTORE PUSH1 0x4 ADD PUSH1 0x40 MLOAD DUP1 SWAP2 SUB SWAP1 REVERT JUMPDEST PUSH2 0x904 PUSH1 0x0 CALLER PUSH2 0xB5A JUMP JUMPDEST POP PUSH2 0x91D PUSH1 0x0 DUP1 MLOAD PUSH1 0x20 PUSH2 0x11A8 DUP4 CODECOPY DUP2 MLOAD SWAP2 MSTORE CALLER PUSH2 0xB5A JUMP JUMPDEST POP PUSH1 0x3 DUP1 SLOAD PUSH1 0x1 PUSH1 0x1 PUSH1 0xA0 SHL SUB NOT AND SWAP1 SSTORE PUSH1 0x40 MLOAD CALLER SWAP1 PUSH32 0x54E4612788F90384E6843298D7854436F3A585B2C3831AB66ABF1DE63BFA6C2D SWAP1 PUSH1 0x0 SWAP1 LOG2 JUMP JUMPDEST PUSH1 0x0 SWAP2 DUP3 MSTORE PUSH1 0x0 DUP1 MLOAD PUSH1 0x20 PUSH2 0x1188 DUP4 CODECOPY DUP2 MLOAD SWAP2 MSTORE PUSH1 0x20 SWAP1 DUP2 MSTORE PUSH1 0x40 DUP1 DUP5 KECCAK256 PUSH1 0x1 PUSH1 0x1 PUSH1 0xA0 SHL SUB SWAP4 SWAP1 SWAP4 AND DUP5 MSTORE SWAP2 SWAP1 MSTORE SWAP1 KECCAK256 SLOAD PUSH1 0xFF AND SWAP1 JUMP JUMPDEST PUSH1 0x0 DUP1 MLOAD PUSH1 0x20 PUSH2 0x11A8 DUP4 CODECOPY DUP2 MLOAD SWAP2 MSTORE PUSH2 0x9AB DUP2 PUSH2 0xB1A JUMP JUMPDEST PUSH1 0x1 PUSH1 0x1 PUSH1 0xA0 SHL SUB DUP3 AND PUSH2 0x9D2 JUMPI PUSH1 0x40 MLOAD PUSH4 0x20578759 PUSH1 0xE2 SHL DUP2 MSTORE PUSH1 0x4 ADD PUSH1 0x40 MLOAD DUP1 SWAP2 SUB SWAP1 REVERT JUMPDEST PUSH1 0x1 SLOAD PUSH1 0x1 PUSH1 0x1 PUSH1 0xA0 SHL SUB DUP1 DUP5 AND SWAP2 AND SUB PUSH2 0xA00 JUMPI PUSH1 0x40 MLOAD PUSH4 0x119B4FD3 PUSH1 0xE1 SHL DUP2 MSTORE PUSH1 0x4 ADD PUSH1 0x40 MLOAD DUP1 SWAP2 SUB SWAP1 REVERT JUMPDEST PUSH1 0x1 DUP1 SLOAD PUSH1 0x1 PUSH1 0x1 PUSH1 0xA0 SHL SUB NOT AND PUSH1 0x1 PUSH1 0x1 PUSH1 0xA0 SHL SUB DUP5 AND SWAP1 DUP2 OR SWAP1 SWAP2 SSTORE PUSH1 0x40 MLOAD PUSH32 0x5553331329228FBD4123164423717A4A7539F6DFA1C3279A923B98FD681A6C73 SWAP1 PUSH1 0x0 SWAP1 LOG2 POP POP JUMP JUMPDEST PUSH1 0x0 DUP1 MLOAD PUSH1 0x20 PUSH2 0x11A8 DUP4 CODECOPY DUP2 MLOAD SWAP2 MSTORE PUSH2 0xA63 DUP2 PUSH2 0xB1A JUMP JUMPDEST PUSH1 0x1 PUSH1 0x1 PUSH1 0xA0 SHL SUB DUP3 AND PUSH2 0xA8A JUMPI PUSH1 0x40 MLOAD PUSH4 0xB5EBA9F PUSH1 0xE4 SHL DUP2 MSTORE PUSH1 0x4 ADD PUSH1 0x40 MLOAD DUP1 SWAP2 SUB SWAP1 REVERT JUMPDEST CALLER PUSH1 0x1 PUSH1 0x1 PUSH1 0xA0 SHL SUB DUP4 AND SUB PUSH2 0xAB3 JUMPI PUSH1 0x40 MLOAD PUSH4 0x119B4FD3 PUSH1 0xE1 SHL DUP2 MSTORE PUSH1 0x4 ADD PUSH1 0x40 MLOAD DUP1 SWAP2 SUB SWAP1 REVERT JUMPDEST PUSH1 0x3 DUP1 SLOAD PUSH1 0x1 PUSH1 0x1 PUSH1 0xA0 SHL SUB NOT AND PUSH1 0x1 PUSH1 0x1 PUSH1 0xA0 SHL SUB DUP5 AND SWAP1 DUP2 OR SWAP1 SWAP2 SSTORE PUSH1 0x40 MLOAD PUSH32 0xCC480C920B59003BE60D60BB7B685B220D313037231045FBEA988D33938D867 SWAP1 PUSH1 0x0 SWAP1 LOG2 POP POP JUMP JUMPDEST PUSH2 0xB07 DUP3 PUSH2 0x57F JUMP JUMPDEST PUSH2 0xB10 DUP2 PUSH2 0xB1A JUMP JUMPDEST PUSH2 0x867 DUP4 DUP4 PUSH2 0xC53 JUMP JUMPDEST PUSH2 0xB24 DUP2 CALLER PUSH2 0xCCF JUMP JUMPDEST POP JUMP JUMPDEST PUSH1 0x0 DUP1 PUSH32 0xF0C57E16840DF040F15088DC2F81FE391C3923BEC73E23A9662EFC9C229C6A00 PUSH2 0x368 JUMP JUMPDEST PUSH2 0xB58 PUSH2 0xD11 JUMP JUMPDEST JUMP JUMPDEST PUSH1 0x0 PUSH1 0x0 DUP1 MLOAD PUSH1 0x20 PUSH2 0x1188 DUP4 CODECOPY DUP2 MLOAD SWAP2 MSTORE PUSH2 0xB75 DUP5 DUP5 PUSH2 0x95B JUMP JUMPDEST PUSH2 0xBF5 JUMPI PUSH1 0x0 DUP5 DUP2 MSTORE PUSH1 0x20 DUP3 DUP2 MSTORE PUSH1 0x40 DUP1 DUP4 KECCAK256 PUSH1 0x1 PUSH1 0x1 PUSH1 0xA0 SHL SUB DUP8 AND DUP5 MSTORE SWAP1 SWAP2 MSTORE SWAP1 KECCAK256 DUP1 SLOAD PUSH1 0xFF NOT AND PUSH1 0x1 OR SWAP1 SSTORE PUSH2 0xBAB CALLER SWAP1 JUMP JUMPDEST PUSH1 0x1 PUSH1 0x1 PUSH1 0xA0 SHL SUB AND DUP4 PUSH1 0x1 PUSH1 0x1 PUSH1 0xA0 SHL SUB AND DUP6 PUSH32 0x2F8788117E7EFF1D82E926EC794901D17C78024A50270940304540A733656F0D PUSH1 0x40 MLOAD PUSH1 0x40 MLOAD DUP1 SWAP2 SUB SWAP1 LOG4 PUSH1 0x1 SWAP2 POP POP PUSH2 0x368 JUMP JUMPDEST PUSH1 0x0 SWAP2 POP POP PUSH2 0x368 JUMP JUMPDEST PUSH1 0x2 PUSH1 0x0 SLOAD SUB PUSH2 0xC22 JUMPI PUSH1 0x40 MLOAD PUSH4 0x3EE5AEB5 PUSH1 0xE0 SHL DUP2 MSTORE PUSH1 0x4 ADD PUSH1 0x40 MLOAD DUP1 SWAP2 SUB SWAP1 REVERT JUMPDEST PUSH1 0x2 PUSH1 0x0 SSTORE JUMP JUMPDEST PUSH1 0x0 DUP1 PUSH1 0x0 DUP1 PUSH2 0xC39 DUP7 DUP7 PUSH2 0xD36 JUMP JUMPDEST SWAP3 POP SWAP3 POP SWAP3 POP PUSH2 0xC49 DUP3 DUP3 PUSH2 0xD83 JUMP JUMPDEST POP SWAP1 SWAP5 SWAP4 POP POP POP POP JUMP JUMPDEST PUSH1 0x0 PUSH1 0x0 DUP1 MLOAD PUSH1 0x20 PUSH2 0x1188 DUP4 CODECOPY DUP2 MLOAD SWAP2 MSTORE PUSH2 0xC6E DUP5 DUP5 PUSH2 0x95B JUMP JUMPDEST ISZERO PUSH2 0xBF5 JUMPI PUSH1 0x0 DUP5 DUP2 MSTORE PUSH1 0x20 DUP3 DUP2 MSTORE PUSH1 0x40 DUP1 DUP4 KECCAK256 PUSH1 0x1 PUSH1 0x1 PUSH1 0xA0 SHL SUB DUP8 AND DUP1 DUP6 MSTORE SWAP3 MSTORE DUP1 DUP4 KECCAK256 DUP1 SLOAD PUSH1 0xFF NOT AND SWAP1 SSTORE MLOAD CALLER SWAP3 DUP8 SWAP2 PUSH32 0xF6391F5C32D9C69D2A47EA670B442974B53935D1EDC7FD64EB21E047A839171B SWAP2 SWAP1 LOG4 PUSH1 0x1 SWAP2 POP POP PUSH2 0x368 JUMP JUMPDEST PUSH2 0xCD9 DUP3 DUP3 PUSH2 0x95B JUMP JUMPDEST PUSH2 0xD0D JUMPI PUSH1 0x40 MLOAD PUSH4 0xE2517D3F PUSH1 0xE0 SHL DUP2 MSTORE PUSH1 0x1 PUSH1 0x1 PUSH1 0xA0 SHL SUB DUP3 AND PUSH1 0x4 DUP3 ADD MSTORE PUSH1 0x24 DUP2 ADD DUP4 SWAP1 MSTORE PUSH1 0x44 ADD JUMPDEST PUSH1 0x40 MLOAD DUP1 SWAP2 SUB SWAP1 REVERT JUMPDEST POP POP JUMP JUMPDEST PUSH2 0xD19 PUSH2 0xE3C JUMP JUMPDEST PUSH2 0xB58 JUMPI PUSH1 0x40 MLOAD PUSH4 0x1AFCD79F PUSH1 0xE3 SHL DUP2 MSTORE PUSH1 0x4 ADD PUSH1 0x40 MLOAD DUP1 SWAP2 SUB SWAP1 REVERT JUMPDEST PUSH1 0x0 DUP1 PUSH1 0x0 DUP4 MLOAD PUSH1 0x41 SUB PUSH2 0xD70 JUMPI PUSH1 0x20 DUP5 ADD MLOAD PUSH1 0x40 DUP6 ADD MLOAD PUSH1 0x60 DUP7 ADD MLOAD PUSH1 0x0 BYTE PUSH2 0xD62 DUP9 DUP3 DUP6 DUP6 PUSH2 0xE56 JUMP JUMPDEST SWAP6 POP SWAP6 POP SWAP6 POP POP POP POP PUSH2 0xD7C JUMP JUMPDEST POP POP DUP2 MLOAD PUSH1 0x0 SWAP2 POP PUSH1 0x2 SWAP1 JUMPDEST SWAP3 POP SWAP3 POP SWAP3 JUMP JUMPDEST PUSH1 0x0 DUP3 PUSH1 0x3 DUP2 GT ISZERO PUSH2 0xD97 JUMPI PUSH2 0xD97 PUSH2 0x1171 JUMP JUMPDEST SUB PUSH2 0xDA0 JUMPI POP POP JUMP JUMPDEST PUSH1 0x1 DUP3 PUSH1 0x3 DUP2 GT ISZERO PUSH2 0xDB4 JUMPI PUSH2 0xDB4 PUSH2 0x1171 JUMP JUMPDEST SUB PUSH2 0xDD2 JUMPI PUSH1 0x40 MLOAD PUSH4 0xF645EEDF PUSH1 0xE0 SHL DUP2 MSTORE PUSH1 0x4 ADD PUSH1 0x40 MLOAD DUP1 SWAP2 SUB SWAP1 REVERT JUMPDEST PUSH1 0x2 DUP3 PUSH1 0x3 DUP2 GT ISZERO PUSH2 0xDE6 JUMPI PUSH2 0xDE6 PUSH2 0x1171 JUMP JUMPDEST SUB PUSH2 0xE07 JUMPI PUSH1 0x40 MLOAD PUSH4 0xFCE698F7 PUSH1 0xE0 SHL DUP2 MSTORE PUSH1 0x4 DUP2 ADD DUP3 SWAP1 MSTORE PUSH1 0x24 ADD PUSH2 0xD04 JUMP JUMPDEST PUSH1 0x3 DUP3 PUSH1 0x3 DUP2 GT ISZERO PUSH2 0xE1B JUMPI PUSH2 0xE1B PUSH2 0x1171 JUMP JUMPDEST SUB PUSH2 0xD0D JUMPI PUSH1 0x40 MLOAD PUSH4 0x35E2F383 PUSH1 0xE2 SHL DUP2 MSTORE PUSH1 0x4 DUP2 ADD DUP3 SWAP1 MSTORE PUSH1 0x24 ADD PUSH2 0xD04 JUMP JUMPDEST PUSH1 0x0 PUSH2 0xE46 PUSH2 0xB27 JUMP JUMPDEST SLOAD PUSH1 0x1 PUSH1 0x40 SHL SWAP1 DIV PUSH1 0xFF AND SWAP2 SWAP1 POP JUMP JUMPDEST PUSH1 0x0 DUP1 DUP1 PUSH32 0x7FFFFFFFFFFFFFFFFFFFFFFFFFFFFFFF5D576E7357A4501DDFE92F46681B20A0 DUP5 GT ISZERO PUSH2 0xE91 JUMPI POP PUSH1 0x0 SWAP2 POP PUSH1 0x3 SWAP1 POP DUP3 PUSH2 0xF1B JUMP JUMPDEST PUSH1 0x40 DUP1 MLOAD PUSH1 0x0 DUP1 DUP3 MSTORE PUSH1 0x20 DUP3 ADD DUP1 DUP5 MSTORE DUP11 SWAP1 MSTORE PUSH1 0xFF DUP10 AND SWAP3 DUP3 ADD SWAP3 SWAP1 SWAP3 MSTORE PUSH1 0x60 DUP2 ADD DUP8 SWAP1 MSTORE PUSH1 0x80 DUP2 ADD DUP7 SWAP1 MSTORE PUSH1 0x1 SWAP1 PUSH1 0xA0 ADD PUSH1 0x20 PUSH1 0x40 MLOAD PUSH1 0x20 DUP2 SUB SWAP1 DUP1 DUP5 SUB SWAP1 DUP6 GAS STATICCALL ISZERO DUP1 ISZERO PUSH2 0xEE5 JUMPI RETURNDATASIZE PUSH1 0x0 DUP1 RETURNDATACOPY RETURNDATASIZE PUSH1 0x0 REVERT JUMPDEST POP POP PUSH1 0x40 MLOAD PUSH1 0x1F NOT ADD MLOAD SWAP2 POP POP PUSH1 0x1 PUSH1 0x1 PUSH1 0xA0 SHL SUB DUP2 AND PUSH2 0xF11 JUMPI POP PUSH1 0x0 SWAP3 POP PUSH1 0x1 SWAP2 POP DUP3 SWAP1 POP PUSH2 0xF1B JUMP JUMPDEST SWAP3 POP PUSH1 0x0 SWAP2 POP DUP2 SWAP1 POP JUMPDEST SWAP5 POP SWAP5 POP SWAP5 SWAP2 POP POP JUMP JUMPDEST PUSH1 0x0 PUSH1 0x20 DUP3 DUP5 SUB SLT ISZERO PUSH2 0xF37 JUMPI PUSH1 0x0 DUP1 REVERT JUMPDEST DUP2 CALLDATALOAD PUSH1 0x1 PUSH1 0x1 PUSH1 0xE0 SHL SUB NOT DUP2 AND DUP2 EQ PUSH2 0xF4F JUMPI PUSH1 0x0 DUP1 REVERT JUMPDEST SWAP4 SWAP3 POP POP POP JUMP JUMPDEST DUP1 CALLDATALOAD PUSH1 0x1 PUSH1 0x1 PUSH1 0xA0 SHL SUB DUP2 AND DUP2 EQ PUSH2 0xF6D JUMPI PUSH1 0x0 DUP1 REVERT JUMPDEST SWAP2 SWAP1 POP JUMP JUMPDEST PUSH1 0x0 DUP1 PUSH1 0x40 DUP4 DUP6 SUB SLT ISZERO PUSH2 0xF85 JUMPI PUSH1 0x0 DUP1 REVERT JUMPDEST PUSH2 0xF8E DUP4 PUSH2 0xF56 JUMP JUMPDEST SWAP5 PUSH1 0x20 SWAP4 SWAP1 SWAP4 ADD CALLDATALOAD SWAP4 POP POP POP JUMP JUMPDEST PUSH1 0x0 DUP1 PUSH1 0x0 PUSH1 0x60 DUP5 DUP7 SUB SLT ISZERO PUSH2 0xFB1 JUMPI PUSH1 0x0 DUP1 REVERT JUMPDEST PUSH2 0xFBA DUP5 PUSH2 0xF56 JUMP JUMPDEST SWAP3 POP PUSH2 0xFC8 PUSH1 0x20 DUP6 ADD PUSH2 0xF56 JUMP JUMPDEST SWAP2 POP PUSH1 0x40 DUP5 ADD CALLDATALOAD SWAP1 POP SWAP3 POP SWAP3 POP SWAP3 JUMP JUMPDEST PUSH1 0x0 PUSH1 0x20 DUP3 DUP5 SUB SLT ISZERO PUSH2 0xFEA JUMPI PUSH1 0x0 DUP1 REVERT JUMPDEST POP CALLDATALOAD SWAP2 SWAP1 POP JUMP JUMPDEST PUSH1 0x0 DUP1 PUSH1 0x0 DUP1 PUSH1 0x0 PUSH1 0x80 DUP7 DUP9 SUB SLT ISZERO PUSH2 0x1009 JUMPI PUSH1 0x0 DUP1 REVERT JUMPDEST PUSH2 0x1012 DUP7 PUSH2 0xF56 JUMP JUMPDEST SWAP5 POP PUSH1 0x20 DUP7 ADD CALLDATALOAD SWAP4 POP PUSH1 0x40 DUP7 ADD CALLDATALOAD SWAP3 POP PUSH1 0x60 DUP7 ADD CALLDATALOAD PUSH8 0xFFFFFFFFFFFFFFFF DUP1 DUP3 GT ISZERO PUSH2 0x103D JUMPI PUSH1 0x0 DUP1 REVERT JUMPDEST DUP2 DUP9 ADD SWAP2 POP DUP9 PUSH1 0x1F DUP4 ADD SLT PUSH2 0x1051 JUMPI PUSH1 0x0 DUP1 REVERT JUMPDEST DUP2 CALLDATALOAD DUP2 DUP2 GT ISZERO PUSH2 0x1060 JUMPI PUSH1 0x0 DUP1 REVERT JUMPDEST DUP10 PUSH1 0x20 DUP3 DUP6 ADD ADD GT ISZERO PUSH2 0x1072 JUMPI PUSH1 0x0 DUP1 REVERT JUMPDEST SWAP7 SWAP10 SWAP6 SWAP9 POP SWAP4 SWAP7 POP PUSH1 0x20 ADD SWAP5 SWAP4 SWAP3 POP POP POP JUMP JUMPDEST PUSH1 0x0 DUP1 PUSH1 0x40 DUP4 DUP6 SUB SLT ISZERO PUSH2 0x1098 JUMPI PUSH1 0x0 DUP1 REVERT JUMPDEST DUP3 CALLDATALOAD SWAP2 POP PUSH2 0x10A8 PUSH1 0x20 DUP5 ADD PUSH2 0xF56 JUMP JUMPDEST SWAP1 POP SWAP3 POP SWAP3 SWAP1 POP JUMP JUMPDEST PUSH1 0x0 DUP1 PUSH1 0x40 DUP4 DUP6 SUB SLT ISZERO PUSH2 0x10C4 JUMPI PUSH1 0x0 DUP1 REVERT JUMPDEST PUSH2 0x10CD DUP4 PUSH2 0xF56 JUMP JUMPDEST SWAP2 POP PUSH2 0x10A8 PUSH1 0x20 DUP5 ADD PUSH2 0xF56 JUMP JUMPDEST PUSH1 0x0 PUSH1 0x20 DUP3 DUP5 SUB SLT ISZERO PUSH2 0x10ED JUMPI PUSH1 0x0 DUP1 REVERT JUMPDEST PUSH2 0xF4F DUP3 PUSH2 0xF56 JUMP JUMPDEST PUSH1 0x0 PUSH1 0x20 DUP3 DUP5 SUB SLT ISZERO PUSH2 0x1108 JUMPI PUSH1 0x0 DUP1 REVERT JUMPDEST DUP2 MLOAD DUP1 ISZERO ISZERO DUP2 EQ PUSH2 0xF4F JUMPI PUSH1 0x0 DUP1 REVERT JUMPDEST PUSH1 0x40 DUP2 MSTORE DUP3 PUSH1 0x40 DUP3 ADD MSTORE DUP3 DUP5 PUSH1 0x60 DUP4 ADD CALLDATACOPY PUSH1 0x0 PUSH1 0x60 DUP5 DUP4 ADD DUP2 ADD SWAP2 SWAP1 SWAP2 MSTORE SWAP2 ISZERO ISZERO PUSH1 0x20 DUP3 ADD MSTORE PUSH1 0x1F SWAP1 SWAP3 ADD PUSH1 0x1F NOT AND SWAP1 SWAP2 ADD ADD SWAP2 SWAP1 POP JUMP JUMPDEST DUP1 DUP3 ADD DUP1 DUP3 GT ISZERO PUSH2 0x368 JUMPI PUSH4 0x4E487B71 PUSH1 0xE0 SHL PUSH1 0x0 MSTORE PUSH1 0x11 PUSH1 0x4 MSTORE PUSH1 0x24 PUSH1 0x0 REVERT JUMPDEST PUSH4 0x4E487B71 PUSH1 0xE0 SHL PUSH1 0x0 MSTORE PUSH1 0x21 PUSH1 0x4 MSTORE PUSH1 0x24 PUSH1 0x0 REVERT INVALID MUL 0xDD PUSH28 0xC7DEC4DCEEDDA775E58DD541E08A116C6C53815C0BD028192F7B6268 STOP LOG4 SWAP9 SMOD KECCAK256 0x5C 0xE4 0xD3 SSTORE MULMOD 0x2E CREATE2 0xA8 LOG1 DUP16 JUMP 0xE8 SWAP2 EXTCODECOPY DELEGATECALL LOG2 ADD 0xFB 0xE2 DUP8 DUP3 JUMPDEST MULMOD JUMP SWAP4 0xC2 OR PUSH22 0xA26469706673582212203AB1F63AE2BCE39F712823CA 0x25 SIGNEXTEND SMOD DUP16 0xAE 0xEE DUP8 DUP16 0xB7 0xC2 SWAP3 0xCF SWAP10 0x28 ADD SWAP13 PUSH16 0x55FA4964736F6C634300081600330000 "},"methodIdentifiers":{"ADMIN_ROLE()":"75b238fc","DEFAULT_ADMIN_ROLE()":"a217fddf","acceptAdminRole()":"8c3d7301","chainId()":"9a8a0592","claim(address,uint256,uint256,bytes)":"2ada8a32","getChainId()":"3408e470","getNominatedAdmin()":"b58ad07f","getNonce(address,address)":"d828435d","getRewardSigner()":"44205899","getRoleAdmin(bytes32)":"248a9ca3","grantRole(bytes32,address)":"2f2ff15d","hasRole(bytes32,address)":"91d14854","initialize(address,address,uint256)":"1794bb3c","nominateAdmin(address)":"cd5ad4c5","nominatedAdmin()":"e8ac6533","nonces(address,address)":"9333fbda","renounceRole(bytes32,address)":"36568abe","revokeRole(bytes32,address)":"d547741f","rewardSigner()":"323f24ab","supportsInterface(bytes4)":"01ffc9a7","updateSigner(address)":"a7ecd37e","withdrawTokens(address,uint256)":"06b091f9"}},"storageLayout":{"storage":[{"astId":3009,"contract":"contracts/rkgen_airdrop.sol:RKGENAirdrop","label":"_status","offset":0,"slot":"0","type":"t_uint256"},{"astId":10496,"contract":"contracts/rkgen_airdrop.sol:RKGENAirdrop","label":"rewardSigner","offset":0,"slot":"1","type":"t_address"},{"astId":10498,"contract":"contracts/rkgen_airdrop.sol:RKGENAirdrop","label":"chainId","offset":0,"slot":"2","type":"t_uint256"},{"astId":10500,"contract":"contracts/rkgen_airdrop.sol:RKGENAirdrop","label":"nominatedAdmin","offset":0,"slot":"3","type":"t_address"},{"astId":10506,"contract":"contracts/rkgen_airdrop.sol:RKGENAirdrop","label":"nonces","offset":0,"slot":"4","type":"t_mapping(t_address,t_mapping(t_address,t_uint256))"}],"types":{"t_address":{"encoding":"inplace","label":"address","numberOfBytes":"20"},"t_mapping(t_address,t_mapping(t_address,t_uint256))":{"encoding":"mapping","key":"t_address","label":"mapping(address => mapping(address => uint256))","numberOfBytes":"32","value":"t_mapping(t_address,t_uint256)"},"t_mapping(t_address,t_uint256)":{"encoding":"mapping","key":"t_address","label":"mapping(address => uint256)","numberOfBytes":"32","value":"t_uint256"},"t_uint256":{"encoding":"inplace","label":"uint256","numberOfBytes":"32"}}}}}}