{"contracts/rKGEN.sol":{"rKGEN":{"abi":[{"inputs":[],"stateMutability":"nonpayable","type":"constructor"},{"inputs":[],"name":"AccessControlBadConfirmation","type":"error"},{"inputs":[{"internalType":"address","name":"account","type":"address"},{"internalType":"bytes32","name":"neededRole","type":"bytes32"}],"name":"AccessControlUnauthorizedAccount","type":"error"},{"inputs":[],"name":"AccountIsFrozen","type":"error"},{"inputs":[],"name":"AlreadyBurnVault","type":"error"},{"inputs":[],"name":"AlreadyExists","type":"error"},{"inputs":[],"name":"AlreadyMinter","type":"error"},{"inputs":[],"name":"AlreadyTreasury","type":"error"},{"inputs":[],"name":"AlreadyWhitelistedReceiver","type":"error"},{"inputs":[],"name":"AlreadyWhitelistedSender","type":"error"},{"inputs":[],"name":"CannotDeleteTreasuryAddress","type":"error"},{"inputs":[],"name":"CannotNominateSelf","type":"error"},{"inputs":[],"name":"CannotTransferToSelf","type":"error"},{"inputs":[{"internalType":"address","name":"spender","type":"address"},{"internalType":"uint256","name":"allowance","type":"uint256"},{"internalType":"uint256","name":"needed","type":"uint256"}],"name":"ERC20InsufficientAllowance","type":"error"},{"inputs":[{"internalType":"address","name":"sender","type":"address"},{"internalType":"uint256","name":"balance","type":"uint256"},{"internalType":"uint256","name":"needed","type":"uint256"}],"name":"ERC20InsufficientBalance","type":"error"},{"inputs":[{"internalType":"address","name":"approver","type":"address"}],"name":"ERC20InvalidApprover","type":"error"},{"inputs":[{"internalType":"address","name":"receiver","type":"address"}],"name":"ERC20InvalidReceiver","type":"error"},{"inputs":[{"internalType":"address","name":"sender","type":"address"}],"name":"ERC20InvalidSender","type":"error"},{"inputs":[{"internalType":"address","name":"spender","type":"address"}],"name":"ERC20InvalidSpender","type":"error"},{"inputs":[],"name":"InvalidAmount","type":"error"},{"inputs":[],"name":"InvalidInitialization","type":"error"},{"inputs":[],"name":"InvalidReceiverOrSender","type":"error"},{"inputs":[],"name":"NoPending","type":"error"},{"inputs":[],"name":"NoPendingNomination","type":"error"},{"inputs":[],"name":"NotAdmin","type":"error"},{"inputs":[],"name":"NotBurnVault","type":"error"},{"inputs":[],"name":"NotInitializing","type":"error"},{"inputs":[],"name":"NotMinter","type":"error"},{"inputs":[],"name":"NotNominated","type":"error"},{"inputs":[],"name":"NotOwner","type":"error"},{"inputs":[],"name":"NotTreasury","type":"error"},{"inputs":[],"name":"NotTreasuryAddress","type":"error"},{"inputs":[],"name":"NotValidAddress","type":"error"},{"inputs":[],"name":"NotWhitelistReceiver","type":"error"},{"inputs":[],"name":"NotWhitelistSender","type":"error"},{"inputs":[],"name":"NotWhitelistedReceiver","type":"error"},{"inputs":[],"name":"NotWhitelistedSender","type":"error"},{"inputs":[],"name":"OnlyAdmin","type":"error"},{"inputs":[],"name":"ReentrancyGuardReentrantCall","type":"error"},{"anonymous":false,"inputs":[{"indexed":true,"internalType":"address","name":"account","type":"address"}],"name":"AccountFrozen","type":"event"},{"anonymous":false,"inputs":[{"indexed":true,"internalType":"address","name":"account","type":"address"}],"name":"AccountUnfrozen","type":"event"},{"anonymous":false,"inputs":[{"indexed":false,"internalType":"string","name":"msg","type":"string"},{"indexed":true,"internalType":"address","name":"addedAddress","type":"address"}],"name":"AddedReceiverAddress","type":"event"},{"anonymous":false,"inputs":[{"indexed":false,"internalType":"string","name":"msg","type":"string"},{"indexed":true,"internalType":"address","name":"addedAddress","type":"address"}],"name":"AddedSenderAddress","type":"event"},{"anonymous":false,"inputs":[{"indexed":false,"internalType":"string","name":"msg","type":"string"},{"indexed":true,"internalType":"address","name":"addedAddress","type":"address"}],"name":"AddedTreasuryAddress","type":"event"},{"anonymous":false,"inputs":[{"indexed":true,"internalType":"address","name":"owner","type":"address"},{"indexed":true,"internalType":"address","name":"spender","type":"address"},{"indexed":false,"internalType":"uint256","name":"value","type":"uint256"}],"name":"Approval","type":"event"},{"anonymous":false,"inputs":[{"indexed":false,"internalType":"uint64","name":"version","type":"uint64"}],"name":"Initialized","type":"event"},{"anonymous":false,"inputs":[{"indexed":true,"internalType":"address","name":"treasury","type":"address"},{"indexed":false,"internalType":"uint256","name":"amount","type":"uint256"}],"name":"MintedToTreasury","type":"event"},{"anonymous":false,"inputs":[{"indexed":false,"internalType":"string","name":"role","type":"string"},{"indexed":true,"internalType":"address","name":"nominatedAdmin","type":"address"}],"name":"NominatedAdminEvent","type":"event"},{"anonymous":false,"inputs":[{"indexed":false,"internalType":"string","name":"msg","type":"string"},{"indexed":true,"internalType":"address","name":"removedAddress","type":"address"}],"name":"RemovedReceiverAddress","type":"event"},{"anonymous":false,"inputs":[{"indexed":false,"internalType":"string","name":"msg","type":"string"},{"indexed":true,"internalType":"address","name":"removedAddress","type":"address"}],"name":"RemovedSenderAddress","type":"event"},{"anonymous":false,"inputs":[{"indexed":false,"internalType":"string","name":"msg","type":"string"},{"indexed":true,"internalType":"address","name":"removedAddress","type":"address"}],"name":"RemovedTreasuryAddress","type":"event"},{"anonymous":false,"inputs":[{"indexed":true,"internalType":"bytes32","name":"role","type":"bytes32"},{"indexed":true,"internalType":"bytes32","name":"previousAdminRole","type":"bytes32"},{"indexed":true,"internalType":"bytes32","name":"newAdminRole","type":"bytes32"}],"name":"RoleAdminChanged","type":"event"},{"anonymous":false,"inputs":[{"indexed":true,"internalType":"bytes32","name":"role","type":"bytes32"},{"indexed":true,"internalType":"address","name":"account","type":"address"},{"indexed":true,"internalType":"address","name":"sender","type":"address"}],"name":"RoleGranted","type":"event"},{"anonymous":false,"inputs":[{"indexed":true,"internalType":"bytes32","name":"role","type":"bytes32"},{"indexed":true,"internalType":"address","name":"account","type":"address"},{"indexed":true,"internalType":"address","name":"sender","type":"address"}],"name":"RoleRevoked","type":"event"},{"anonymous":false,"inputs":[{"indexed":true,"internalType":"address","name":"from","type":"address"},{"indexed":true,"internalType":"address","name":"to","type":"address"},{"indexed":false,"internalType":"uint256","name":"value","type":"uint256"}],"name":"Transfer","type":"event"},{"anonymous":false,"inputs":[{"indexed":false,"internalType":"string","name":"role","type":"string"},{"indexed":true,"internalType":"address","name":"addedAdmin","type":"address"}],"name":"UpdatedAdmin","type":"event"},{"anonymous":false,"inputs":[{"indexed":false,"internalType":"string","name":"role","type":"string"},{"indexed":true,"internalType":"address","name":"updatedAddress","type":"address"}],"name":"UpdatedBurnVault","type":"event"},{"anonymous":false,"inputs":[{"indexed":false,"internalType":"string","name":"role","type":"string"},{"indexed":true,"internalType":"address","name":"addedUser","type":"address"}],"name":"UpdatedMinter","type":"event"},{"inputs":[],"name":"BURN_VAULT_ROLE","outputs":[{"internalType":"bytes32","name":"","type":"bytes32"}],"stateMutability":"view","type":"function"},{"inputs":[],"name":"DEFAULT_ADMIN_ROLE","outputs":[{"internalType":"bytes32","name":"","type":"bytes32"}],"stateMutability":"view","type":"function"},{"inputs":[],"name":"MINTER_ROLE","outputs":[{"internalType":"bytes32","name":"","type":"bytes32"}],"stateMutability":"view","type":"function"},{"inputs":[],"name":"TREASURY_ROLE","outputs":[{"internalType":"bytes32","name":"","type":"bytes32"}],"stateMutability":"view","type":"function"},{"inputs":[],"name":"UPGRADER_ROLE","outputs":[{"internalType":"bytes32","name":"","type":"bytes32"}],"stateMutability":"view","type":"function"},{"inputs":[],"name":"WHITELIST_RECEIVER_ROLE","outputs":[{"internalType":"bytes32","name":"","type":"bytes32"}],"stateMutability":"view","type":"function"},{"inputs":[],"name":"WHITELIST_SENDER_ROLE","outputs":[{"internalType":"bytes32","name":"","type":"bytes32"}],"stateMutability":"view","type":"function"},{"inputs":[],"name":"acceptAdminRole","outputs":[],"stateMutability":"nonpayable","type":"function"},{"inputs":[{"internalType":"address","name":"newBurnVault","type":"address"}],"name":"addBurnVault","outputs":[],"stateMutability":"nonpayable","type":"function"},{"inputs":[{"internalType":"address","name":"newMinter","type":"address"}],"name":"addMinter","outputs":[],"stateMutability":"nonpayable","type":"function"},{"inputs":[{"internalType":"address","name":"newAddress","type":"address"}],"name":"addTreasuryAddress","outputs":[],"stateMutability":"nonpayable","type":"function"},{"inputs":[{"internalType":"address","name":"newAddress","type":"address"}],"name":"addWhitelistReceiver","outputs":[],"stateMutability":"nonpayable","type":"function"},{"inputs":[{"internalType":"address","name":"newAddress","type":"address"}],"name":"addWhitelistSender","outputs":[],"stateMutability":"nonpayable","type":"function"},{"inputs":[{"internalType":"address","name":"owner","type":"address"},{"internalType":"address","name":"spender","type":"address"}],"name":"allowance","outputs":[{"internalType":"uint256","name":"","type":"uint256"}],"stateMutability":"view","type":"function"},{"inputs":[{"internalType":"address","name":"spender","type":"address"},{"internalType":"uint256","name":"value","type":"uint256"}],"name":"approve","outputs":[{"internalType":"bool","name":"","type":"bool"}],"stateMutability":"nonpayable","type":"function"},{"inputs":[{"internalType":"address","name":"account","type":"address"}],"name":"balanceOf","outputs":[{"internalType":"uint256","name":"","type":"uint256"}],"stateMutability":"view","type":"function"},{"inputs":[{"internalType":"address","name":"from","type":"address"},{"internalType":"uint256","name":"amount","type":"uint256"}],"name":"burn","outputs":[],"stateMutability":"nonpayable","type":"function"},{"inputs":[],"name":"decimals","outputs":[{"internalType":"uint8","name":"","type":"uint8"}],"stateMutability":"pure","type":"function"},{"inputs":[{"internalType":"address","name":"account","type":"address"}],"name":"freezeAccount","outputs":[],"stateMutability":"nonpayable","type":"function"},{"inputs":[{"internalType":"address","name":"","type":"address"}],"name":"frozenAccounts","outputs":[{"internalType":"bool","name":"","type":"bool"}],"stateMutability":"view","type":"function"},{"inputs":[{"internalType":"bytes32","name":"role","type":"bytes32"}],"name":"getRoleAdmin","outputs":[{"internalType":"bytes32","name":"","type":"bytes32"}],"stateMutability":"view","type":"function"},{"inputs":[{"internalType":"bytes32","name":"role","type":"bytes32"},{"internalType":"uint256","name":"index","type":"uint256"}],"name":"getRoleMember","outputs":[{"internalType":"address","name":"","type":"address"}],"stateMutability":"view","type":"function"},{"inputs":[{"internalType":"bytes32","name":"role","type":"bytes32"}],"name":"getRoleMemberCount","outputs":[{"internalType":"uint256","name":"","type":"uint256"}],"stateMutability":"view","type":"function"},{"inputs":[{"internalType":"bytes32","name":"role","type":"bytes32"}],"name":"getRoleMembers","outputs":[{"internalType":"address[]","name":"","type":"address[]"}],"stateMutability":"view","type":"function"},{"inputs":[{"internalType":"bytes32","name":"role","type":"bytes32"},{"internalType":"address","name":"account","type":"address"}],"name":"grantRole","outputs":[],"stateMutability":"nonpayable","type":"function"},{"inputs":[{"internalType":"bytes32","name":"role","type":"bytes32"},{"internalType":"address","name":"account","type":"address"}],"name":"hasRole","outputs":[{"internalType":"bool","name":"","type":"bool"}],"stateMutability":"view","type":"function"},{"inputs":[{"internalType":"address","name":"initialAdmin","type":"address"}],"name":"initialize","outputs":[],"stateMutability":"nonpayable","type":"function"},{"inputs":[{"internalType":"address","name":"forwarder","type":"address"}],"name":"isTrustedForwarder","outputs":[{"internalType":"bool","name":"","type":"bool"}],"stateMutability":"view","type":"function"},{"inputs":[{"internalType":"address","name":"to","type":"address"},{"internalType":"uint256","name":"amount","type":"uint256"}],"name":"mint","outputs":[],"stateMutability":"nonpayable","type":"function"},{"inputs":[],"name":"name","outputs":[{"internalType":"string","name":"","type":"string"}],"stateMutability":"view","type":"function"},{"inputs":[{"internalType":"address","name":"newAdmin","type":"address"}],"name":"nominateAdmin","outputs":[],"stateMutability":"nonpayable","type":"function"},{"inputs":[],"name":"nominatedAdmin","outputs":[{"internalType":"address","name":"","type":"address"}],"stateMutability":"view","type":"function"},{"inputs":[{"internalType":"address","name":"burnVaultAddress","type":"address"}],"name":"removeBurnVault","outputs":[],"stateMutability":"nonpayable","type":"function"},{"inputs":[{"internalType":"address","name":"minterAddress","type":"address"}],"name":"removeMinter","outputs":[],"stateMutability":"nonpayable","type":"function"},{"inputs":[{"internalType":"address","name":"treasuryAddress","type":"address"}],"name":"removeTreasuryAddress","outputs":[],"stateMutability":"nonpayable","type":"function"},{"inputs":[{"internalType":"address","name":"receiverAddress","type":"address"}],"name":"removeWhitelistReceiver","outputs":[],"stateMutability":"nonpayable","type":"function"},{"inputs":[{"internalType":"address","name":"senderAddress","type":"address"}],"name":"removeWhitelistSender","outputs":[],"stateMutability":"nonpayable","type":"function"},{"inputs":[{"internalType":"bytes32","name":"role","type":"bytes32"},{"internalType":"address","name":"callerConfirmation","type":"address"}],"name":"renounceRole","outputs":[],"stateMutability":"nonpayable","type":"function"},{"inputs":[{"internalType":"bytes32","name":"role","type":"bytes32"},{"internalType":"address","name":"account","type":"address"}],"name":"revokeRole","outputs":[],"stateMutability":"nonpayable","type":"function"},{"inputs":[{"internalType":"address","name":"_trustedForwarder","type":"address"},{"internalType":"bool","name":"_isTrusted","type":"bool"}],"name":"setTrustedForwarder","outputs":[],"stateMutability":"nonpayable","type":"function"},{"inputs":[{"internalType":"bytes4","name":"interfaceId","type":"bytes4"}],"name":"supportsInterface","outputs":[{"internalType":"bool","name":"","type":"bool"}],"stateMutability":"view","type":"function"},{"inputs":[],"name":"symbol","outputs":[{"internalType":"string","name":"","type":"string"}],"stateMutability":"view","type":"function"},{"inputs":[],"name":"totalSupply","outputs":[{"internalType":"uint256","name":"","type":"uint256"}],"stateMutability":"view","type":"function"},{"inputs":[{"internalType":"address","name":"to","type":"address"},{"internalType":"uint256","name":"amount","type":"uint256"}],"name":"transfer","outputs":[{"internalType":"bool","name":"","type":"bool"}],"stateMutability":"nonpayable","type":"function"},{"inputs":[{"internalType":"address","name":"from","type":"address"},{"internalType":"address","name":"to","type":"address"},{"internalType":"uint256","name":"amount","type":"uint256"}],"name":"transferFrom","outputs":[{"internalType":"bool","name":"","type":"bool"}],"stateMutability":"nonpayable","type":"function"},{"inputs":[{"internalType":"address","name":"","type":"address"}],"name":"trustedForwarder","outputs":[{"internalType":"bool","name":"","type":"bool"}],"stateMutability":"view","type":"function"},{"inputs":[{"internalType":"address","name":"account","type":"address"}],"name":"unfreezeAccount","outputs":[],"stateMutability":"nonpayable","type":"function"},{"inputs":[{"internalType":"address","name":"newBurnVault","type":"address"}],"name":"updateBurnVault","outputs":[],"stateMutability":"nonpayable","type":"function"},{"inputs":[{"internalType":"address","name":"newMinter","type":"address"}],"name":"updateMinter","outputs":[],"stateMutability":"nonpayable","type":"function"}],"evm":{"bytecode":{"linkReferences":{},"object":"60806040523480156200001157600080fd5b506200001c62000022565b620000d6565b7ff0c57e16840df040f15088dc2f81fe391c3923bec73e23a9662efc9c229c6a00805468010000000000000000900460ff1615620000735760405163f92ee8a960e01b815260040160405180910390fd5b80546001600160401b0390811614620000d35780546001600160401b0319166001600160401b0390811782556040519081527fc7f505b2f371ae2175ee4913f4499e1f2633a7b5936321eed1cdaeb6115181d29060200160405180910390a15b50565b612fd480620000e66000396000f3fe608060405234801561001057600080fd5b50600436106102ba5760003560e01c80638c3d730111610182578063c80eeec2116100e9578063d5391393116100a2578063e691d03b1161007c578063e691d03b146106b7578063e8ac6533146106ca578063f26c159f146106dd578063f72c0d8b146106f057600080fd5b8063d53913931461067c578063d547741f14610691578063dd62ed3e146106a457600080fd5b8063c80eeec214610608578063ca15c8731461061b578063cd5ad4c51461062e578063d11a57ec14610641578063d403c87814610656578063d4179e8d1461066957600080fd5b8063a217fddf1161013b578063a217fddf14610592578063a3246ad31461059a578063a8422c2f146105ba578063a9059cbb146105cf578063bae5ec04146105e2578063c4d66de8146105f557600080fd5b80638c3d73011461051e5780639010d07c1461052657806391d148541461055157806395d89b4114610564578063983b2d561461056c5780639dc29fac1461057f57600080fd5b8063313ce56711610226578063511d2376116101df578063511d237614610450578063572b6c051461046357806370a082311461048f57806376b88024146104c5578063788649ea146104e8578063860838a5146104fb57600080fd5b8063313ce567146103e057806335f14f14146103ef57806336568abe146104025780633a594a1d1461041557806340c10f191461042a5780634eb03f6e1461043d57600080fd5b8063175badcb11610278578063175badcb1461035a57806318160ddd1461036d57806323b872dd14610394578063248a9ca3146103a75780632f2ff15d146103ba5780633092afd5146103cd57600080fd5b8062047470146102bf57806301ffc9a7146102d457806306fdde03146102fc578063095ea7b3146103115780630ee3153f1461032457806314eeb82814610337575b600080fd5b6102d26102cd366004612a4b565b610717565b005b6102e76102e2366004612a66565b610803565b60405190151581526020015b60405180910390f35b61030461082e565b6040516102f39190612a90565b6102e761031f366004612adf565b6108f1565b6102d2610332366004612a4b565b610913565b61034c600080516020612e9f83398151915281565b6040519081526020016102f3565b6102d2610368366004612a4b565b610a41565b7f52c63247e1f47db19d5ce0460030c497f067ca4cebf71ba98eeadabe20bace025461034c565b6102e76103a2366004612b09565b610b3b565b61034c6103b5366004612b45565b610cc4565b6102d26103c8366004612b5e565b610ce6565b6102d26103db366004612a4b565b610d08565b604051600881526020016102f3565b6102d26103fd366004612a4b565b610de3565b6102d2610410366004612b5e565b610f51565b61034c600080516020612f7f83398151915281565b6102d2610438366004612adf565b610f99565b6102d261044b366004612a4b565b61106e565b6102d261045e366004612a4b565b6111ce565b6102e7610471366004612a4b565b6001600160a01b031660009081526002602052604090205460ff1690565b61034c61049d366004612a4b565b6001600160a01b03166000908152600080516020612ebf833981519152602052604090205490565b6102e76104d3366004612a4b565b60026020526000908152604090205460ff1681565b6102d26104f6366004612a4b565b6112b0565b6102e7610509366004612a4b565b60016020526000908152604090205460ff1681565b6102d261132e565b610539610534366004612b8a565b611470565b6040516001600160a01b0390911681526020016102f3565b6102e761055f366004612b5e565b61149f565b6103046114d7565b6102d261057a366004612a4b565b611516565b6102d261058d366004612adf565b6115f4565b61034c600081565b6105ad6105a8366004612b45565b611682565b6040516102f39190612bac565b61034c600080516020612edf83398151915281565b6102e76105dd366004612adf565b6116ad565b6102d26105f0366004612a4b565b61183b565b6102d2610603366004612a4b565b6119cd565b6102d2610616366004612a4b565b611b7d565b61034c610629366004612b45565b611c66565b6102d261063c366004612a4b565b611c8c565b61034c600080516020612f5f83398151915281565b6102d2610664366004612a4b565b611d9d565b6102d2610677366004612a4b565b611e88565b61034c600080516020612eff83398151915281565b6102d261069f366004612b5e565b611f72565b61034c6106b2366004612bf9565b611f8e565b6102d26106c5366004612c23565b611fd8565b600054610539906001600160a01b031681565b6102d26106eb366004612a4b565b61200f565b61034c7f189ab7a9244df0848122154315af71fe140f3db0fe014031783b0946b8c9d2e381565b600061072281612093565b816001600160a01b03811661074a57604051636e5ec59f60e01b815260040160405180910390fd5b610762600080516020612f7f8339815191528461149f565b61077f57604051637d482fd560e11b815260040160405180910390fd5b610797600080516020612f7f833981519152846120a7565b50826001600160a01b03167f27cb0b1f15cf273268c02c4ac770f2121077509fd09f76000f26fef2107c8e396040516107f690602080825260129082015271109d5c9b8815985d5b1d0814995b5bdd995960721b604082015260600190565b60405180910390a2505050565b60006001600160e01b03198216635a05180f60e01b14806108285750610828826120ec565b92915050565b7f52c63247e1f47db19d5ce0460030c497f067ca4cebf71ba98eeadabe20bace038054606091600080516020612ebf8339815191529161086d90612c5f565b80601f016020809104026020016040519081016040528092919081815260200182805461089990612c5f565b80156108e65780601f106108bb576101008083540402835291602001916108e6565b820191906000526020600020905b8154815290600101906020018083116108c957829003601f168201915b505050505091505090565b6000806108fc612121565b9050610909818585612130565b5060019392505050565b600061091e81612093565b816001600160a01b03811661094657604051636e5ec59f60e01b815260040160405180910390fd5b61095e600080516020612e9f8339815191528461149f565b61097b57604051636bcd113d60e11b815260040160405180910390fd5b610993600080516020612f5f8339815191528461149f565b156109b157604051633172feb360e21b815260040160405180910390fd5b6109c9600080516020612e9f833981519152846120a7565b50826001600160a01b03167f0e178bf7cc940ed3c4d14c1206db670ab5b94749d88646dc197f874a32372ea56040516107f69060208082526025908201527f53656e64657220416464726573732052656d6f7665642046726f6d2057686974604082015264195b1a5cdd60da1b606082015260800190565b6000610a4c81612093565b816001600160a01b038116610a7457604051636e5ec59f60e01b815260040160405180910390fd5b610a8c600080516020612edf8339815191528461149f565b610aa95760405163032bc2cf60e31b815260040160405180910390fd5b610ac1600080516020612edf833981519152846120a7565b50826001600160a01b03167faaf02ba1bcb5b6c4b56e5b51c64ffb18bd8ed3760523f4d845a3c0cc0a8592446040516107f69060208082526027908201527f526563656976657220416464726573732052656d6f7665642046726f6d2057686040820152661a5d195b1a5cdd60ca1b606082015260800190565b6000610b4561213d565b8180600003610b675760405163162908e360e11b815260040160405180910390fd5b836001600160a01b038116610b8f57604051636e5ec59f60e01b815260040160405180910390fd5b6001600160a01b038616600090815260016020526040902054869060ff1615610bcb5760405163286de6d360e11b815260040160405180910390fd5b6001600160a01b038616600090815260016020526040902054869060ff1615610c075760405163286de6d360e11b815260040160405180910390fd5b8787816001600160a01b0316816001600160a01b031603610c3b57604051636d6c4ee560e11b815260040160405180910390fd5b610c53600080516020612e9f8339815191528361149f565b158015610c755750610c73600080516020612edf8339815191528261149f565b155b15610c9357604051630ec0da6960e01b815260040160405180910390fd5b610c9e8a8a8a612175565b9650505050505050610cbd6001600080516020612f3f83398151915255565b9392505050565b6000908152600080516020612f1f833981519152602052604090206001015490565b610cef82610cc4565b610cf881612093565b610d0283836121b7565b50505050565b6000610d1381612093565b816001600160a01b038116610d3b57604051636e5ec59f60e01b815260040160405180910390fd5b610d53600080516020612eff8339815191528461149f565b610d7057604051633e34a41b60e21b815260040160405180910390fd5b610d88600080516020612eff833981519152846120a7565b50826001600160a01b03167f6de4157337b92becadb23ac8c53bdcaba13d56eaa4e2350eff3e65c4d1d84c7c6040516107f6906020808252600e908201526d135a5b9d195c8814995b5bdd995960921b604082015260600190565b6000610dee81612093565b816001600160a01b038116610e1657604051636e5ec59f60e01b815260040160405180910390fd5b610e2e600080516020612f7f8339815191528461149f565b15610e4c57604051633886eec960e11b815260040160405180910390fd5b6000610e65600080516020612f7f833981519152611c66565b905060005b81811015610ec0576000610e8c600080516020612f7f83398151915283611470565b90506001600160a01b03811615610eb757610eb5600080516020612f7f833981519152826120a7565b505b50600101610e6a565b50610ed9600080516020612f7f833981519152856121b7565b50836001600160a01b03167f27cb0b1f15cf273268c02c4ac770f2121077509fd09f76000f26fef2107c8e39604051610f43906020808252601b908201527f4275726e205661756c74205570646174656420284c6567616379290000000000604082015260600190565b60405180910390a250505050565b610f59612121565b6001600160a01b0316816001600160a01b031614610f8a5760405163334bd91960e11b815260040160405180910390fd5b610f9482826120a7565b505050565b610fa161213d565b600080516020612eff833981519152610fb981612093565b8180600003610fdb5760405163162908e360e11b815260040160405180910390fd5b836001600160a01b03811661100357604051636e5ec59f60e01b815260040160405180910390fd5b61100d85856121f3565b846001600160a01b03167fbfa21aa5d5f9a1f0120a95e7c0749f389863cbdbfff531aa7339077a5bc919de8560405161104891815260200190565b60405180910390a250505061106a6001600080516020612f3f83398151915255565b5050565b600061107981612093565b816001600160a01b0381166110a157604051636e5ec59f60e01b815260040160405180910390fd5b6110b9600080516020612eff8339815191528461149f565b156110d7576040516347c4e2a560e01b815260040160405180910390fd5b60006110f0600080516020612eff833981519152611c66565b905060005b8181101561114b576000611117600080516020612eff83398151915283611470565b90506001600160a01b0381161561114257611140600080516020612eff833981519152826120a7565b505b506001016110f5565b50611164600080516020612eff833981519152856121b7565b50836001600160a01b03167f6de4157337b92becadb23ac8c53bdcaba13d56eaa4e2350eff3e65c4d1d84c7c604051610f439060208082526017908201527f4d696e746572205570646174656420284c656761637929000000000000000000604082015260600190565b60006111d981612093565b816001600160a01b03811661120157604051636e5ec59f60e01b815260040160405180910390fd5b611219600080516020612f7f8339815191528461149f565b1561123757604051633886eec960e11b815260040160405180910390fd5b61124f600080516020612f7f833981519152846121b7565b50826001600160a01b03167f27cb0b1f15cf273268c02c4ac770f2121077509fd09f76000f26fef2107c8e396040516107f69060208082526014908201527313995dc8109d5c9b8815985d5b1d08105919195960621b604082015260600190565b60006112bb81612093565b816001600160a01b0381166112e357604051636e5ec59f60e01b815260040160405180910390fd5b6001600160a01b038316600081815260016020526040808220805460ff19169055517ff915cd9fe234de6e8d3afe7bf2388d35b2b6d48e8c629a24602019bde79c213a9190a2505050565b611336612121565b6001600160a01b03811661135d57604051636e5ec59f60e01b815260040160405180910390fd5b611365612121565b6000546001600160a01b0390811691161461139357604051639ceae3db60e01b815260040160405180910390fd5b600061139e81611c66565b905060005b818110156113de5760006113b78183611470565b90506001600160a01b038116156113d5576113d36000826120a7565b505b506001016113a3565b506113f160006113ec612121565b6121b7565b50600080546001600160a01b031916905561140a612121565b6001600160a01b03167f33357bb61b6ce4d9e2a54fd3d9ec5807e7df4bbd6ba3fa1b0860c0a1a39e700a604051611464906020808252600f908201526e13995dc810591b5a5b881059191959608a1b604082015260600190565b60405180910390a25050565b6000828152600080516020612e7f833981519152602081905260408220611497908461222e565b949350505050565b6000918252600080516020612f1f833981519152602090815260408084206001600160a01b0393909316845291905290205460ff1690565b7f52c63247e1f47db19d5ce0460030c497f067ca4cebf71ba98eeadabe20bace048054606091600080516020612ebf8339815191529161086d90612c5f565b600061152181612093565b816001600160a01b03811661154957604051636e5ec59f60e01b815260040160405180910390fd5b611561600080516020612eff8339815191528461149f565b1561157f576040516347c4e2a560e01b815260040160405180910390fd5b611597600080516020612eff833981519152846121b7565b50826001600160a01b03167f6de4157337b92becadb23ac8c53bdcaba13d56eaa4e2350eff3e65c4d1d84c7c6040516107f69060208082526010908201526f13995dc8135a5b9d195c88105919195960821b604082015260600190565b6115fc61213d565b600080516020612f7f83398151915261161481612093565b81806000036116365760405163162908e360e11b815260040160405180910390fd5b836001600160a01b03811661165e57604051636e5ec59f60e01b815260040160405180910390fd5b611668858561223a565b50505061106a6001600080516020612f3f83398151915255565b6000818152600080516020612e7f8339815191526020819052604090912060609190610cbd90612270565b60006116b761213d565b81806000036116d95760405163162908e360e11b815260040160405180910390fd5b836001600160a01b03811661170157604051636e5ec59f60e01b815260040160405180910390fd5b611709612121565b6001600160a01b03811660009081526001602052604090205460ff16156117435760405163286de6d360e11b815260040160405180910390fd5b6001600160a01b038616600090815260016020526040902054869060ff161561177f5760405163286de6d360e11b815260040160405180910390fd5b611787612121565b87816001600160a01b0316816001600160a01b0316036117ba57604051636d6c4ee560e11b815260040160405180910390fd5b6117d2600080516020612e9f8339815191528361149f565b1580156117f457506117f2600080516020612edf8339815191528261149f565b155b1561181257604051630ec0da6960e01b815260040160405180910390fd5b61181c898961227d565b96505050505050506108286001600080516020612f3f83398151915255565b600061184681612093565b816001600160a01b03811661186e57604051636e5ec59f60e01b815260040160405180910390fd5b611886600080516020612f5f8339815191528461149f565b156118a457604051630725c23f60e21b815260040160405180910390fd5b6118bc600080516020612f5f833981519152846121b7565b506118d5600080516020612e9f8339815191528461149f565b611964576118f1600080516020612e9f833981519152846121b7565b50826001600160a01b03167fa148f9af0f634918fbaf23b2be442ee99c628242fb2805bf87c08e4be7a1afac60405161195b906020808252601e908201527f4e65772053656e64657220416464726573732057686974656c69737465640000604082015260600190565b60405180910390a25b826001600160a01b03167fd93a23cfa249287d5dd4d056066c79b1a45bc8608890ea92b4dafa6e874b3fd06040516107f6906020808252601a908201527f4e65772054726561737572792041646472657373204164646564000000000000604082015260600190565b60006119d7612295565b805490915060ff600160401b820416159067ffffffffffffffff166000811580156119ff5750825b905060008267ffffffffffffffff166001148015611a1c5750303b155b905081158015611a2a575080155b15611a485760405163f92ee8a960e01b815260040160405180910390fd5b845467ffffffffffffffff191660011785558315611a7257845460ff60401b1916600160401b1785555b611ab6604051806040016040528060058152602001643925a3a2a760d91b815250604051806040016040528060058152602001643925a3a2a760d91b8152506122be565b611abe6122d0565b611ac66122da565b611ad16000876121b7565b50611aea600080516020612eff833981519152876121b7565b50611b03600080516020612f7f833981519152876121b7565b50611b2e7f189ab7a9244df0848122154315af71fe140f3db0fe014031783b0946b8c9d2e3876121b7565b508315611b7557845460ff60401b19168555604051600181527fc7f505b2f371ae2175ee4913f4499e1f2633a7b5936321eed1cdaeb6115181d29060200160405180910390a15b505050505050565b6000611b8881612093565b816001600160a01b038116611bb057604051636e5ec59f60e01b815260040160405180910390fd5b611bc8600080516020612edf8339815191528461149f565b15611be657604051633979278960e01b815260040160405180910390fd5b611bfe600080516020612edf833981519152846121b7565b50826001600160a01b03167ffe6d2d6f86f1b4f5f6d5833a27d9eb52bba0f8aad51eb089023c6a4dcfd21a8f6040516107f6906020808252818101527f4e657720526563656976657220416464726573732057686974656c6973746564604082015260600190565b6000818152600080516020612e7f833981519152602081905260408220610cbd906122ea565b6000611c9781612093565b816001600160a01b038116611cbf57604051636e5ec59f60e01b815260040160405180910390fd5b611cc7612121565b6001600160a01b0316836001600160a01b031603611cf857604051630f83f25360e41b815260040160405180910390fd5b600080546001600160a01b0385166001600160a01b031990911681179091556040517fa9c1d417fdb88c493dbab369bd79c043aa4c6c9522a681d9334ba091ede58cd9906107f6906020808252603a908201527f4e65772041646d696e204e6f6d696e617465642c204e6f77206e65772061646d60408201527f696e206e65656420746f206163636570742074686520726f6c65000000000000606082015260800190565b6000611da881612093565b816001600160a01b038116611dd057604051636e5ec59f60e01b815260040160405180910390fd5b611de8600080516020612e9f8339815191528461149f565b15611e065760405163ba643ec560e01b815260040160405180910390fd5b611e1e600080516020612e9f833981519152846121b7565b50826001600160a01b03167fa148f9af0f634918fbaf23b2be442ee99c628242fb2805bf87c08e4be7a1afac6040516107f6906020808252601e908201527f4e65772053656e64657220416464726573732057686974656c69737465640000604082015260600190565b6000611e9381612093565b816001600160a01b038116611ebb57604051636e5ec59f60e01b815260040160405180910390fd5b611ed3600080516020612f5f8339815191528461149f565b611ef05760405163b90cdbb160e01b815260040160405180910390fd5b611f08600080516020612f5f833981519152846120a7565b50826001600160a01b03167f238be719becf7de7673229da18d51189916a74316ccd29739e8bf3fa30288d876040516107f69060208082526018908201527f547265617375727920416464726573732052656d6f7665640000000000000000604082015260600190565b611f7b82610cc4565b611f8481612093565b610d0283836120a7565b6001600160a01b0391821660009081527f52c63247e1f47db19d5ce0460030c497f067ca4cebf71ba98eeadabe20bace016020908152604080832093909416825291909152205490565b6000611fe381612093565b506001600160a01b03919091166000908152600260205260409020805460ff1916911515919091179055565b600061201a81612093565b816001600160a01b03811661204257604051636e5ec59f60e01b815260040160405180910390fd5b6001600160a01b0383166000818152600160208190526040808320805460ff1916909217909155517f4f2a367e694e71282f29ab5eaa04c4c0be45ac5bf2ca74fb67068b98bdc2887d9190a2505050565b6120a48161209f612121565b6122f4565b50565b6000600080516020612e7f833981519152816120c3858561232d565b905080156114975760008581526020839052604090206120e390856123d1565b50949350505050565b60006001600160e01b03198216637965db0b60e01b148061082857506301ffc9a760e01b6001600160e01b0319831614610828565b600061212b6123e6565b905090565b610f948383836001612442565b600080516020612f3f83398151915280546001190161216f57604051633ee5aeb560e01b815260040160405180910390fd5b60029055565b600080612180612121565b905061218d85828561252a565b61219885858561258b565b506001949350505050565b6001600080516020612f3f83398151915255565b6000600080516020612e7f833981519152816121d385856125ea565b905080156114975760008581526020839052604090206120e39085612686565b6001600160a01b0382166122225760405163ec442f0560e01b8152600060048201526024015b60405180910390fd5b61106a6000838361269b565b6000610cbd83836127d9565b6001600160a01b03821661226457604051634b637e8f60e11b815260006004820152602401612219565b61106a8260008361269b565b60606000610cbd83612803565b600080612288612121565b905061090981858561258b565b6000807ff0c57e16840df040f15088dc2f81fe391c3923bec73e23a9662efc9c229c6a00610828565b6122c661285f565b61106a8282612884565b6122d861285f565b565b6122e261285f565b6122d86128d5565b6000610828825490565b6122fe828261149f565b61106a5760405163e2517d3f60e01b81526001600160a01b038216600482015260248101839052604401612219565b6000600080516020612f1f833981519152612348848461149f565b156123c7576000848152602082815260408083206001600160a01b03871684529091529020805460ff1916905561237d612121565b6001600160a01b0316836001600160a01b0316857ff6391f5c32d9c69d2a47ea670b442974b53935d1edc7fd64eb21e047a839171b60405160405180910390a46001915050610828565b6000915050610828565b6000610cbd836001600160a01b0384166128dd565b33600090815260026020526040812054369060149060ff16801561240a5750808210155b1561243a5760003661241c8385612caf565b612427928290612cc2565b61243091612cec565b60601c9250505090565b339250505090565b600080516020612ebf8339815191526001600160a01b03851661247b5760405163e602df0560e01b815260006004820152602401612219565b6001600160a01b0384166124a557604051634a1406b160e11b815260006004820152602401612219565b6001600160a01b0380861660009081526001830160209081526040808320938816835292905220839055811561252357836001600160a01b0316856001600160a01b03167f8c5be1e5ebec7d5bd14f71427d1e84f3dd0314c0f7b2291e5b200ac8c7c3b9258560405161251a91815260200190565b60405180910390a35b5050505050565b60006125368484611f8e565b9050600019811015610d02578181101561257c57604051637dc7a0d960e11b81526001600160a01b03841660048201526024810182905260448101839052606401612219565b610d0284848484036000612442565b6001600160a01b0383166125b557604051634b637e8f60e11b815260006004820152602401612219565b6001600160a01b0382166125df5760405163ec442f0560e01b815260006004820152602401612219565b610f9483838361269b565b6000600080516020612f1f833981519152612605848461149f565b6123c7576000848152602082815260408083206001600160a01b03871684529091529020805460ff1916600117905561263c612121565b6001600160a01b0316836001600160a01b0316857f2f8788117e7eff1d82e926ec794901d17c78024a50270940304540a733656f0d60405160405180910390a46001915050610828565b6000610cbd836001600160a01b0384166129c6565b600080516020612ebf8339815191526001600160a01b0384166126d757818160020160008282546126cc9190612d21565b909155506127499050565b6001600160a01b0384166000908152602082905260409020548281101561272a5760405163391434e360e21b81526001600160a01b03861660048201526024810182905260448101849052606401612219565b6001600160a01b03851660009081526020839052604090209083900390555b6001600160a01b038316612767576002810180548390039055612786565b6001600160a01b03831660009081526020829052604090208054830190555b826001600160a01b0316846001600160a01b03167fddf252ad1be2c89b69c2b068fc378daa952ba7f163c4a11628f55a4df523b3ef846040516127cb91815260200190565b60405180910390a350505050565b60008260000182815481106127f0576127f0612d34565b9060005260206000200154905092915050565b60608160000180548060200260200160405190810160405280929190818152602001828054801561285357602002820191906000526020600020905b81548152602001906001019080831161283f575b50505050509050919050565b612867612a15565b6122d857604051631afcd79f60e31b815260040160405180910390fd5b61288c61285f565b600080516020612ebf8339815191527f52c63247e1f47db19d5ce0460030c497f067ca4cebf71ba98eeadabe20bace036128c68482612da8565b5060048101610d028382612da8565b6121a361285f565b600081815260018301602052604081205480156123c7576000612901600183612caf565b855490915060009061291590600190612caf565b905080821461297a57600086600001828154811061293557612935612d34565b906000526020600020015490508087600001848154811061295857612958612d34565b6000918252602080832090910192909255918252600188019052604090208390555b855486908061298b5761298b612e68565b600190038181906000526020600020016000905590558560010160008681526020019081526020016000206000905560019350505050610828565b6000818152600183016020526040812054612a0d57508154600181810184556000848152602080822090930184905584548482528286019093526040902091909155610828565b506000610828565b6000612a1f612295565b54600160401b900460ff16919050565b80356001600160a01b0381168114612a4657600080fd5b919050565b600060208284031215612a5d57600080fd5b610cbd82612a2f565b600060208284031215612a7857600080fd5b81356001600160e01b031981168114610cbd57600080fd5b60006020808352835180602085015260005b81811015612abe57858101830151858201604001528201612aa2565b506000604082860101526040601f19601f8301168501019250505092915050565b60008060408385031215612af257600080fd5b612afb83612a2f565b946020939093013593505050565b600080600060608486031215612b1e57600080fd5b612b2784612a2f565b9250612b3560208501612a2f565b9150604084013590509250925092565b600060208284031215612b5757600080fd5b5035919050565b60008060408385031215612b7157600080fd5b82359150612b8160208401612a2f565b90509250929050565b60008060408385031215612b9d57600080fd5b50508035926020909101359150565b6020808252825182820181905260009190848201906040850190845b81811015612bed5783516001600160a01b031683529284019291840191600101612bc8565b50909695505050505050565b60008060408385031215612c0c57600080fd5b612c1583612a2f565b9150612b8160208401612a2f565b60008060408385031215612c3657600080fd5b612c3f83612a2f565b915060208301358015158114612c5457600080fd5b809150509250929050565b600181811c90821680612c7357607f821691505b602082108103612c9357634e487b7160e01b600052602260045260246000fd5b50919050565b634e487b7160e01b600052601160045260246000fd5b8181038181111561082857610828612c99565b60008085851115612cd257600080fd5b83861115612cdf57600080fd5b5050820193919092039150565b6bffffffffffffffffffffffff198135818116916014851015612d195780818660140360031b1b83161692505b505092915050565b8082018082111561082857610828612c99565b634e487b7160e01b600052603260045260246000fd5b634e487b7160e01b600052604160045260246000fd5b601f821115610f94576000816000526020600020601f850160051c81016020861015612d895750805b601f850160051c820191505b81811015611b7557828155600101612d95565b815167ffffffffffffffff811115612dc257612dc2612d4a565b612dd681612dd08454612c5f565b84612d60565b602080601f831160018114612e0b5760008415612df35750858301515b600019600386901b1c1916600185901b178555611b75565b600085815260208120601f198616915b82811015612e3a57888601518255948401946001909101908401612e1b565b5085821015612e585787850151600019600388901b60f8161c191681555b5050505050600190811b01905550565b634e487b7160e01b600052603160045260246000fdfec1f6fe24621ce81ec5827caf0253cadb74709b061630e6b55e82371705932000d22ed3a112884bd9fd6003b71d02c2a671cf1ddcc8740e9a0a8e3ab3973e344f52c63247e1f47db19d5ce0460030c497f067ca4cebf71ba98eeadabe20bace00da4d20b686f7404041d4a40bc922508734f59795e8a7394e246602eb8ec5b77b9f2df0fed2c77648de5860a4cc508cd0818c85b8b8a1ab4ceeef8d981c8956a602dd7bc7dec4dceedda775e58dd541e08a116c6c53815c0bd028192f7b6268009b779b17422d0df92223018b32b4d1fa46e071723d6817e2486d003becc55f00e1dcbdb91df27212a29bc27177c840cf2f819ecf2187432e1fac86c2dd5dfca9cb4c1560f0ac783af04187bda6c71d491dee6a63e28b3ad8457b60790f38eebaa2646970667358221220ead48e3b006504ca5ff5aa323f8412344c43d307f611dc7c2be0416d7da1740964736f6c63430008160033","opcodes":"PUSH1 0x80 PUSH1 0x40 MSTORE CALLVALUE DUP1 ISZERO PUSH3 0x11 JUMPI PUSH1 0x0 DUP1 REVERT JUMPDEST POP PUSH3 0x1C PUSH3 0x22 JUMP JUMPDEST PUSH3 0xD6 JUMP JUMPDEST PUSH32 0xF0C57E16840DF040F15088DC2F81FE391C3923BEC73E23A9662EFC9C229C6A00 DUP1 SLOAD PUSH9 0x10000000000000000 SWAP1 DIV PUSH1 0xFF AND ISZERO PUSH3 0x73 JUMPI PUSH1 0x40 MLOAD PUSH4 0xF92EE8A9 PUSH1 0xE0 SHL DUP2 MSTORE PUSH1 0x4 ADD PUSH1 0x40 MLOAD DUP1 SWAP2 SUB SWAP1 REVERT JUMPDEST DUP1 SLOAD PUSH1 0x1 PUSH1 0x1 PUSH1 0x40 SHL SUB SWAP1 DUP2 AND EQ PUSH3 0xD3 JUMPI DUP1 SLOAD PUSH1 0x1 PUSH1 0x1 PUSH1 0x40 SHL SUB NOT AND PUSH1 0x1 PUSH1 0x1 PUSH1 0x40 SHL SUB SWAP1 DUP2 OR DUP3 SSTORE PUSH1 0x40 MLOAD SWAP1 DUP2 MSTORE PUSH32 0xC7F505B2F371AE2175EE4913F4499E1F2633A7B5936321EED1CDAEB6115181D2 SWAP1 PUSH1 0x20 ADD PUSH1 0x40 MLOAD DUP1 SWAP2 SUB SWAP1 LOG1 JUMPDEST POP JUMP JUMPDEST PUSH2 0x2FD4 DUP1 PUSH3 0xE6 PUSH1 0x0 CODECOPY PUSH1 0x0 RETURN INVALID PUSH1 0x80 PUSH1 0x40 MSTORE CALLVALUE DUP1 ISZERO PUSH2 0x10 JUMPI PUSH1 0x0 DUP1 REVERT JUMPDEST POP PUSH1 0x4 CALLDATASIZE LT PUSH2 0x2BA JUMPI PUSH1 0x0 CALLDATALOAD PUSH1 0xE0 SHR DUP1 PUSH4 0x8C3D7301 GT PUSH2 0x182 JUMPI DUP1 PUSH4 0xC80EEEC2 GT PUSH2 0xE9 JUMPI DUP1 PUSH4 0xD5391393 GT PUSH2 0xA2 JUMPI DUP1 PUSH4 0xE691D03B GT PUSH2 0x7C JUMPI DUP1 PUSH4 0xE691D03B EQ PUSH2 0x6B7 JUMPI DUP1 PUSH4 0xE8AC6533 EQ PUSH2 0x6CA JUMPI DUP1 PUSH4 0xF26C159F EQ PUSH2 0x6DD JUMPI DUP1 PUSH4 0xF72C0D8B EQ PUSH2 0x6F0 JUMPI PUSH1 0x0 DUP1 REVERT JUMPDEST DUP1 PUSH4 0xD5391393 EQ PUSH2 0x67C JUMPI DUP1 PUSH4 0xD547741F EQ PUSH2 0x691 JUMPI DUP1 PUSH4 0xDD62ED3E EQ PUSH2 0x6A4 JUMPI PUSH1 0x0 DUP1 REVERT JUMPDEST DUP1 PUSH4 0xC80EEEC2 EQ PUSH2 0x608 JUMPI DUP1 PUSH4 0xCA15C873 EQ PUSH2 0x61B JUMPI DUP1 PUSH4 0xCD5AD4C5 EQ PUSH2 0x62E JUMPI DUP1 PUSH4 0xD11A57EC EQ PUSH2 0x641 JUMPI DUP1 PUSH4 0xD403C878 EQ PUSH2 0x656 JUMPI DUP1 PUSH4 0xD4179E8D EQ PUSH2 0x669 JUMPI PUSH1 0x0 DUP1 REVERT JUMPDEST DUP1 PUSH4 0xA217FDDF GT PUSH2 0x13B JUMPI DUP1 PUSH4 0xA217FDDF EQ PUSH2 0x592 JUMPI DUP1 PUSH4 0xA3246AD3 EQ PUSH2 0x59A JUMPI DUP1 PUSH4 0xA8422C2F EQ PUSH2 0x5BA JUMPI DUP1 PUSH4 0xA9059CBB EQ PUSH2 0x5CF JUMPI DUP1 PUSH4 0xBAE5EC04 EQ PUSH2 0x5E2 JUMPI DUP1 PUSH4 0xC4D66DE8 EQ PUSH2 0x5F5 JUMPI PUSH1 0x0 DUP1 REVERT JUMPDEST DUP1 PUSH4 0x8C3D7301 EQ PUSH2 0x51E JUMPI DUP1 PUSH4 0x9010D07C EQ PUSH2 0x526 JUMPI DUP1 PUSH4 0x91D14854 EQ PUSH2 0x551 JUMPI DUP1 PUSH4 0x95D89B41 EQ PUSH2 0x564 JUMPI DUP1 PUSH4 0x983B2D56 EQ PUSH2 0x56C JUMPI DUP1 PUSH4 0x9DC29FAC EQ PUSH2 0x57F JUMPI PUSH1 0x0 DUP1 REVERT JUMPDEST DUP1 PUSH4 0x313CE567 GT PUSH2 0x226 JUMPI DUP1 PUSH4 0x511D2376 GT PUSH2 0x1DF JUMPI DUP1 PUSH4 0x511D2376 EQ PUSH2 0x450 JUMPI DUP1 PUSH4 0x572B6C05 EQ PUSH2 0x463 JUMPI DUP1 PUSH4 0x70A08231 EQ PUSH2 0x48F JUMPI DUP1 PUSH4 0x76B88024 EQ PUSH2 0x4C5 JUMPI DUP1 PUSH4 0x788649EA EQ PUSH2 0x4E8 JUMPI DUP1 PUSH4 0x860838A5 EQ PUSH2 0x4FB JUMPI PUSH1 0x0 DUP1 REVERT JUMPDEST DUP1 PUSH4 0x313CE567 EQ PUSH2 0x3E0 JUMPI DUP1 PUSH4 0x35F14F14 EQ PUSH2 0x3EF JUMPI DUP1 PUSH4 0x36568ABE EQ PUSH2 0x402 JUMPI DUP1 PUSH4 0x3A594A1D EQ PUSH2 0x415 JUMPI DUP1 PUSH4 0x40C10F19 EQ PUSH2 0x42A JUMPI DUP1 PUSH4 0x4EB03F6E EQ PUSH2 0x43D JUMPI PUSH1 0x0 DUP1 REVERT JUMPDEST DUP1 PUSH4 0x175BADCB GT PUSH2 0x278 JUMPI DUP1 PUSH4 0x175BADCB EQ PUSH2 0x35A JUMPI DUP1 PUSH4 0x18160DDD EQ PUSH2 0x36D JUMPI DUP1 PUSH4 0x23B872DD EQ PUSH2 0x394 JUMPI DUP1 PUSH4 0x248A9CA3 EQ PUSH2 0x3A7 JUMPI DUP1 PUSH4 0x2F2FF15D EQ PUSH2 0x3BA JUMPI DUP1 PUSH4 0x3092AFD5 EQ PUSH2 0x3CD JUMPI PUSH1 0x0 DUP1 REVERT JUMPDEST DUP1 PUSH3 0x47470 EQ PUSH2 0x2BF JUMPI DUP1 PUSH4 0x1FFC9A7 EQ PUSH2 0x2D4 JUMPI DUP1 PUSH4 0x6FDDE03 EQ PUSH2 0x2FC JUMPI DUP1 PUSH4 0x95EA7B3 EQ PUSH2 0x311 JUMPI DUP1 PUSH4 0xEE3153F EQ PUSH2 0x324 JUMPI DUP1 PUSH4 0x14EEB828 EQ PUSH2 0x337 JUMPI JUMPDEST PUSH1 0x0 DUP1 REVERT JUMPDEST PUSH2 0x2D2 PUSH2 0x2CD CALLDATASIZE PUSH1 0x4 PUSH2 0x2A4B JUMP JUMPDEST PUSH2 0x717 JUMP JUMPDEST STOP JUMPDEST PUSH2 0x2E7 PUSH2 0x2E2 CALLDATASIZE PUSH1 0x4 PUSH2 0x2A66 JUMP JUMPDEST PUSH2 0x803 JUMP JUMPDEST PUSH1 0x40 MLOAD SWAP1 ISZERO ISZERO DUP2 MSTORE PUSH1 0x20 ADD JUMPDEST PUSH1 0x40 MLOAD DUP1 SWAP2 SUB SWAP1 RETURN JUMPDEST PUSH2 0x304 PUSH2 0x82E JUMP JUMPDEST PUSH1 0x40 MLOAD PUSH2 0x2F3 SWAP2 SWAP1 PUSH2 0x2A90 JUMP JUMPDEST PUSH2 0x2E7 PUSH2 0x31F CALLDATASIZE PUSH1 0x4 PUSH2 0x2ADF JUMP JUMPDEST PUSH2 0x8F1 JUMP JUMPDEST PUSH2 0x2D2 PUSH2 0x332 CALLDATASIZE PUSH1 0x4 PUSH2 0x2A4B JUMP JUMPDEST PUSH2 0x913 JUMP JUMPDEST PUSH2 0x34C PUSH1 0x0 DUP1 MLOAD PUSH1 0x20 PUSH2 0x2E9F DUP4 CODECOPY DUP2 MLOAD SWAP2 MSTORE DUP2 JUMP JUMPDEST PUSH1 0x40 MLOAD SWAP1 DUP2 MSTORE PUSH1 0x20 ADD PUSH2 0x2F3 JUMP JUMPDEST PUSH2 0x2D2 PUSH2 0x368 CALLDATASIZE PUSH1 0x4 PUSH2 0x2A4B JUMP JUMPDEST PUSH2 0xA41 JUMP JUMPDEST PUSH32 0x52C63247E1F47DB19D5CE0460030C497F067CA4CEBF71BA98EEADABE20BACE02 SLOAD PUSH2 0x34C JUMP JUMPDEST PUSH2 0x2E7 PUSH2 0x3A2 CALLDATASIZE PUSH1 0x4 PUSH2 0x2B09 JUMP JUMPDEST PUSH2 0xB3B JUMP JUMPDEST PUSH2 0x34C PUSH2 0x3B5 CALLDATASIZE PUSH1 0x4 PUSH2 0x2B45 JUMP JUMPDEST PUSH2 0xCC4 JUMP JUMPDEST PUSH2 0x2D2 PUSH2 0x3C8 CALLDATASIZE PUSH1 0x4 PUSH2 0x2B5E JUMP JUMPDEST PUSH2 0xCE6 JUMP JUMPDEST PUSH2 0x2D2 PUSH2 0x3DB CALLDATASIZE PUSH1 0x4 PUSH2 0x2A4B JUMP JUMPDEST PUSH2 0xD08 JUMP JUMPDEST PUSH1 0x40 MLOAD PUSH1 0x8 DUP2 MSTORE PUSH1 0x20 ADD PUSH2 0x2F3 JUMP JUMPDEST PUSH2 0x2D2 PUSH2 0x3FD CALLDATASIZE PUSH1 0x4 PUSH2 0x2A4B JUMP JUMPDEST PUSH2 0xDE3 JUMP JUMPDEST PUSH2 0x2D2 PUSH2 0x410 CALLDATASIZE PUSH1 0x4 PUSH2 0x2B5E JUMP JUMPDEST PUSH2 0xF51 JUMP JUMPDEST PUSH2 0x34C PUSH1 0x0 DUP1 MLOAD PUSH1 0x20 PUSH2 0x2F7F DUP4 CODECOPY DUP2 MLOAD SWAP2 MSTORE DUP2 JUMP JUMPDEST PUSH2 0x2D2 PUSH2 0x438 CALLDATASIZE PUSH1 0x4 PUSH2 0x2ADF JUMP JUMPDEST PUSH2 0xF99 JUMP JUMPDEST PUSH2 0x2D2 PUSH2 0x44B CALLDATASIZE PUSH1 0x4 PUSH2 0x2A4B JUMP JUMPDEST PUSH2 0x106E JUMP JUMPDEST PUSH2 0x2D2 PUSH2 0x45E CALLDATASIZE PUSH1 0x4 PUSH2 0x2A4B JUMP JUMPDEST PUSH2 0x11CE JUMP JUMPDEST PUSH2 0x2E7 PUSH2 0x471 CALLDATASIZE PUSH1 0x4 PUSH2 0x2A4B JUMP JUMPDEST PUSH1 0x1 PUSH1 0x1 PUSH1 0xA0 SHL SUB AND PUSH1 0x0 SWAP1 DUP2 MSTORE PUSH1 0x2 PUSH1 0x20 MSTORE PUSH1 0x40 SWAP1 KECCAK256 SLOAD PUSH1 0xFF AND SWAP1 JUMP JUMPDEST PUSH2 0x34C PUSH2 0x49D CALLDATASIZE PUSH1 0x4 PUSH2 0x2A4B JUMP JUMPDEST PUSH1 0x1 PUSH1 0x1 PUSH1 0xA0 SHL SUB AND PUSH1 0x0 SWAP1 DUP2 MSTORE PUSH1 0x0 DUP1 MLOAD PUSH1 0x20 PUSH2 0x2EBF DUP4 CODECOPY DUP2 MLOAD SWAP2 MSTORE PUSH1 0x20 MSTORE PUSH1 0x40 SWAP1 KECCAK256 SLOAD SWAP1 JUMP JUMPDEST PUSH2 0x2E7 PUSH2 0x4D3 CALLDATASIZE PUSH1 0x4 PUSH2 0x2A4B JUMP JUMPDEST PUSH1 0x2 PUSH1 0x20 MSTORE PUSH1 0x0 SWAP1 DUP2 MSTORE PUSH1 0x40 SWAP1 KECCAK256 SLOAD PUSH1 0xFF AND DUP2 JUMP JUMPDEST PUSH2 0x2D2 PUSH2 0x4F6 CALLDATASIZE PUSH1 0x4 PUSH2 0x2A4B JUMP JUMPDEST PUSH2 0x12B0 JUMP JUMPDEST PUSH2 0x2E7 PUSH2 0x509 CALLDATASIZE PUSH1 0x4 PUSH2 0x2A4B JUMP JUMPDEST PUSH1 0x1 PUSH1 0x20 MSTORE PUSH1 0x0 SWAP1 DUP2 MSTORE PUSH1 0x40 SWAP1 KECCAK256 SLOAD PUSH1 0xFF AND DUP2 JUMP JUMPDEST PUSH2 0x2D2 PUSH2 0x132E JUMP JUMPDEST PUSH2 0x539 PUSH2 0x534 CALLDATASIZE PUSH1 0x4 PUSH2 0x2B8A JUMP JUMPDEST PUSH2 0x1470 JUMP JUMPDEST PUSH1 0x40 MLOAD PUSH1 0x1 PUSH1 0x1 PUSH1 0xA0 SHL SUB SWAP1 SWAP2 AND DUP2 MSTORE PUSH1 0x20 ADD PUSH2 0x2F3 JUMP JUMPDEST PUSH2 0x2E7 PUSH2 0x55F CALLDATASIZE PUSH1 0x4 PUSH2 0x2B5E JUMP JUMPDEST PUSH2 0x149F JUMP JUMPDEST PUSH2 0x304 PUSH2 0x14D7 JUMP JUMPDEST PUSH2 0x2D2 PUSH2 0x57A CALLDATASIZE PUSH1 0x4 PUSH2 0x2A4B JUMP JUMPDEST PUSH2 0x1516 JUMP JUMPDEST PUSH2 0x2D2 PUSH2 0x58D CALLDATASIZE PUSH1 0x4 PUSH2 0x2ADF JUMP JUMPDEST PUSH2 0x15F4 JUMP JUMPDEST PUSH2 0x34C PUSH1 0x0 DUP2 JUMP JUMPDEST PUSH2 0x5AD PUSH2 0x5A8 CALLDATASIZE PUSH1 0x4 PUSH2 0x2B45 JUMP JUMPDEST PUSH2 0x1682 JUMP JUMPDEST PUSH1 0x40 MLOAD PUSH2 0x2F3 SWAP2 SWAP1 PUSH2 0x2BAC JUMP JUMPDEST PUSH2 0x34C PUSH1 0x0 DUP1 MLOAD PUSH1 0x20 PUSH2 0x2EDF DUP4 CODECOPY DUP2 MLOAD SWAP2 MSTORE DUP2 JUMP JUMPDEST PUSH2 0x2E7 PUSH2 0x5DD CALLDATASIZE PUSH1 0x4 PUSH2 0x2ADF JUMP JUMPDEST PUSH2 0x16AD JUMP JUMPDEST PUSH2 0x2D2 PUSH2 0x5F0 CALLDATASIZE PUSH1 0x4 PUSH2 0x2A4B JUMP JUMPDEST PUSH2 0x183B JUMP JUMPDEST PUSH2 0x2D2 PUSH2 0x603 CALLDATASIZE PUSH1 0x4 PUSH2 0x2A4B JUMP JUMPDEST PUSH2 0x19CD JUMP JUMPDEST PUSH2 0x2D2 PUSH2 0x616 CALLDATASIZE PUSH1 0x4 PUSH2 0x2A4B JUMP JUMPDEST PUSH2 0x1B7D JUMP JUMPDEST PUSH2 0x34C PUSH2 0x629 CALLDATASIZE PUSH1 0x4 PUSH2 0x2B45 JUMP JUMPDEST PUSH2 0x1C66 JUMP JUMPDEST PUSH2 0x2D2 PUSH2 0x63C CALLDATASIZE PUSH1 0x4 PUSH2 0x2A4B JUMP JUMPDEST PUSH2 0x1C8C JUMP JUMPDEST PUSH2 0x34C PUSH1 0x0 DUP1 MLOAD PUSH1 0x20 PUSH2 0x2F5F DUP4 CODECOPY DUP2 MLOAD SWAP2 MSTORE DUP2 JUMP JUMPDEST PUSH2 0x2D2 PUSH2 0x664 CALLDATASIZE PUSH1 0x4 PUSH2 0x2A4B JUMP JUMPDEST PUSH2 0x1D9D JUMP JUMPDEST PUSH2 0x2D2 PUSH2 0x677 CALLDATASIZE PUSH1 0x4 PUSH2 0x2A4B JUMP JUMPDEST PUSH2 0x1E88 JUMP JUMPDEST PUSH2 0x34C PUSH1 0x0 DUP1 MLOAD PUSH1 0x20 PUSH2 0x2EFF DUP4 CODECOPY DUP2 MLOAD SWAP2 MSTORE DUP2 JUMP JUMPDEST PUSH2 0x2D2 PUSH2 0x69F CALLDATASIZE PUSH1 0x4 PUSH2 0x2B5E JUMP JUMPDEST PUSH2 0x1F72 JUMP JUMPDEST PUSH2 0x34C PUSH2 0x6B2 CALLDATASIZE PUSH1 0x4 PUSH2 0x2BF9 JUMP JUMPDEST PUSH2 0x1F8E JUMP JUMPDEST PUSH2 0x2D2 PUSH2 0x6C5 CALLDATASIZE PUSH1 0x4 PUSH2 0x2C23 JUMP JUMPDEST PUSH2 0x1FD8 JUMP JUMPDEST PUSH1 0x0 SLOAD PUSH2 0x539 SWAP1 PUSH1 0x1 PUSH1 0x1 PUSH1 0xA0 SHL SUB AND DUP2 JUMP JUMPDEST PUSH2 0x2D2 PUSH2 0x6EB CALLDATASIZE PUSH1 0x4 PUSH2 0x2A4B JUMP JUMPDEST PUSH2 0x200F JUMP JUMPDEST PUSH2 0x34C PUSH32 0x189AB7A9244DF0848122154315AF71FE140F3DB0FE014031783B0946B8C9D2E3 DUP2 JUMP JUMPDEST PUSH1 0x0 PUSH2 0x722 DUP2 PUSH2 0x2093 JUMP JUMPDEST DUP2 PUSH1 0x1 PUSH1 0x1 PUSH1 0xA0 SHL SUB DUP2 AND PUSH2 0x74A JUMPI PUSH1 0x40 MLOAD PUSH4 0x6E5EC59F PUSH1 0xE0 SHL DUP2 MSTORE PUSH1 0x4 ADD PUSH1 0x40 MLOAD DUP1 SWAP2 SUB SWAP1 REVERT JUMPDEST PUSH2 0x762 PUSH1 0x0 DUP1 MLOAD PUSH1 0x20 PUSH2 0x2F7F DUP4 CODECOPY DUP2 MLOAD SWAP2 MSTORE DUP5 PUSH2 0x149F JUMP JUMPDEST PUSH2 0x77F JUMPI PUSH1 0x40 MLOAD PUSH4 0x7D482FD5 PUSH1 0xE1 SHL DUP2 MSTORE PUSH1 0x4 ADD PUSH1 0x40 MLOAD DUP1 SWAP2 SUB SWAP1 REVERT JUMPDEST PUSH2 0x797 PUSH1 0x0 DUP1 MLOAD PUSH1 0x20 PUSH2 0x2F7F DUP4 CODECOPY DUP2 MLOAD SWAP2 MSTORE DUP5 PUSH2 0x20A7 JUMP JUMPDEST POP DUP3 PUSH1 0x1 PUSH1 0x1 PUSH1 0xA0 SHL SUB AND PUSH32 0x27CB0B1F15CF273268C02C4AC770F2121077509FD09F76000F26FEF2107C8E39 PUSH1 0x40 MLOAD PUSH2 0x7F6 SWAP1 PUSH1 0x20 DUP1 DUP3 MSTORE PUSH1 0x12 SWAP1 DUP3 ADD MSTORE PUSH18 0x109D5C9B8815985D5B1D0814995B5BDD9959 PUSH1 0x72 SHL PUSH1 0x40 DUP3 ADD MSTORE PUSH1 0x60 ADD SWAP1 JUMP JUMPDEST PUSH1 0x40 MLOAD DUP1 SWAP2 SUB SWAP1 LOG2 POP POP POP JUMP JUMPDEST PUSH1 0x0 PUSH1 0x1 PUSH1 0x1 PUSH1 0xE0 SHL SUB NOT DUP3 AND PUSH4 0x5A05180F PUSH1 0xE0 SHL EQ DUP1 PUSH2 0x828 JUMPI POP PUSH2 0x828 DUP3 PUSH2 0x20EC JUMP JUMPDEST SWAP3 SWAP2 POP POP JUMP JUMPDEST PUSH32 0x52C63247E1F47DB19D5CE0460030C497F067CA4CEBF71BA98EEADABE20BACE03 DUP1 SLOAD PUSH1 0x60 SWAP2 PUSH1 0x0 DUP1 MLOAD PUSH1 0x20 PUSH2 0x2EBF DUP4 CODECOPY DUP2 MLOAD SWAP2 MSTORE SWAP2 PUSH2 0x86D SWAP1 PUSH2 0x2C5F JUMP JUMPDEST DUP1 PUSH1 0x1F ADD PUSH1 0x20 DUP1 SWAP2 DIV MUL PUSH1 0x20 ADD PUSH1 0x40 MLOAD SWAP1 DUP2 ADD PUSH1 0x40 MSTORE DUP1 SWAP3 SWAP2 SWAP1 DUP2 DUP2 MSTORE PUSH1 0x20 ADD DUP3 DUP1 SLOAD PUSH2 0x899 SWAP1 PUSH2 0x2C5F JUMP JUMPDEST DUP1 ISZERO PUSH2 0x8E6 JUMPI DUP1 PUSH1 0x1F LT PUSH2 0x8BB JUMPI PUSH2 0x100 DUP1 DUP4 SLOAD DIV MUL DUP4 MSTORE SWAP2 PUSH1 0x20 ADD SWAP2 PUSH2 0x8E6 JUMP JUMPDEST DUP3 ADD SWAP2 SWAP1 PUSH1 0x0 MSTORE PUSH1 0x20 PUSH1 0x0 KECCAK256 SWAP1 JUMPDEST DUP2 SLOAD DUP2 MSTORE SWAP1 PUSH1 0x1 ADD SWAP1 PUSH1 0x20 ADD DUP1 DUP4 GT PUSH2 0x8C9 JUMPI DUP3 SWAP1 SUB PUSH1 0x1F AND DUP3 ADD SWAP2 JUMPDEST POP POP POP POP POP SWAP2 POP POP SWAP1 JUMP JUMPDEST PUSH1 0x0 DUP1 PUSH2 0x8FC PUSH2 0x2121 JUMP JUMPDEST SWAP1 POP PUSH2 0x909 DUP2 DUP6 DUP6 PUSH2 0x2130 JUMP JUMPDEST POP PUSH1 0x1 SWAP4 SWAP3 POP POP POP JUMP JUMPDEST PUSH1 0x0 PUSH2 0x91E DUP2 PUSH2 0x2093 JUMP JUMPDEST DUP2 PUSH1 0x1 PUSH1 0x1 PUSH1 0xA0 SHL SUB DUP2 AND PUSH2 0x946 JUMPI PUSH1 0x40 MLOAD PUSH4 0x6E5EC59F PUSH1 0xE0 SHL DUP2 MSTORE PUSH1 0x4 ADD PUSH1 0x40 MLOAD DUP1 SWAP2 SUB SWAP1 REVERT JUMPDEST PUSH2 0x95E PUSH1 0x0 DUP1 MLOAD PUSH1 0x20 PUSH2 0x2E9F DUP4 CODECOPY DUP2 MLOAD SWAP2 MSTORE DUP5 PUSH2 0x149F JUMP JUMPDEST PUSH2 0x97B JUMPI PUSH1 0x40 MLOAD PUSH4 0x6BCD113D PUSH1 0xE1 SHL DUP2 MSTORE PUSH1 0x4 ADD PUSH1 0x40 MLOAD DUP1 SWAP2 SUB SWAP1 REVERT JUMPDEST PUSH2 0x993 PUSH1 0x0 DUP1 MLOAD PUSH1 0x20 PUSH2 0x2F5F DUP4 CODECOPY DUP2 MLOAD SWAP2 MSTORE DUP5 PUSH2 0x149F JUMP JUMPDEST ISZERO PUSH2 0x9B1 JUMPI PUSH1 0x40 MLOAD PUSH4 0x3172FEB3 PUSH1 0xE2 SHL DUP2 MSTORE PUSH1 0x4 ADD PUSH1 0x40 MLOAD DUP1 SWAP2 SUB SWAP1 REVERT JUMPDEST PUSH2 0x9C9 PUSH1 0x0 DUP1 MLOAD PUSH1 0x20 PUSH2 0x2E9F DUP4 CODECOPY DUP2 MLOAD SWAP2 MSTORE DUP5 PUSH2 0x20A7 JUMP JUMPDEST POP DUP3 PUSH1 0x1 PUSH1 0x1 PUSH1 0xA0 SHL SUB AND PUSH32 0xE178BF7CC940ED3C4D14C1206DB670AB5B94749D88646DC197F874A32372EA5 PUSH1 0x40 MLOAD PUSH2 0x7F6 SWAP1 PUSH1 0x20 DUP1 DUP3 MSTORE PUSH1 0x25 SWAP1 DUP3 ADD MSTORE PUSH32 0x53656E64657220416464726573732052656D6F7665642046726F6D2057686974 PUSH1 0x40 DUP3 ADD MSTORE PUSH5 0x195B1A5CDD PUSH1 0xDA SHL PUSH1 0x60 DUP3 ADD MSTORE PUSH1 0x80 ADD SWAP1 JUMP JUMPDEST PUSH1 0x0 PUSH2 0xA4C DUP2 PUSH2 0x2093 JUMP JUMPDEST DUP2 PUSH1 0x1 PUSH1 0x1 PUSH1 0xA0 SHL SUB DUP2 AND PUSH2 0xA74 JUMPI PUSH1 0x40 MLOAD PUSH4 0x6E5EC59F PUSH1 0xE0 SHL DUP2 MSTORE PUSH1 0x4 ADD PUSH1 0x40 MLOAD DUP1 SWAP2 SUB SWAP1 REVERT JUMPDEST PUSH2 0xA8C PUSH1 0x0 DUP1 MLOAD PUSH1 0x20 PUSH2 0x2EDF DUP4 CODECOPY DUP2 MLOAD SWAP2 MSTORE DUP5 PUSH2 0x149F JUMP JUMPDEST PUSH2 0xAA9 JUMPI PUSH1 0x40 MLOAD PUSH4 0x32BC2CF PUSH1 0xE3 SHL DUP2 MSTORE PUSH1 0x4 ADD PUSH1 0x40 MLOAD DUP1 SWAP2 SUB SWAP1 REVERT JUMPDEST PUSH2 0xAC1 PUSH1 0x0 DUP1 MLOAD PUSH1 0x20 PUSH2 0x2EDF DUP4 CODECOPY DUP2 MLOAD SWAP2 MSTORE DUP5 PUSH2 0x20A7 JUMP JUMPDEST POP DUP3 PUSH1 0x1 PUSH1 0x1 PUSH1 0xA0 SHL SUB AND PUSH32 0xAAF02BA1BCB5B6C4B56E5B51C64FFB18BD8ED3760523F4D845A3C0CC0A859244 PUSH1 0x40 MLOAD PUSH2 0x7F6 SWAP1 PUSH1 0x20 DUP1 DUP3 MSTORE PUSH1 0x27 SWAP1 DUP3 ADD MSTORE PUSH32 0x526563656976657220416464726573732052656D6F7665642046726F6D205768 PUSH1 0x40 DUP3 ADD MSTORE PUSH7 0x1A5D195B1A5CDD PUSH1 0xCA SHL PUSH1 0x60 DUP3 ADD MSTORE PUSH1 0x80 ADD SWAP1 JUMP JUMPDEST PUSH1 0x0 PUSH2 0xB45 PUSH2 0x213D JUMP JUMPDEST DUP2 DUP1 PUSH1 0x0 SUB PUSH2 0xB67 JUMPI PUSH1 0x40 MLOAD PUSH4 0x162908E3 PUSH1 0xE1 SHL DUP2 MSTORE PUSH1 0x4 ADD PUSH1 0x40 MLOAD DUP1 SWAP2 SUB SWAP1 REVERT JUMPDEST DUP4 PUSH1 0x1 PUSH1 0x1 PUSH1 0xA0 SHL SUB DUP2 AND PUSH2 0xB8F JUMPI PUSH1 0x40 MLOAD PUSH4 0x6E5EC59F PUSH1 0xE0 SHL DUP2 MSTORE PUSH1 0x4 ADD PUSH1 0x40 MLOAD DUP1 SWAP2 SUB SWAP1 REVERT JUMPDEST PUSH1 0x1 PUSH1 0x1 PUSH1 0xA0 SHL SUB DUP7 AND PUSH1 0x0 SWAP1 DUP2 MSTORE PUSH1 0x1 PUSH1 0x20 MSTORE PUSH1 0x40 SWAP1 KECCAK256 SLOAD DUP7 SWAP1 PUSH1 0xFF AND ISZERO PUSH2 0xBCB JUMPI PUSH1 0x40 MLOAD PUSH4 0x286DE6D3 PUSH1 0xE1 SHL DUP2 MSTORE PUSH1 0x4 ADD PUSH1 0x40 MLOAD DUP1 SWAP2 SUB SWAP1 REVERT JUMPDEST PUSH1 0x1 PUSH1 0x1 PUSH1 0xA0 SHL SUB DUP7 AND PUSH1 0x0 SWAP1 DUP2 MSTORE PUSH1 0x1 PUSH1 0x20 MSTORE PUSH1 0x40 SWAP1 KECCAK256 SLOAD DUP7 SWAP1 PUSH1 0xFF AND ISZERO PUSH2 0xC07 JUMPI PUSH1 0x40 MLOAD PUSH4 0x286DE6D3 PUSH1 0xE1 SHL DUP2 MSTORE PUSH1 0x4 ADD PUSH1 0x40 MLOAD DUP1 SWAP2 SUB SWAP1 REVERT JUMPDEST DUP8 DUP8 DUP2 PUSH1 0x1 PUSH1 0x1 PUSH1 0xA0 SHL SUB AND DUP2 PUSH1 0x1 PUSH1 0x1 PUSH1 0xA0 SHL SUB AND SUB PUSH2 0xC3B JUMPI PUSH1 0x40 MLOAD PUSH4 0x6D6C4EE5 PUSH1 0xE1 SHL DUP2 MSTORE PUSH1 0x4 ADD PUSH1 0x40 MLOAD DUP1 SWAP2 SUB SWAP1 REVERT JUMPDEST PUSH2 0xC53 PUSH1 0x0 DUP1 MLOAD PUSH1 0x20 PUSH2 0x2E9F DUP4 CODECOPY DUP2 MLOAD SWAP2 MSTORE DUP4 PUSH2 0x149F JUMP JUMPDEST ISZERO DUP1 ISZERO PUSH2 0xC75 JUMPI POP PUSH2 0xC73 PUSH1 0x0 DUP1 MLOAD PUSH1 0x20 PUSH2 0x2EDF DUP4 CODECOPY DUP2 MLOAD SWAP2 MSTORE DUP3 PUSH2 0x149F JUMP JUMPDEST ISZERO JUMPDEST ISZERO PUSH2 0xC93 JUMPI PUSH1 0x40 MLOAD PUSH4 0xEC0DA69 PUSH1 0xE0 SHL DUP2 MSTORE PUSH1 0x4 ADD PUSH1 0x40 MLOAD DUP1 SWAP2 SUB SWAP1 REVERT JUMPDEST PUSH2 0xC9E DUP11 DUP11 DUP11 PUSH2 0x2175 JUMP JUMPDEST SWAP7 POP POP POP POP POP POP POP PUSH2 0xCBD PUSH1 0x1 PUSH1 0x0 DUP1 MLOAD PUSH1 0x20 PUSH2 0x2F3F DUP4 CODECOPY DUP2 MLOAD SWAP2 MSTORE SSTORE JUMP JUMPDEST SWAP4 SWAP3 POP POP POP JUMP JUMPDEST PUSH1 0x0 SWAP1 DUP2 MSTORE PUSH1 0x0 DUP1 MLOAD PUSH1 0x20 PUSH2 0x2F1F DUP4 CODECOPY DUP2 MLOAD SWAP2 MSTORE PUSH1 0x20 MSTORE PUSH1 0x40 SWAP1 KECCAK256 PUSH1 0x1 ADD SLOAD SWAP1 JUMP JUMPDEST PUSH2 0xCEF DUP3 PUSH2 0xCC4 JUMP JUMPDEST PUSH2 0xCF8 DUP2 PUSH2 0x2093 JUMP JUMPDEST PUSH2 0xD02 DUP4 DUP4 PUSH2 0x21B7 JUMP JUMPDEST POP POP POP POP JUMP JUMPDEST PUSH1 0x0 PUSH2 0xD13 DUP2 PUSH2 0x2093 JUMP JUMPDEST DUP2 PUSH1 0x1 PUSH1 0x1 PUSH1 0xA0 SHL SUB DUP2 AND PUSH2 0xD3B JUMPI PUSH1 0x40 MLOAD PUSH4 0x6E5EC59F PUSH1 0xE0 SHL DUP2 MSTORE PUSH1 0x4 ADD PUSH1 0x40 MLOAD DUP1 SWAP2 SUB SWAP1 REVERT JUMPDEST PUSH2 0xD53 PUSH1 0x0 DUP1 MLOAD PUSH1 0x20 PUSH2 0x2EFF DUP4 CODECOPY DUP2 MLOAD SWAP2 MSTORE DUP5 PUSH2 0x149F JUMP JUMPDEST PUSH2 0xD70 JUMPI PUSH1 0x40 MLOAD PUSH4 0x3E34A41B PUSH1 0xE2 SHL DUP2 MSTORE PUSH1 0x4 ADD PUSH1 0x40 MLOAD DUP1 SWAP2 SUB SWAP1 REVERT JUMPDEST PUSH2 0xD88 PUSH1 0x0 DUP1 MLOAD PUSH1 0x20 PUSH2 0x2EFF DUP4 CODECOPY DUP2 MLOAD SWAP2 MSTORE DUP5 PUSH2 0x20A7 JUMP JUMPDEST POP DUP3 PUSH1 0x1 PUSH1 0x1 PUSH1 0xA0 SHL SUB AND PUSH32 0x6DE4157337B92BECADB23AC8C53BDCABA13D56EAA4E2350EFF3E65C4D1D84C7C PUSH1 0x40 MLOAD PUSH2 0x7F6 SWAP1 PUSH1 0x20 DUP1 DUP3 MSTORE PUSH1 0xE SWAP1 DUP3 ADD MSTORE PUSH14 0x135A5B9D195C8814995B5BDD9959 PUSH1 0x92 SHL PUSH1 0x40 DUP3 ADD MSTORE PUSH1 0x60 ADD SWAP1 JUMP JUMPDEST PUSH1 0x0 PUSH2 0xDEE DUP2 PUSH2 0x2093 JUMP JUMPDEST DUP2 PUSH1 0x1 PUSH1 0x1 PUSH1 0xA0 SHL SUB DUP2 AND PUSH2 0xE16 JUMPI PUSH1 0x40 MLOAD PUSH4 0x6E5EC59F PUSH1 0xE0 SHL DUP2 MSTORE PUSH1 0x4 ADD PUSH1 0x40 MLOAD DUP1 SWAP2 SUB SWAP1 REVERT JUMPDEST PUSH2 0xE2E PUSH1 0x0 DUP1 MLOAD PUSH1 0x20 PUSH2 0x2F7F DUP4 CODECOPY DUP2 MLOAD SWAP2 MSTORE DUP5 PUSH2 0x149F JUMP JUMPDEST ISZERO PUSH2 0xE4C JUMPI PUSH1 0x40 MLOAD PUSH4 0x3886EEC9 PUSH1 0xE1 SHL DUP2 MSTORE PUSH1 0x4 ADD PUSH1 0x40 MLOAD DUP1 SWAP2 SUB SWAP1 REVERT JUMPDEST PUSH1 0x0 PUSH2 0xE65 PUSH1 0x0 DUP1 MLOAD PUSH1 0x20 PUSH2 0x2F7F DUP4 CODECOPY DUP2 MLOAD SWAP2 MSTORE PUSH2 0x1C66 JUMP JUMPDEST SWAP1 POP PUSH1 0x0 JUMPDEST DUP2 DUP2 LT ISZERO PUSH2 0xEC0 JUMPI PUSH1 0x0 PUSH2 0xE8C PUSH1 0x0 DUP1 MLOAD PUSH1 0x20 PUSH2 0x2F7F DUP4 CODECOPY DUP2 MLOAD SWAP2 MSTORE DUP4 PUSH2 0x1470 JUMP JUMPDEST SWAP1 POP PUSH1 0x1 PUSH1 0x1 PUSH1 0xA0 SHL SUB DUP2 AND ISZERO PUSH2 0xEB7 JUMPI PUSH2 0xEB5 PUSH1 0x0 DUP1 MLOAD PUSH1 0x20 PUSH2 0x2F7F DUP4 CODECOPY DUP2 MLOAD SWAP2 MSTORE DUP3 PUSH2 0x20A7 JUMP JUMPDEST POP JUMPDEST POP PUSH1 0x1 ADD PUSH2 0xE6A JUMP JUMPDEST POP PUSH2 0xED9 PUSH1 0x0 DUP1 MLOAD PUSH1 0x20 PUSH2 0x2F7F DUP4 CODECOPY DUP2 MLOAD SWAP2 MSTORE DUP6 PUSH2 0x21B7 JUMP JUMPDEST POP DUP4 PUSH1 0x1 PUSH1 0x1 PUSH1 0xA0 SHL SUB AND PUSH32 0x27CB0B1F15CF273268C02C4AC770F2121077509FD09F76000F26FEF2107C8E39 PUSH1 0x40 MLOAD PUSH2 0xF43 SWAP1 PUSH1 0x20 DUP1 DUP3 MSTORE PUSH1 0x1B SWAP1 DUP3 ADD MSTORE PUSH32 0x4275726E205661756C74205570646174656420284C6567616379290000000000 PUSH1 0x40 DUP3 ADD MSTORE PUSH1 0x60 ADD SWAP1 JUMP JUMPDEST PUSH1 0x40 MLOAD DUP1 SWAP2 SUB SWAP1 LOG2 POP POP POP POP JUMP JUMPDEST PUSH2 0xF59 PUSH2 0x2121 JUMP JUMPDEST PUSH1 0x1 PUSH1 0x1 PUSH1 0xA0 SHL SUB AND DUP2 PUSH1 0x1 PUSH1 0x1 PUSH1 0xA0 SHL SUB AND EQ PUSH2 0xF8A JUMPI PUSH1 0x40 MLOAD PUSH4 0x334BD919 PUSH1 0xE1 SHL DUP2 MSTORE PUSH1 0x4 ADD PUSH1 0x40 MLOAD DUP1 SWAP2 SUB SWAP1 REVERT JUMPDEST PUSH2 0xF94 DUP3 DUP3 PUSH2 0x20A7 JUMP JUMPDEST POP POP POP JUMP JUMPDEST PUSH2 0xFA1 PUSH2 0x213D JUMP JUMPDEST PUSH1 0x0 DUP1 MLOAD PUSH1 0x20 PUSH2 0x2EFF DUP4 CODECOPY DUP2 MLOAD SWAP2 MSTORE PUSH2 0xFB9 DUP2 PUSH2 0x2093 JUMP JUMPDEST DUP2 DUP1 PUSH1 0x0 SUB PUSH2 0xFDB JUMPI PUSH1 0x40 MLOAD PUSH4 0x162908E3 PUSH1 0xE1 SHL DUP2 MSTORE PUSH1 0x4 ADD PUSH1 0x40 MLOAD DUP1 SWAP2 SUB SWAP1 REVERT JUMPDEST DUP4 PUSH1 0x1 PUSH1 0x1 PUSH1 0xA0 SHL SUB DUP2 AND PUSH2 0x1003 JUMPI PUSH1 0x40 MLOAD PUSH4 0x6E5EC59F PUSH1 0xE0 SHL DUP2 MSTORE PUSH1 0x4 ADD PUSH1 0x40 MLOAD DUP1 SWAP2 SUB SWAP1 REVERT JUMPDEST PUSH2 0x100D DUP6 DUP6 PUSH2 0x21F3 JUMP JUMPDEST DUP5 PUSH1 0x1 PUSH1 0x1 PUSH1 0xA0 SHL SUB AND PUSH32 0xBFA21AA5D5F9A1F0120A95E7C0749F389863CBDBFFF531AA7339077A5BC919DE DUP6 PUSH1 0x40 MLOAD PUSH2 0x1048 SWAP2 DUP2 MSTORE PUSH1 0x20 ADD SWAP1 JUMP JUMPDEST PUSH1 0x40 MLOAD DUP1 SWAP2 SUB SWAP1 LOG2 POP POP POP PUSH2 0x106A PUSH1 0x1 PUSH1 0x0 DUP1 MLOAD PUSH1 0x20 PUSH2 0x2F3F DUP4 CODECOPY DUP2 MLOAD SWAP2 MSTORE SSTORE JUMP JUMPDEST POP POP JUMP JUMPDEST PUSH1 0x0 PUSH2 0x1079 DUP2 PUSH2 0x2093 JUMP JUMPDEST DUP2 PUSH1 0x1 PUSH1 0x1 PUSH1 0xA0 SHL SUB DUP2 AND PUSH2 0x10A1 JUMPI PUSH1 0x40 MLOAD PUSH4 0x6E5EC59F PUSH1 0xE0 SHL DUP2 MSTORE PUSH1 0x4 ADD PUSH1 0x40 MLOAD DUP1 SWAP2 SUB SWAP1 REVERT JUMPDEST PUSH2 0x10B9 PUSH1 0x0 DUP1 MLOAD PUSH1 0x20 PUSH2 0x2EFF DUP4 CODECOPY DUP2 MLOAD SWAP2 MSTORE DUP5 PUSH2 0x149F JUMP JUMPDEST ISZERO PUSH2 0x10D7 JUMPI PUSH1 0x40 MLOAD PUSH4 0x47C4E2A5 PUSH1 0xE0 SHL DUP2 MSTORE PUSH1 0x4 ADD PUSH1 0x40 MLOAD DUP1 SWAP2 SUB SWAP1 REVERT JUMPDEST PUSH1 0x0 PUSH2 0x10F0 PUSH1 0x0 DUP1 MLOAD PUSH1 0x20 PUSH2 0x2EFF DUP4 CODECOPY DUP2 MLOAD SWAP2 MSTORE PUSH2 0x1C66 JUMP JUMPDEST SWAP1 POP PUSH1 0x0 JUMPDEST DUP2 DUP2 LT ISZERO PUSH2 0x114B JUMPI PUSH1 0x0 PUSH2 0x1117 PUSH1 0x0 DUP1 MLOAD PUSH1 0x20 PUSH2 0x2EFF DUP4 CODECOPY DUP2 MLOAD SWAP2 MSTORE DUP4 PUSH2 0x1470 JUMP JUMPDEST SWAP1 POP PUSH1 0x1 PUSH1 0x1 PUSH1 0xA0 SHL SUB DUP2 AND ISZERO PUSH2 0x1142 JUMPI PUSH2 0x1140 PUSH1 0x0 DUP1 MLOAD PUSH1 0x20 PUSH2 0x2EFF DUP4 CODECOPY DUP2 MLOAD SWAP2 MSTORE DUP3 PUSH2 0x20A7 JUMP JUMPDEST POP JUMPDEST POP PUSH1 0x1 ADD PUSH2 0x10F5 JUMP JUMPDEST POP PUSH2 0x1164 PUSH1 0x0 DUP1 MLOAD PUSH1 0x20 PUSH2 0x2EFF DUP4 CODECOPY DUP2 MLOAD SWAP2 MSTORE DUP6 PUSH2 0x21B7 JUMP JUMPDEST POP DUP4 PUSH1 0x1 PUSH1 0x1 PUSH1 0xA0 SHL SUB AND PUSH32 0x6DE4157337B92BECADB23AC8C53BDCABA13D56EAA4E2350EFF3E65C4D1D84C7C PUSH1 0x40 MLOAD PUSH2 0xF43 SWAP1 PUSH1 0x20 DUP1 DUP3 MSTORE PUSH1 0x17 SWAP1 DUP3 ADD MSTORE PUSH32 0x4D696E746572205570646174656420284C656761637929000000000000000000 PUSH1 0x40 DUP3 ADD MSTORE PUSH1 0x60 ADD SWAP1 JUMP JUMPDEST PUSH1 0x0 PUSH2 0x11D9 DUP2 PUSH2 0x2093 JUMP JUMPDEST DUP2 PUSH1 0x1 PUSH1 0x1 PUSH1 0xA0 SHL SUB DUP2 AND PUSH2 0x1201 JUMPI PUSH1 0x40 MLOAD PUSH4 0x6E5EC59F PUSH1 0xE0 SHL DUP2 MSTORE PUSH1 0x4 ADD PUSH1 0x40 MLOAD DUP1 SWAP2 SUB SWAP1 REVERT JUMPDEST PUSH2 0x1219 PUSH1 0x0 DUP1 MLOAD PUSH1 0x20 PUSH2 0x2F7F DUP4 CODECOPY DUP2 MLOAD SWAP2 MSTORE DUP5 PUSH2 0x149F JUMP JUMPDEST ISZERO PUSH2 0x1237 JUMPI PUSH1 0x40 MLOAD PUSH4 0x3886EEC9 PUSH1 0xE1 SHL DUP2 MSTORE PUSH1 0x4 ADD PUSH1 0x40 MLOAD DUP1 SWAP2 SUB SWAP1 REVERT JUMPDEST PUSH2 0x124F PUSH1 0x0 DUP1 MLOAD PUSH1 0x20 PUSH2 0x2F7F DUP4 CODECOPY DUP2 MLOAD SWAP2 MSTORE DUP5 PUSH2 0x21B7 JUMP JUMPDEST POP DUP3 PUSH1 0x1 PUSH1 0x1 PUSH1 0xA0 SHL SUB AND PUSH32 0x27CB0B1F15CF273268C02C4AC770F2121077509FD09F76000F26FEF2107C8E39 PUSH1 0x40 MLOAD PUSH2 0x7F6 SWAP1 PUSH1 0x20 DUP1 DUP3 MSTORE PUSH1 0x14 SWAP1 DUP3 ADD MSTORE PUSH20 0x13995DC8109D5C9B8815985D5B1D081059191959 PUSH1 0x62 SHL PUSH1 0x40 DUP3 ADD MSTORE PUSH1 0x60 ADD SWAP1 JUMP JUMPDEST PUSH1 0x0 PUSH2 0x12BB DUP2 PUSH2 0x2093 JUMP JUMPDEST DUP2 PUSH1 0x1 PUSH1 0x1 PUSH1 0xA0 SHL SUB DUP2 AND PUSH2 0x12E3 JUMPI PUSH1 0x40 MLOAD PUSH4 0x6E5EC59F PUSH1 0xE0 SHL DUP2 MSTORE PUSH1 0x4 ADD PUSH1 0x40 MLOAD DUP1 SWAP2 SUB SWAP1 REVERT JUMPDEST PUSH1 0x1 PUSH1 0x1 PUSH1 0xA0 SHL SUB DUP4 AND PUSH1 0x0 DUP2 DUP2 MSTORE PUSH1 0x1 PUSH1 0x20 MSTORE PUSH1 0x40 DUP1 DUP3 KECCAK256 DUP1 SLOAD PUSH1 0xFF NOT AND SWAP1 SSTORE MLOAD PUSH32 0xF915CD9FE234DE6E8D3AFE7BF2388D35B2B6D48E8C629A24602019BDE79C213A SWAP2 SWAP1 LOG2 POP POP POP JUMP JUMPDEST PUSH2 0x1336 PUSH2 0x2121 JUMP JUMPDEST PUSH1 0x1 PUSH1 0x1 PUSH1 0xA0 SHL SUB DUP2 AND PUSH2 0x135D JUMPI PUSH1 0x40 MLOAD PUSH4 0x6E5EC59F PUSH1 0xE0 SHL DUP2 MSTORE PUSH1 0x4 ADD PUSH1 0x40 MLOAD DUP1 SWAP2 SUB SWAP1 REVERT JUMPDEST PUSH2 0x1365 PUSH2 0x2121 JUMP JUMPDEST PUSH1 0x0 SLOAD PUSH1 0x1 PUSH1 0x1 PUSH1 0xA0 SHL SUB SWAP1 DUP2 AND SWAP2 AND EQ PUSH2 0x1393 JUMPI PUSH1 0x40 MLOAD PUSH4 0x9CEAE3DB PUSH1 0xE0 SHL DUP2 MSTORE PUSH1 0x4 ADD PUSH1 0x40 MLOAD DUP1 SWAP2 SUB SWAP1 REVERT JUMPDEST PUSH1 0x0 PUSH2 0x139E DUP2 PUSH2 0x1C66 JUMP JUMPDEST SWAP1 POP PUSH1 0x0 JUMPDEST DUP2 DUP2 LT ISZERO PUSH2 0x13DE JUMPI PUSH1 0x0 PUSH2 0x13B7 DUP2 DUP4 PUSH2 0x1470 JUMP JUMPDEST SWAP1 POP PUSH1 0x1 PUSH1 0x1 PUSH1 0xA0 SHL SUB DUP2 AND ISZERO PUSH2 0x13D5 JUMPI PUSH2 0x13D3 PUSH1 0x0 DUP3 PUSH2 0x20A7 JUMP JUMPDEST POP JUMPDEST POP PUSH1 0x1 ADD PUSH2 0x13A3 JUMP JUMPDEST POP PUSH2 0x13F1 PUSH1 0x0 PUSH2 0x13EC PUSH2 0x2121 JUMP JUMPDEST PUSH2 0x21B7 JUMP JUMPDEST POP PUSH1 0x0 DUP1 SLOAD PUSH1 0x1 PUSH1 0x1 PUSH1 0xA0 SHL SUB NOT AND SWAP1 SSTORE PUSH2 0x140A PUSH2 0x2121 JUMP JUMPDEST PUSH1 0x1 PUSH1 0x1 PUSH1 0xA0 SHL SUB AND PUSH32 0x33357BB61B6CE4D9E2A54FD3D9EC5807E7DF4BBD6BA3FA1B0860C0A1A39E700A PUSH1 0x40 MLOAD PUSH2 0x1464 SWAP1 PUSH1 0x20 DUP1 DUP3 MSTORE PUSH1 0xF SWAP1 DUP3 ADD MSTORE PUSH15 0x13995DC810591B5A5B881059191959 PUSH1 0x8A SHL PUSH1 0x40 DUP3 ADD MSTORE PUSH1 0x60 ADD SWAP1 JUMP JUMPDEST PUSH1 0x40 MLOAD DUP1 SWAP2 SUB SWAP1 LOG2 POP POP JUMP JUMPDEST PUSH1 0x0 DUP3 DUP2 MSTORE PUSH1 0x0 DUP1 MLOAD PUSH1 0x20 PUSH2 0x2E7F DUP4 CODECOPY DUP2 MLOAD SWAP2 MSTORE PUSH1 0x20 DUP2 SWAP1 MSTORE PUSH1 0x40 DUP3 KECCAK256 PUSH2 0x1497 SWAP1 DUP5 PUSH2 0x222E JUMP JUMPDEST SWAP5 SWAP4 POP POP POP POP JUMP JUMPDEST PUSH1 0x0 SWAP2 DUP3 MSTORE PUSH1 0x0 DUP1 MLOAD PUSH1 0x20 PUSH2 0x2F1F DUP4 CODECOPY DUP2 MLOAD SWAP2 MSTORE PUSH1 0x20 SWAP1 DUP2 MSTORE PUSH1 0x40 DUP1 DUP5 KECCAK256 PUSH1 0x1 PUSH1 0x1 PUSH1 0xA0 SHL SUB SWAP4 SWAP1 SWAP4 AND DUP5 MSTORE SWAP2 SWAP1 MSTORE SWAP1 KECCAK256 SLOAD PUSH1 0xFF AND SWAP1 JUMP JUMPDEST PUSH32 0x52C63247E1F47DB19D5CE0460030C497F067CA4CEBF71BA98EEADABE20BACE04 DUP1 SLOAD PUSH1 0x60 SWAP2 PUSH1 0x0 DUP1 MLOAD PUSH1 0x20 PUSH2 0x2EBF DUP4 CODECOPY DUP2 MLOAD SWAP2 MSTORE SWAP2 PUSH2 0x86D SWAP1 PUSH2 0x2C5F JUMP JUMPDEST PUSH1 0x0 PUSH2 0x1521 DUP2 PUSH2 0x2093 JUMP JUMPDEST DUP2 PUSH1 0x1 PUSH1 0x1 PUSH1 0xA0 SHL SUB DUP2 AND PUSH2 0x1549 JUMPI PUSH1 0x40 MLOAD PUSH4 0x6E5EC59F PUSH1 0xE0 SHL DUP2 MSTORE PUSH1 0x4 ADD PUSH1 0x40 MLOAD DUP1 SWAP2 SUB SWAP1 REVERT JUMPDEST PUSH2 0x1561 PUSH1 0x0 DUP1 MLOAD PUSH1 0x20 PUSH2 0x2EFF DUP4 CODECOPY DUP2 MLOAD SWAP2 MSTORE DUP5 PUSH2 0x149F JUMP JUMPDEST ISZERO PUSH2 0x157F JUMPI PUSH1 0x40 MLOAD PUSH4 0x47C4E2A5 PUSH1 0xE0 SHL DUP2 MSTORE PUSH1 0x4 ADD PUSH1 0x40 MLOAD DUP1 SWAP2 SUB SWAP1 REVERT JUMPDEST PUSH2 0x1597 PUSH1 0x0 DUP1 MLOAD PUSH1 0x20 PUSH2 0x2EFF DUP4 CODECOPY DUP2 MLOAD SWAP2 MSTORE DUP5 PUSH2 0x21B7 JUMP JUMPDEST POP DUP3 PUSH1 0x1 PUSH1 0x1 PUSH1 0xA0 SHL SUB AND PUSH32 0x6DE4157337B92BECADB23AC8C53BDCABA13D56EAA4E2350EFF3E65C4D1D84C7C PUSH1 0x40 MLOAD PUSH2 0x7F6 SWAP1 PUSH1 0x20 DUP1 DUP3 MSTORE PUSH1 0x10 SWAP1 DUP3 ADD MSTORE PUSH16 0x13995DC8135A5B9D195C881059191959 PUSH1 0x82 SHL PUSH1 0x40 DUP3 ADD MSTORE PUSH1 0x60 ADD SWAP1 JUMP JUMPDEST PUSH2 0x15FC PUSH2 0x213D JUMP JUMPDEST PUSH1 0x0 DUP1 MLOAD PUSH1 0x20 PUSH2 0x2F7F DUP4 CODECOPY DUP2 MLOAD SWAP2 MSTORE PUSH2 0x1614 DUP2 PUSH2 0x2093 JUMP JUMPDEST DUP2 DUP1 PUSH1 0x0 SUB PUSH2 0x1636 JUMPI PUSH1 0x40 MLOAD PUSH4 0x162908E3 PUSH1 0xE1 SHL DUP2 MSTORE PUSH1 0x4 ADD PUSH1 0x40 MLOAD DUP1 SWAP2 SUB SWAP1 REVERT JUMPDEST DUP4 PUSH1 0x1 PUSH1 0x1 PUSH1 0xA0 SHL SUB DUP2 AND PUSH2 0x165E JUMPI PUSH1 0x40 MLOAD PUSH4 0x6E5EC59F PUSH1 0xE0 SHL DUP2 MSTORE PUSH1 0x4 ADD PUSH1 0x40 MLOAD DUP1 SWAP2 SUB SWAP1 REVERT JUMPDEST PUSH2 0x1668 DUP6 DUP6 PUSH2 0x223A JUMP JUMPDEST POP POP POP PUSH2 0x106A PUSH1 0x1 PUSH1 0x0 DUP1 MLOAD PUSH1 0x20 PUSH2 0x2F3F DUP4 CODECOPY DUP2 MLOAD SWAP2 MSTORE SSTORE JUMP JUMPDEST PUSH1 0x0 DUP2 DUP2 MSTORE PUSH1 0x0 DUP1 MLOAD PUSH1 0x20 PUSH2 0x2E7F DUP4 CODECOPY DUP2 MLOAD SWAP2 MSTORE PUSH1 0x20 DUP2 SWAP1 MSTORE PUSH1 0x40 SWAP1 SWAP2 KECCAK256 PUSH1 0x60 SWAP2 SWAP1 PUSH2 0xCBD SWAP1 PUSH2 0x2270 JUMP JUMPDEST PUSH1 0x0 PUSH2 0x16B7 PUSH2 0x213D JUMP JUMPDEST DUP2 DUP1 PUSH1 0x0 SUB PUSH2 0x16D9 JUMPI PUSH1 0x40 MLOAD PUSH4 0x162908E3 PUSH1 0xE1 SHL DUP2 MSTORE PUSH1 0x4 ADD PUSH1 0x40 MLOAD DUP1 SWAP2 SUB SWAP1 REVERT JUMPDEST DUP4 PUSH1 0x1 PUSH1 0x1 PUSH1 0xA0 SHL SUB DUP2 AND PUSH2 0x1701 JUMPI PUSH1 0x40 MLOAD PUSH4 0x6E5EC59F PUSH1 0xE0 SHL DUP2 MSTORE PUSH1 0x4 ADD PUSH1 0x40 MLOAD DUP1 SWAP2 SUB SWAP1 REVERT JUMPDEST PUSH2 0x1709 PUSH2 0x2121 JUMP JUMPDEST PUSH1 0x1 PUSH1 0x1 PUSH1 0xA0 SHL SUB DUP2 AND PUSH1 0x0 SWAP1 DUP2 MSTORE PUSH1 0x1 PUSH1 0x20 MSTORE PUSH1 0x40 SWAP1 KECCAK256 SLOAD PUSH1 0xFF AND ISZERO PUSH2 0x1743 JUMPI PUSH1 0x40 MLOAD PUSH4 0x286DE6D3 PUSH1 0xE1 SHL DUP2 MSTORE PUSH1 0x4 ADD PUSH1 0x40 MLOAD DUP1 SWAP2 SUB SWAP1 REVERT JUMPDEST PUSH1 0x1 PUSH1 0x1 PUSH1 0xA0 SHL SUB DUP7 AND PUSH1 0x0 SWAP1 DUP2 MSTORE PUSH1 0x1 PUSH1 0x20 MSTORE PUSH1 0x40 SWAP1 KECCAK256 SLOAD DUP7 SWAP1 PUSH1 0xFF AND ISZERO PUSH2 0x177F JUMPI PUSH1 0x40 MLOAD PUSH4 0x286DE6D3 PUSH1 0xE1 SHL DUP2 MSTORE PUSH1 0x4 ADD PUSH1 0x40 MLOAD DUP1 SWAP2 SUB SWAP1 REVERT JUMPDEST PUSH2 0x1787 PUSH2 0x2121 JUMP JUMPDEST DUP8 DUP2 PUSH1 0x1 PUSH1 0x1 PUSH1 0xA0 SHL SUB AND DUP2 PUSH1 0x1 PUSH1 0x1 PUSH1 0xA0 SHL SUB AND SUB PUSH2 0x17BA JUMPI PUSH1 0x40 MLOAD PUSH4 0x6D6C4EE5 PUSH1 0xE1 SHL DUP2 MSTORE PUSH1 0x4 ADD PUSH1 0x40 MLOAD DUP1 SWAP2 SUB SWAP1 REVERT JUMPDEST PUSH2 0x17D2 PUSH1 0x0 DUP1 MLOAD PUSH1 0x20 PUSH2 0x2E9F DUP4 CODECOPY DUP2 MLOAD SWAP2 MSTORE DUP4 PUSH2 0x149F JUMP JUMPDEST ISZERO DUP1 ISZERO PUSH2 0x17F4 JUMPI POP PUSH2 0x17F2 PUSH1 0x0 DUP1 MLOAD PUSH1 0x20 PUSH2 0x2EDF DUP4 CODECOPY DUP2 MLOAD SWAP2 MSTORE DUP3 PUSH2 0x149F JUMP JUMPDEST ISZERO JUMPDEST ISZERO PUSH2 0x1812 JUMPI PUSH1 0x40 MLOAD PUSH4 0xEC0DA69 PUSH1 0xE0 SHL DUP2 MSTORE PUSH1 0x4 ADD PUSH1 0x40 MLOAD DUP1 SWAP2 SUB SWAP1 REVERT JUMPDEST PUSH2 0x181C DUP10 DUP10 PUSH2 0x227D JUMP JUMPDEST SWAP7 POP POP POP POP POP POP POP PUSH2 0x828 PUSH1 0x1 PUSH1 0x0 DUP1 MLOAD PUSH1 0x20 PUSH2 0x2F3F DUP4 CODECOPY DUP2 MLOAD SWAP2 MSTORE SSTORE JUMP JUMPDEST PUSH1 0x0 PUSH2 0x1846 DUP2 PUSH2 0x2093 JUMP JUMPDEST DUP2 PUSH1 0x1 PUSH1 0x1 PUSH1 0xA0 SHL SUB DUP2 AND PUSH2 0x186E JUMPI PUSH1 0x40 MLOAD PUSH4 0x6E5EC59F PUSH1 0xE0 SHL DUP2 MSTORE PUSH1 0x4 ADD PUSH1 0x40 MLOAD DUP1 SWAP2 SUB SWAP1 REVERT JUMPDEST PUSH2 0x1886 PUSH1 0x0 DUP1 MLOAD PUSH1 0x20 PUSH2 0x2F5F DUP4 CODECOPY DUP2 MLOAD SWAP2 MSTORE DUP5 PUSH2 0x149F JUMP JUMPDEST ISZERO PUSH2 0x18A4 JUMPI PUSH1 0x40 MLOAD PUSH4 0x725C23F PUSH1 0xE2 SHL DUP2 MSTORE PUSH1 0x4 ADD PUSH1 0x40 MLOAD DUP1 SWAP2 SUB SWAP1 REVERT JUMPDEST PUSH2 0x18BC PUSH1 0x0 DUP1 MLOAD PUSH1 0x20 PUSH2 0x2F5F DUP4 CODECOPY DUP2 MLOAD SWAP2 MSTORE DUP5 PUSH2 0x21B7 JUMP JUMPDEST POP PUSH2 0x18D5 PUSH1 0x0 DUP1 MLOAD PUSH1 0x20 PUSH2 0x2E9F DUP4 CODECOPY DUP2 MLOAD SWAP2 MSTORE DUP5 PUSH2 0x149F JUMP JUMPDEST PUSH2 0x1964 JUMPI PUSH2 0x18F1 PUSH1 0x0 DUP1 MLOAD PUSH1 0x20 PUSH2 0x2E9F DUP4 CODECOPY DUP2 MLOAD SWAP2 MSTORE DUP5 PUSH2 0x21B7 JUMP JUMPDEST POP DUP3 PUSH1 0x1 PUSH1 0x1 PUSH1 0xA0 SHL SUB AND PUSH32 0xA148F9AF0F634918FBAF23B2BE442EE99C628242FB2805BF87C08E4BE7A1AFAC PUSH1 0x40 MLOAD PUSH2 0x195B SWAP1 PUSH1 0x20 DUP1 DUP3 MSTORE PUSH1 0x1E SWAP1 DUP3 ADD MSTORE PUSH32 0x4E65772053656E64657220416464726573732057686974656C69737465640000 PUSH1 0x40 DUP3 ADD MSTORE PUSH1 0x60 ADD SWAP1 JUMP JUMPDEST PUSH1 0x40 MLOAD DUP1 SWAP2 SUB SWAP1 LOG2 JUMPDEST DUP3 PUSH1 0x1 PUSH1 0x1 PUSH1 0xA0 SHL SUB AND PUSH32 0xD93A23CFA249287D5DD4D056066C79B1A45BC8608890EA92B4DAFA6E874B3FD0 PUSH1 0x40 MLOAD PUSH2 0x7F6 SWAP1 PUSH1 0x20 DUP1 DUP3 MSTORE PUSH1 0x1A SWAP1 DUP3 ADD MSTORE PUSH32 0x4E65772054726561737572792041646472657373204164646564000000000000 PUSH1 0x40 DUP3 ADD MSTORE PUSH1 0x60 ADD SWAP1 JUMP JUMPDEST PUSH1 0x0 PUSH2 0x19D7 PUSH2 0x2295 JUMP JUMPDEST DUP1 SLOAD SWAP1 SWAP2 POP PUSH1 0xFF PUSH1 0x1 PUSH1 0x40 SHL DUP3 DIV AND ISZERO SWAP1 PUSH8 0xFFFFFFFFFFFFFFFF AND PUSH1 0x0 DUP2 ISZERO DUP1 ISZERO PUSH2 0x19FF JUMPI POP DUP3 JUMPDEST SWAP1 POP PUSH1 0x0 DUP3 PUSH8 0xFFFFFFFFFFFFFFFF AND PUSH1 0x1 EQ DUP1 ISZERO PUSH2 0x1A1C JUMPI POP ADDRESS EXTCODESIZE ISZERO JUMPDEST SWAP1 POP DUP2 ISZERO DUP1 ISZERO PUSH2 0x1A2A JUMPI POP DUP1 ISZERO JUMPDEST ISZERO PUSH2 0x1A48 JUMPI PUSH1 0x40 MLOAD PUSH4 0xF92EE8A9 PUSH1 0xE0 SHL DUP2 MSTORE PUSH1 0x4 ADD PUSH1 0x40 MLOAD DUP1 SWAP2 SUB SWAP1 REVERT JUMPDEST DUP5 SLOAD PUSH8 0xFFFFFFFFFFFFFFFF NOT AND PUSH1 0x1 OR DUP6 SSTORE DUP4 ISZERO PUSH2 0x1A72 JUMPI DUP5 SLOAD PUSH1 0xFF PUSH1 0x40 SHL NOT AND PUSH1 0x1 PUSH1 0x40 SHL OR DUP6 SSTORE JUMPDEST PUSH2 0x1AB6 PUSH1 0x40 MLOAD DUP1 PUSH1 0x40 ADD PUSH1 0x40 MSTORE DUP1 PUSH1 0x5 DUP2 MSTORE PUSH1 0x20 ADD PUSH5 0x3925A3A2A7 PUSH1 0xD9 SHL DUP2 MSTORE POP PUSH1 0x40 MLOAD DUP1 PUSH1 0x40 ADD PUSH1 0x40 MSTORE DUP1 PUSH1 0x5 DUP2 MSTORE PUSH1 0x20 ADD PUSH5 0x3925A3A2A7 PUSH1 0xD9 SHL DUP2 MSTORE POP PUSH2 0x22BE JUMP JUMPDEST PUSH2 0x1ABE PUSH2 0x22D0 JUMP JUMPDEST PUSH2 0x1AC6 PUSH2 0x22DA JUMP JUMPDEST PUSH2 0x1AD1 PUSH1 0x0 DUP8 PUSH2 0x21B7 JUMP JUMPDEST POP PUSH2 0x1AEA PUSH1 0x0 DUP1 MLOAD PUSH1 0x20 PUSH2 0x2EFF DUP4 CODECOPY DUP2 MLOAD SWAP2 MSTORE DUP8 PUSH2 0x21B7 JUMP JUMPDEST POP PUSH2 0x1B03 PUSH1 0x0 DUP1 MLOAD PUSH1 0x20 PUSH2 0x2F7F DUP4 CODECOPY DUP2 MLOAD SWAP2 MSTORE DUP8 PUSH2 0x21B7 JUMP JUMPDEST POP PUSH2 0x1B2E PUSH32 0x189AB7A9244DF0848122154315AF71FE140F3DB0FE014031783B0946B8C9D2E3 DUP8 PUSH2 0x21B7 JUMP JUMPDEST POP DUP4 ISZERO PUSH2 0x1B75 JUMPI DUP5 SLOAD PUSH1 0xFF PUSH1 0x40 SHL NOT AND DUP6 SSTORE PUSH1 0x40 MLOAD PUSH1 0x1 DUP2 MSTORE PUSH32 0xC7F505B2F371AE2175EE4913F4499E1F2633A7B5936321EED1CDAEB6115181D2 SWAP1 PUSH1 0x20 ADD PUSH1 0x40 MLOAD DUP1 SWAP2 SUB SWAP1 LOG1 JUMPDEST POP POP POP POP POP POP JUMP JUMPDEST PUSH1 0x0 PUSH2 0x1B88 DUP2 PUSH2 0x2093 JUMP JUMPDEST DUP2 PUSH1 0x1 PUSH1 0x1 PUSH1 0xA0 SHL SUB DUP2 AND PUSH2 0x1BB0 JUMPI PUSH1 0x40 MLOAD PUSH4 0x6E5EC59F PUSH1 0xE0 SHL DUP2 MSTORE PUSH1 0x4 ADD PUSH1 0x40 MLOAD DUP1 SWAP2 SUB SWAP1 REVERT JUMPDEST PUSH2 0x1BC8 PUSH1 0x0 DUP1 MLOAD PUSH1 0x20 PUSH2 0x2EDF DUP4 CODECOPY DUP2 MLOAD SWAP2 MSTORE DUP5 PUSH2 0x149F JUMP JUMPDEST ISZERO PUSH2 0x1BE6 JUMPI PUSH1 0x40 MLOAD PUSH4 0x39792789 PUSH1 0xE0 SHL DUP2 MSTORE PUSH1 0x4 ADD PUSH1 0x40 MLOAD DUP1 SWAP2 SUB SWAP1 REVERT JUMPDEST PUSH2 0x1BFE PUSH1 0x0 DUP1 MLOAD PUSH1 0x20 PUSH2 0x2EDF DUP4 CODECOPY DUP2 MLOAD SWAP2 MSTORE DUP5 PUSH2 0x21B7 JUMP JUMPDEST POP DUP3 PUSH1 0x1 PUSH1 0x1 PUSH1 0xA0 SHL SUB AND PUSH32 0xFE6D2D6F86F1B4F5F6D5833A27D9EB52BBA0F8AAD51EB089023C6A4DCFD21A8F PUSH1 0x40 MLOAD PUSH2 0x7F6 SWAP1 PUSH1 0x20 DUP1 DUP3 MSTORE DUP2 DUP2 ADD MSTORE PUSH32 0x4E657720526563656976657220416464726573732057686974656C6973746564 PUSH1 0x40 DUP3 ADD MSTORE PUSH1 0x60 ADD SWAP1 JUMP JUMPDEST PUSH1 0x0 DUP2 DUP2 MSTORE PUSH1 0x0 DUP1 MLOAD PUSH1 0x20 PUSH2 0x2E7F DUP4 CODECOPY DUP2 MLOAD SWAP2 MSTORE PUSH1 0x20 DUP2 SWAP1 MSTORE PUSH1 0x40 DUP3 KECCAK256 PUSH2 0xCBD SWAP1 PUSH2 0x22EA JUMP JUMPDEST PUSH1 0x0 PUSH2 0x1C97 DUP2 PUSH2 0x2093 JUMP JUMPDEST DUP2 PUSH1 0x1 PUSH1 0x1 PUSH1 0xA0 SHL SUB DUP2 AND PUSH2 0x1CBF JUMPI PUSH1 0x40 MLOAD PUSH4 0x6E5EC59F PUSH1 0xE0 SHL DUP2 MSTORE PUSH1 0x4 ADD PUSH1 0x40 MLOAD DUP1 SWAP2 SUB SWAP1 REVERT JUMPDEST PUSH2 0x1CC7 PUSH2 0x2121 JUMP JUMPDEST PUSH1 0x1 PUSH1 0x1 PUSH1 0xA0 SHL SUB AND DUP4 PUSH1 0x1 PUSH1 0x1 PUSH1 0xA0 SHL SUB AND SUB PUSH2 0x1CF8 JUMPI PUSH1 0x40 MLOAD PUSH4 0xF83F253 PUSH1 0xE4 SHL DUP2 MSTORE PUSH1 0x4 ADD PUSH1 0x40 MLOAD DUP1 SWAP2 SUB SWAP1 REVERT JUMPDEST PUSH1 0x0 DUP1 SLOAD PUSH1 0x1 PUSH1 0x1 PUSH1 0xA0 SHL SUB DUP6 AND PUSH1 0x1 PUSH1 0x1 PUSH1 0xA0 SHL SUB NOT SWAP1 SWAP2 AND DUP2 OR SWAP1 SWAP2 SSTORE PUSH1 0x40 MLOAD PUSH32 0xA9C1D417FDB88C493DBAB369BD79C043AA4C6C9522A681D9334BA091EDE58CD9 SWAP1 PUSH2 0x7F6 SWAP1 PUSH1 0x20 DUP1 DUP3 MSTORE PUSH1 0x3A SWAP1 DUP3 ADD MSTORE PUSH32 0x4E65772041646D696E204E6F6D696E617465642C204E6F77206E65772061646D PUSH1 0x40 DUP3 ADD MSTORE PUSH32 0x696E206E65656420746F206163636570742074686520726F6C65000000000000 PUSH1 0x60 DUP3 ADD MSTORE PUSH1 0x80 ADD SWAP1 JUMP JUMPDEST PUSH1 0x0 PUSH2 0x1DA8 DUP2 PUSH2 0x2093 JUMP JUMPDEST DUP2 PUSH1 0x1 PUSH1 0x1 PUSH1 0xA0 SHL SUB DUP2 AND PUSH2 0x1DD0 JUMPI PUSH1 0x40 MLOAD PUSH4 0x6E5EC59F PUSH1 0xE0 SHL DUP2 MSTORE PUSH1 0x4 ADD PUSH1 0x40 MLOAD DUP1 SWAP2 SUB SWAP1 REVERT JUMPDEST PUSH2 0x1DE8 PUSH1 0x0 DUP1 MLOAD PUSH1 0x20 PUSH2 0x2E9F DUP4 CODECOPY DUP2 MLOAD SWAP2 MSTORE DUP5 PUSH2 0x149F JUMP JUMPDEST ISZERO PUSH2 0x1E06 JUMPI PUSH1 0x40 MLOAD PUSH4 0xBA643EC5 PUSH1 0xE0 SHL DUP2 MSTORE PUSH1 0x4 ADD PUSH1 0x40 MLOAD DUP1 SWAP2 SUB SWAP1 REVERT JUMPDEST PUSH2 0x1E1E PUSH1 0x0 DUP1 MLOAD PUSH1 0x20 PUSH2 0x2E9F DUP4 CODECOPY DUP2 MLOAD SWAP2 MSTORE DUP5 PUSH2 0x21B7 JUMP JUMPDEST POP DUP3 PUSH1 0x1 PUSH1 0x1 PUSH1 0xA0 SHL SUB AND PUSH32 0xA148F9AF0F634918FBAF23B2BE442EE99C628242FB2805BF87C08E4BE7A1AFAC PUSH1 0x40 MLOAD PUSH2 0x7F6 SWAP1 PUSH1 0x20 DUP1 DUP3 MSTORE PUSH1 0x1E SWAP1 DUP3 ADD MSTORE PUSH32 0x4E65772053656E64657220416464726573732057686974656C69737465640000 PUSH1 0x40 DUP3 ADD MSTORE PUSH1 0x60 ADD SWAP1 JUMP JUMPDEST PUSH1 0x0 PUSH2 0x1E93 DUP2 PUSH2 0x2093 JUMP JUMPDEST DUP2 PUSH1 0x1 PUSH1 0x1 PUSH1 0xA0 SHL SUB DUP2 AND PUSH2 0x1EBB JUMPI PUSH1 0x40 MLOAD PUSH4 0x6E5EC59F PUSH1 0xE0 SHL DUP2 MSTORE PUSH1 0x4 ADD PUSH1 0x40 MLOAD DUP1 SWAP2 SUB SWAP1 REVERT JUMPDEST PUSH2 0x1ED3 PUSH1 0x0 DUP1 MLOAD PUSH1 0x20 PUSH2 0x2F5F DUP4 CODECOPY DUP2 MLOAD SWAP2 MSTORE DUP5 PUSH2 0x149F JUMP JUMPDEST PUSH2 0x1EF0 JUMPI PUSH1 0x40 MLOAD PUSH4 0xB90CDBB1 PUSH1 0xE0 SHL DUP2 MSTORE PUSH1 0x4 ADD PUSH1 0x40 MLOAD DUP1 SWAP2 SUB SWAP1 REVERT JUMPDEST PUSH2 0x1F08 PUSH1 0x0 DUP1 MLOAD PUSH1 0x20 PUSH2 0x2F5F DUP4 CODECOPY DUP2 MLOAD SWAP2 MSTORE DUP5 PUSH2 0x20A7 JUMP JUMPDEST POP DUP3 PUSH1 0x1 PUSH1 0x1 PUSH1 0xA0 SHL SUB AND PUSH32 0x238BE719BECF7DE7673229DA18D51189916A74316CCD29739E8BF3FA30288D87 PUSH1 0x40 MLOAD PUSH2 0x7F6 SWAP1 PUSH1 0x20 DUP1 DUP3 MSTORE PUSH1 0x18 SWAP1 DUP3 ADD MSTORE PUSH32 0x547265617375727920416464726573732052656D6F7665640000000000000000 PUSH1 0x40 DUP3 ADD MSTORE PUSH1 0x60 ADD SWAP1 JUMP JUMPDEST PUSH2 0x1F7B DUP3 PUSH2 0xCC4 JUMP JUMPDEST PUSH2 0x1F84 DUP2 PUSH2 0x2093 JUMP JUMPDEST PUSH2 0xD02 DUP4 DUP4 PUSH2 0x20A7 JUMP JUMPDEST PUSH1 0x1 PUSH1 0x1 PUSH1 0xA0 SHL SUB SWAP2 DUP3 AND PUSH1 0x0 SWAP1 DUP2 MSTORE PUSH32 0x52C63247E1F47DB19D5CE0460030C497F067CA4CEBF71BA98EEADABE20BACE01 PUSH1 0x20 SWAP1 DUP2 MSTORE PUSH1 0x40 DUP1 DUP4 KECCAK256 SWAP4 SWAP1 SWAP5 AND DUP3 MSTORE SWAP2 SWAP1 SWAP2 MSTORE KECCAK256 SLOAD SWAP1 JUMP JUMPDEST PUSH1 0x0 PUSH2 0x1FE3 DUP2 PUSH2 0x2093 JUMP JUMPDEST POP PUSH1 0x1 PUSH1 0x1 PUSH1 0xA0 SHL SUB SWAP2 SWAP1 SWAP2 AND PUSH1 0x0 SWAP1 DUP2 MSTORE PUSH1 0x2 PUSH1 0x20 MSTORE PUSH1 0x40 SWAP1 KECCAK256 DUP1 SLOAD PUSH1 0xFF NOT AND SWAP2 ISZERO ISZERO SWAP2 SWAP1 SWAP2 OR SWAP1 SSTORE JUMP JUMPDEST PUSH1 0x0 PUSH2 0x201A DUP2 PUSH2 0x2093 JUMP JUMPDEST DUP2 PUSH1 0x1 PUSH1 0x1 PUSH1 0xA0 SHL SUB DUP2 AND PUSH2 0x2042 JUMPI PUSH1 0x40 MLOAD PUSH4 0x6E5EC59F PUSH1 0xE0 SHL DUP2 MSTORE PUSH1 0x4 ADD PUSH1 0x40 MLOAD DUP1 SWAP2 SUB SWAP1 REVERT JUMPDEST PUSH1 0x1 PUSH1 0x1 PUSH1 0xA0 SHL SUB DUP4 AND PUSH1 0x0 DUP2 DUP2 MSTORE PUSH1 0x1 PUSH1 0x20 DUP2 SWAP1 MSTORE PUSH1 0x40 DUP1 DUP4 KECCAK256 DUP1 SLOAD PUSH1 0xFF NOT AND SWAP1 SWAP3 OR SWAP1 SWAP2 SSTORE MLOAD PUSH32 0x4F2A367E694E71282F29AB5EAA04C4C0BE45AC5BF2CA74FB67068B98BDC2887D SWAP2 SWAP1 LOG2 POP POP POP JUMP JUMPDEST PUSH2 0x20A4 DUP2 PUSH2 0x209F PUSH2 0x2121 JUMP JUMPDEST PUSH2 0x22F4 JUMP JUMPDEST POP JUMP JUMPDEST PUSH1 0x0 PUSH1 0x0 DUP1 MLOAD PUSH1 0x20 PUSH2 0x2E7F DUP4 CODECOPY DUP2 MLOAD SWAP2 MSTORE DUP2 PUSH2 0x20C3 DUP6 DUP6 PUSH2 0x232D JUMP JUMPDEST SWAP1 POP DUP1 ISZERO PUSH2 0x1497 JUMPI PUSH1 0x0 DUP6 DUP2 MSTORE PUSH1 0x20 DUP4 SWAP1 MSTORE PUSH1 0x40 SWAP1 KECCAK256 PUSH2 0x20E3 SWAP1 DUP6 PUSH2 0x23D1 JUMP JUMPDEST POP SWAP5 SWAP4 POP POP POP POP JUMP JUMPDEST PUSH1 0x0 PUSH1 0x1 PUSH1 0x1 PUSH1 0xE0 SHL SUB NOT DUP3 AND PUSH4 0x7965DB0B PUSH1 0xE0 SHL EQ DUP1 PUSH2 0x828 JUMPI POP PUSH4 0x1FFC9A7 PUSH1 0xE0 SHL PUSH1 0x1 PUSH1 0x1 PUSH1 0xE0 SHL SUB NOT DUP4 AND EQ PUSH2 0x828 JUMP JUMPDEST PUSH1 0x0 PUSH2 0x212B PUSH2 0x23E6 JUMP JUMPDEST SWAP1 POP SWAP1 JUMP JUMPDEST PUSH2 0xF94 DUP4 DUP4 DUP4 PUSH1 0x1 PUSH2 0x2442 JUMP JUMPDEST PUSH1 0x0 DUP1 MLOAD PUSH1 0x20 PUSH2 0x2F3F DUP4 CODECOPY DUP2 MLOAD SWAP2 MSTORE DUP1 SLOAD PUSH1 0x1 NOT ADD PUSH2 0x216F JUMPI PUSH1 0x40 MLOAD PUSH4 0x3EE5AEB5 PUSH1 0xE0 SHL DUP2 MSTORE PUSH1 0x4 ADD PUSH1 0x40 MLOAD DUP1 SWAP2 SUB SWAP1 REVERT JUMPDEST PUSH1 0x2 SWAP1 SSTORE JUMP JUMPDEST PUSH1 0x0 DUP1 PUSH2 0x2180 PUSH2 0x2121 JUMP JUMPDEST SWAP1 POP PUSH2 0x218D DUP6 DUP3 DUP6 PUSH2 0x252A JUMP JUMPDEST PUSH2 0x2198 DUP6 DUP6 DUP6 PUSH2 0x258B JUMP JUMPDEST POP PUSH1 0x1 SWAP5 SWAP4 POP POP POP POP JUMP JUMPDEST PUSH1 0x1 PUSH1 0x0 DUP1 MLOAD PUSH1 0x20 PUSH2 0x2F3F DUP4 CODECOPY DUP2 MLOAD SWAP2 MSTORE SSTORE JUMP JUMPDEST PUSH1 0x0 PUSH1 0x0 DUP1 MLOAD PUSH1 0x20 PUSH2 0x2E7F DUP4 CODECOPY DUP2 MLOAD SWAP2 MSTORE DUP2 PUSH2 0x21D3 DUP6 DUP6 PUSH2 0x25EA JUMP JUMPDEST SWAP1 POP DUP1 ISZERO PUSH2 0x1497 JUMPI PUSH1 0x0 DUP6 DUP2 MSTORE PUSH1 0x20 DUP4 SWAP1 MSTORE PUSH1 0x40 SWAP1 KECCAK256 PUSH2 0x20E3 SWAP1 DUP6 PUSH2 0x2686 JUMP JUMPDEST PUSH1 0x1 PUSH1 0x1 PUSH1 0xA0 SHL SUB DUP3 AND PUSH2 0x2222 JUMPI PUSH1 0x40 MLOAD PUSH4 0xEC442F05 PUSH1 0xE0 SHL DUP2 MSTORE PUSH1 0x0 PUSH1 0x4 DUP3 ADD MSTORE PUSH1 0x24 ADD JUMPDEST PUSH1 0x40 MLOAD DUP1 SWAP2 SUB SWAP1 REVERT JUMPDEST PUSH2 0x106A PUSH1 0x0 DUP4 DUP4 PUSH2 0x269B JUMP JUMPDEST PUSH1 0x0 PUSH2 0xCBD DUP4 DUP4 PUSH2 0x27D9 JUMP JUMPDEST PUSH1 0x1 PUSH1 0x1 PUSH1 0xA0 SHL SUB DUP3 AND PUSH2 0x2264 JUMPI PUSH1 0x40 MLOAD PUSH4 0x4B637E8F PUSH1 0xE1 SHL DUP2 MSTORE PUSH1 0x0 PUSH1 0x4 DUP3 ADD MSTORE PUSH1 0x24 ADD PUSH2 0x2219 JUMP JUMPDEST PUSH2 0x106A DUP3 PUSH1 0x0 DUP4 PUSH2 0x269B JUMP JUMPDEST PUSH1 0x60 PUSH1 0x0 PUSH2 0xCBD DUP4 PUSH2 0x2803 JUMP JUMPDEST PUSH1 0x0 DUP1 PUSH2 0x2288 PUSH2 0x2121 JUMP JUMPDEST SWAP1 POP PUSH2 0x909 DUP2 DUP6 DUP6 PUSH2 0x258B JUMP JUMPDEST PUSH1 0x0 DUP1 PUSH32 0xF0C57E16840DF040F15088DC2F81FE391C3923BEC73E23A9662EFC9C229C6A00 PUSH2 0x828 JUMP JUMPDEST PUSH2 0x22C6 PUSH2 0x285F JUMP JUMPDEST PUSH2 0x106A DUP3 DUP3 PUSH2 0x2884 JUMP JUMPDEST PUSH2 0x22D8 PUSH2 0x285F JUMP JUMPDEST JUMP JUMPDEST PUSH2 0x22E2 PUSH2 0x285F JUMP JUMPDEST PUSH2 0x22D8 PUSH2 0x28D5 JUMP JUMPDEST PUSH1 0x0 PUSH2 0x828 DUP3 SLOAD SWAP1 JUMP JUMPDEST PUSH2 0x22FE DUP3 DUP3 PUSH2 0x149F JUMP JUMPDEST PUSH2 0x106A JUMPI PUSH1 0x40 MLOAD PUSH4 0xE2517D3F PUSH1 0xE0 SHL DUP2 MSTORE PUSH1 0x1 PUSH1 0x1 PUSH1 0xA0 SHL SUB DUP3 AND PUSH1 0x4 DUP3 ADD MSTORE PUSH1 0x24 DUP2 ADD DUP4 SWAP1 MSTORE PUSH1 0x44 ADD PUSH2 0x2219 JUMP JUMPDEST PUSH1 0x0 PUSH1 0x0 DUP1 MLOAD PUSH1 0x20 PUSH2 0x2F1F DUP4 CODECOPY DUP2 MLOAD SWAP2 MSTORE PUSH2 0x2348 DUP5 DUP5 PUSH2 0x149F JUMP JUMPDEST ISZERO PUSH2 0x23C7 JUMPI PUSH1 0x0 DUP5 DUP2 MSTORE PUSH1 0x20 DUP3 DUP2 MSTORE PUSH1 0x40 DUP1 DUP4 KECCAK256 PUSH1 0x1 PUSH1 0x1 PUSH1 0xA0 SHL SUB DUP8 AND DUP5 MSTORE SWAP1 SWAP2 MSTORE SWAP1 KECCAK256 DUP1 SLOAD PUSH1 0xFF NOT AND SWAP1 SSTORE PUSH2 0x237D PUSH2 0x2121 JUMP JUMPDEST PUSH1 0x1 PUSH1 0x1 PUSH1 0xA0 SHL SUB AND DUP4 PUSH1 0x1 PUSH1 0x1 PUSH1 0xA0 SHL SUB AND DUP6 PUSH32 0xF6391F5C32D9C69D2A47EA670B442974B53935D1EDC7FD64EB21E047A839171B PUSH1 0x40 MLOAD PUSH1 0x40 MLOAD DUP1 SWAP2 SUB SWAP1 LOG4 PUSH1 0x1 SWAP2 POP POP PUSH2 0x828 JUMP JUMPDEST PUSH1 0x0 SWAP2 POP POP PUSH2 0x828 JUMP JUMPDEST PUSH1 0x0 PUSH2 0xCBD DUP4 PUSH1 0x1 PUSH1 0x1 PUSH1 0xA0 SHL SUB DUP5 AND PUSH2 0x28DD JUMP JUMPDEST CALLER PUSH1 0x0 SWAP1 DUP2 MSTORE PUSH1 0x2 PUSH1 0x20 MSTORE PUSH1 0x40 DUP2 KECCAK256 SLOAD CALLDATASIZE SWAP1 PUSH1 0x14 SWAP1 PUSH1 0xFF AND DUP1 ISZERO PUSH2 0x240A JUMPI POP DUP1 DUP3 LT ISZERO JUMPDEST ISZERO PUSH2 0x243A JUMPI PUSH1 0x0 CALLDATASIZE PUSH2 0x241C DUP4 DUP6 PUSH2 0x2CAF JUMP JUMPDEST PUSH2 0x2427 SWAP3 DUP3 SWAP1 PUSH2 0x2CC2 JUMP JUMPDEST PUSH2 0x2430 SWAP2 PUSH2 0x2CEC JUMP JUMPDEST PUSH1 0x60 SHR SWAP3 POP POP POP SWAP1 JUMP JUMPDEST CALLER SWAP3 POP POP POP SWAP1 JUMP JUMPDEST PUSH1 0x0 DUP1 MLOAD PUSH1 0x20 PUSH2 0x2EBF DUP4 CODECOPY DUP2 MLOAD SWAP2 MSTORE PUSH1 0x1 PUSH1 0x1 PUSH1 0xA0 SHL SUB DUP6 AND PUSH2 0x247B JUMPI PUSH1 0x40 MLOAD PUSH4 0xE602DF05 PUSH1 0xE0 SHL DUP2 MSTORE PUSH1 0x0 PUSH1 0x4 DUP3 ADD MSTORE PUSH1 0x24 ADD PUSH2 0x2219 JUMP JUMPDEST PUSH1 0x1 PUSH1 0x1 PUSH1 0xA0 SHL SUB DUP5 AND PUSH2 0x24A5 JUMPI PUSH1 0x40 MLOAD PUSH4 0x4A1406B1 PUSH1 0xE1 SHL DUP2 MSTORE PUSH1 0x0 PUSH1 0x4 DUP3 ADD MSTORE PUSH1 0x24 ADD PUSH2 0x2219 JUMP JUMPDEST PUSH1 0x1 PUSH1 0x1 PUSH1 0xA0 SHL SUB DUP1 DUP7 AND PUSH1 0x0 SWAP1 DUP2 MSTORE PUSH1 0x1 DUP4 ADD PUSH1 0x20 SWAP1 DUP2 MSTORE PUSH1 0x40 DUP1 DUP4 KECCAK256 SWAP4 DUP9 AND DUP4 MSTORE SWAP3 SWAP1 MSTORE KECCAK256 DUP4 SWAP1 SSTORE DUP2 ISZERO PUSH2 0x2523 JUMPI DUP4 PUSH1 0x1 PUSH1 0x1 PUSH1 0xA0 SHL SUB AND DUP6 PUSH1 0x1 PUSH1 0x1 PUSH1 0xA0 SHL SUB AND PUSH32 0x8C5BE1E5EBEC7D5BD14F71427D1E84F3DD0314C0F7B2291E5B200AC8C7C3B925 DUP6 PUSH1 0x40 MLOAD PUSH2 0x251A SWAP2 DUP2 MSTORE PUSH1 0x20 ADD SWAP1 JUMP JUMPDEST PUSH1 0x40 MLOAD DUP1 SWAP2 SUB SWAP1 LOG3 JUMPDEST POP POP POP POP POP JUMP JUMPDEST PUSH1 0x0 PUSH2 0x2536 DUP5 DUP5 PUSH2 0x1F8E JUMP JUMPDEST SWAP1 POP PUSH1 0x0 NOT DUP2 LT ISZERO PUSH2 0xD02 JUMPI DUP2 DUP2 LT ISZERO PUSH2 0x257C JUMPI PUSH1 0x40 MLOAD PUSH4 0x7DC7A0D9 PUSH1 0xE1 SHL DUP2 MSTORE PUSH1 0x1 PUSH1 0x1 PUSH1 0xA0 SHL SUB DUP5 AND PUSH1 0x4 DUP3 ADD MSTORE PUSH1 0x24 DUP2 ADD DUP3 SWAP1 MSTORE PUSH1 0x44 DUP2 ADD DUP4 SWAP1 MSTORE PUSH1 0x64 ADD PUSH2 0x2219 JUMP JUMPDEST PUSH2 0xD02 DUP5 DUP5 DUP5 DUP5 SUB PUSH1 0x0 PUSH2 0x2442 JUMP JUMPDEST PUSH1 0x1 PUSH1 0x1 PUSH1 0xA0 SHL SUB DUP4 AND PUSH2 0x25B5 JUMPI PUSH1 0x40 MLOAD PUSH4 0x4B637E8F PUSH1 0xE1 SHL DUP2 MSTORE PUSH1 0x0 PUSH1 0x4 DUP3 ADD MSTORE PUSH1 0x24 ADD PUSH2 0x2219 JUMP JUMPDEST PUSH1 0x1 PUSH1 0x1 PUSH1 0xA0 SHL SUB DUP3 AND PUSH2 0x25DF JUMPI PUSH1 0x40 MLOAD PUSH4 0xEC442F05 PUSH1 0xE0 SHL DUP2 MSTORE PUSH1 0x0 PUSH1 0x4 DUP3 ADD MSTORE PUSH1 0x24 ADD PUSH2 0x2219 JUMP JUMPDEST PUSH2 0xF94 DUP4 DUP4 DUP4 PUSH2 0x269B JUMP JUMPDEST PUSH1 0x0 PUSH1 0x0 DUP1 MLOAD PUSH1 0x20 PUSH2 0x2F1F DUP4 CODECOPY DUP2 MLOAD SWAP2 MSTORE PUSH2 0x2605 DUP5 DUP5 PUSH2 0x149F JUMP JUMPDEST PUSH2 0x23C7 JUMPI PUSH1 0x0 DUP5 DUP2 MSTORE PUSH1 0x20 DUP3 DUP2 MSTORE PUSH1 0x40 DUP1 DUP4 KECCAK256 PUSH1 0x1 PUSH1 0x1 PUSH1 0xA0 SHL SUB DUP8 AND DUP5 MSTORE SWAP1 SWAP2 MSTORE SWAP1 KECCAK256 DUP1 SLOAD PUSH1 0xFF NOT AND PUSH1 0x1 OR SWAP1 SSTORE PUSH2 0x263C PUSH2 0x2121 JUMP JUMPDEST PUSH1 0x1 PUSH1 0x1 PUSH1 0xA0 SHL SUB AND DUP4 PUSH1 0x1 PUSH1 0x1 PUSH1 0xA0 SHL SUB AND DUP6 PUSH32 0x2F8788117E7EFF1D82E926EC794901D17C78024A50270940304540A733656F0D PUSH1 0x40 MLOAD PUSH1 0x40 MLOAD DUP1 SWAP2 SUB SWAP1 LOG4 PUSH1 0x1 SWAP2 POP POP PUSH2 0x828 JUMP JUMPDEST PUSH1 0x0 PUSH2 0xCBD DUP4 PUSH1 0x1 PUSH1 0x1 PUSH1 0xA0 SHL SUB DUP5 AND PUSH2 0x29C6 JUMP JUMPDEST PUSH1 0x0 DUP1 MLOAD PUSH1 0x20 PUSH2 0x2EBF DUP4 CODECOPY DUP2 MLOAD SWAP2 MSTORE PUSH1 0x1 PUSH1 0x1 PUSH1 0xA0 SHL SUB DUP5 AND PUSH2 0x26D7 JUMPI DUP2 DUP2 PUSH1 0x2 ADD PUSH1 0x0 DUP3 DUP3 SLOAD PUSH2 0x26CC SWAP2 SWAP1 PUSH2 0x2D21 JUMP JUMPDEST SWAP1 SWAP2 SSTORE POP PUSH2 0x2749 SWAP1 POP JUMP JUMPDEST PUSH1 0x1 PUSH1 0x1 PUSH1 0xA0 SHL SUB DUP5 AND PUSH1 0x0 SWAP1 DUP2 MSTORE PUSH1 0x20 DUP3 SWAP1 MSTORE PUSH1 0x40 SWAP1 KECCAK256 SLOAD DUP3 DUP2 LT ISZERO PUSH2 0x272A JUMPI PUSH1 0x40 MLOAD PUSH4 0x391434E3 PUSH1 0xE2 SHL DUP2 MSTORE PUSH1 0x1 PUSH1 0x1 PUSH1 0xA0 SHL SUB DUP7 AND PUSH1 0x4 DUP3 ADD MSTORE PUSH1 0x24 DUP2 ADD DUP3 SWAP1 MSTORE PUSH1 0x44 DUP2 ADD DUP5 SWAP1 MSTORE PUSH1 0x64 ADD PUSH2 0x2219 JUMP JUMPDEST PUSH1 0x1 PUSH1 0x1 PUSH1 0xA0 SHL SUB DUP6 AND PUSH1 0x0 SWAP1 DUP2 MSTORE PUSH1 0x20 DUP4 SWAP1 MSTORE PUSH1 0x40 SWAP1 KECCAK256 SWAP1 DUP4 SWAP1 SUB SWAP1 SSTORE JUMPDEST PUSH1 0x1 PUSH1 0x1 PUSH1 0xA0 SHL SUB DUP4 AND PUSH2 0x2767 JUMPI PUSH1 0x2 DUP2 ADD DUP1 SLOAD DUP4 SWAP1 SUB SWAP1 SSTORE PUSH2 0x2786 JUMP JUMPDEST PUSH1 0x1 PUSH1 0x1 PUSH1 0xA0 SHL SUB DUP4 AND PUSH1 0x0 SWAP1 DUP2 MSTORE PUSH1 0x20 DUP3 SWAP1 MSTORE PUSH1 0x40 SWAP1 KECCAK256 DUP1 SLOAD DUP4 ADD SWAP1 SSTORE JUMPDEST DUP3 PUSH1 0x1 PUSH1 0x1 PUSH1 0xA0 SHL SUB AND DUP5 PUSH1 0x1 PUSH1 0x1 PUSH1 0xA0 SHL SUB AND PUSH32 0xDDF252AD1BE2C89B69C2B068FC378DAA952BA7F163C4A11628F55A4DF523B3EF DUP5 PUSH1 0x40 MLOAD PUSH2 0x27CB SWAP2 DUP2 MSTORE PUSH1 0x20 ADD SWAP1 JUMP JUMPDEST PUSH1 0x40 MLOAD DUP1 SWAP2 SUB SWAP1 LOG3 POP POP POP POP JUMP JUMPDEST PUSH1 0x0 DUP3 PUSH1 0x0 ADD DUP3 DUP2 SLOAD DUP2 LT PUSH2 0x27F0 JUMPI PUSH2 0x27F0 PUSH2 0x2D34 JUMP JUMPDEST SWAP1 PUSH1 0x0 MSTORE PUSH1 0x20 PUSH1 0x0 KECCAK256 ADD SLOAD SWAP1 POP SWAP3 SWAP2 POP POP JUMP JUMPDEST PUSH1 0x60 DUP2 PUSH1 0x0 ADD DUP1 SLOAD DUP1 PUSH1 0x20 MUL PUSH1 0x20 ADD PUSH1 0x40 MLOAD SWAP1 DUP2 ADD PUSH1 0x40 MSTORE DUP1 SWAP3 SWAP2 SWAP1 DUP2 DUP2 MSTORE PUSH1 0x20 ADD DUP3 DUP1 SLOAD DUP1 ISZERO PUSH2 0x2853 JUMPI PUSH1 0x20 MUL DUP3 ADD SWAP2 SWAP1 PUSH1 0x0 MSTORE PUSH1 0x20 PUSH1 0x0 KECCAK256 SWAP1 JUMPDEST DUP2 SLOAD DUP2 MSTORE PUSH1 0x20 ADD SWAP1 PUSH1 0x1 ADD SWAP1 DUP1 DUP4 GT PUSH2 0x283F JUMPI JUMPDEST POP POP POP POP POP SWAP1 POP SWAP2 SWAP1 POP JUMP JUMPDEST PUSH2 0x2867 PUSH2 0x2A15 JUMP JUMPDEST PUSH2 0x22D8 JUMPI PUSH1 0x40 MLOAD PUSH4 0x1AFCD79F PUSH1 0xE3 SHL DUP2 MSTORE PUSH1 0x4 ADD PUSH1 0x40 MLOAD DUP1 SWAP2 SUB SWAP1 REVERT JUMPDEST PUSH2 0x288C PUSH2 0x285F JUMP JUMPDEST PUSH1 0x0 DUP1 MLOAD PUSH1 0x20 PUSH2 0x2EBF DUP4 CODECOPY DUP2 MLOAD SWAP2 MSTORE PUSH32 0x52C63247E1F47DB19D5CE0460030C497F067CA4CEBF71BA98EEADABE20BACE03 PUSH2 0x28C6 DUP5 DUP3 PUSH2 0x2DA8 JUMP JUMPDEST POP PUSH1 0x4 DUP2 ADD PUSH2 0xD02 DUP4 DUP3 PUSH2 0x2DA8 JUMP JUMPDEST PUSH2 0x21A3 PUSH2 0x285F JUMP JUMPDEST PUSH1 0x0 DUP2 DUP2 MSTORE PUSH1 0x1 DUP4 ADD PUSH1 0x20 MSTORE PUSH1 0x40 DUP2 KECCAK256 SLOAD DUP1 ISZERO PUSH2 0x23C7 JUMPI PUSH1 0x0 PUSH2 0x2901 PUSH1 0x1 DUP4 PUSH2 0x2CAF JUMP JUMPDEST DUP6 SLOAD SWAP1 SWAP2 POP PUSH1 0x0 SWAP1 PUSH2 0x2915 SWAP1 PUSH1 0x1 SWAP1 PUSH2 0x2CAF JUMP JUMPDEST SWAP1 POP DUP1 DUP3 EQ PUSH2 0x297A JUMPI PUSH1 0x0 DUP7 PUSH1 0x0 ADD DUP3 DUP2 SLOAD DUP2 LT PUSH2 0x2935 JUMPI PUSH2 0x2935 PUSH2 0x2D34 JUMP JUMPDEST SWAP1 PUSH1 0x0 MSTORE PUSH1 0x20 PUSH1 0x0 KECCAK256 ADD SLOAD SWAP1 POP DUP1 DUP8 PUSH1 0x0 ADD DUP5 DUP2 SLOAD DUP2 LT PUSH2 0x2958 JUMPI PUSH2 0x2958 PUSH2 0x2D34 JUMP JUMPDEST PUSH1 0x0 SWAP2 DUP3 MSTORE PUSH1 0x20 DUP1 DUP4 KECCAK256 SWAP1 SWAP2 ADD SWAP3 SWAP1 SWAP3 SSTORE SWAP2 DUP3 MSTORE PUSH1 0x1 DUP9 ADD SWAP1 MSTORE PUSH1 0x40 SWAP1 KECCAK256 DUP4 SWAP1 SSTORE JUMPDEST DUP6 SLOAD DUP7 SWAP1 DUP1 PUSH2 0x298B JUMPI PUSH2 0x298B PUSH2 0x2E68 JUMP JUMPDEST PUSH1 0x1 SWAP1 SUB DUP2 DUP2 SWAP1 PUSH1 0x0 MSTORE PUSH1 0x20 PUSH1 0x0 KECCAK256 ADD PUSH1 0x0 SWAP1 SSTORE SWAP1 SSTORE DUP6 PUSH1 0x1 ADD PUSH1 0x0 DUP7 DUP2 MSTORE PUSH1 0x20 ADD SWAP1 DUP2 MSTORE PUSH1 0x20 ADD PUSH1 0x0 KECCAK256 PUSH1 0x0 SWAP1 SSTORE PUSH1 0x1 SWAP4 POP POP POP POP PUSH2 0x828 JUMP JUMPDEST PUSH1 0x0 DUP2 DUP2 MSTORE PUSH1 0x1 DUP4 ADD PUSH1 0x20 MSTORE PUSH1 0x40 DUP2 KECCAK256 SLOAD PUSH2 0x2A0D JUMPI POP DUP2 SLOAD PUSH1 0x1 DUP2 DUP2 ADD DUP5 SSTORE PUSH1 0x0 DUP5 DUP2 MSTORE PUSH1 0x20 DUP1 DUP3 KECCAK256 SWAP1 SWAP4 ADD DUP5 SWAP1 SSTORE DUP5 SLOAD DUP5 DUP3 MSTORE DUP3 DUP7 ADD SWAP1 SWAP4 MSTORE PUSH1 0x40 SWAP1 KECCAK256 SWAP2 SWAP1 SWAP2 SSTORE PUSH2 0x828 JUMP JUMPDEST POP PUSH1 0x0 PUSH2 0x828 JUMP JUMPDEST PUSH1 0x0 PUSH2 0x2A1F PUSH2 0x2295 JUMP JUMPDEST SLOAD PUSH1 0x1 PUSH1 0x40 SHL SWAP1 DIV PUSH1 0xFF AND SWAP2 SWAP1 POP JUMP JUMPDEST DUP1 CALLDATALOAD PUSH1 0x1 PUSH1 0x1 PUSH1 0xA0 SHL SUB DUP2 AND DUP2 EQ PUSH2 0x2A46 JUMPI PUSH1 0x0 DUP1 REVERT JUMPDEST SWAP2 SWAP1 POP JUMP JUMPDEST PUSH1 0x0 PUSH1 0x20 DUP3 DUP5 SUB SLT ISZERO PUSH2 0x2A5D JUMPI PUSH1 0x0 DUP1 REVERT JUMPDEST PUSH2 0xCBD DUP3 PUSH2 0x2A2F JUMP JUMPDEST PUSH1 0x0 PUSH1 0x20 DUP3 DUP5 SUB SLT ISZERO PUSH2 0x2A78 JUMPI PUSH1 0x0 DUP1 REVERT JUMPDEST DUP2 CALLDATALOAD PUSH1 0x1 PUSH1 0x1 PUSH1 0xE0 SHL SUB NOT DUP2 AND DUP2 EQ PUSH2 0xCBD JUMPI PUSH1 0x0 DUP1 REVERT JUMPDEST PUSH1 0x0 PUSH1 0x20 DUP1 DUP4 MSTORE DUP4 MLOAD DUP1 PUSH1 0x20 DUP6 ADD MSTORE PUSH1 0x0 JUMPDEST DUP2 DUP2 LT ISZERO PUSH2 0x2ABE JUMPI DUP6 DUP2 ADD DUP4 ADD MLOAD DUP6 DUP3 ADD PUSH1 0x40 ADD MSTORE DUP3 ADD PUSH2 0x2AA2 JUMP JUMPDEST POP PUSH1 0x0 PUSH1 0x40 DUP3 DUP7 ADD ADD MSTORE PUSH1 0x40 PUSH1 0x1F NOT PUSH1 0x1F DUP4 ADD AND DUP6 ADD ADD SWAP3 POP POP POP SWAP3 SWAP2 POP POP JUMP JUMPDEST PUSH1 0x0 DUP1 PUSH1 0x40 DUP4 DUP6 SUB SLT ISZERO PUSH2 0x2AF2 JUMPI PUSH1 0x0 DUP1 REVERT JUMPDEST PUSH2 0x2AFB DUP4 PUSH2 0x2A2F JUMP JUMPDEST SWAP5 PUSH1 0x20 SWAP4 SWAP1 SWAP4 ADD CALLDATALOAD SWAP4 POP POP POP JUMP JUMPDEST PUSH1 0x0 DUP1 PUSH1 0x0 PUSH1 0x60 DUP5 DUP7 SUB SLT ISZERO PUSH2 0x2B1E JUMPI PUSH1 0x0 DUP1 REVERT JUMPDEST PUSH2 0x2B27 DUP5 PUSH2 0x2A2F JUMP JUMPDEST SWAP3 POP PUSH2 0x2B35 PUSH1 0x20 DUP6 ADD PUSH2 0x2A2F JUMP JUMPDEST SWAP2 POP PUSH1 0x40 DUP5 ADD CALLDATALOAD SWAP1 POP SWAP3 POP SWAP3 POP SWAP3 JUMP JUMPDEST PUSH1 0x0 PUSH1 0x20 DUP3 DUP5 SUB SLT ISZERO PUSH2 0x2B57 JUMPI PUSH1 0x0 DUP1 REVERT JUMPDEST POP CALLDATALOAD SWAP2 SWAP1 POP JUMP JUMPDEST PUSH1 0x0 DUP1 PUSH1 0x40 DUP4 DUP6 SUB SLT ISZERO PUSH2 0x2B71 JUMPI PUSH1 0x0 DUP1 REVERT JUMPDEST DUP3 CALLDATALOAD SWAP2 POP PUSH2 0x2B81 PUSH1 0x20 DUP5 ADD PUSH2 0x2A2F JUMP JUMPDEST SWAP1 POP SWAP3 POP SWAP3 SWAP1 POP JUMP JUMPDEST PUSH1 0x0 DUP1 PUSH1 0x40 DUP4 DUP6 SUB SLT ISZERO PUSH2 0x2B9D JUMPI PUSH1 0x0 DUP1 REVERT JUMPDEST POP POP DUP1 CALLDATALOAD SWAP3 PUSH1 0x20 SWAP1 SWAP2 ADD CALLDATALOAD SWAP2 POP JUMP JUMPDEST PUSH1 0x20 DUP1 DUP3 MSTORE DUP3 MLOAD DUP3 DUP3 ADD DUP2 SWAP1 MSTORE PUSH1 0x0 SWAP2 SWAP1 DUP5 DUP3 ADD SWAP1 PUSH1 0x40 DUP6 ADD SWAP1 DUP5 JUMPDEST DUP2 DUP2 LT ISZERO PUSH2 0x2BED JUMPI DUP4 MLOAD PUSH1 0x1 PUSH1 0x1 PUSH1 0xA0 SHL SUB AND DUP4 MSTORE SWAP3 DUP5 ADD SWAP3 SWAP2 DUP5 ADD SWAP2 PUSH1 0x1 ADD PUSH2 0x2BC8 JUMP JUMPDEST POP SWAP1 SWAP7 SWAP6 POP POP POP POP POP POP JUMP JUMPDEST PUSH1 0x0 DUP1 PUSH1 0x40 DUP4 DUP6 SUB SLT ISZERO PUSH2 0x2C0C JUMPI PUSH1 0x0 DUP1 REVERT JUMPDEST PUSH2 0x2C15 DUP4 PUSH2 0x2A2F JUMP JUMPDEST SWAP2 POP PUSH2 0x2B81 PUSH1 0x20 DUP5 ADD PUSH2 0x2A2F JUMP JUMPDEST PUSH1 0x0 DUP1 PUSH1 0x40 DUP4 DUP6 SUB SLT ISZERO PUSH2 0x2C36 JUMPI PUSH1 0x0 DUP1 REVERT JUMPDEST PUSH2 0x2C3F DUP4 PUSH2 0x2A2F JUMP JUMPDEST SWAP2 POP PUSH1 0x20 DUP4 ADD CALLDATALOAD DUP1 ISZERO ISZERO DUP2 EQ PUSH2 0x2C54 JUMPI PUSH1 0x0 DUP1 REVERT JUMPDEST DUP1 SWAP2 POP POP SWAP3 POP SWAP3 SWAP1 POP JUMP JUMPDEST PUSH1 0x1 DUP2 DUP2 SHR SWAP1 DUP3 AND DUP1 PUSH2 0x2C73 JUMPI PUSH1 0x7F DUP3 AND SWAP2 POP JUMPDEST PUSH1 0x20 DUP3 LT DUP2 SUB PUSH2 0x2C93 JUMPI PUSH4 0x4E487B71 PUSH1 0xE0 SHL PUSH1 0x0 MSTORE PUSH1 0x22 PUSH1 0x4 MSTORE PUSH1 0x24 PUSH1 0x0 REVERT JUMPDEST POP SWAP2 SWAP1 POP JUMP JUMPDEST PUSH4 0x4E487B71 PUSH1 0xE0 SHL PUSH1 0x0 MSTORE PUSH1 0x11 PUSH1 0x4 MSTORE PUSH1 0x24 PUSH1 0x0 REVERT JUMPDEST DUP2 DUP2 SUB DUP2 DUP2 GT ISZERO PUSH2 0x828 JUMPI PUSH2 0x828 PUSH2 0x2C99 JUMP JUMPDEST PUSH1 0x0 DUP1 DUP6 DUP6 GT ISZERO PUSH2 0x2CD2 JUMPI PUSH1 0x0 DUP1 REVERT JUMPDEST DUP4 DUP7 GT ISZERO PUSH2 0x2CDF JUMPI PUSH1 0x0 DUP1 REVERT JUMPDEST POP POP DUP3 ADD SWAP4 SWAP2 SWAP1 SWAP3 SUB SWAP2 POP JUMP JUMPDEST PUSH12 0xFFFFFFFFFFFFFFFFFFFFFFFF NOT DUP2 CALLDATALOAD DUP2 DUP2 AND SWAP2 PUSH1 0x14 DUP6 LT ISZERO PUSH2 0x2D19 JUMPI DUP1 DUP2 DUP7 PUSH1 0x14 SUB PUSH1 0x3 SHL SHL DUP4 AND AND SWAP3 POP JUMPDEST POP POP SWAP3 SWAP2 POP POP JUMP JUMPDEST DUP1 DUP3 ADD DUP1 DUP3 GT ISZERO PUSH2 0x828 JUMPI PUSH2 0x828 PUSH2 0x2C99 JUMP JUMPDEST PUSH4 0x4E487B71 PUSH1 0xE0 SHL PUSH1 0x0 MSTORE PUSH1 0x32 PUSH1 0x4 MSTORE PUSH1 0x24 PUSH1 0x0 REVERT JUMPDEST PUSH4 0x4E487B71 PUSH1 0xE0 SHL PUSH1 0x0 MSTORE PUSH1 0x41 PUSH1 0x4 MSTORE PUSH1 0x24 PUSH1 0x0 REVERT JUMPDEST PUSH1 0x1F DUP3 GT ISZERO PUSH2 0xF94 JUMPI PUSH1 0x0 DUP2 PUSH1 0x0 MSTORE PUSH1 0x20 PUSH1 0x0 KECCAK256 PUSH1 0x1F DUP6 ADD PUSH1 0x5 SHR DUP2 ADD PUSH1 0x20 DUP7 LT ISZERO PUSH2 0x2D89 JUMPI POP DUP1 JUMPDEST PUSH1 0x1F DUP6 ADD PUSH1 0x5 SHR DUP3 ADD SWAP2 POP JUMPDEST DUP2 DUP2 LT ISZERO PUSH2 0x1B75 JUMPI DUP3 DUP2 SSTORE PUSH1 0x1 ADD PUSH2 0x2D95 JUMP JUMPDEST DUP2 MLOAD PUSH8 0xFFFFFFFFFFFFFFFF DUP2 GT ISZERO PUSH2 0x2DC2 JUMPI PUSH2 0x2DC2 PUSH2 0x2D4A JUMP JUMPDEST PUSH2 0x2DD6 DUP2 PUSH2 0x2DD0 DUP5 SLOAD PUSH2 0x2C5F JUMP JUMPDEST DUP5 PUSH2 0x2D60 JUMP JUMPDEST PUSH1 0x20 DUP1 PUSH1 0x1F DUP4 GT PUSH1 0x1 DUP2 EQ PUSH2 0x2E0B JUMPI PUSH1 0x0 DUP5 ISZERO PUSH2 0x2DF3 JUMPI POP DUP6 DUP4 ADD MLOAD JUMPDEST PUSH1 0x0 NOT PUSH1 0x3 DUP7 SWAP1 SHL SHR NOT AND PUSH1 0x1 DUP6 SWAP1 SHL OR DUP6 SSTORE PUSH2 0x1B75 JUMP JUMPDEST PUSH1 0x0 DUP6 DUP2 MSTORE PUSH1 0x20 DUP2 KECCAK256 PUSH1 0x1F NOT DUP7 AND SWAP2 JUMPDEST DUP3 DUP2 LT ISZERO PUSH2 0x2E3A JUMPI DUP9 DUP7 ADD MLOAD DUP3 SSTORE SWAP5 DUP5 ADD SWAP5 PUSH1 0x1 SWAP1 SWAP2 ADD SWAP1 DUP5 ADD PUSH2 0x2E1B JUMP JUMPDEST POP DUP6 DUP3 LT ISZERO PUSH2 0x2E58 JUMPI DUP8 DUP6 ADD MLOAD PUSH1 0x0 NOT PUSH1 0x3 DUP9 SWAP1 SHL PUSH1 0xF8 AND SHR NOT AND DUP2 SSTORE JUMPDEST POP POP POP POP POP PUSH1 0x1 SWAP1 DUP2 SHL ADD SWAP1 SSTORE POP JUMP JUMPDEST PUSH4 0x4E487B71 PUSH1 0xE0 SHL PUSH1 0x0 MSTORE PUSH1 0x31 PUSH1 0x4 MSTORE PUSH1 0x24 PUSH1 0x0 REVERT INVALID 0xC1 0xF6 INVALID 0x24 PUSH3 0x1CE81E 0xC5 DUP3 PUSH29 0xAF0253CADB74709B061630E6B55E82371705932000D22ED3A112884BD9 REVERT PUSH1 0x3 0xB7 SAR MUL 0xC2 0xA6 PUSH18 0xCF1DDCC8740E9A0A8E3AB3973E344F52C632 SELFBALANCE 0xE1 DELEGATECALL PUSH30 0xB19D5CE0460030C497F067CA4CEBF71BA98EEADABE20BACE00DA4D20B686 0xF7 BLOCKHASH BLOCKHASH COINBASE 0xD4 LOG4 SIGNEXTEND 0xC9 0x22 POP DUP8 CALLVALUE CREATE2 SWAP8 SWAP6 0xE8 0xA7 CODECOPY 0x4E 0x24 PUSH7 0x2EB8EC5B77B9F 0x2D CREATE INVALID 0xD2 0xC7 PUSH23 0x48DE5860A4CC508CD0818C85B8B8A1AB4CEEEF8D981C89 JUMP 0xA6 MUL 0xDD PUSH28 0xC7DEC4DCEEDDA775E58DD541E08A116C6C53815C0BD028192F7B6268 STOP SWAP12 PUSH24 0x9B17422D0DF92223018B32B4D1FA46E071723D6817E2486D STOP EXTCODESIZE 0xEC 0xC5 PUSH0 STOP 0xE1 0xDC 0xBD 0xB9 SAR CALLCODE PUSH19 0x12A29BC27177C840CF2F819ECF2187432E1FAC DUP7 0xC2 0xDD 0x5D 0xFC 0xA9 0xCB 0x4C ISZERO PUSH1 0xF0 0xAC PUSH25 0x3AF04187BDA6C71D491DEE6A63E28B3AD8457B60790F38EEBA LOG2 PUSH5 0x6970667358 0x22 SLT KECCAK256 0xEA 0xD4 DUP15 EXTCODESIZE STOP PUSH6 0x4CA5FF5AA32 EXTCODEHASH DUP5 SLT CALLVALUE 0x4C NUMBER 0xD3 SMOD 0xF6 GT 0xDC PUSH29 0x2BE0416D7DA1740964736F6C6343000816003300000000000000000000 "},"methodIdentifiers":{"BURN_VAULT_ROLE()":"3a594a1d","DEFAULT_ADMIN_ROLE()":"a217fddf","MINTER_ROLE()":"d5391393","TREASURY_ROLE()":"d11a57ec","UPGRADER_ROLE()":"f72c0d8b","WHITELIST_RECEIVER_ROLE()":"a8422c2f","WHITELIST_SENDER_ROLE()":"14eeb828","acceptAdminRole()":"8c3d7301","addBurnVault(address)":"511d2376","addMinter(address)":"983b2d56","addTreasuryAddress(address)":"bae5ec04","addWhitelistReceiver(address)":"c80eeec2","addWhitelistSender(address)":"d403c878","allowance(address,address)":"dd62ed3e","approve(address,uint256)":"095ea7b3","balanceOf(address)":"70a08231","burn(address,uint256)":"9dc29fac","decimals()":"313ce567","freezeAccount(address)":"f26c159f","frozenAccounts(address)":"860838a5","getRoleAdmin(bytes32)":"248a9ca3","getRoleMember(bytes32,uint256)":"9010d07c","getRoleMemberCount(bytes32)":"ca15c873","getRoleMembers(bytes32)":"a3246ad3","grantRole(bytes32,address)":"2f2ff15d","hasRole(bytes32,address)":"91d14854","initialize(address)":"c4d66de8","isTrustedForwarder(address)":"572b6c05","mint(address,uint256)":"40c10f19","name()":"06fdde03","nominateAdmin(address)":"cd5ad4c5","nominatedAdmin()":"e8ac6533","removeBurnVault(address)":"00047470","removeMinter(address)":"3092afd5","removeTreasuryAddress(address)":"d4179e8d","removeWhitelistReceiver(address)":"175badcb","removeWhitelistSender(address)":"0ee3153f","renounceRole(bytes32,address)":"36568abe","revokeRole(bytes32,address)":"d547741f","setTrustedForwarder(address,bool)":"e691d03b","supportsInterface(bytes4)":"01ffc9a7","symbol()":"95d89b41","totalSupply()":"18160ddd","transfer(address,uint256)":"a9059cbb","transferFrom(address,address,uint256)":"23b872dd","trustedForwarder(address)":"76b88024","unfreezeAccount(address)":"788649ea","updateBurnVault(address)":"35f14f14","updateMinter(address)":"4eb03f6e"}},"storageLayout":{"storage":[{"astId":7511,"contract":"contracts/rKGEN.sol:rKGEN","label":"nominatedAdmin","offset":0,"slot":"0","type":"t_address"},{"astId":7515,"contract":"contracts/rKGEN.sol:rKGEN","label":"frozenAccounts","offset":0,"slot":"1","type":"t_mapping(t_address,t_bool)"},{"astId":7519,"contract":"contracts/rKGEN.sol:rKGEN","label":"trustedForwarder","offset":0,"slot":"2","type":"t_mapping(t_address,t_bool)"}],"types":{"t_address":{"encoding":"inplace","label":"address","numberOfBytes":"20"},"t_bool":{"encoding":"inplace","label":"bool","numberOfBytes":"1"},"t_mapping(t_address,t_bool)":{"encoding":"mapping","key":"t_address","label":"mapping(address => bool)","numberOfBytes":"32","value":"t_bool"}}}}}}