{
  "address": "0xCE890A187eF0198972D22Ae0fA128540E5c613d7",
  "abi": [
    {
      "inputs": [],
      "name": "AccessControlBadConfirmation",
      "type": "error"
    },
    {
      "inputs": [
        {
          "internalType": "address",
          "name": "account",
          "type": "address"
        },
        {
          "internalType": "bytes32",
          "name": "neededRole",
          "type": "bytes32"
        }
      ],
      "name": "AccessControlUnauthorizedAccount",
      "type": "error"
    },
    {
      "inputs": [],
      "name": "InsufficientBalance",
      "type": "error"
    },
    {
      "inputs": [],
      "name": "InvalidAddress",
      "type": "error"
    },
    {
      "inputs": [],
      "name": "InvalidInitialization",
      "type": "error"
    },
    {
      "inputs": [],
      "name": "NotInitializing",
      "type": "error"
    },
    {
      "inputs": [],
      "name": "ReentrancyGuardReentrantCall",
      "type": "error"
    },
    {
      "inputs": [],
      "name": "TokenAlreadyWhitelisted",
      "type": "error"
    },
    {
      "inputs": [],
      "name": "TokenNotWhitelisted",
      "type": "error"
    },
    {
      "inputs": [],
      "name": "ZeroAmount",
      "type": "error"
    },
    {
      "anonymous": false,
      "inputs": [
        {
          "indexed": false,
          "internalType": "uint64",
          "name": "version",
          "type": "uint64"
        }
      ],
      "name": "Initialized",
      "type": "event"
    },
    {
      "anonymous": false,
      "inputs": [
        {
          "indexed": true,
          "internalType": "address",
          "name": "previous",
          "type": "address"
        },
        {
          "indexed": true,
          "internalType": "address",
          "name": "current",
          "type": "address"
        }
      ],
      "name": "KgenGasFeeTreasuryUpdated",
      "type": "event"
    },
    {
      "anonymous": false,
      "inputs": [
        {
          "indexed": true,
          "internalType": "address",
          "name": "previous",
          "type": "address"
        },
        {
          "indexed": true,
          "internalType": "address",
          "name": "current",
          "type": "address"
        }
      ],
      "name": "KgenTdsFeeTreasuryUpdated",
      "type": "event"
    },
    {
      "anonymous": false,
      "inputs": [
        {
          "indexed": true,
          "internalType": "bytes32",
          "name": "role",
          "type": "bytes32"
        },
        {
          "indexed": true,
          "internalType": "bytes32",
          "name": "previousAdminRole",
          "type": "bytes32"
        },
        {
          "indexed": true,
          "internalType": "bytes32",
          "name": "newAdminRole",
          "type": "bytes32"
        }
      ],
      "name": "RoleAdminChanged",
      "type": "event"
    },
    {
      "anonymous": false,
      "inputs": [
        {
          "indexed": true,
          "internalType": "bytes32",
          "name": "role",
          "type": "bytes32"
        },
        {
          "indexed": true,
          "internalType": "address",
          "name": "account",
          "type": "address"
        },
        {
          "indexed": true,
          "internalType": "address",
          "name": "sender",
          "type": "address"
        }
      ],
      "name": "RoleGranted",
      "type": "event"
    },
    {
      "anonymous": false,
      "inputs": [
        {
          "indexed": true,
          "internalType": "bytes32",
          "name": "role",
          "type": "bytes32"
        },
        {
          "indexed": true,
          "internalType": "address",
          "name": "account",
          "type": "address"
        },
        {
          "indexed": true,
          "internalType": "address",
          "name": "sender",
          "type": "address"
        }
      ],
      "name": "RoleRevoked",
      "type": "event"
    },
    {
      "anonymous": false,
      "inputs": [
        {
          "indexed": true,
          "internalType": "address",
          "name": "tokenAddress",
          "type": "address"
        }
      ],
      "name": "TokenRemovedFromWhitelist",
      "type": "event"
    },
    {
      "anonymous": false,
      "inputs": [
        {
          "indexed": true,
          "internalType": "address",
          "name": "sender",
          "type": "address"
        },
        {
          "indexed": true,
          "internalType": "address",
          "name": "recipient",
          "type": "address"
        },
        {
          "indexed": true,
          "internalType": "address",
          "name": "treasury",
          "type": "address"
        },
        {
          "indexed": false,
          "internalType": "address",
          "name": "tokenAddress",
          "type": "address"
        },
        {
          "indexed": false,
          "internalType": "uint256",
          "name": "amount",
          "type": "uint256"
        },
        {
          "indexed": false,
          "internalType": "uint256",
          "name": "gasFee",
          "type": "uint256"
        }
      ],
      "name": "TokenTransferred",
      "type": "event"
    },
    {
      "anonymous": false,
      "inputs": [
        {
          "indexed": true,
          "internalType": "address",
          "name": "tokenAddress",
          "type": "address"
        }
      ],
      "name": "TokenWhitelisted",
      "type": "event"
    },
    {
      "anonymous": false,
      "inputs": [
        {
          "indexed": true,
          "internalType": "address",
          "name": "newForwarder",
          "type": "address"
        }
      ],
      "name": "TrustedForwarderUpdated",
      "type": "event"
    },
    {
      "inputs": [],
      "name": "ADMIN_ROLE",
      "outputs": [
        {
          "internalType": "bytes32",
          "name": "",
          "type": "bytes32"
        }
      ],
      "stateMutability": "view",
      "type": "function"
    },
    {
      "inputs": [],
      "name": "DEFAULT_ADMIN_ROLE",
      "outputs": [
        {
          "internalType": "bytes32",
          "name": "",
          "type": "bytes32"
        }
      ],
      "stateMutability": "view",
      "type": "function"
    },
    {
      "inputs": [],
      "name": "KGEN_GAS_FEE_TREASURY_ADDRESS",
      "outputs": [
        {
          "internalType": "address",
          "name": "",
          "type": "address"
        }
      ],
      "stateMutability": "view",
      "type": "function"
    },
    {
      "inputs": [],
      "name": "KGEN_TDS_FEE_TREASURY_ADDRESS",
      "outputs": [
        {
          "internalType": "address",
          "name": "",
          "type": "address"
        }
      ],
      "stateMutability": "view",
      "type": "function"
    },
    {
      "inputs": [],
      "name": "WITHDRAWER_ROLE",
      "outputs": [
        {
          "internalType": "bytes32",
          "name": "",
          "type": "bytes32"
        }
      ],
      "stateMutability": "view",
      "type": "function"
    },
    {
      "inputs": [
        {
          "internalType": "bytes32",
          "name": "role",
          "type": "bytes32"
        }
      ],
      "name": "getRoleAdmin",
      "outputs": [
        {
          "internalType": "bytes32",
          "name": "",
          "type": "bytes32"
        }
      ],
      "stateMutability": "view",
      "type": "function"
    },
    {
      "inputs": [
        {
          "internalType": "bytes32",
          "name": "role",
          "type": "bytes32"
        },
        {
          "internalType": "address",
          "name": "account",
          "type": "address"
        }
      ],
      "name": "grantRole",
      "outputs": [],
      "stateMutability": "nonpayable",
      "type": "function"
    },
    {
      "inputs": [
        {
          "internalType": "bytes32",
          "name": "role",
          "type": "bytes32"
        },
        {
          "internalType": "address",
          "name": "account",
          "type": "address"
        }
      ],
      "name": "hasRole",
      "outputs": [
        {
          "internalType": "bool",
          "name": "",
          "type": "bool"
        }
      ],
      "stateMutability": "view",
      "type": "function"
    },
    {
      "inputs": [
        {
          "internalType": "address",
          "name": "_trustedForwarder",
          "type": "address"
        },
        {
          "internalType": "address",
          "name": "admin",
          "type": "address"
        },
        {
          "internalType": "address",
          "name": "tsddFeeTreasuryAddress",
          "type": "address"
        },
        {
          "internalType": "address",
          "name": "gasFeeTreasuryAddress",
          "type": "address"
        }
      ],
      "name": "initialize",
      "outputs": [],
      "stateMutability": "nonpayable",
      "type": "function"
    },
    {
      "inputs": [
        {
          "internalType": "address",
          "name": "forwarder",
          "type": "address"
        }
      ],
      "name": "isTrustedForwarder",
      "outputs": [
        {
          "internalType": "bool",
          "name": "",
          "type": "bool"
        }
      ],
      "stateMutability": "view",
      "type": "function"
    },
    {
      "inputs": [
        {
          "internalType": "bytes32",
          "name": "role",
          "type": "bytes32"
        },
        {
          "internalType": "address",
          "name": "callerConfirmation",
          "type": "address"
        }
      ],
      "name": "renounceRole",
      "outputs": [],
      "stateMutability": "nonpayable",
      "type": "function"
    },
    {
      "inputs": [
        {
          "internalType": "bytes32",
          "name": "role",
          "type": "bytes32"
        },
        {
          "internalType": "address",
          "name": "account",
          "type": "address"
        }
      ],
      "name": "revokeRole",
      "outputs": [],
      "stateMutability": "nonpayable",
      "type": "function"
    },
    {
      "inputs": [
        {
          "internalType": "address",
          "name": "newTreasury",
          "type": "address"
        }
      ],
      "name": "setKgenGasFeeTreasury",
      "outputs": [],
      "stateMutability": "nonpayable",
      "type": "function"
    },
    {
      "inputs": [
        {
          "internalType": "address",
          "name": "newTreasury",
          "type": "address"
        }
      ],
      "name": "setKgenTdsFeeTreasury",
      "outputs": [],
      "stateMutability": "nonpayable",
      "type": "function"
    },
    {
      "inputs": [
        {
          "internalType": "address",
          "name": "_trustedForwarder",
          "type": "address"
        },
        {
          "internalType": "bool",
          "name": "_isTrusted",
          "type": "bool"
        }
      ],
      "name": "setTrustedForwarder",
      "outputs": [],
      "stateMutability": "nonpayable",
      "type": "function"
    },
    {
      "inputs": [
        {
          "internalType": "bytes4",
          "name": "interfaceId",
          "type": "bytes4"
        }
      ],
      "name": "supportsInterface",
      "outputs": [
        {
          "internalType": "bool",
          "name": "",
          "type": "bool"
        }
      ],
      "stateMutability": "view",
      "type": "function"
    },
    {
      "inputs": [
        {
          "internalType": "address",
          "name": "tokenAddress",
          "type": "address"
        },
        {
          "internalType": "address",
          "name": "treasury",
          "type": "address"
        },
        {
          "internalType": "address",
          "name": "recipientAddress",
          "type": "address"
        },
        {
          "internalType": "uint256",
          "name": "gasFee",
          "type": "uint256"
        },
        {
          "internalType": "uint256",
          "name": "amount",
          "type": "uint256"
        }
      ],
      "name": "transferKgenToken",
      "outputs": [],
      "stateMutability": "nonpayable",
      "type": "function"
    },
    {
      "inputs": [
        {
          "internalType": "address",
          "name": "tokenAddress",
          "type": "address"
        },
        {
          "internalType": "address",
          "name": "recipientAddress",
          "type": "address"
        },
        {
          "internalType": "uint256",
          "name": "gasFee",
          "type": "uint256"
        },
        {
          "internalType": "uint256",
          "name": "tdsFee",
          "type": "uint256"
        },
        {
          "internalType": "uint256",
          "name": "amount",
          "type": "uint256"
        }
      ],
      "name": "transferKgenTokenWithTDS",
      "outputs": [],
      "stateMutability": "nonpayable",
      "type": "function"
    },
    {
      "inputs": [
        {
          "internalType": "address",
          "name": "",
          "type": "address"
        }
      ],
      "name": "trustedForwarder",
      "outputs": [
        {
          "internalType": "bool",
          "name": "",
          "type": "bool"
        }
      ],
      "stateMutability": "view",
      "type": "function"
    }
  ],
  "transactionHash": "0x6edc64e94ddc2dab7757d2e2e1b909e168ac23b3d88b2fc869ddbe62c0c72e59",
  "args": [],
  "numDeployments": 1,
  "solcInputHash": "d20a0f749098198c3285856555e4c748",
  "bytecode": "0x608060405234801561001057600080fd5b50611590806100206000396000f3fe608060405234801561001057600080fd5b50600436106101215760003560e01c806376b88024116100ad578063c995fec911610071578063c995fec9146102a1578063d547741f146102b4578063dce85522146102c7578063e691d03b146102da578063f8c8765e146102ed57600080fd5b806376b880241461022957806385f438c11461024c57806391d1485414610273578063a217fddf14610286578063a69de04a1461028e57600080fd5b80632f4eb640116100f45780632f4eb6401461019757806336568abe146101c257806350becb69146101d5578063572b6c05146101e857806375b238fc1461021457600080fd5b806301ffc9a7146101265780630abea8311461014e578063248a9ca3146101635780632f2ff15d14610184575b600080fd5b61013961013436600461123d565b610300565b60405190151581526020015b60405180910390f35b61016161015c36600461128a565b610337565b005b6101766101713660046112df565b61067c565b604051908152602001610145565b6101616101923660046112f8565b61069e565b6000546101aa906001600160a01b031681565b6040516001600160a01b039091168152602001610145565b6101616101d03660046112f8565b6106c0565b6101616101e3366004611324565b610708565b6101396101f6366004611324565b6001600160a01b031660009081526002602052604090205460ff1690565b61017660008051602061153b83398151915281565b610139610237366004611324565b60026020526000908152604090205460ff1681565b6101767f10dac8c06a04bec0b551627dad28bc00d6516b0caacd1c7b345fcdb5211334e481565b6101396102813660046112f8565b610798565b610176600081565b61016161029c36600461133f565b6107d0565b6101616102af366004611324565b610bde565b6101616102c23660046112f8565b610c70565b6001546101aa906001600160a01b031681565b6101616102e836600461139a565b610c8c565b6101616102fb3660046113d1565b610ce6565b60006001600160e01b03198216637965db0b60e01b148061033157506301ffc9a760e01b6001600160e01b03198316145b92915050565b61033f610f47565b6001600160a01b0385166103665760405163e6c4247b60e01b815260040160405180910390fd5b6001600160a01b03841661038d5760405163e6c4247b60e01b815260040160405180910390fd5b6001600160a01b0383166103b45760405163e6c4247b60e01b815260040160405180910390fd5b806000036103d557604051631f2a200560e01b815260040160405180910390fd5b8460006103e0610f91565b905060006103ee858561143b565b6040516370a0823160e01b81526001600160a01b03848116600483015291925082918516906370a0823190602401602060405180830381865afa158015610439573d6000803e3d6000fd5b505050506040513d601f19601f8201168201806040525081019061045d919061144e565b101561047c57604051631e9acf1760e31b815260040160405180910390fd5b6040516323b872dd60e01b81526001600160a01b038416906323b872dd906104ac9085908a908990600401611467565b6020604051808303816000875af11580156104cb573d6000803e3d6000fd5b505050506040513d601f19601f820116820180604052508101906104ef919061148b565b6105325760405162461bcd60e51b815260206004820152600f60248201526e151c985b9cd9995c8819985a5b1959608a1b60448201526064015b60405180910390fd5b84156105f1576040516323b872dd60e01b81526001600160a01b038416906323b872dd906105689085908b908a90600401611467565b6020604051808303816000875af1158015610587573d6000803e3d6000fd5b505050506040513d601f19601f820116820180604052508101906105ab919061148b565b6105f15760405162461bcd60e51b815260206004820152601760248201527611d85cc8199959481d1c985b9cd9995c8819985a5b1959604a1b6044820152606401610529565b604080516001600160a01b038a81168252602082018790529181018790528189169188811691908516907fa99f3e744ebfbcd89dc6df157ff3a9eee544ed65a42775585f85d5638e4d217e906060015b60405180910390a450505061067560017f9b779b17422d0df92223018b32b4d1fa46e071723d6817e2486d003becc55f0055565b5050505050565b600090815260008051602061151b833981519152602052604090206001015490565b6106a78261067c565b6106b081610fc6565b6106ba8383610fda565b50505050565b6106c8610f91565b6001600160a01b0316816001600160a01b0316146106f95760405163334bd91960e11b815260040160405180910390fd5b6107038282611080565b505050565b60008051602061153b83398151915261072081610fc6565b6001600160a01b0382166107475760405163e6c4247b60e01b815260040160405180910390fd5b600080546001600160a01b038481166001600160a01b0319831681178455604051919092169283917f336c734b6a61fee3f5b9c766d6deb81fac45bec7312b5b1fad25c891e1ab72929190a3505050565b600091825260008051602061151b833981519152602090815260408084206001600160a01b0393909316845291905290205460ff1690565b6107d8610f47565b6001600160a01b0385166107ff5760405163e6c4247b60e01b815260040160405180910390fd5b6001600160a01b0384166108265760405163e6c4247b60e01b815260040160405180910390fd5b8060000361084757604051631f2a200560e01b815260040160405180910390fd5b846000610852610f91565b9050600084610861878661143b565b61086b919061143b565b6040516370a0823160e01b81526001600160a01b03848116600483015291925082918516906370a0823190602401602060405180830381865afa1580156108b6573d6000803e3d6000fd5b505050506040513d601f19601f820116820180604052508101906108da919061144e565b10156108f957604051631e9acf1760e31b815260040160405180910390fd5b85156109e5576001546001600160a01b03166109285760405163e6c4247b60e01b815260040160405180910390fd5b6001546040516323b872dd60e01b81526001600160a01b03808616926323b872dd9261095c92879216908b90600401611467565b6020604051808303816000875af115801561097b573d6000803e3d6000fd5b505050506040513d601f19601f8201168201806040525081019061099f919061148b565b6109e55760405162461bcd60e51b815260206004820152601760248201527611d85cc8199959481d1c985b9cd9995c8819985a5b1959604a1b6044820152606401610529565b8415610ad7576000546001600160a01b0316610a145760405163e6c4247b60e01b815260040160405180910390fd5b6000546040516323b872dd60e01b81526001600160a01b03808616926323b872dd92610a4892879216908a90600401611467565b6020604051808303816000875af1158015610a67573d6000803e3d6000fd5b505050506040513d601f19601f82011682018060405250810190610a8b919061148b565b610ad75760405162461bcd60e51b815260206004820152601760248201527f54445320666565207472616e73666572206661696c65640000000000000000006044820152606401610529565b6040516323b872dd60e01b81526001600160a01b038416906323b872dd90610b079085908b908990600401611467565b6020604051808303816000875af1158015610b26573d6000803e3d6000fd5b505050506040513d601f19601f82011682018060405250810190610b4a919061148b565b610b885760405162461bcd60e51b815260206004820152600f60248201526e151c985b9cd9995c8819985a5b1959608a1b6044820152606401610529565b600154604080516001600160a01b038b811682526020820188905291810189905291811691898216918516907fa99f3e744ebfbcd89dc6df157ff3a9eee544ed65a42775585f85d5638e4d217e90606001610641565b60008051602061153b833981519152610bf681610fc6565b6001600160a01b038216610c1d5760405163e6c4247b60e01b815260040160405180910390fd5b600180546001600160a01b038481166001600160a01b0319831681179093556040519116919082907fe71cbed83df6c1e2d52ec0ea4973289d3dcbaeb069939d8a27ee3c22d59e188090600090a3505050565b610c798261067c565b610c8281610fc6565b6106ba8383611080565b6000610c9781610fc6565b6001600160a01b038316600081815260026020526040808220805460ff1916861515179055517fa4388ecc389b1390354ae0c65a856c0d7dd4fb648419f5d3ac0b99e38f46fd119190a2505050565b6000610cf061111a565b805490915060ff600160401b820416159067ffffffffffffffff16600081158015610d185750825b905060008267ffffffffffffffff166001148015610d355750303b155b905081158015610d43575080155b15610d615760405163f92ee8a960e01b815260040160405180910390fd5b845467ffffffffffffffff191660011785558315610d8b57845460ff60401b1916600160401b1785555b6001600160a01b038816610db25760405163e6c4247b60e01b815260040160405180910390fd5b6001600160a01b038916610dd95760405163e6c4247b60e01b815260040160405180910390fd5b6001600160a01b038716610e005760405163e6c4247b60e01b815260040160405180910390fd5b6001600160a01b038616610e275760405163e6c4247b60e01b815260040160405180910390fd5b610e2f611143565b610e37611155565b610e42600089610fda565b50610e5b60008051602061153b83398151915289610fda565b50610e867f10dac8c06a04bec0b551627dad28bc00d6516b0caacd1c7b345fcdb5211334e489610fda565b50600080546001600160a01b03808a166001600160a01b0319928316178355600180548a831693169290921782558b1680835260026020526040808420805460ff1916909317909255905190917fa4388ecc389b1390354ae0c65a856c0d7dd4fb648419f5d3ac0b99e38f46fd1191a28315610f3c57845460ff60401b19168555604051600181527fc7f505b2f371ae2175ee4913f4499e1f2633a7b5936321eed1cdaeb6115181d29060200160405180910390a15b505050505050505050565b7f9b779b17422d0df92223018b32b4d1fa46e071723d6817e2486d003becc55f00805460011901610f8b57604051633ee5aeb560e01b815260040160405180910390fd5b60029055565b6000610f9b61115d565b905090565b60017f9b779b17422d0df92223018b32b4d1fa46e071723d6817e2486d003becc55f0055565b610fd781610fd2610f91565b6111b9565b50565b600060008051602061151b833981519152610ff58484610798565b611076576000848152602082815260408083206001600160a01b03871684529091529020805460ff1916600117905561102c610f91565b6001600160a01b0316836001600160a01b0316857f2f8788117e7eff1d82e926ec794901d17c78024a50270940304540a733656f0d60405160405180910390a46001915050610331565b6000915050610331565b600060008051602061151b83398151915261109b8484610798565b15611076576000848152602082815260408083206001600160a01b03871684529091529020805460ff191690556110d0610f91565b6001600160a01b0316836001600160a01b0316857ff6391f5c32d9c69d2a47ea670b442974b53935d1edc7fd64eb21e047a839171b60405160405180910390a46001915050610331565b6000807ff0c57e16840df040f15088dc2f81fe391c3923bec73e23a9662efc9c229c6a00610331565b61114b6111f6565b61115361121b565b565b6111536111f6565b33600090815260026020526040812054369060149060ff1680156111815750808210155b156111b15760003661119383856114a8565b61119e9282906114bb565b6111a7916114e5565b60601c9250505090565b339250505090565b6111c38282610798565b6111f25760405163e2517d3f60e01b81526001600160a01b038216600482015260248101839052604401610529565b5050565b6111fe611223565b61115357604051631afcd79f60e31b815260040160405180910390fd5b610fa06111f6565b600061122d61111a565b54600160401b900460ff16919050565b60006020828403121561124f57600080fd5b81356001600160e01b03198116811461126757600080fd5b9392505050565b80356001600160a01b038116811461128557600080fd5b919050565b600080600080600060a086880312156112a257600080fd5b6112ab8661126e565b94506112b96020870161126e565b93506112c76040870161126e565b94979396509394606081013594506080013592915050565b6000602082840312156112f157600080fd5b5035919050565b6000806040838503121561130b57600080fd5b8235915061131b6020840161126e565b90509250929050565b60006020828403121561133657600080fd5b6112678261126e565b600080600080600060a0868803121561135757600080fd5b6113608661126e565b945061136e6020870161126e565b94979496505050506040830135926060810135926080909101359150565b8015158114610fd757600080fd5b600080604083850312156113ad57600080fd5b6113b68361126e565b915060208301356113c68161138c565b809150509250929050565b600080600080608085870312156113e757600080fd5b6113f08561126e565b93506113fe6020860161126e565b925061140c6040860161126e565b915061141a6060860161126e565b905092959194509250565b634e487b7160e01b600052601160045260246000fd5b8082018082111561033157610331611425565b60006020828403121561146057600080fd5b5051919050565b6001600160a01b039384168152919092166020820152604081019190915260600190565b60006020828403121561149d57600080fd5b81516112678161138c565b8181038181111561033157610331611425565b600080858511156114cb57600080fd5b838611156114d857600080fd5b5050820193919092039150565b6bffffffffffffffffffffffff1981358181169160148510156115125780818660140360031b1b83161692505b50509291505056fe02dd7bc7dec4dceedda775e58dd541e08a116c6c53815c0bd028192f7b626800a49807205ce4d355092ef5a8a18f56e8913cf4a201fbe287825b095693c21775a2646970667358221220b8c249e47a268f337fcbaf4df94f62169c08df4b7c504bf394f3d305a8d5eb3964736f6c63430008160033",
  "devdoc": {
    "errors": {
      "AccessControlBadConfirmation()": [
        {
          "details": "The caller of a function is not the expected one. NOTE: Don't confuse with {AccessControlUnauthorizedAccount}."
        }
      ],
      "AccessControlUnauthorizedAccount(address,bytes32)": [
        {
          "details": "The `account` is missing a role."
        }
      ],
      "InvalidInitialization()": [
        {
          "details": "The contract is already initialized."
        }
      ],
      "NotInitializing()": [
        {
          "details": "The contract is not initializing."
        }
      ],
      "ReentrancyGuardReentrantCall()": [
        {
          "details": "Unauthorized reentrant call."
        }
      ]
    },
    "events": {
      "Initialized(uint64)": {
        "details": "Triggered when the contract has been initialized or reinitialized."
      },
      "RoleAdminChanged(bytes32,bytes32,bytes32)": {
        "details": "Emitted when `newAdminRole` is set as ``role``'s admin role, replacing `previousAdminRole` `DEFAULT_ADMIN_ROLE` is the starting admin for all roles, despite {RoleAdminChanged} not being emitted to signal this."
      },
      "RoleGranted(bytes32,address,address)": {
        "details": "Emitted when `account` is granted `role`. `sender` is the account that originated the contract call. This account bears the admin role (for the granted role). Expected in cases where the role was granted using the internal {AccessControl-_grantRole}."
      },
      "RoleRevoked(bytes32,address,address)": {
        "details": "Emitted when `account` is revoked `role`. `sender` is the account that originated the contract call:   - if using `revokeRole`, it is the admin role bearer   - if using `renounceRole`, it is the role bearer (i.e. `account`)"
      }
    },
    "kind": "dev",
    "methods": {
      "getRoleAdmin(bytes32)": {
        "details": "Returns the admin role that controls `role`. See {grantRole} and {revokeRole}. To change a role's admin, use {_setRoleAdmin}."
      },
      "grantRole(bytes32,address)": {
        "details": "Grants `role` to `account`. If `account` had not been already granted `role`, emits a {RoleGranted} event. Requirements: - the caller must have ``role``'s admin role. May emit a {RoleGranted} event."
      },
      "hasRole(bytes32,address)": {
        "details": "Returns `true` if `account` has been granted `role`."
      },
      "initialize(address,address,address,address)": {
        "params": {
          "_trustedForwarder": "ERC-2771 trusted forwarder",
          "admin": "Address to be granted admin roles"
        }
      },
      "renounceRole(bytes32,address)": {
        "details": "Revokes `role` from the calling account. Roles are often managed via {grantRole} and {revokeRole}: this function's purpose is to provide a mechanism for accounts to lose their privileges if they are compromised (such as when a trusted device is misplaced). If the calling account had been revoked `role`, emits a {RoleRevoked} event. Requirements: - the caller must be `callerConfirmation`. May emit a {RoleRevoked} event."
      },
      "revokeRole(bytes32,address)": {
        "details": "Revokes `role` from `account`. If `account` had been granted `role`, emits a {RoleRevoked} event. Requirements: - the caller must have ``role``'s admin role. May emit a {RoleRevoked} event."
      },
      "supportsInterface(bytes4)": {
        "details": "Returns true if this contract implements the interface defined by `interfaceId`. See the corresponding https://eips.ethereum.org/EIPS/eip-165#how-interfaces-are-identified[ERC section] to learn more about how these ids are created. This function call must use less than 30 000 gas."
      },
      "transferKgenToken(address,address,address,uint256,uint256)": {
        "details": "Transfer KGEN (or any ERC20) with a gas/treasury fee deduction.      The caller must have approved this contract to spend `amount + gasFee`."
      }
    },
    "version": 1
  },
  "userdoc": {
    "kind": "user",
    "methods": {
      "initialize(address,address,address,address)": {
        "notice": "Initialize the proxy (instead of a constructor)"
      }
    },
    "version": 1
  },
  "storageLayout": {
    "storage": [
      {
        "astId": 1172,
        "contract": "contracts/KgenTokenWrapper.sol:KgenTokenWrapper",
        "label": "KGEN_TDS_FEE_TREASURY_ADDRESS",
        "offset": 0,
        "slot": "0",
        "type": "t_address"
      },
      {
        "astId": 1174,
        "contract": "contracts/KgenTokenWrapper.sol:KgenTokenWrapper",
        "label": "KGEN_GAS_FEE_TREASURY_ADDRESS",
        "offset": 0,
        "slot": "1",
        "type": "t_address"
      },
      {
        "astId": 1705,
        "contract": "contracts/KgenTokenWrapper.sol:KgenTokenWrapper",
        "label": "trustedForwarder",
        "offset": 0,
        "slot": "2",
        "type": "t_mapping(t_address,t_bool)"
      },
      {
        "astId": 1709,
        "contract": "contracts/KgenTokenWrapper.sol:KgenTokenWrapper",
        "label": "__gap",
        "offset": 0,
        "slot": "3",
        "type": "t_array(t_uint256)50_storage"
      }
    ],
    "types": {
      "t_address": {
        "encoding": "inplace",
        "label": "address",
        "numberOfBytes": "20"
      },
      "t_array(t_uint256)50_storage": {
        "base": "t_uint256",
        "encoding": "inplace",
        "label": "uint256[50]",
        "numberOfBytes": "1600"
      },
      "t_bool": {
        "encoding": "inplace",
        "label": "bool",
        "numberOfBytes": "1"
      },
      "t_mapping(t_address,t_bool)": {
        "encoding": "mapping",
        "key": "t_address",
        "label": "mapping(address => bool)",
        "numberOfBytes": "32",
        "value": "t_bool"
      },
      "t_uint256": {
        "encoding": "inplace",
        "label": "uint256",
        "numberOfBytes": "32"
      }
    }
  }
}