{
  "_format": "hh-sol-artifact-1",
  "contractName": "RKGENAirdrop",
  "sourceName": "contracts/rkgen_airdrop.sol",
  "abi": [
    {
      "inputs": [],
      "name": "AccessControlBadConfirmation",
      "type": "error"
    },
    {
      "inputs": [
        {
          "internalType": "address",
          "name": "account",
          "type": "address"
        },
        {
          "internalType": "bytes32",
          "name": "neededRole",
          "type": "bytes32"
        }
      ],
      "name": "AccessControlUnauthorizedAccount",
      "type": "error"
    },
    {
      "inputs": [],
      "name": "AlreadyExists",
      "type": "error"
    },
    {
      "inputs": [],
      "name": "ECDSAInvalidSignature",
      "type": "error"
    },
    {
      "inputs": [
        {
          "internalType": "uint256",
          "name": "length",
          "type": "uint256"
        }
      ],
      "name": "ECDSAInvalidSignatureLength",
      "type": "error"
    },
    {
      "inputs": [
        {
          "internalType": "bytes32",
          "name": "s",
          "type": "bytes32"
        }
      ],
      "name": "ECDSAInvalidSignatureS",
      "type": "error"
    },
    {
      "inputs": [],
      "name": "InvalidAdmin",
      "type": "error"
    },
    {
      "inputs": [],
      "name": "InvalidInitialization",
      "type": "error"
    },
    {
      "inputs": [],
      "name": "InvalidNonce",
      "type": "error"
    },
    {
      "inputs": [],
      "name": "InvalidSignature",
      "type": "error"
    },
    {
      "inputs": [],
      "name": "InvalidSigner",
      "type": "error"
    },
    {
      "inputs": [],
      "name": "NoNominatedAdmin",
      "type": "error"
    },
    {
      "inputs": [],
      "name": "NotAdmin",
      "type": "error"
    },
    {
      "inputs": [],
      "name": "NotInitializing",
      "type": "error"
    },
    {
      "inputs": [],
      "name": "ReentrancyGuardReentrantCall",
      "type": "error"
    },
    {
      "anonymous": false,
      "inputs": [
        {
          "indexed": true,
          "internalType": "address",
          "name": "nominatedAdmin",
          "type": "address"
        }
      ],
      "name": "AdminNominated",
      "type": "event"
    },
    {
      "anonymous": false,
      "inputs": [
        {
          "indexed": true,
          "internalType": "address",
          "name": "newAdmin",
          "type": "address"
        }
      ],
      "name": "AdminUpdated",
      "type": "event"
    },
    {
      "anonymous": false,
      "inputs": [
        {
          "indexed": true,
          "internalType": "address",
          "name": "user",
          "type": "address"
        },
        {
          "indexed": true,
          "internalType": "address",
          "name": "token",
          "type": "address"
        },
        {
          "indexed": false,
          "internalType": "uint256",
          "name": "amount",
          "type": "uint256"
        },
        {
          "indexed": false,
          "internalType": "uint256",
          "name": "nonce",
          "type": "uint256"
        }
      ],
      "name": "Claimed",
      "type": "event"
    },
    {
      "anonymous": false,
      "inputs": [],
      "name": "EIP712DomainChanged",
      "type": "event"
    },
    {
      "anonymous": false,
      "inputs": [
        {
          "indexed": false,
          "internalType": "uint64",
          "name": "version",
          "type": "uint64"
        }
      ],
      "name": "Initialized",
      "type": "event"
    },
    {
      "anonymous": false,
      "inputs": [
        {
          "indexed": true,
          "internalType": "bytes32",
          "name": "role",
          "type": "bytes32"
        },
        {
          "indexed": true,
          "internalType": "bytes32",
          "name": "previousAdminRole",
          "type": "bytes32"
        },
        {
          "indexed": true,
          "internalType": "bytes32",
          "name": "newAdminRole",
          "type": "bytes32"
        }
      ],
      "name": "RoleAdminChanged",
      "type": "event"
    },
    {
      "anonymous": false,
      "inputs": [
        {
          "indexed": true,
          "internalType": "bytes32",
          "name": "role",
          "type": "bytes32"
        },
        {
          "indexed": true,
          "internalType": "address",
          "name": "account",
          "type": "address"
        },
        {
          "indexed": true,
          "internalType": "address",
          "name": "sender",
          "type": "address"
        }
      ],
      "name": "RoleGranted",
      "type": "event"
    },
    {
      "anonymous": false,
      "inputs": [
        {
          "indexed": true,
          "internalType": "bytes32",
          "name": "role",
          "type": "bytes32"
        },
        {
          "indexed": true,
          "internalType": "address",
          "name": "account",
          "type": "address"
        },
        {
          "indexed": true,
          "internalType": "address",
          "name": "sender",
          "type": "address"
        }
      ],
      "name": "RoleRevoked",
      "type": "event"
    },
    {
      "anonymous": false,
      "inputs": [
        {
          "indexed": false,
          "internalType": "bytes",
          "name": "signature",
          "type": "bytes"
        },
        {
          "indexed": false,
          "internalType": "bool",
          "name": "result",
          "type": "bool"
        }
      ],
      "name": "SignatureVerified",
      "type": "event"
    },
    {
      "anonymous": false,
      "inputs": [
        {
          "indexed": true,
          "internalType": "address",
          "name": "newSigner",
          "type": "address"
        }
      ],
      "name": "SignerUpdated",
      "type": "event"
    },
    {
      "anonymous": false,
      "inputs": [
        {
          "indexed": true,
          "internalType": "address",
          "name": "admin",
          "type": "address"
        },
        {
          "indexed": true,
          "internalType": "address",
          "name": "token",
          "type": "address"
        },
        {
          "indexed": false,
          "internalType": "uint256",
          "name": "amount",
          "type": "uint256"
        }
      ],
      "name": "TokensWithdrawn",
      "type": "event"
    },
    {
      "inputs": [],
      "name": "ADMIN_ROLE",
      "outputs": [
        {
          "internalType": "bytes32",
          "name": "",
          "type": "bytes32"
        }
      ],
      "stateMutability": "view",
      "type": "function"
    },
    {
      "inputs": [],
      "name": "CLAIM_TYPEHASH",
      "outputs": [
        {
          "internalType": "bytes32",
          "name": "",
          "type": "bytes32"
        }
      ],
      "stateMutability": "view",
      "type": "function"
    },
    {
      "inputs": [],
      "name": "DEFAULT_ADMIN_ROLE",
      "outputs": [
        {
          "internalType": "bytes32",
          "name": "",
          "type": "bytes32"
        }
      ],
      "stateMutability": "view",
      "type": "function"
    },
    {
      "inputs": [
        {
          "internalType": "address",
          "name": "user",
          "type": "address"
        },
        {
          "internalType": "address",
          "name": "token",
          "type": "address"
        },
        {
          "internalType": "uint256",
          "name": "amount",
          "type": "uint256"
        },
        {
          "internalType": "uint256",
          "name": "nonce",
          "type": "uint256"
        },
        {
          "internalType": "uint256",
          "name": "_chainId",
          "type": "uint256"
        }
      ],
      "name": "_hashClaim",
      "outputs": [
        {
          "internalType": "bytes32",
          "name": "",
          "type": "bytes32"
        }
      ],
      "stateMutability": "view",
      "type": "function"
    },
    {
      "inputs": [
        {
          "internalType": "address",
          "name": "user",
          "type": "address"
        },
        {
          "internalType": "address",
          "name": "token",
          "type": "address"
        },
        {
          "internalType": "uint256",
          "name": "amount",
          "type": "uint256"
        },
        {
          "internalType": "uint256",
          "name": "nonce",
          "type": "uint256"
        },
        {
          "internalType": "uint256",
          "name": "_chainId",
          "type": "uint256"
        },
        {
          "internalType": "bytes",
          "name": "signature",
          "type": "bytes"
        }
      ],
      "name": "_verifyClaimSignature",
      "outputs": [
        {
          "internalType": "bool",
          "name": "",
          "type": "bool"
        }
      ],
      "stateMutability": "view",
      "type": "function"
    },
    {
      "inputs": [],
      "name": "acceptAdminRole",
      "outputs": [],
      "stateMutability": "nonpayable",
      "type": "function"
    },
    {
      "inputs": [],
      "name": "chainId",
      "outputs": [
        {
          "internalType": "uint256",
          "name": "",
          "type": "uint256"
        }
      ],
      "stateMutability": "view",
      "type": "function"
    },
    {
      "inputs": [
        {
          "internalType": "address",
          "name": "user",
          "type": "address"
        },
        {
          "internalType": "address",
          "name": "token",
          "type": "address"
        },
        {
          "internalType": "uint256",
          "name": "amount",
          "type": "uint256"
        },
        {
          "internalType": "uint256",
          "name": "nonce",
          "type": "uint256"
        },
        {
          "internalType": "bytes",
          "name": "signature",
          "type": "bytes"
        }
      ],
      "name": "claim",
      "outputs": [],
      "stateMutability": "nonpayable",
      "type": "function"
    },
    {
      "inputs": [],
      "name": "eip712Domain",
      "outputs": [
        {
          "internalType": "bytes1",
          "name": "fields",
          "type": "bytes1"
        },
        {
          "internalType": "string",
          "name": "name",
          "type": "string"
        },
        {
          "internalType": "string",
          "name": "version",
          "type": "string"
        },
        {
          "internalType": "uint256",
          "name": "chainId",
          "type": "uint256"
        },
        {
          "internalType": "address",
          "name": "verifyingContract",
          "type": "address"
        },
        {
          "internalType": "bytes32",
          "name": "salt",
          "type": "bytes32"
        },
        {
          "internalType": "uint256[]",
          "name": "extensions",
          "type": "uint256[]"
        }
      ],
      "stateMutability": "view",
      "type": "function"
    },
    {
      "inputs": [],
      "name": "getDomainSeparator",
      "outputs": [
        {
          "internalType": "bytes32",
          "name": "",
          "type": "bytes32"
        }
      ],
      "stateMutability": "view",
      "type": "function"
    },
    {
      "inputs": [],
      "name": "getNominatedAdmin",
      "outputs": [
        {
          "internalType": "address",
          "name": "",
          "type": "address"
        }
      ],
      "stateMutability": "view",
      "type": "function"
    },
    {
      "inputs": [
        {
          "internalType": "address",
          "name": "user",
          "type": "address"
        },
        {
          "internalType": "address",
          "name": "token",
          "type": "address"
        }
      ],
      "name": "getNonce",
      "outputs": [
        {
          "internalType": "uint256",
          "name": "",
          "type": "uint256"
        }
      ],
      "stateMutability": "view",
      "type": "function"
    },
    {
      "inputs": [],
      "name": "getRewardSigner",
      "outputs": [
        {
          "internalType": "address",
          "name": "",
          "type": "address"
        }
      ],
      "stateMutability": "view",
      "type": "function"
    },
    {
      "inputs": [
        {
          "internalType": "bytes32",
          "name": "role",
          "type": "bytes32"
        }
      ],
      "name": "getRoleAdmin",
      "outputs": [
        {
          "internalType": "bytes32",
          "name": "",
          "type": "bytes32"
        }
      ],
      "stateMutability": "view",
      "type": "function"
    },
    {
      "inputs": [
        {
          "internalType": "bytes32",
          "name": "role",
          "type": "bytes32"
        },
        {
          "internalType": "address",
          "name": "account",
          "type": "address"
        }
      ],
      "name": "grantRole",
      "outputs": [],
      "stateMutability": "nonpayable",
      "type": "function"
    },
    {
      "inputs": [
        {
          "internalType": "bytes32",
          "name": "role",
          "type": "bytes32"
        },
        {
          "internalType": "address",
          "name": "account",
          "type": "address"
        }
      ],
      "name": "hasRole",
      "outputs": [
        {
          "internalType": "bool",
          "name": "",
          "type": "bool"
        }
      ],
      "stateMutability": "view",
      "type": "function"
    },
    {
      "inputs": [
        {
          "internalType": "address",
          "name": "admin",
          "type": "address"
        },
        {
          "internalType": "address",
          "name": "signer",
          "type": "address"
        },
        {
          "internalType": "uint256",
          "name": "_chainId",
          "type": "uint256"
        }
      ],
      "name": "initialize",
      "outputs": [],
      "stateMutability": "nonpayable",
      "type": "function"
    },
    {
      "inputs": [
        {
          "internalType": "address",
          "name": "forwarder",
          "type": "address"
        }
      ],
      "name": "isTrustedForwarder",
      "outputs": [
        {
          "internalType": "bool",
          "name": "",
          "type": "bool"
        }
      ],
      "stateMutability": "view",
      "type": "function"
    },
    {
      "inputs": [
        {
          "internalType": "address",
          "name": "newAdmin",
          "type": "address"
        }
      ],
      "name": "nominateAdmin",
      "outputs": [],
      "stateMutability": "nonpayable",
      "type": "function"
    },
    {
      "inputs": [],
      "name": "nominatedAdmin",
      "outputs": [
        {
          "internalType": "address",
          "name": "",
          "type": "address"
        }
      ],
      "stateMutability": "view",
      "type": "function"
    },
    {
      "inputs": [
        {
          "internalType": "address",
          "name": "",
          "type": "address"
        },
        {
          "internalType": "address",
          "name": "",
          "type": "address"
        }
      ],
      "name": "nonces",
      "outputs": [
        {
          "internalType": "uint256",
          "name": "",
          "type": "uint256"
        }
      ],
      "stateMutability": "view",
      "type": "function"
    },
    {
      "inputs": [
        {
          "internalType": "bytes32",
          "name": "role",
          "type": "bytes32"
        },
        {
          "internalType": "address",
          "name": "callerConfirmation",
          "type": "address"
        }
      ],
      "name": "renounceRole",
      "outputs": [],
      "stateMutability": "nonpayable",
      "type": "function"
    },
    {
      "inputs": [
        {
          "internalType": "bytes32",
          "name": "role",
          "type": "bytes32"
        },
        {
          "internalType": "address",
          "name": "account",
          "type": "address"
        }
      ],
      "name": "revokeRole",
      "outputs": [],
      "stateMutability": "nonpayable",
      "type": "function"
    },
    {
      "inputs": [],
      "name": "rewardSigner",
      "outputs": [
        {
          "internalType": "address",
          "name": "",
          "type": "address"
        }
      ],
      "stateMutability": "view",
      "type": "function"
    },
    {
      "inputs": [
        {
          "internalType": "address",
          "name": "_trustedForwarder",
          "type": "address"
        },
        {
          "internalType": "bool",
          "name": "_isTrusted",
          "type": "bool"
        }
      ],
      "name": "setTrustedForwarder",
      "outputs": [],
      "stateMutability": "nonpayable",
      "type": "function"
    },
    {
      "inputs": [
        {
          "internalType": "bytes4",
          "name": "interfaceId",
          "type": "bytes4"
        }
      ],
      "name": "supportsInterface",
      "outputs": [
        {
          "internalType": "bool",
          "name": "",
          "type": "bool"
        }
      ],
      "stateMutability": "view",
      "type": "function"
    },
    {
      "inputs": [
        {
          "internalType": "address",
          "name": "",
          "type": "address"
        }
      ],
      "name": "trustedForwarder",
      "outputs": [
        {
          "internalType": "bool",
          "name": "",
          "type": "bool"
        }
      ],
      "stateMutability": "view",
      "type": "function"
    },
    {
      "inputs": [
        {
          "internalType": "address",
          "name": "newSigner",
          "type": "address"
        }
      ],
      "name": "updateSigner",
      "outputs": [],
      "stateMutability": "nonpayable",
      "type": "function"
    },
    {
      "inputs": [
        {
          "internalType": "address",
          "name": "token",
          "type": "address"
        },
        {
          "internalType": "uint256",
          "name": "amount",
          "type": "uint256"
        }
      ],
      "name": "withdrawTokens",
      "outputs": [],
      "stateMutability": "nonpayable",
      "type": "function"
    }
  ],
  "bytecode": "0x608060405234801561001057600080fd5b50611db4806100206000396000f3fe608060405234801561001057600080fd5b50600436106101cf5760003560e01c806384b0196e11610104578063b58ad07f116100a2578063d828435d11610071578063d828435d14610427578063e691d03b14610460578063e8ac653314610473578063ed24911d1461048657600080fd5b8063b58ad07f146103dd578063ccaf2ab3146103ee578063cd5ad4c514610401578063d547741f1461041457600080fd5b80639333fbda116100de5780639333fbda1461038e5780639a8a0592146103b9578063a217fddf146103c2578063a7ecd37e146103ca57600080fd5b806384b0196e146103585780638c3d73011461037357806391d148541461037b57600080fd5b806336568abe11610171578063572b6c051161014b578063572b6c05146102cd5780636b0509b1146102f957806375b238fc1461032057806376b880241461033557600080fd5b806336568abe146102965780633f1b51c2146102a957806344205899146102bc57600080fd5b80631794bb3c116101ad5780631794bb3c14610224578063248a9ca3146102375780632f2ff15d14610258578063323f24ab1461026b57600080fd5b806301ffc9a7146101d457806306b091f9146101fc57806308c7750e14610211575b600080fd5b6101e76101e23660046116a5565b61048e565b60405190151581526020015b60405180910390f35b61020f61020a3660046116f2565b6104c5565b005b61020f61021f366004611765565b610594565b61020f6102323660046117dd565b610788565b61024a610245366004611819565b610919565b6040519081526020016101f3565b61020f610266366004611832565b61093b565b60005461027e906001600160a01b031681565b6040516001600160a01b0390911681526020016101f3565b61020f6102a4366004611832565b61095d565b61024a6102b736600461185e565b6109a5565b6000546001600160a01b031661027e565b6101e76102db3660046118ab565b6001600160a01b031660009081526004602052604090205460ff1690565b61024a7f677102a0f8367f9e5ef52d68ff4941ef8fb7daa93e48f21aad714337fbb9c49981565b61024a600080516020611d5f83398151915281565b6101e76103433660046118ab565b60046020526000908152604090205460ff1681565b610360610a2d565b6040516101f3979695949392919061190c565b61020f610ade565b6101e7610389366004611832565b610b94565b61024a61039c3660046119a5565b600360209081526000928352604080842090915290825290205481565b61024a60015481565b61024a600081565b61020f6103d83660046118ab565b610bcc565b6002546001600160a01b031661027e565b6101e76103fc3660046119cf565b610c82565b61020f61040f3660046118ab565b610d63565b61020f610422366004611832565b610e16565b61024a6104353660046119a5565b6001600160a01b03918216600090815260036020908152604080832093909416825291909152205490565b61020f61046e366004611a5f565b610e32565b60025461027e906001600160a01b031681565b61024a610e69565b60006001600160e01b03198216637965db0b60e01b14806104bf57506301ffc9a760e01b6001600160e01b03198316145b92915050565b600080516020611d5f8339815191526104dd81610e78565b60405163a9059cbb60e01b8152336004820152602481018390526001600160a01b0384169063a9059cbb906044016020604051808303816000875af115801561052a573d6000803e3d6000fd5b505050506040513d601f19601f8201168201806040525081019061054e9190611a96565b506040518281526001600160a01b0384169033907f6337ed398c0e8467698c581374fdce4db14922df487b5a39483079f5f59b60a49060200160405180910390a3505050565b61059c610e8c565b6001600160a01b0380871660009081526003602090815260408083209389168352929052205483146105e157604051633ab3447f60e11b815260040160405180910390fd5b60006105f4878787876001548888610c82565b90507f913cfe5a6bb4486c7cca917d162d4d03f1b72efe6d62d10003d8dcebfe5db92c83838360405161062993929190611ab3565b60405180910390a18061064f57604051638baa579f60e01b815260040160405180910390fd5b6001600160a01b038088166000908152600360209081526040808320938a168352929052908120805460019290610687908490611b01565b909155505060405163a9059cbb60e01b81526001600160a01b0388811660048301526024820187905287169063a9059cbb906044016020604051808303816000875af11580156106db573d6000803e3d6000fd5b505050506040513d601f19601f820116820180604052508101906106ff9190611a96565b50856001600160a01b0316876001600160a01b03167f2f6639d24651730c7bf57c95ddbf96d66d11477e4ec626876f92c22e5f365e68878760405161074e929190918252602082015260400190565b60405180910390a35061078060017f9b779b17422d0df92223018b32b4d1fa46e071723d6817e2486d003becc55f0055565b505050505050565b6000610792610efc565b805490915060ff600160401b820416159067ffffffffffffffff166000811580156107ba5750825b905060008267ffffffffffffffff1660011480156107d75750303b155b9050811580156107e5575080155b156108035760405163f92ee8a960e01b815260040160405180910390fd5b845467ffffffffffffffff19166001178555831561082d57845460ff60401b1916600160401b1785555b610835610f25565b610840600089610f2f565b50610859600080516020611d5f83398151915289610f2f565b50610862610fd5565b600080546001600160a01b0319166001600160a01b0389161790556001868155604080518082018252600c81526b0524b47454e41697264726f760a41b6020808301919091528251808401909352928252603160f81b928201929092526108c99190610fe5565b831561090f57845460ff60401b19168555604051600181527fc7f505b2f371ae2175ee4913f4499e1f2633a7b5936321eed1cdaeb6115181d29060200160405180910390a15b5050505050505050565b6000908152600080516020611d3f833981519152602052604090206001015490565b61094482610919565b61094d81610e78565b6109578383610f2f565b50505050565b610965610ffb565b6001600160a01b0316816001600160a01b0316146109965760405163334bd91960e11b815260040160405180910390fd5b6109a08282611005565b505050565b604080517f677102a0f8367f9e5ef52d68ff4941ef8fb7daa93e48f21aad714337fbb9c49960208201526001600160a01b038088169282019290925290851660608201526080810184905260a0810183905260c08101829052600090610a239060e0016040516020818303038152906040528051906020012061109f565b9695505050505050565b60006060808280808381600080516020611d1f8339815191528054909150158015610a5a57506001810154155b610aa35760405162461bcd60e51b81526020600482015260156024820152741152540dcc4c8e88155b9a5b9a5d1a585b1a5e9959605a1b60448201526064015b60405180910390fd5b610aab6110cc565b610ab361118f565b60408051600080825260208201909252600f60f81b9c939b5091995046985030975095509350915050565b6002546001600160a01b0316610b0757604051632091660760e21b815260040160405180910390fd5b6002546001600160a01b03163314610b3257604051630b5eba9f60e41b815260040160405180910390fd5b610b3d600033610f2f565b50610b56600080516020611d5f83398151915233610f2f565b50600280546001600160a01b031916905560405133907f54e4612788f90384e6843298d7854436f3a585b2c3831ab66abf1de63bfa6c2d90600090a2565b6000918252600080516020611d3f833981519152602090815260408084206001600160a01b0393909316845291905290205460ff1690565b600080516020611d5f833981519152610be481610e78565b6001600160a01b038216610c0b57604051632057875960e21b815260040160405180910390fd5b6000546001600160a01b03808416911603610c395760405163119b4fd360e11b815260040160405180910390fd5b600080546001600160a01b0319166001600160a01b038416908117825560405190917f5553331329228fbd4123164423717a4a7539f6dfa1c3279a923b98fd681a6c7391a25050565b600080610c9289898989896109a5565b90506000610cd68286868080601f0160208091040260200160405190810160405280939291908181526020018383808284376000920191909152506111ce92505050565b9050610d076040518060400160405280600d81526020016c5265636f76657265643a20257360981b815250826111f8565b604080518082019091526011815270526577617264207369676e65723a20257360781b6020820152600054610d4591906001600160a01b03166111f8565b6000546001600160a01b039081169116149998505050505050505050565b600080516020611d5f833981519152610d7b81610e78565b6001600160a01b038216610da257604051630b5eba9f60e41b815260040160405180910390fd5b336001600160a01b03831603610dcb5760405163119b4fd360e11b815260040160405180910390fd5b600280546001600160a01b0319166001600160a01b0384169081179091556040517f0cc480c920b59003be60d60bb7b685b220d313037231045fbea988d33938d86790600090a25050565b610e1f82610919565b610e2881610e78565b6109578383611005565b6000610e3d81610e78565b506001600160a01b03919091166000908152600460205260409020805460ff1916911515919091179055565b6000610e7361123d565b905090565b610e8981610e84610ffb565b611247565b50565b7f9b779b17422d0df92223018b32b4d1fa46e071723d6817e2486d003becc55f00805460011901610ed057604051633ee5aeb560e01b815260040160405180910390fd5b60029055565b60017f9b779b17422d0df92223018b32b4d1fa46e071723d6817e2486d003becc55f0055565b6000807ff0c57e16840df040f15088dc2f81fe391c3923bec73e23a9662efc9c229c6a006104bf565b610f2d611280565b565b6000600080516020611d3f833981519152610f4a8484610b94565b610fcb576000848152602082815260408083206001600160a01b03871684529091529020805460ff19166001179055610f81610ffb565b6001600160a01b0316836001600160a01b0316857f2f8788117e7eff1d82e926ec794901d17c78024a50270940304540a733656f0d60405160405180910390a460019150506104bf565b60009150506104bf565b610fdd611280565b610f2d6112a5565b610fed611280565b610ff782826112ad565b5050565b6000610e7361130e565b6000600080516020611d3f8339815191526110208484610b94565b15610fcb576000848152602082815260408083206001600160a01b03871684529091529020805460ff19169055611055610ffb565b6001600160a01b0316836001600160a01b0316857ff6391f5c32d9c69d2a47ea670b442974b53935d1edc7fd64eb21e047a839171b60405160405180910390a460019150506104bf565b60006104bf6110ac61123d565b8360405161190160f01b8152600281019290925260228201526042902090565b7fa16a46d94261c7517cc8ff89f61c0ce93598e3c849801011dee649a6a557d1028054606091600080516020611d1f8339815191529161110b90611b2a565b80601f016020809104026020016040519081016040528092919081815260200182805461113790611b2a565b80156111845780601f1061115957610100808354040283529160200191611184565b820191906000526020600020905b81548152906001019060200180831161116757829003601f168201915b505050505091505090565b7fa16a46d94261c7517cc8ff89f61c0ce93598e3c849801011dee649a6a557d1038054606091600080516020611d1f8339815191529161110b90611b2a565b6000806000806111de868661136a565b9250925092506111ee82826113b7565b5090949350505050565b610ff7828260405160240161120e929190611b64565b60408051601f198184030181529190526020810180516001600160e01b031663319af33360e01b179052611470565b6000610e73611479565b6112518282610b94565b610ff75760405163e2517d3f60e01b81526001600160a01b038216600482015260248101839052604401610a9a565b6112886114ed565b610f2d57604051631afcd79f60e31b815260040160405180910390fd5b610ed6611280565b6112b5611280565b600080516020611d1f8339815191527fa16a46d94261c7517cc8ff89f61c0ce93598e3c849801011dee649a6a557d1026112ef8482611bd6565b50600381016112fe8382611bd6565b5060008082556001909101555050565b33600090815260046020526040812054369060149060ff1680156113325750808210155b15611362576000366113448385611c96565b61134f928290611ca9565b61135891611cd3565b60601c9250505090565b339250505090565b600080600083516041036113a45760208401516040850151606086015160001a61139688828585611507565b9550955095505050506113b0565b50508151600091506002905b9250925092565b60008260038111156113cb576113cb611d08565b036113d4575050565b60018260038111156113e8576113e8611d08565b036114065760405163f645eedf60e01b815260040160405180910390fd5b600282600381111561141a5761141a611d08565b0361143b5760405163fce698f760e01b815260048101829052602401610a9a565b600382600381111561144f5761144f611d08565b03610ff7576040516335e2f38360e21b815260048101829052602401610a9a565b610e89816115d6565b60007f8b73c3c69bb8fe3d512ecc4cf759cc79239f7b179b0ffacaa9a75d522b39400f6114a46115f7565b6114ac611661565b60408051602081019490945283019190915260608201524660808201523060a082015260c00160405160208183030381529060405280519060200120905090565b60006114f7610efc565b54600160401b900460ff16919050565b600080807f7fffffffffffffffffffffffffffffff5d576e7357a4501ddfe92f46681b20a084111561154257506000915060039050826115cc565b604080516000808252602082018084528a905260ff891692820192909252606081018790526080810186905260019060a0016020604051602081039080840390855afa158015611596573d6000803e3d6000fd5b5050604051601f1901519150506001600160a01b0381166115c2575060009250600191508290506115cc565b9250600091508190505b9450945094915050565b60006a636f6e736f6c652e6c6f679050600080835160208501845afa505050565b6000600080516020611d1f833981519152816116116110cc565b80519091501561162957805160209091012092915050565b81548015611638579392505050565b7fc5d2460186f7233c927e7db2dcc703c0e500b653ca82273b7bfad8045d85a470935050505090565b6000600080516020611d1f8339815191528161167b61118f565b80519091501561169357805160209091012092915050565b60018201548015611638579392505050565b6000602082840312156116b757600080fd5b81356001600160e01b0319811681146116cf57600080fd5b9392505050565b80356001600160a01b03811681146116ed57600080fd5b919050565b6000806040838503121561170557600080fd5b61170e836116d6565b946020939093013593505050565b60008083601f84011261172e57600080fd5b50813567ffffffffffffffff81111561174657600080fd5b60208301915083602082850101111561175e57600080fd5b9250929050565b60008060008060008060a0878903121561177e57600080fd5b611787876116d6565b9550611795602088016116d6565b94506040870135935060608701359250608087013567ffffffffffffffff8111156117bf57600080fd5b6117cb89828a0161171c565b979a9699509497509295939492505050565b6000806000606084860312156117f257600080fd5b6117fb846116d6565b9250611809602085016116d6565b9150604084013590509250925092565b60006020828403121561182b57600080fd5b5035919050565b6000806040838503121561184557600080fd5b82359150611855602084016116d6565b90509250929050565b600080600080600060a0868803121561187657600080fd5b61187f866116d6565b945061188d602087016116d6565b94979496505050506040830135926060810135926080909101359150565b6000602082840312156118bd57600080fd5b6116cf826116d6565b6000815180845260005b818110156118ec576020818501810151868301820152016118d0565b506000602082860101526020601f19601f83011685010191505092915050565b60ff60f81b881681526000602060e0602084015261192d60e084018a6118c6565b838103604085015261193f818a6118c6565b606085018990526001600160a01b038816608086015260a0850187905284810360c08601528551808252602080880193509091019060005b8181101561199357835183529284019291840191600101611977565b50909c9b505050505050505050505050565b600080604083850312156119b857600080fd5b6119c1836116d6565b9150611855602084016116d6565b600080600080600080600060c0888a0312156119ea57600080fd5b6119f3886116d6565b9650611a01602089016116d6565b955060408801359450606088013593506080880135925060a088013567ffffffffffffffff811115611a3257600080fd5b611a3e8a828b0161171c565b989b979a50959850939692959293505050565b8015158114610e8957600080fd5b60008060408385031215611a7257600080fd5b611a7b836116d6565b91506020830135611a8b81611a51565b809150509250929050565b600060208284031215611aa857600080fd5b81516116cf81611a51565b6040815282604082015282846060830137600060608483018101919091529115156020820152601f909201601f191690910101919050565b634e487b7160e01b600052601160045260246000fd5b808201808211156104bf576104bf611aeb565b634e487b7160e01b600052604160045260246000fd5b600181811c90821680611b3e57607f821691505b602082108103611b5e57634e487b7160e01b600052602260045260246000fd5b50919050565b604081526000611b7760408301856118c6565b905060018060a01b03831660208301529392505050565b601f8211156109a0576000816000526020600020601f850160051c81016020861015611bb75750805b601f850160051c820191505b8181101561078057828155600101611bc3565b815167ffffffffffffffff811115611bf057611bf0611b14565b611c0481611bfe8454611b2a565b84611b8e565b602080601f831160018114611c395760008415611c215750858301515b600019600386901b1c1916600185901b178555610780565b600085815260208120601f198616915b82811015611c6857888601518255948401946001909101908401611c49565b5085821015611c865787850151600019600388901b60f8161c191681555b5050505050600190811b01905550565b818103818111156104bf576104bf611aeb565b60008085851115611cb957600080fd5b83861115611cc657600080fd5b5050820193919092039150565b6bffffffffffffffffffffffff198135818116916014851015611d005780818660140360031b1b83161692505b505092915050565b634e487b7160e01b600052602160045260246000fdfea16a46d94261c7517cc8ff89f61c0ce93598e3c849801011dee649a6a557d10002dd7bc7dec4dceedda775e58dd541e08a116c6c53815c0bd028192f7b626800a49807205ce4d355092ef5a8a18f56e8913cf4a201fbe287825b095693c21775a264697066735822122086f40c3335c0f8f442c30a4f4c467b37ba57e4a1404a5559b9b0f90d0d6e8bf564736f6c63430008160033",
  "linkReferences": {},
  "deployedLinkReferences": {}
}